{
  "contractName": "DelegateApprovals",
  "abi": [
    {
      "constant": false,
      "inputs": [
        {
          "name": "_owner",
          "type": "address"
        }
      ],
      "name": "nominateNewOwner",
      "outputs": [],
      "payable": false,
      "stateMutability": "nonpayable",
      "type": "function"
    },
    {
      "constant": false,
      "inputs": [
        {
          "name": "_associatedContract",
          "type": "address"
        }
      ],
      "name": "setAssociatedContract",
      "outputs": [],
      "payable": false,
      "stateMutability": "nonpayable",
      "type": "function"
    },
    {
      "constant": true,
      "inputs": [],
      "name": "nominatedOwner",
      "outputs": [
        {
          "name": "",
          "type": "address"
        }
      ],
      "payable": false,
      "stateMutability": "view",
      "type": "function"
    },
    {
      "constant": false,
      "inputs": [],
      "name": "acceptOwnership",
      "outputs": [],
      "payable": false,
      "stateMutability": "nonpayable",
      "type": "function"
    },
    {
      "constant": true,
      "inputs": [],
      "name": "owner",
      "outputs": [
        {
          "name": "",
          "type": "address"
        }
      ],
      "payable": false,
      "stateMutability": "view",
      "type": "function"
    },
    {
      "constant": true,
      "inputs": [],
      "name": "associatedContract",
      "outputs": [
        {
          "name": "",
          "type": "address"
        }
      ],
      "payable": false,
      "stateMutability": "view",
      "type": "function"
    },
    {
      "constant": true,
      "inputs": [
        {
          "name": "",
          "type": "address"
        },
        {
          "name": "",
          "type": "address"
        }
      ],
      "name": "approval",
      "outputs": [
        {
          "name": "",
          "type": "bool"
        }
      ],
      "payable": false,
      "stateMutability": "view",
      "type": "function"
    },
    {
      "inputs": [
        {
          "name": "_owner",
          "type": "address"
        },
        {
          "name": "_associatedContract",
          "type": "address"
        }
      ],
      "payable": false,
      "stateMutability": "nonpayable",
      "type": "constructor"
    },
    {
      "anonymous": false,
      "inputs": [
        {
          "indexed": true,
          "name": "authoriser",
          "type": "address"
        },
        {
          "indexed": false,
          "name": "delegate",
          "type": "address"
        }
      ],
      "name": "Approval",
      "type": "event"
    },
    {
      "anonymous": false,
      "inputs": [
        {
          "indexed": true,
          "name": "authoriser",
          "type": "address"
        },
        {
          "indexed": false,
          "name": "delegate",
          "type": "address"
        }
      ],
      "name": "WithdrawApproval",
      "type": "event"
    },
    {
      "anonymous": false,
      "inputs": [
        {
          "indexed": false,
          "name": "associatedContract",
          "type": "address"
        }
      ],
      "name": "AssociatedContractUpdated",
      "type": "event"
    },
    {
      "anonymous": false,
      "inputs": [
        {
          "indexed": false,
          "name": "newOwner",
          "type": "address"
        }
      ],
      "name": "OwnerNominated",
      "type": "event"
    },
    {
      "anonymous": false,
      "inputs": [
        {
          "indexed": false,
          "name": "oldOwner",
          "type": "address"
        },
        {
          "indexed": false,
          "name": "newOwner",
          "type": "address"
        }
      ],
      "name": "OwnerChanged",
      "type": "event"
    },
    {
      "constant": false,
      "inputs": [
        {
          "name": "authoriser",
          "type": "address"
        },
        {
          "name": "delegate",
          "type": "address"
        }
      ],
      "name": "setApproval",
      "outputs": [],
      "payable": false,
      "stateMutability": "nonpayable",
      "type": "function"
    },
    {
      "constant": false,
      "inputs": [
        {
          "name": "authoriser",
          "type": "address"
        },
        {
          "name": "delegate",
          "type": "address"
        }
      ],
      "name": "withdrawApproval",
      "outputs": [],
      "payable": false,
      "stateMutability": "nonpayable",
      "type": "function"
    }
  ],
  "bytecode": "0x608060405234801561001057600080fd5b506040516040806110428339810180604052810190808051906020019092919080519060200190929190505050818181600073ffffffffffffffffffffffffffffffffffffffff168173ffffffffffffffffffffffffffffffffffffffff16141515156100e5576040517f08c379a00000000000000000000000000000000000000000000000000000000081526004018080602001828103825260198152602001807f4f776e657220616464726573732063616e6e6f7420626520300000000000000081525060200191505060405180910390fd5b806000806101000a81548173ffffffffffffffffffffffffffffffffffffffff021916908373ffffffffffffffffffffffffffffffffffffffff1602179055507fb532073b38c83145e3e5135377a08bf9aab55bc0fd7c1179cd4fb995d2a5159c600082604051808373ffffffffffffffffffffffffffffffffffffffff1673ffffffffffffffffffffffffffffffffffffffff1681526020018273ffffffffffffffffffffffffffffffffffffffff1673ffffffffffffffffffffffffffffffffffffffff1681526020019250505060405180910390a15080600260006101000a81548173ffffffffffffffffffffffffffffffffffffffff021916908373ffffffffffffffffffffffffffffffffffffffff1602179055507f73f20cff579e8a4086fa607db83867595f1b6a798e718c0bfa0b94a404128e0381604051808273ffffffffffffffffffffffffffffffffffffffff1673ffffffffffffffffffffffffffffffffffffffff16815260200191505060405180910390a150505050610dcd806102756000396000f300608060405260043610610099576000357c0100000000000000000000000000000000000000000000000000000000900463ffffffff1680631627540c1461009e57806352f445ca146100e157806353a47bb7146101245780635f0736a11461017b57806379ba5097146101de5780638da5cb5b146101f5578063aefc4ccb1461024c578063b3c12354146102a3578063e1270b6e14610306575b600080fd5b3480156100aa57600080fd5b506100df600480360381019080803573ffffffffffffffffffffffffffffffffffffffff169060200190929190505050610381565b005b3480156100ed57600080fd5b50610122600480360381019080803573ffffffffffffffffffffffffffffffffffffffff169060200190929190505050610512565b005b34801561013057600080fd5b506101396106a3565b604051808273ffffffffffffffffffffffffffffffffffffffff1673ffffffffffffffffffffffffffffffffffffffff16815260200191505060405180910390f35b34801561018757600080fd5b506101dc600480360381019080803573ffffffffffffffffffffffffffffffffffffffff169060200190929190803573ffffffffffffffffffffffffffffffffffffffff1690602001909291905050506106c9565b005b3480156101ea57600080fd5b506101f36108be565b005b34801561020157600080fd5b5061020a610b29565b604051808273ffffffffffffffffffffffffffffffffffffffff1673ffffffffffffffffffffffffffffffffffffffff16815260200191505060405180910390f35b34801561025857600080fd5b50610261610b4e565b604051808273ffffffffffffffffffffffffffffffffffffffff1673ffffffffffffffffffffffffffffffffffffffff16815260200191505060405180910390f35b3480156102af57600080fd5b50610304600480360381019080803573ffffffffffffffffffffffffffffffffffffffff169060200190929190803573ffffffffffffffffffffffffffffffffffffffff169060200190929190505050610b74565b005b34801561031257600080fd5b50610367600480360381019080803573ffffffffffffffffffffffffffffffffffffffff169060200190929190803573ffffffffffffffffffffffffffffffffffffffff169060200190929190505050610d72565b604051808215151515815260200191505060405180910390f35b6000809054906101000a900473ffffffffffffffffffffffffffffffffffffffff1673ffffffffffffffffffffffffffffffffffffffff163373ffffffffffffffffffffffffffffffffffffffff1614151561046b576040517f08c379a000000000000000000000000000000000000000000000000000000000815260040180806020018281038252602f8152602001807f4f6e6c792074686520636f6e7472616374206f776e6572206d6179207065726681526020017f6f726d207468697320616374696f6e000000000000000000000000000000000081525060400191505060405180910390fd5b80600160006101000a81548173ffffffffffffffffffffffffffffffffffffffff021916908373ffffffffffffffffffffffffffffffffffffffff1602179055507f906a1c6bd7e3091ea86693dd029a831c19049ce77f1dce2ce0bab1cacbabce2281604051808273ffffffffffffffffffffffffffffffffffffffff1673ffffffffffffffffffffffffffffffffffffffff16815260200191505060405180910390a150565b6000809054906101000a900473ffffffffffffffffffffffffffffffffffffffff1673ffffffffffffffffffffffffffffffffffffffff163373ffffffffffffffffffffffffffffffffffffffff161415156105fc576040517f08c379a000000000000000000000000000000000000000000000000000000000815260040180806020018281038252602f8152602001807f4f6e6c792074686520636f6e7472616374206f776e6572206d6179207065726681526020017f6f726d207468697320616374696f6e000000000000000000000000000000000081525060400191505060405180910390fd5b80600260006101000a81548173ffffffffffffffffffffffffffffffffffffffff021916908373ffffffffffffffffffffffffffffffffffffffff1602179055507f73f20cff579e8a4086fa607db83867595f1b6a798e718c0bfa0b94a404128e0381604051808273ffffffffffffffffffffffffffffffffffffffff1673ffffffffffffffffffffffffffffffffffffffff16815260200191505060405180910390a150565b600160009054906101000a900473ffffffffffffffffffffffffffffffffffffffff1681565b600260009054906101000a900473ffffffffffffffffffffffffffffffffffffffff1673ffffffffffffffffffffffffffffffffffffffff163373ffffffffffffffffffffffffffffffffffffffff161415156107b4576040517f08c379a00000000000000000000000000000000000000000000000000000000081526004018080602001828103825260348152602001807f4f6e6c7920746865206173736f63696174656420636f6e74726163742063616e81526020017f20706572666f726d207468697320616374696f6e00000000000000000000000081525060400191505060405180910390fd5b600360008373ffffffffffffffffffffffffffffffffffffffff1673ffffffffffffffffffffffffffffffffffffffff16815260200190815260200160002060008273ffffffffffffffffffffffffffffffffffffffff1673ffffffffffffffffffffffffffffffffffffffff16815260200190815260200160002060006101000a81549060ff02191690558173ffffffffffffffffffffffffffffffffffffffff167f16097899efec09cc50ee9db7218e30a5d8d6d2b2549c23e79568bf4a1a8c6f7482604051808273ffffffffffffffffffffffffffffffffffffffff1673ffffffffffffffffffffffffffffffffffffffff16815260200191505060405180910390a25050565b600160009054906101000a900473ffffffffffffffffffffffffffffffffffffffff1673ffffffffffffffffffffffffffffffffffffffff163373ffffffffffffffffffffffffffffffffffffffff161415156109a9576040517f08c379a00000000000000000000000000000000000000000000000000000000081526004018080602001828103825260358152602001807f596f75206d757374206265206e6f6d696e61746564206265666f726520796f7581526020017f2063616e20616363657074206f776e657273686970000000000000000000000081525060400191505060405180910390fd5b7fb532073b38c83145e3e5135377a08bf9aab55bc0fd7c1179cd4fb995d2a5159c6000809054906101000a900473ffffffffffffffffffffffffffffffffffffffff16600160009054906101000a900473ffffffffffffffffffffffffffffffffffffffff16604051808373ffffffffffffffffffffffffffffffffffffffff1673ffffffffffffffffffffffffffffffffffffffff1681526020018273ffffffffffffffffffffffffffffffffffffffff1673ffffffffffffffffffffffffffffffffffffffff1681526020019250505060405180910390a1600160009054906101000a900473ffffffffffffffffffffffffffffffffffffffff166000806101000a81548173ffffffffffffffffffffffffffffffffffffffff021916908373ffffffffffffffffffffffffffffffffffffffff1602179055506000600160006101000a81548173ffffffffffffffffffffffffffffffffffffffff021916908373ffffffffffffffffffffffffffffffffffffffff160217905550565b6000809054906101000a900473ffffffffffffffffffffffffffffffffffffffff1681565b600260009054906101000a900473ffffffffffffffffffffffffffffffffffffffff1681565b600260009054906101000a900473ffffffffffffffffffffffffffffffffffffffff1673ffffffffffffffffffffffffffffffffffffffff163373ffffffffffffffffffffffffffffffffffffffff16141515610c5f576040517f08c379a00000000000000000000000000000000000000000000000000000000081526004018080602001828103825260348152602001807f4f6e6c7920746865206173736f63696174656420636f6e74726163742063616e81526020017f20706572666f726d207468697320616374696f6e00000000000000000000000081525060400191505060405180910390fd5b6001600360008473ffffffffffffffffffffffffffffffffffffffff1673ffffffffffffffffffffffffffffffffffffffff16815260200190815260200160002060008373ffffffffffffffffffffffffffffffffffffffff1673ffffffffffffffffffffffffffffffffffffffff16815260200190815260200160002060006101000a81548160ff0219169083151502179055508173ffffffffffffffffffffffffffffffffffffffff167ff37f546c25e850257cc0c94f92bec94a17e2f0e884ddda268a25d8144b70eb6a82604051808273ffffffffffffffffffffffffffffffffffffffff1673ffffffffffffffffffffffffffffffffffffffff16815260200191505060405180910390a25050565b60036020528160005260406000206020528060005260406000206000915091509054906101000a900460ff16815600a165627a7a723058205224cc98a8d0be5d9b92fd49aa8eb17584bcb44044998d0ccb5422a4a1194a0c0029",
  "source": "/*\n-----------------------------------------------------------------\nFILE INFORMATION\n-----------------------------------------------------------------\n\nfile:       DelegateApprovals.sol\nversion:    1.0\nauthor:     Jackson Chan\nchecked:    Clinton Ennis\ndate:       2019-05-01\n\n-----------------------------------------------------------------\nMODULE DESCRIPTION\n-----------------------------------------------------------------\n\nThe approval state contract is designed to allow a wallet to\nauthorise another address to perform actions, on a contract,\non their behalf. This could be an automated service\nthat would help a wallet claim fees / rewards on their behalf.\n\nThe concept is similar to the ERC20 interface where a wallet can\napprove an authorised party to spend on the authorising party's\nbehalf in the allowance interface.\n\nWithdrawing approval sets the delegate as false instead of\nremoving from the approvals list for auditability.\n\nThis contract inherits state for upgradeability / associated\ncontract.\n\n-----------------------------------------------------------------\n*/\npragma solidity 0.4.25;\n\n\nimport \"./State.sol\";\n\ncontract DelegateApprovals is State {\n\n    // Approvals - [authoriser][delegate]\n    // Each authoriser can have multiple delegates\n    mapping(address => mapping(address => bool)) public approval;\n\n    /**\n     * @dev Constructor\n     * @param _owner The address which controls this contract.\n     * @param _associatedContract The contract whose approval state this composes.\n     */\n    constructor(address _owner, address _associatedContract)\n        State(_owner, _associatedContract)\n        public\n    {}\n\n    function setApproval(address authoriser, address delegate)\n        external\n        onlyAssociatedContract\n    {\n        approval[authoriser][delegate] = true;\n        emit Approval(authoriser, delegate);\n    }\n\n    function withdrawApproval(address authoriser, address delegate)\n        external\n        onlyAssociatedContract\n    {\n        delete approval[authoriser][delegate];\n        emit WithdrawApproval(authoriser, delegate);\n    }\n\n     /* ========== EVENTS ========== */\n\n    event Approval(address indexed authoriser, address delegate);\n    event WithdrawApproval(address indexed authoriser, address delegate);\n}\n",
  "sourcePath": "/Users/hz/workspace/synthetix/contracts/DelegateApprovals.sol",
  "compiler": {
    "name": "solc",
    "version": "0.4.25+commit.59dbf8f1.Emscripten.clang"
  },
  "schemaVersion": "2.0.2",
  "updatedAt": "2019-09-19T02:10:36.434Z"
}