{
  "contractName": "EternalStorage",
  "abi": [
    {
      "constant": false,
      "inputs": [
        {
          "name": "_owner",
          "type": "address"
        }
      ],
      "name": "nominateNewOwner",
      "outputs": [],
      "payable": false,
      "stateMutability": "nonpayable",
      "type": "function"
    },
    {
      "constant": false,
      "inputs": [
        {
          "name": "_associatedContract",
          "type": "address"
        }
      ],
      "name": "setAssociatedContract",
      "outputs": [],
      "payable": false,
      "stateMutability": "nonpayable",
      "type": "function"
    },
    {
      "constant": true,
      "inputs": [],
      "name": "nominatedOwner",
      "outputs": [
        {
          "name": "",
          "type": "address"
        }
      ],
      "payable": false,
      "stateMutability": "view",
      "type": "function"
    },
    {
      "constant": false,
      "inputs": [],
      "name": "acceptOwnership",
      "outputs": [],
      "payable": false,
      "stateMutability": "nonpayable",
      "type": "function"
    },
    {
      "constant": true,
      "inputs": [],
      "name": "owner",
      "outputs": [
        {
          "name": "",
          "type": "address"
        }
      ],
      "payable": false,
      "stateMutability": "view",
      "type": "function"
    },
    {
      "constant": true,
      "inputs": [],
      "name": "associatedContract",
      "outputs": [
        {
          "name": "",
          "type": "address"
        }
      ],
      "payable": false,
      "stateMutability": "view",
      "type": "function"
    },
    {
      "inputs": [
        {
          "name": "_owner",
          "type": "address"
        },
        {
          "name": "_associatedContract",
          "type": "address"
        }
      ],
      "payable": false,
      "stateMutability": "nonpayable",
      "type": "constructor"
    },
    {
      "anonymous": false,
      "inputs": [
        {
          "indexed": false,
          "name": "associatedContract",
          "type": "address"
        }
      ],
      "name": "AssociatedContractUpdated",
      "type": "event"
    },
    {
      "anonymous": false,
      "inputs": [
        {
          "indexed": false,
          "name": "newOwner",
          "type": "address"
        }
      ],
      "name": "OwnerNominated",
      "type": "event"
    },
    {
      "anonymous": false,
      "inputs": [
        {
          "indexed": false,
          "name": "oldOwner",
          "type": "address"
        },
        {
          "indexed": false,
          "name": "newOwner",
          "type": "address"
        }
      ],
      "name": "OwnerChanged",
      "type": "event"
    },
    {
      "constant": true,
      "inputs": [
        {
          "name": "record",
          "type": "bytes32"
        }
      ],
      "name": "getUIntValue",
      "outputs": [
        {
          "name": "",
          "type": "uint256"
        }
      ],
      "payable": false,
      "stateMutability": "view",
      "type": "function"
    },
    {
      "constant": false,
      "inputs": [
        {
          "name": "record",
          "type": "bytes32"
        },
        {
          "name": "value",
          "type": "uint256"
        }
      ],
      "name": "setUIntValue",
      "outputs": [],
      "payable": false,
      "stateMutability": "nonpayable",
      "type": "function"
    },
    {
      "constant": false,
      "inputs": [
        {
          "name": "record",
          "type": "bytes32"
        }
      ],
      "name": "deleteUIntValue",
      "outputs": [],
      "payable": false,
      "stateMutability": "nonpayable",
      "type": "function"
    },
    {
      "constant": true,
      "inputs": [
        {
          "name": "record",
          "type": "bytes32"
        }
      ],
      "name": "getStringValue",
      "outputs": [
        {
          "name": "",
          "type": "string"
        }
      ],
      "payable": false,
      "stateMutability": "view",
      "type": "function"
    },
    {
      "constant": false,
      "inputs": [
        {
          "name": "record",
          "type": "bytes32"
        },
        {
          "name": "value",
          "type": "string"
        }
      ],
      "name": "setStringValue",
      "outputs": [],
      "payable": false,
      "stateMutability": "nonpayable",
      "type": "function"
    },
    {
      "constant": false,
      "inputs": [
        {
          "name": "record",
          "type": "bytes32"
        }
      ],
      "name": "deleteStringValue",
      "outputs": [],
      "payable": false,
      "stateMutability": "nonpayable",
      "type": "function"
    },
    {
      "constant": true,
      "inputs": [
        {
          "name": "record",
          "type": "bytes32"
        }
      ],
      "name": "getAddressValue",
      "outputs": [
        {
          "name": "",
          "type": "address"
        }
      ],
      "payable": false,
      "stateMutability": "view",
      "type": "function"
    },
    {
      "constant": false,
      "inputs": [
        {
          "name": "record",
          "type": "bytes32"
        },
        {
          "name": "value",
          "type": "address"
        }
      ],
      "name": "setAddressValue",
      "outputs": [],
      "payable": false,
      "stateMutability": "nonpayable",
      "type": "function"
    },
    {
      "constant": false,
      "inputs": [
        {
          "name": "record",
          "type": "bytes32"
        }
      ],
      "name": "deleteAddressValue",
      "outputs": [],
      "payable": false,
      "stateMutability": "nonpayable",
      "type": "function"
    },
    {
      "constant": true,
      "inputs": [
        {
          "name": "record",
          "type": "bytes32"
        }
      ],
      "name": "getBytesValue",
      "outputs": [
        {
          "name": "",
          "type": "bytes"
        }
      ],
      "payable": false,
      "stateMutability": "view",
      "type": "function"
    },
    {
      "constant": false,
      "inputs": [
        {
          "name": "record",
          "type": "bytes32"
        },
        {
          "name": "value",
          "type": "bytes"
        }
      ],
      "name": "setBytesValue",
      "outputs": [],
      "payable": false,
      "stateMutability": "nonpayable",
      "type": "function"
    },
    {
      "constant": false,
      "inputs": [
        {
          "name": "record",
          "type": "bytes32"
        }
      ],
      "name": "deleteBytesValue",
      "outputs": [],
      "payable": false,
      "stateMutability": "nonpayable",
      "type": "function"
    },
    {
      "constant": true,
      "inputs": [
        {
          "name": "record",
          "type": "bytes32"
        }
      ],
      "name": "getBytes32Value",
      "outputs": [
        {
          "name": "",
          "type": "bytes32"
        }
      ],
      "payable": false,
      "stateMutability": "view",
      "type": "function"
    },
    {
      "constant": false,
      "inputs": [
        {
          "name": "record",
          "type": "bytes32"
        },
        {
          "name": "value",
          "type": "bytes32"
        }
      ],
      "name": "setBytes32Value",
      "outputs": [],
      "payable": false,
      "stateMutability": "nonpayable",
      "type": "function"
    },
    {
      "constant": false,
      "inputs": [
        {
          "name": "record",
          "type": "bytes32"
        }
      ],
      "name": "deleteBytes32Value",
      "outputs": [],
      "payable": false,
      "stateMutability": "nonpayable",
      "type": "function"
    },
    {
      "constant": true,
      "inputs": [
        {
          "name": "record",
          "type": "bytes32"
        }
      ],
      "name": "getBooleanValue",
      "outputs": [
        {
          "name": "",
          "type": "bool"
        }
      ],
      "payable": false,
      "stateMutability": "view",
      "type": "function"
    },
    {
      "constant": false,
      "inputs": [
        {
          "name": "record",
          "type": "bytes32"
        },
        {
          "name": "value",
          "type": "bool"
        }
      ],
      "name": "setBooleanValue",
      "outputs": [],
      "payable": false,
      "stateMutability": "nonpayable",
      "type": "function"
    },
    {
      "constant": false,
      "inputs": [
        {
          "name": "record",
          "type": "bytes32"
        }
      ],
      "name": "deleteBooleanValue",
      "outputs": [],
      "payable": false,
      "stateMutability": "nonpayable",
      "type": "function"
    },
    {
      "constant": true,
      "inputs": [
        {
          "name": "record",
          "type": "bytes32"
        }
      ],
      "name": "getIntValue",
      "outputs": [
        {
          "name": "",
          "type": "int256"
        }
      ],
      "payable": false,
      "stateMutability": "view",
      "type": "function"
    },
    {
      "constant": false,
      "inputs": [
        {
          "name": "record",
          "type": "bytes32"
        },
        {
          "name": "value",
          "type": "int256"
        }
      ],
      "name": "setIntValue",
      "outputs": [],
      "payable": false,
      "stateMutability": "nonpayable",
      "type": "function"
    },
    {
      "constant": false,
      "inputs": [
        {
          "name": "record",
          "type": "bytes32"
        }
      ],
      "name": "deleteIntValue",
      "outputs": [],
      "payable": false,
      "stateMutability": "nonpayable",
      "type": "function"
    }
  ],
  "bytecode": "0x608060405234801561001057600080fd5b506040516040806125338339810180604052810190808051906020019092919080519060200190929190505050818181600073ffffffffffffffffffffffffffffffffffffffff168173ffffffffffffffffffffffffffffffffffffffff16141515156100e5576040517f08c379a00000000000000000000000000000000000000000000000000000000081526004018080602001828103825260198152602001807f4f776e657220616464726573732063616e6e6f7420626520300000000000000081525060200191505060405180910390fd5b806000806101000a81548173ffffffffffffffffffffffffffffffffffffffff021916908373ffffffffffffffffffffffffffffffffffffffff1602179055507fb532073b38c83145e3e5135377a08bf9aab55bc0fd7c1179cd4fb995d2a5159c600082604051808373ffffffffffffffffffffffffffffffffffffffff1673ffffffffffffffffffffffffffffffffffffffff1681526020018273ffffffffffffffffffffffffffffffffffffffff1673ffffffffffffffffffffffffffffffffffffffff1681526020019250505060405180910390a15080600260006101000a81548173ffffffffffffffffffffffffffffffffffffffff021916908373ffffffffffffffffffffffffffffffffffffffff1602179055507f73f20cff579e8a4086fa607db83867595f1b6a798e718c0bfa0b94a404128e0381604051808273ffffffffffffffffffffffffffffffffffffffff1673ffffffffffffffffffffffffffffffffffffffff16815260200191505060405180910390a1505050506122be806102756000396000f30060806040526004361061015f576000357c0100000000000000000000000000000000000000000000000000000000900463ffffffff168063025ec81a14610164578063043106c0146101b15780630c55d925146101e2578063124f2418146102135780631627540c1461024457806317e7dd221461028757806325cf512d146102d05780633562fd201461030f5780633cc1635c1461034a5780633eba9ed21461037b57806344bfa56e146103b85780634c77e5ba1461046257806352f445ca146104d357806353a47bb7146105165780635a2bf25a1461056d57806379ba5097146105be5780638267a9ee146105d55780638da5cb5b146106065780639007127b1461065d57806393fe4248146106a2578063a209a29c146106d3578063a77aa49e1461077d578063aefc4ccb146107b8578063ba69fcaa1461080f578063bdc963d814610840578063c9a52d2c14610885578063f5866066146108ce575b600080fd5b34801561017057600080fd5b506101936004803603810190808035600019169060200190929190505050610917565b60405180826000191660001916815260200191505060405180910390f35b3480156101bd57600080fd5b506101e0600480360381019080803560001916906020019092919050505061093c565b005b3480156101ee57600080fd5b506102116004803603810190808035600019169060200190929190505050610a68565b005b34801561021f57600080fd5b506102426004803603810190808035600019169060200190929190505050610b7d565b005b34801561025057600080fd5b50610285600480360381019080803573ffffffffffffffffffffffffffffffffffffffff169060200190929190505050610c8a565b005b34801561029357600080fd5b506102b66004803603810190808035600019169060200190929190505050610e1b565b604051808215151515815260200191505060405180910390f35b3480156102dc57600080fd5b5061030d60048036038101908080356000191690602001909291908035600019169060200190929190505050610e4d565b005b34801561031b57600080fd5b50610348600480360381019080803560001916906020019092919080359060200190929190505050610f60565b005b34801561035657600080fd5b50610379600480360381019080803560001916906020019092919050505061106f565b005b34801561038757600080fd5b506103b66004803603810190808035600019169060200190929190803515159060200190929190505050611188565b005b3480156103c457600080fd5b506103e760048036038101908080356000191690602001909291905050506112aa565b6040518080602001828103825283818151815260200191508051906020019080838360005b8381101561042757808201518184015260208101905061040c565b50505050905090810190601f1680156104545780820380516001836020036101000a031916815260200191505b509250505060405180910390f35b34801561046e57600080fd5b506104916004803603810190808035600019169060200190929190505050611367565b604051808273ffffffffffffffffffffffffffffffffffffffff1673ffffffffffffffffffffffffffffffffffffffff16815260200191505060405180910390f35b3480156104df57600080fd5b50610514600480360381019080803573ffffffffffffffffffffffffffffffffffffffff1690602001909291905050506113ac565b005b34801561052257600080fd5b5061052b61153d565b604051808273ffffffffffffffffffffffffffffffffffffffff1673ffffffffffffffffffffffffffffffffffffffff16815260200191505060405180910390f35b34801561057957600080fd5b506105bc6004803603810190808035600019169060200190929190803573ffffffffffffffffffffffffffffffffffffffff169060200190929190505050611563565b005b3480156105ca57600080fd5b506105d36116ac565b005b3480156105e157600080fd5b506106046004803603810190808035600019169060200190929190505050611917565b005b34801561061257600080fd5b5061061b611a24565b604051808273ffffffffffffffffffffffffffffffffffffffff1673ffffffffffffffffffffffffffffffffffffffff16815260200191505060405180910390f35b34801561066957600080fd5b5061068c6004803603810190808035600019169060200190929190505050611a49565b6040518082815260200191505060405180910390f35b3480156106ae57600080fd5b506106d16004803603810190808035600019169060200190929190505050611a6e565b005b3480156106df57600080fd5b506107026004803603810190808035600019169060200190929190505050611b7b565b6040518080602001828103825283818151815260200191508051906020019080838360005b83811015610742578082015181840152602081019050610727565b50505050905090810190601f16801561076f5780820380516001836020036101000a031916815260200191505b509250505060405180910390f35b34801561078957600080fd5b506107b6600480360381019080803560001916906020019092919080359060200190929190505050611c38565b005b3480156107c457600080fd5b506107cd611d47565b604051808273ffffffffffffffffffffffffffffffffffffffff1673ffffffffffffffffffffffffffffffffffffffff16815260200191505060405180910390f35b34801561081b57600080fd5b5061083e6004803603810190808035600019169060200190929190505050611d6d565b005b34801561084c57600080fd5b5061086f6004803603810190808035600019169060200190929190505050611e82565b6040518082815260200191505060405180910390f35b34801561089157600080fd5b506108cc6004803603810190808035600019169060200190929190803590602001908201803590602001919091929391929390505050611ea7565b005b3480156108da57600080fd5b506109156004803603810190808035600019169060200190929190803590602001908201803590602001919091929391929390505050611fc2565b005b6000600760008360001916600019168152602001908152602001600020549050919050565b600260009054906101000a900473ffffffffffffffffffffffffffffffffffffffff1673ffffffffffffffffffffffffffffffffffffffff163373ffffffffffffffffffffffffffffffffffffffff16141515610a27576040517f08c379a00000000000000000000000000000000000000000000000000000000081526004018080602001828103825260348152602001807f4f6e6c7920746865206173736f63696174656420636f6e74726163742063616e81526020017f20706572666f726d207468697320616374696f6e00000000000000000000000081525060400191505060405180910390fd5b60056000826000191660001916815260200190815260200160002060006101000a81549073ffffffffffffffffffffffffffffffffffffffff021916905550565b600260009054906101000a900473ffffffffffffffffffffffffffffffffffffffff1673ffffffffffffffffffffffffffffffffffffffff163373ffffffffffffffffffffffffffffffffffffffff16141515610b53576040517f08c379a00000000000000000000000000000000000000000000000000000000081526004018080602001828103825260348152602001807f4f6e6c7920746865206173736f63696174656420636f6e74726163742063616e81526020017f20706572666f726d207468697320616374696f6e00000000000000000000000081525060400191505060405180910390fd5b6006600082600019166000191681526020019081526020016000206000610b7a91906120dd565b50565b600260009054906101000a900473ffffffffffffffffffffffffffffffffffffffff1673ffffffffffffffffffffffffffffffffffffffff163373ffffffffffffffffffffffffffffffffffffffff16141515610c68576040517f08c379a00000000000000000000000000000000000000000000000000000000081526004018080602001828103825260348152602001807f4f6e6c7920746865206173736f63696174656420636f6e74726163742063616e81526020017f20706572666f726d207468697320616374696f6e00000000000000000000000081525060400191505060405180910390fd5b6007600082600019166000191681526020019081526020016000206000905550565b6000809054906101000a900473ffffffffffffffffffffffffffffffffffffffff1673ffffffffffffffffffffffffffffffffffffffff163373ffffffffffffffffffffffffffffffffffffffff16141515610d74576040517f08c379a000000000000000000000000000000000000000000000000000000000815260040180806020018281038252602f8152602001807f4f6e6c792074686520636f6e7472616374206f776e6572206d6179207065726681526020017f6f726d207468697320616374696f6e000000000000000000000000000000000081525060400191505060405180910390fd5b80600160006101000a81548173ffffffffffffffffffffffffffffffffffffffff021916908373ffffffffffffffffffffffffffffffffffffffff1602179055507f906a1c6bd7e3091ea86693dd029a831c19049ce77f1dce2ce0bab1cacbabce2281604051808273ffffffffffffffffffffffffffffffffffffffff1673ffffffffffffffffffffffffffffffffffffffff16815260200191505060405180910390a150565b600060086000836000191660001916815260200190815260200160002060009054906101000a900460ff169050919050565b600260009054906101000a900473ffffffffffffffffffffffffffffffffffffffff1673ffffffffffffffffffffffffffffffffffffffff163373ffffffffffffffffffffffffffffffffffffffff16141515610f38576040517f08c379a00000000000000000000000000000000000000000000000000000000081526004018080602001828103825260348152602001807f4f6e6c7920746865206173736f63696174656420636f6e74726163742063616e81526020017f20706572666f726d207468697320616374696f6e00000000000000000000000081525060400191505060405180910390fd5b8060076000846000191660001916815260200190815260200160002081600019169055505050565b600260009054906101000a900473ffffffffffffffffffffffffffffffffffffffff1673ffffffffffffffffffffffffffffffffffffffff163373ffffffffffffffffffffffffffffffffffffffff1614151561104b576040517f08c379a00000000000000000000000000000000000000000000000000000000081526004018080602001828103825260348152602001807f4f6e6c7920746865206173736f63696174656420636f6e74726163742063616e81526020017f20706572666f726d207468697320616374696f6e00000000000000000000000081525060400191505060405180910390fd5b80600360008460001916600019168152602001908152602001600020819055505050565b600260009054906101000a900473ffffffffffffffffffffffffffffffffffffffff1673ffffffffffffffffffffffffffffffffffffffff163373ffffffffffffffffffffffffffffffffffffffff1614151561115a576040517f08c379a00000000000000000000000000000000000000000000000000000000081526004018080602001828103825260348152602001807f4f6e6c7920746865206173736f63696174656420636f6e74726163742063616e81526020017f20706572666f726d207468697320616374696f6e00000000000000000000000081525060400191505060405180910390fd5b60086000826000191660001916815260200190815260200160002060006101000a81549060ff021916905550565b600260009054906101000a900473ffffffffffffffffffffffffffffffffffffffff1673ffffffffffffffffffffffffffffffffffffffff163373ffffffffffffffffffffffffffffffffffffffff16141515611273576040517f08c379a00000000000000000000000000000000000000000000000000000000081526004018080602001828103825260348152602001807f4f6e6c7920746865206173736f63696174656420636f6e74726163742063616e81526020017f20706572666f726d207468697320616374696f6e00000000000000000000000081525060400191505060405180910390fd5b8060086000846000191660001916815260200190815260200160002060006101000a81548160ff0219169083151502179055505050565b60606006600083600019166000191681526020019081526020016000208054600181600116156101000203166002900480601f01602080910402602001604051908101604052809291908181526020018280546001816001161561010002031660029004801561135b5780601f106113305761010080835404028352916020019161135b565b820191906000526020600020905b81548152906001019060200180831161133e57829003601f168201915b50505050509050919050565b600060056000836000191660001916815260200190815260200160002060009054906101000a900473ffffffffffffffffffffffffffffffffffffffff169050919050565b6000809054906101000a900473ffffffffffffffffffffffffffffffffffffffff1673ffffffffffffffffffffffffffffffffffffffff163373ffffffffffffffffffffffffffffffffffffffff16141515611496576040517f08c379a000000000000000000000000000000000000000000000000000000000815260040180806020018281038252602f8152602001807f4f6e6c792074686520636f6e7472616374206f776e6572206d6179207065726681526020017f6f726d207468697320616374696f6e000000000000000000000000000000000081525060400191505060405180910390fd5b80600260006101000a81548173ffffffffffffffffffffffffffffffffffffffff021916908373ffffffffffffffffffffffffffffffffffffffff1602179055507f73f20cff579e8a4086fa607db83867595f1b6a798e718c0bfa0b94a404128e0381604051808273ffffffffffffffffffffffffffffffffffffffff1673ffffffffffffffffffffffffffffffffffffffff16815260200191505060405180910390a150565b600160009054906101000a900473ffffffffffffffffffffffffffffffffffffffff1681565b600260009054906101000a900473ffffffffffffffffffffffffffffffffffffffff1673ffffffffffffffffffffffffffffffffffffffff163373ffffffffffffffffffffffffffffffffffffffff1614151561164e576040517f08c379a00000000000000000000000000000000000000000000000000000000081526004018080602001828103825260348152602001807f4f6e6c7920746865206173736f63696174656420636f6e74726163742063616e81526020017f20706572666f726d207468697320616374696f6e00000000000000000000000081525060400191505060405180910390fd5b8060056000846000191660001916815260200190815260200160002060006101000a81548173ffffffffffffffffffffffffffffffffffffffff021916908373ffffffffffffffffffffffffffffffffffffffff1602179055505050565b600160009054906101000a900473ffffffffffffffffffffffffffffffffffffffff1673ffffffffffffffffffffffffffffffffffffffff163373ffffffffffffffffffffffffffffffffffffffff16141515611797576040517f08c379a00000000000000000000000000000000000000000000000000000000081526004018080602001828103825260358152602001807f596f75206d757374206265206e6f6d696e61746564206265666f726520796f7581526020017f2063616e20616363657074206f776e657273686970000000000000000000000081525060400191505060405180910390fd5b7fb532073b38c83145e3e5135377a08bf9aab55bc0fd7c1179cd4fb995d2a5159c6000809054906101000a900473ffffffffffffffffffffffffffffffffffffffff16600160009054906101000a900473ffffffffffffffffffffffffffffffffffffffff16604051808373ffffffffffffffffffffffffffffffffffffffff1673ffffffffffffffffffffffffffffffffffffffff1681526020018273ffffffffffffffffffffffffffffffffffffffff1673ffffffffffffffffffffffffffffffffffffffff1681526020019250505060405180910390a1600160009054906101000a900473ffffffffffffffffffffffffffffffffffffffff166000806101000a81548173ffffffffffffffffffffffffffffffffffffffff021916908373ffffffffffffffffffffffffffffffffffffffff1602179055506000600160006101000a81548173ffffffffffffffffffffffffffffffffffffffff021916908373ffffffffffffffffffffffffffffffffffffffff160217905550565b600260009054906101000a900473ffffffffffffffffffffffffffffffffffffffff1673ffffffffffffffffffffffffffffffffffffffff163373ffffffffffffffffffffffffffffffffffffffff16141515611a02576040517f08c379a00000000000000000000000000000000000000000000000000000000081526004018080602001828103825260348152602001807f4f6e6c7920746865206173736f63696174656420636f6e74726163742063616e81526020017f20706572666f726d207468697320616374696f6e00000000000000000000000081525060400191505060405180910390fd5b6009600082600019166000191681526020019081526020016000206000905550565b6000809054906101000a900473ffffffffffffffffffffffffffffffffffffffff1681565b6000600960008360001916600019168152602001908152602001600020549050919050565b600260009054906101000a900473ffffffffffffffffffffffffffffffffffffffff1673ffffffffffffffffffffffffffffffffffffffff163373ffffffffffffffffffffffffffffffffffffffff16141515611b59576040517f08c379a00000000000000000000000000000000000000000000000000000000081526004018080602001828103825260348152602001807f4f6e6c7920746865206173736f63696174656420636f6e74726163742063616e81526020017f20706572666f726d207468697320616374696f6e00000000000000000000000081525060400191505060405180910390fd5b6003600082600019166000191681526020019081526020016000206000905550565b60606004600083600019166000191681526020019081526020016000208054600181600116156101000203166002900480601f016020809104026020016040519081016040528092919081815260200182805460018160011615610100020316600290048015611c2c5780601f10611c0157610100808354040283529160200191611c2c565b820191906000526020600020905b815481529060010190602001808311611c0f57829003601f168201915b50505050509050919050565b600260009054906101000a900473ffffffffffffffffffffffffffffffffffffffff1673ffffffffffffffffffffffffffffffffffffffff163373ffffffffffffffffffffffffffffffffffffffff16141515611d23576040517f08c379a00000000000000000000000000000000000000000000000000000000081526004018080602001828103825260348152602001807f4f6e6c7920746865206173736f63696174656420636f6e74726163742063616e81526020017f20706572666f726d207468697320616374696f6e00000000000000000000000081525060400191505060405180910390fd5b80600960008460001916600019168152602001908152602001600020819055505050565b600260009054906101000a900473ffffffffffffffffffffffffffffffffffffffff1681565b600260009054906101000a900473ffffffffffffffffffffffffffffffffffffffff1673ffffffffffffffffffffffffffffffffffffffff163373ffffffffffffffffffffffffffffffffffffffff16141515611e58576040517f08c379a00000000000000000000000000000000000000000000000000000000081526004018080602001828103825260348152602001807f4f6e6c7920746865206173736f63696174656420636f6e74726163742063616e81526020017f20706572666f726d207468697320616374696f6e00000000000000000000000081525060400191505060405180910390fd5b6004600082600019166000191681526020019081526020016000206000611e7f9190612125565b50565b6000600360008360001916600019168152602001908152602001600020549050919050565b600260009054906101000a900473ffffffffffffffffffffffffffffffffffffffff1673ffffffffffffffffffffffffffffffffffffffff163373ffffffffffffffffffffffffffffffffffffffff16141515611f92576040517f08c379a00000000000000000000000000000000000000000000000000000000081526004018080602001828103825260348152602001807f4f6e6c7920746865206173736f63696174656420636f6e74726163742063616e81526020017f20706572666f726d207468697320616374696f6e00000000000000000000000081525060400191505060405180910390fd5b81816006600086600019166000191681526020019081526020016000209190611fbc92919061216d565b50505050565b600260009054906101000a900473ffffffffffffffffffffffffffffffffffffffff1673ffffffffffffffffffffffffffffffffffffffff163373ffffffffffffffffffffffffffffffffffffffff161415156120ad576040517f08c379a00000000000000000000000000000000000000000000000000000000081526004018080602001828103825260348152602001807f4f6e6c7920746865206173736f63696174656420636f6e74726163742063616e81526020017f20706572666f726d207468697320616374696f6e00000000000000000000000081525060400191505060405180910390fd5b818160046000866000191660001916815260200190815260200160002091906120d79291906121ed565b50505050565b50805460018160011615610100020316600290046000825580601f106121035750612122565b601f016020900490600052602060002090810190612121919061226d565b5b50565b50805460018160011615610100020316600290046000825580601f1061214b575061216a565b601f016020900490600052602060002090810190612169919061226d565b5b50565b828054600181600116156101000203166002900490600052602060002090601f016020900481019282601f106121ae57803560ff19168380011785556121dc565b828001600101855582156121dc579182015b828111156121db5782358255916020019190600101906121c0565b5b5090506121e9919061226d565b5090565b828054600181600116156101000203166002900490600052602060002090601f016020900481019282601f1061222e57803560ff191683800117855561225c565b8280016001018555821561225c579182015b8281111561225b578235825591602001919060010190612240565b5b509050612269919061226d565b5090565b61228f91905b8082111561228b576000816000905550600101612273565b5090565b905600a165627a7a723058207f7a60a233eea471c56e4121e0636f0ac13a47a34194229007444cb53415ac760029",
  "source": "/*\n-----------------------------------------------------------------\nFILE INFORMATION\n-----------------------------------------------------------------\n\nfile:       EternalStorage.sol\nversion:    1.0\nauthor:     Clinton Ennise\n            Jackson Chan\n\ndate:       2019-02-01\n\n-----------------------------------------------------------------\nMODULE DESCRIPTION\n-----------------------------------------------------------------\n\nThis contract is used with external state storage contracts for\ndecoupled data storage.\n\nImplements support for storing a keccak256 key and value pairs. It is\nthe more flexible and extensible option. This ensures data schema\nchanges can be implemented without requiring upgrades to the\nstorage contract\n\nThe first deployed storage contract would create this eternal storage.\nFavour use of keccak256 key over sha3 as future version of solidity\n> 0.5.0 will be deprecated.\n\n-----------------------------------------------------------------\n*/\n\npragma solidity 0.4.25;\nimport \"./State.sol\";\n\n/**\n * @notice  This contract is based on the code available from this blog\n * https://blog.colony.io/writing-upgradeable-contracts-in-solidity-6743f0eecc88/\n * Implements support for storing a keccak256 key and value pairs. It is the more flexible\n * and extensible option. This ensures data schema changes can be implemented without\n * requiring upgrades to the storage contract.\n */\ncontract EternalStorage is State {\n\n    constructor(address _owner, address _associatedContract)\n        State(_owner, _associatedContract)\n        public\n    {\n    }\n\n    /* ========== DATA TYPES ========== */\n    mapping(bytes32 => uint) UIntStorage;\n    mapping(bytes32 => string) StringStorage;\n    mapping(bytes32 => address) AddressStorage;\n    mapping(bytes32 => bytes) BytesStorage;\n    mapping(bytes32 => bytes32) Bytes32Storage;\n    mapping(bytes32 => bool) BooleanStorage;\n    mapping(bytes32 => int) IntStorage;\n\n    // UIntStorage;\n    function getUIntValue(bytes32 record) external view returns (uint){\n        return UIntStorage[record];\n    }\n\n    function setUIntValue(bytes32 record, uint value) external\n        onlyAssociatedContract\n    {\n        UIntStorage[record] = value;\n    }\n\n    function deleteUIntValue(bytes32 record) external\n        onlyAssociatedContract\n    {\n        delete UIntStorage[record];\n    }\n\n    // StringStorage\n    function getStringValue(bytes32 record) external view returns (string memory){\n        return StringStorage[record];\n    }\n\n    function setStringValue(bytes32 record, string value) external\n        onlyAssociatedContract\n    {\n        StringStorage[record] = value;\n    }\n\n    function deleteStringValue(bytes32 record) external\n        onlyAssociatedContract\n    {\n        delete StringStorage[record];\n    }\n\n    // AddressStorage\n    function getAddressValue(bytes32 record) external view returns (address){\n        return AddressStorage[record];\n    }\n\n    function setAddressValue(bytes32 record, address value) external\n        onlyAssociatedContract\n    {\n        AddressStorage[record] = value;\n    }\n\n    function deleteAddressValue(bytes32 record) external\n        onlyAssociatedContract\n    {\n        delete AddressStorage[record];\n    }\n\n\n    // BytesStorage\n    function getBytesValue(bytes32 record) external view returns\n    (bytes memory){\n        return BytesStorage[record];\n    }\n\n    function setBytesValue(bytes32 record, bytes value) external\n        onlyAssociatedContract\n    {\n        BytesStorage[record] = value;\n    }\n\n    function deleteBytesValue(bytes32 record) external\n        onlyAssociatedContract\n    {\n        delete BytesStorage[record];\n    }\n\n    // Bytes32Storage\n    function getBytes32Value(bytes32 record) external view returns (bytes32)\n    {\n        return Bytes32Storage[record];\n    }\n\n    function setBytes32Value(bytes32 record, bytes32 value) external\n        onlyAssociatedContract\n    {\n        Bytes32Storage[record] = value;\n    }\n\n    function deleteBytes32Value(bytes32 record) external\n        onlyAssociatedContract\n    {\n        delete Bytes32Storage[record];\n    }\n\n    // BooleanStorage\n    function getBooleanValue(bytes32 record) external view returns (bool)\n    {\n        return BooleanStorage[record];\n    }\n\n    function setBooleanValue(bytes32 record, bool value) external\n        onlyAssociatedContract\n    {\n        BooleanStorage[record] = value;\n    }\n\n    function deleteBooleanValue(bytes32 record) external\n        onlyAssociatedContract\n    {\n        delete BooleanStorage[record];\n    }\n\n    // IntStorage\n    function getIntValue(bytes32 record) external view returns (int){\n        return IntStorage[record];\n    }\n\n    function setIntValue(bytes32 record, int value) external\n        onlyAssociatedContract\n    {\n        IntStorage[record] = value;\n    }\n\n    function deleteIntValue(bytes32 record) external\n        onlyAssociatedContract\n    {\n        delete IntStorage[record];\n    }\n}",
  "sourcePath": "/Users/hz/workspace/synthetix/contracts/EternalStorage.sol",
  "compiler": {
    "name": "solc",
    "version": "0.4.25+commit.59dbf8f1.Emscripten.clang"
  },
  "schemaVersion": "2.0.2",
  "updatedAt": "2019-09-19T02:10:36.447Z"
}