{
  "contractName": "FeePool",
  "abi": [
    {
      "constant": true,
      "inputs": [],
      "name": "exchangeFeeRate",
      "outputs": [
        {
          "name": "",
          "type": "uint256"
        }
      ],
      "payable": false,
      "stateMutability": "view",
      "type": "function"
    },
    {
      "constant": false,
      "inputs": [
        {
          "name": "_integrationProxy",
          "type": "address"
        }
      ],
      "name": "setIntegrationProxy",
      "outputs": [],
      "payable": false,
      "stateMutability": "nonpayable",
      "type": "function"
    },
    {
      "constant": false,
      "inputs": [
        {
          "name": "_owner",
          "type": "address"
        }
      ],
      "name": "nominateNewOwner",
      "outputs": [],
      "payable": false,
      "stateMutability": "nonpayable",
      "type": "function"
    },
    {
      "constant": true,
      "inputs": [],
      "name": "initiationTime",
      "outputs": [
        {
          "name": "",
          "type": "uint256"
        }
      ],
      "payable": false,
      "stateMutability": "view",
      "type": "function"
    },
    {
      "constant": false,
      "inputs": [
        {
          "name": "_beneficiary",
          "type": "address"
        }
      ],
      "name": "setSelfDestructBeneficiary",
      "outputs": [],
      "payable": false,
      "stateMutability": "nonpayable",
      "type": "function"
    },
    {
      "constant": true,
      "inputs": [],
      "name": "feePeriodDuration",
      "outputs": [
        {
          "name": "",
          "type": "uint256"
        }
      ],
      "payable": false,
      "stateMutability": "view",
      "type": "function"
    },
    {
      "constant": false,
      "inputs": [],
      "name": "terminateSelfDestruct",
      "outputs": [],
      "payable": false,
      "stateMutability": "nonpayable",
      "type": "function"
    },
    {
      "constant": true,
      "inputs": [],
      "name": "transferFeeRate",
      "outputs": [
        {
          "name": "",
          "type": "uint256"
        }
      ],
      "payable": false,
      "stateMutability": "view",
      "type": "function"
    },
    {
      "constant": true,
      "inputs": [
        {
          "name": "",
          "type": "uint256"
        }
      ],
      "name": "recentFeePeriods",
      "outputs": [
        {
          "name": "feePeriodId",
          "type": "uint256"
        },
        {
          "name": "startingDebtIndex",
          "type": "uint256"
        },
        {
          "name": "startTime",
          "type": "uint256"
        },
        {
          "name": "feesToDistribute",
          "type": "uint256"
        },
        {
          "name": "feesClaimed",
          "type": "uint256"
        },
        {
          "name": "rewardsToDistribute",
          "type": "uint256"
        },
        {
          "name": "rewardsClaimed",
          "type": "uint256"
        }
      ],
      "payable": false,
      "stateMutability": "view",
      "type": "function"
    },
    {
      "constant": true,
      "inputs": [],
      "name": "feePoolEternalStorage",
      "outputs": [
        {
          "name": "",
          "type": "address"
        }
      ],
      "payable": false,
      "stateMutability": "view",
      "type": "function"
    },
    {
      "constant": true,
      "inputs": [],
      "name": "nominatedOwner",
      "outputs": [
        {
          "name": "",
          "type": "address"
        }
      ],
      "payable": false,
      "stateMutability": "view",
      "type": "function"
    },
    {
      "constant": true,
      "inputs": [],
      "name": "delegates",
      "outputs": [
        {
          "name": "",
          "type": "address"
        }
      ],
      "payable": false,
      "stateMutability": "view",
      "type": "function"
    },
    {
      "constant": true,
      "inputs": [],
      "name": "synthetix",
      "outputs": [
        {
          "name": "",
          "type": "address"
        }
      ],
      "payable": false,
      "stateMutability": "view",
      "type": "function"
    },
    {
      "constant": true,
      "inputs": [],
      "name": "MAX_TRANSFER_FEE_RATE",
      "outputs": [
        {
          "name": "",
          "type": "uint256"
        }
      ],
      "payable": false,
      "stateMutability": "view",
      "type": "function"
    },
    {
      "constant": false,
      "inputs": [],
      "name": "acceptOwnership",
      "outputs": [],
      "payable": false,
      "stateMutability": "nonpayable",
      "type": "function"
    },
    {
      "constant": true,
      "inputs": [],
      "name": "owner",
      "outputs": [
        {
          "name": "",
          "type": "address"
        }
      ],
      "payable": false,
      "stateMutability": "view",
      "type": "function"
    },
    {
      "constant": false,
      "inputs": [
        {
          "name": "_proxy",
          "type": "address"
        }
      ],
      "name": "setProxy",
      "outputs": [],
      "payable": false,
      "stateMutability": "nonpayable",
      "type": "function"
    },
    {
      "constant": false,
      "inputs": [],
      "name": "selfDestruct",
      "outputs": [],
      "payable": false,
      "stateMutability": "nonpayable",
      "type": "function"
    },
    {
      "constant": true,
      "inputs": [],
      "name": "integrationProxy",
      "outputs": [
        {
          "name": "",
          "type": "address"
        }
      ],
      "payable": false,
      "stateMutability": "view",
      "type": "function"
    },
    {
      "constant": true,
      "inputs": [],
      "name": "rewardEscrow",
      "outputs": [
        {
          "name": "",
          "type": "address"
        }
      ],
      "payable": false,
      "stateMutability": "view",
      "type": "function"
    },
    {
      "constant": true,
      "inputs": [],
      "name": "SELFDESTRUCT_DELAY",
      "outputs": [
        {
          "name": "",
          "type": "uint256"
        }
      ],
      "payable": false,
      "stateMutability": "view",
      "type": "function"
    },
    {
      "constant": true,
      "inputs": [],
      "name": "TARGET_THRESHOLD",
      "outputs": [
        {
          "name": "",
          "type": "uint256"
        }
      ],
      "payable": false,
      "stateMutability": "view",
      "type": "function"
    },
    {
      "constant": true,
      "inputs": [],
      "name": "selfDestructInitiated",
      "outputs": [
        {
          "name": "",
          "type": "bool"
        }
      ],
      "payable": false,
      "stateMutability": "view",
      "type": "function"
    },
    {
      "constant": false,
      "inputs": [
        {
          "name": "sender",
          "type": "address"
        }
      ],
      "name": "setMessageSender",
      "outputs": [],
      "payable": false,
      "stateMutability": "nonpayable",
      "type": "function"
    },
    {
      "constant": false,
      "inputs": [],
      "name": "initiateSelfDestruct",
      "outputs": [],
      "payable": false,
      "stateMutability": "nonpayable",
      "type": "function"
    },
    {
      "constant": true,
      "inputs": [],
      "name": "selfDestructBeneficiary",
      "outputs": [
        {
          "name": "",
          "type": "address"
        }
      ],
      "payable": false,
      "stateMutability": "view",
      "type": "function"
    },
    {
      "constant": true,
      "inputs": [],
      "name": "FEE_PERIOD_LENGTH",
      "outputs": [
        {
          "name": "",
          "type": "uint8"
        }
      ],
      "payable": false,
      "stateMutability": "view",
      "type": "function"
    },
    {
      "constant": true,
      "inputs": [],
      "name": "rewardsAuthority",
      "outputs": [
        {
          "name": "",
          "type": "address"
        }
      ],
      "payable": false,
      "stateMutability": "view",
      "type": "function"
    },
    {
      "constant": true,
      "inputs": [],
      "name": "MIN_FEE_PERIOD_DURATION",
      "outputs": [
        {
          "name": "",
          "type": "uint256"
        }
      ],
      "payable": false,
      "stateMutability": "view",
      "type": "function"
    },
    {
      "constant": true,
      "inputs": [],
      "name": "synthetixState",
      "outputs": [
        {
          "name": "",
          "type": "address"
        }
      ],
      "payable": false,
      "stateMutability": "view",
      "type": "function"
    },
    {
      "constant": true,
      "inputs": [],
      "name": "feePoolState",
      "outputs": [
        {
          "name": "",
          "type": "address"
        }
      ],
      "payable": false,
      "stateMutability": "view",
      "type": "function"
    },
    {
      "constant": true,
      "inputs": [],
      "name": "FEE_ADDRESS",
      "outputs": [
        {
          "name": "",
          "type": "address"
        }
      ],
      "payable": false,
      "stateMutability": "view",
      "type": "function"
    },
    {
      "constant": true,
      "inputs": [],
      "name": "proxy",
      "outputs": [
        {
          "name": "",
          "type": "address"
        }
      ],
      "payable": false,
      "stateMutability": "view",
      "type": "function"
    },
    {
      "constant": true,
      "inputs": [],
      "name": "MAX_FEE_PERIOD_DURATION",
      "outputs": [
        {
          "name": "",
          "type": "uint256"
        }
      ],
      "payable": false,
      "stateMutability": "view",
      "type": "function"
    },
    {
      "constant": true,
      "inputs": [],
      "name": "MAX_EXCHANGE_FEE_RATE",
      "outputs": [
        {
          "name": "",
          "type": "uint256"
        }
      ],
      "payable": false,
      "stateMutability": "view",
      "type": "function"
    },
    {
      "inputs": [
        {
          "name": "_proxy",
          "type": "address"
        },
        {
          "name": "_owner",
          "type": "address"
        },
        {
          "name": "_synthetix",
          "type": "address"
        },
        {
          "name": "_feePoolState",
          "type": "address"
        },
        {
          "name": "_feePoolEternalStorage",
          "type": "address"
        },
        {
          "name": "_synthetixState",
          "type": "address"
        },
        {
          "name": "_rewardEscrow",
          "type": "address"
        },
        {
          "name": "_rewardsAuthority",
          "type": "address"
        },
        {
          "name": "_transferFeeRate",
          "type": "uint256"
        },
        {
          "name": "_exchangeFeeRate",
          "type": "uint256"
        }
      ],
      "payable": false,
      "stateMutability": "nonpayable",
      "type": "constructor"
    },
    {
      "anonymous": false,
      "inputs": [
        {
          "indexed": true,
          "name": "account",
          "type": "address"
        },
        {
          "indexed": false,
          "name": "debtRatio",
          "type": "uint256"
        },
        {
          "indexed": false,
          "name": "debtEntryIndex",
          "type": "uint256"
        },
        {
          "indexed": false,
          "name": "feePeriodStartingDebtIndex",
          "type": "uint256"
        }
      ],
      "name": "IssuanceDebtRatioEntry",
      "type": "event"
    },
    {
      "anonymous": false,
      "inputs": [
        {
          "indexed": false,
          "name": "newFeeRate",
          "type": "uint256"
        }
      ],
      "name": "TransferFeeUpdated",
      "type": "event"
    },
    {
      "anonymous": false,
      "inputs": [
        {
          "indexed": false,
          "name": "newFeeRate",
          "type": "uint256"
        }
      ],
      "name": "ExchangeFeeUpdated",
      "type": "event"
    },
    {
      "anonymous": false,
      "inputs": [
        {
          "indexed": false,
          "name": "newFeePeriodDuration",
          "type": "uint256"
        }
      ],
      "name": "FeePeriodDurationUpdated",
      "type": "event"
    },
    {
      "anonymous": false,
      "inputs": [
        {
          "indexed": false,
          "name": "feePeriodId",
          "type": "uint256"
        }
      ],
      "name": "FeePeriodClosed",
      "type": "event"
    },
    {
      "anonymous": false,
      "inputs": [
        {
          "indexed": false,
          "name": "account",
          "type": "address"
        },
        {
          "indexed": false,
          "name": "xdrAmount",
          "type": "uint256"
        },
        {
          "indexed": false,
          "name": "snxRewards",
          "type": "uint256"
        }
      ],
      "name": "FeesClaimed",
      "type": "event"
    },
    {
      "anonymous": false,
      "inputs": [],
      "name": "SelfDestructTerminated",
      "type": "event"
    },
    {
      "anonymous": false,
      "inputs": [
        {
          "indexed": false,
          "name": "beneficiary",
          "type": "address"
        }
      ],
      "name": "SelfDestructed",
      "type": "event"
    },
    {
      "anonymous": false,
      "inputs": [
        {
          "indexed": false,
          "name": "selfDestructDelay",
          "type": "uint256"
        }
      ],
      "name": "SelfDestructInitiated",
      "type": "event"
    },
    {
      "anonymous": false,
      "inputs": [
        {
          "indexed": false,
          "name": "newBeneficiary",
          "type": "address"
        }
      ],
      "name": "SelfDestructBeneficiaryUpdated",
      "type": "event"
    },
    {
      "anonymous": false,
      "inputs": [
        {
          "indexed": false,
          "name": "proxyAddress",
          "type": "address"
        }
      ],
      "name": "ProxyUpdated",
      "type": "event"
    },
    {
      "anonymous": false,
      "inputs": [
        {
          "indexed": false,
          "name": "newOwner",
          "type": "address"
        }
      ],
      "name": "OwnerNominated",
      "type": "event"
    },
    {
      "anonymous": false,
      "inputs": [
        {
          "indexed": false,
          "name": "oldOwner",
          "type": "address"
        },
        {
          "indexed": false,
          "name": "newOwner",
          "type": "address"
        }
      ],
      "name": "OwnerChanged",
      "type": "event"
    },
    {
      "constant": false,
      "inputs": [
        {
          "name": "account",
          "type": "address"
        },
        {
          "name": "debtRatio",
          "type": "uint256"
        },
        {
          "name": "debtEntryIndex",
          "type": "uint256"
        }
      ],
      "name": "appendAccountIssuanceRecord",
      "outputs": [],
      "payable": false,
      "stateMutability": "nonpayable",
      "type": "function"
    },
    {
      "constant": false,
      "inputs": [
        {
          "name": "_exchangeFeeRate",
          "type": "uint256"
        }
      ],
      "name": "setExchangeFeeRate",
      "outputs": [],
      "payable": false,
      "stateMutability": "nonpayable",
      "type": "function"
    },
    {
      "constant": false,
      "inputs": [
        {
          "name": "_transferFeeRate",
          "type": "uint256"
        }
      ],
      "name": "setTransferFeeRate",
      "outputs": [],
      "payable": false,
      "stateMutability": "nonpayable",
      "type": "function"
    },
    {
      "constant": false,
      "inputs": [
        {
          "name": "_rewardsAuthority",
          "type": "address"
        }
      ],
      "name": "setRewardsAuthority",
      "outputs": [],
      "payable": false,
      "stateMutability": "nonpayable",
      "type": "function"
    },
    {
      "constant": false,
      "inputs": [
        {
          "name": "_feePoolState",
          "type": "address"
        }
      ],
      "name": "setFeePoolState",
      "outputs": [],
      "payable": false,
      "stateMutability": "nonpayable",
      "type": "function"
    },
    {
      "constant": false,
      "inputs": [
        {
          "name": "_delegates",
          "type": "address"
        }
      ],
      "name": "setDelegateApprovals",
      "outputs": [],
      "payable": false,
      "stateMutability": "nonpayable",
      "type": "function"
    },
    {
      "constant": false,
      "inputs": [
        {
          "name": "_feePeriodDuration",
          "type": "uint256"
        }
      ],
      "name": "setFeePeriodDuration",
      "outputs": [],
      "payable": false,
      "stateMutability": "nonpayable",
      "type": "function"
    },
    {
      "constant": false,
      "inputs": [
        {
          "name": "_synthetix",
          "type": "address"
        }
      ],
      "name": "setSynthetix",
      "outputs": [],
      "payable": false,
      "stateMutability": "nonpayable",
      "type": "function"
    },
    {
      "constant": false,
      "inputs": [
        {
          "name": "_percent",
          "type": "uint256"
        }
      ],
      "name": "setTargetThreshold",
      "outputs": [],
      "payable": false,
      "stateMutability": "nonpayable",
      "type": "function"
    },
    {
      "constant": false,
      "inputs": [
        {
          "name": "currencyKey",
          "type": "bytes4"
        },
        {
          "name": "amount",
          "type": "uint256"
        }
      ],
      "name": "feePaid",
      "outputs": [],
      "payable": false,
      "stateMutability": "nonpayable",
      "type": "function"
    },
    {
      "constant": false,
      "inputs": [
        {
          "name": "amount",
          "type": "uint256"
        }
      ],
      "name": "setRewardsToDistribute",
      "outputs": [],
      "payable": false,
      "stateMutability": "nonpayable",
      "type": "function"
    },
    {
      "constant": false,
      "inputs": [],
      "name": "closeCurrentFeePeriod",
      "outputs": [],
      "payable": false,
      "stateMutability": "nonpayable",
      "type": "function"
    },
    {
      "constant": false,
      "inputs": [
        {
          "name": "currencyKey",
          "type": "bytes4"
        }
      ],
      "name": "claimFees",
      "outputs": [
        {
          "name": "",
          "type": "bool"
        }
      ],
      "payable": false,
      "stateMutability": "nonpayable",
      "type": "function"
    },
    {
      "constant": false,
      "inputs": [
        {
          "name": "claimingForAddress",
          "type": "address"
        },
        {
          "name": "currencyKey",
          "type": "bytes4"
        }
      ],
      "name": "claimOnBehalf",
      "outputs": [
        {
          "name": "",
          "type": "bool"
        }
      ],
      "payable": false,
      "stateMutability": "nonpayable",
      "type": "function"
    },
    {
      "constant": false,
      "inputs": [
        {
          "name": "feePeriodIndex",
          "type": "uint256"
        },
        {
          "name": "feePeriodId",
          "type": "uint256"
        },
        {
          "name": "startingDebtIndex",
          "type": "uint256"
        },
        {
          "name": "startTime",
          "type": "uint256"
        },
        {
          "name": "feesToDistribute",
          "type": "uint256"
        },
        {
          "name": "feesClaimed",
          "type": "uint256"
        },
        {
          "name": "rewardsToDistribute",
          "type": "uint256"
        },
        {
          "name": "rewardsClaimed",
          "type": "uint256"
        }
      ],
      "name": "importFeePeriod",
      "outputs": [],
      "payable": false,
      "stateMutability": "nonpayable",
      "type": "function"
    },
    {
      "constant": false,
      "inputs": [
        {
          "name": "account",
          "type": "address"
        },
        {
          "name": "quantity",
          "type": "uint256"
        }
      ],
      "name": "appendVestingEntry",
      "outputs": [],
      "payable": false,
      "stateMutability": "nonpayable",
      "type": "function"
    },
    {
      "constant": false,
      "inputs": [
        {
          "name": "account",
          "type": "address"
        }
      ],
      "name": "approveClaimOnBehalf",
      "outputs": [],
      "payable": false,
      "stateMutability": "nonpayable",
      "type": "function"
    },
    {
      "constant": false,
      "inputs": [
        {
          "name": "account",
          "type": "address"
        }
      ],
      "name": "removeClaimOnBehalf",
      "outputs": [],
      "payable": false,
      "stateMutability": "nonpayable",
      "type": "function"
    },
    {
      "constant": true,
      "inputs": [
        {
          "name": "value",
          "type": "uint256"
        }
      ],
      "name": "transferFeeIncurred",
      "outputs": [
        {
          "name": "",
          "type": "uint256"
        }
      ],
      "payable": false,
      "stateMutability": "view",
      "type": "function"
    },
    {
      "constant": true,
      "inputs": [
        {
          "name": "value",
          "type": "uint256"
        }
      ],
      "name": "transferredAmountToReceive",
      "outputs": [
        {
          "name": "",
          "type": "uint256"
        }
      ],
      "payable": false,
      "stateMutability": "view",
      "type": "function"
    },
    {
      "constant": true,
      "inputs": [
        {
          "name": "value",
          "type": "uint256"
        }
      ],
      "name": "amountReceivedFromTransfer",
      "outputs": [
        {
          "name": "",
          "type": "uint256"
        }
      ],
      "payable": false,
      "stateMutability": "view",
      "type": "function"
    },
    {
      "constant": true,
      "inputs": [
        {
          "name": "value",
          "type": "uint256"
        }
      ],
      "name": "exchangeFeeIncurred",
      "outputs": [
        {
          "name": "",
          "type": "uint256"
        }
      ],
      "payable": false,
      "stateMutability": "view",
      "type": "function"
    },
    {
      "constant": true,
      "inputs": [
        {
          "name": "value",
          "type": "uint256"
        }
      ],
      "name": "exchangedAmountToReceive",
      "outputs": [
        {
          "name": "",
          "type": "uint256"
        }
      ],
      "payable": false,
      "stateMutability": "view",
      "type": "function"
    },
    {
      "constant": true,
      "inputs": [
        {
          "name": "value",
          "type": "uint256"
        }
      ],
      "name": "amountReceivedFromExchange",
      "outputs": [
        {
          "name": "",
          "type": "uint256"
        }
      ],
      "payable": false,
      "stateMutability": "view",
      "type": "function"
    },
    {
      "constant": true,
      "inputs": [
        {
          "name": "currencyKey",
          "type": "bytes4"
        }
      ],
      "name": "totalFeesAvailable",
      "outputs": [
        {
          "name": "",
          "type": "uint256"
        }
      ],
      "payable": false,
      "stateMutability": "view",
      "type": "function"
    },
    {
      "constant": true,
      "inputs": [],
      "name": "totalRewardsAvailable",
      "outputs": [
        {
          "name": "",
          "type": "uint256"
        }
      ],
      "payable": false,
      "stateMutability": "view",
      "type": "function"
    },
    {
      "constant": true,
      "inputs": [
        {
          "name": "account",
          "type": "address"
        },
        {
          "name": "currencyKey",
          "type": "bytes4"
        }
      ],
      "name": "feesAvailable",
      "outputs": [
        {
          "name": "",
          "type": "uint256"
        },
        {
          "name": "",
          "type": "uint256"
        }
      ],
      "payable": false,
      "stateMutability": "view",
      "type": "function"
    },
    {
      "constant": true,
      "inputs": [
        {
          "name": "account",
          "type": "address"
        }
      ],
      "name": "feesClaimable",
      "outputs": [
        {
          "name": "",
          "type": "bool"
        }
      ],
      "payable": false,
      "stateMutability": "view",
      "type": "function"
    },
    {
      "constant": true,
      "inputs": [
        {
          "name": "account",
          "type": "address"
        }
      ],
      "name": "feesByPeriod",
      "outputs": [
        {
          "name": "results",
          "type": "uint256[2][3]"
        }
      ],
      "payable": false,
      "stateMutability": "view",
      "type": "function"
    },
    {
      "constant": true,
      "inputs": [
        {
          "name": "account",
          "type": "address"
        },
        {
          "name": "period",
          "type": "uint256"
        }
      ],
      "name": "effectiveDebtRatioForPeriod",
      "outputs": [
        {
          "name": "",
          "type": "uint256"
        }
      ],
      "payable": false,
      "stateMutability": "view",
      "type": "function"
    },
    {
      "constant": true,
      "inputs": [
        {
          "name": "_claimingAddress",
          "type": "address"
        }
      ],
      "name": "getLastFeeWithdrawal",
      "outputs": [
        {
          "name": "",
          "type": "uint256"
        }
      ],
      "payable": false,
      "stateMutability": "view",
      "type": "function"
    },
    {
      "constant": true,
      "inputs": [],
      "name": "getPenaltyThresholdRatio",
      "outputs": [
        {
          "name": "",
          "type": "uint256"
        }
      ],
      "payable": false,
      "stateMutability": "view",
      "type": "function"
    }
  ],
  "bytecode": "0x608060405262093a80602655606473__SafeDecimalMath_______________________63907af6c06040518163ffffffff167c010000000000000000000000000000000000000000000000000000000002815260040160206040518083038186803b1580156200006e57600080fd5b505af415801562000083573d6000803e3d6000fd5b505050506040513d60208110156200009a57600080fd5b8101908080519060200190929190505050600a02811515620000b857fe5b04602755348015620000c957600080fd5b50604051610140806200996583398101806040528101908080519060200190929190805190602001909291908051906020019092919080519060200190929190805190602001909291908051906020019092919080519060200190929190805190602001909291908051906020019092919080519060200190929190505050621baf80898b8b82600073ffffffffffffffffffffffffffffffffffffffff168173ffffffffffffffffffffffffffffffffffffffff1614151515620001f6576040517f08c379a00000000000000000000000000000000000000000000000000000000081526004018080602001828103825260198152602001807f4f776e657220616464726573732063616e6e6f7420626520300000000000000081525060200191505060405180910390fd5b806000806101000a81548173ffffffffffffffffffffffffffffffffffffffff021916908373ffffffffffffffffffffffffffffffffffffffff1602179055507fb532073b38c83145e3e5135377a08bf9aab55bc0fd7c1179cd4fb995d2a5159c600082604051808373ffffffffffffffffffffffffffffffffffffffff1673ffffffffffffffffffffffffffffffffffffffff1681526020018273ffffffffffffffffffffffffffffffffffffffff1673ffffffffffffffffffffffffffffffffffffffff1681526020019250505060405180910390a15081600260006101000a81548173ffffffffffffffffffffffffffffffffffffffff021916908373ffffffffffffffffffffffffffffffffffffffff1602179055507ffc80377ca9c49cc11ae6982f390a42db976d5530af7c43889264b13fbbd7c57e82604051808273ffffffffffffffffffffffffffffffffffffffff1673ffffffffffffffffffffffffffffffffffffffff16815260200191505060405180910390a15050600073ffffffffffffffffffffffffffffffffffffffff168173ffffffffffffffffffffffffffffffffffffffff16141515156200041b576040517f08c379a00000000000000000000000000000000000000000000000000000000081526004018080602001828103825260168152602001807f4f776e6572206d757374206e6f74206265207a65726f0000000000000000000081525060200191505060405180910390fd5b80600660016101000a81548173ffffffffffffffffffffffffffffffffffffffff021916908373ffffffffffffffffffffffffffffffffffffffff1602179055507fd5da63a0b864b315bc04128dedbc93888c8529ee6cf47ce664dc204339228c5381604051808273ffffffffffffffffffffffffffffffffffffffff1673ffffffffffffffffffffffffffffffffffffffff16815260200191505060405180910390a15080420160078190555050600a73__SafeDecimalMath_______________________63907af6c06040518163ffffffff167c010000000000000000000000000000000000000000000000000000000002815260040160206040518083038186803b1580156200052d57600080fd5b505af415801562000542573d6000803e3d6000fd5b505050506040513d60208110156200055957600080fd5b81019080805190602001909291905050508115156200057457fe5b048211151515620005ed576040517f08c379a000000000000000000000000000000000000000000000000000000000815260040180806020018281038252601e8152602001807f5472616e73666572206665652072617465206d6178206578636565646564000081525060200191505060405180910390fd5b600a73__SafeDecimalMath_______________________63907af6c06040518163ffffffff167c010000000000000000000000000000000000000000000000000000000002815260040160206040518083038186803b1580156200065057600080fd5b505af415801562000665573d6000803e3d6000fd5b505050506040513d60208110156200067c57600080fd5b81019080805190602001909291905050508115156200069757fe5b04811115151562000710576040517f08c379a000000000000000000000000000000000000000000000000000000000815260040180806020018281038252601e8152602001807f45786368616e6765206665652072617465206d6178206578636565646564000081525060200191505060405180910390fd5b87600860006101000a81548173ffffffffffffffffffffffffffffffffffffffff021916908373ffffffffffffffffffffffffffffffffffffffff16021790555086600f60006101000a81548173ffffffffffffffffffffffffffffffffffffffff021916908373ffffffffffffffffffffffffffffffffffffffff16021790555085600b60006101000a81548173ffffffffffffffffffffffffffffffffffffffff021916908373ffffffffffffffffffffffffffffffffffffffff16021790555083600a60006101000a81548173ffffffffffffffffffffffffffffffffffffffff021916908373ffffffffffffffffffffffffffffffffffffffff16021790555084600960006101000a81548173ffffffffffffffffffffffffffffffffffffffff021916908373ffffffffffffffffffffffffffffffffffffffff16021790555082600e60006101000a81548173ffffffffffffffffffffffffffffffffffffffff021916908373ffffffffffffffffffffffffffffffffffffffff16021790555081600c8190555080600d81905550600160116000600381101515620008b757fe5b60070201600001819055504260116000600381101515620008d457fe5b60070201600201819055505050505050505050505061906c80620008f96000396000f300608060405260043610610317576000357c0100000000000000000000000000000000000000000000000000000000900463ffffffff16806304c49f2c1461031c578063075d2c411461034957806307ea50cd1461038c5780630813071c146103e35780630f5024a7146104445780630f9b4955146104c857806310adda0e146104f3578063131b0ae71461057a5780631627540c146105bd57806317c70de4146106005780631c6346ec1461062b57806320714f881461066e57806322425fa4146106b15780632cce0e54146106dc5780633278c960146107095780633314001614610720578063351bf518146107c25780633ebc457a146107ed5780633fcd2240146108045780634180e5b51461086f57806352b9f8a2146108b257806353a47bb714610909578063578a791d1461096057806358aab84a1461098d5780635b292e94146109e85780636138b19e14610a2b578063639cd59c14610a825780636c8bc9fe14610ae25780636de813f114610b25578063759b522514610b5057806376d752a114610ba757806379ba509714610bd25780638664527414610be95780638da5cb5b14610c4057806397107d6d14610c975780639cb8a26a14610cda5780639cbdaeb614610cf1578063a3fd6d0e14610d48578063a430be6c14610d9e578063a461fc8214610df5578063a6d5bb1414610e20578063ac83419314610e4b578063b10090b814610e76578063b5ddb9c714610ee9578063b6dc8e2514610f36578063b7fcfa6914610f77578063b8225dec14610fb8578063bc67f83214610fe7578063bd32aa441461102a578063c58aaae614611041578063c894e1e514611098578063cc9b31c9146110c5578063cd503c0b14611106578063cff2ddad1461116a578063d028a3f71461119b578063d62ae399146111f2578063da46e6c41461121d578063dbd4a4221461125e578063e05bac82146112b5578063e3082f6a146112f6578063e9d36c561461134d578063eb1edd611461138e578063ec556889146113e5578063f344da671461143c578063fb1b4c7e14611467578063fd1f498d14611492578063fec9f9da146114bf575b600080fd5b34801561032857600080fd5b5061034760048036038101908080359060200190929190505050611502565b005b34801561035557600080fd5b5061038a600480360381019080803573ffffffffffffffffffffffffffffffffffffffff1690602001909291905050506117e4565b005b34801561039857600080fd5b506103cd600480360381019080803573ffffffffffffffffffffffffffffffffffffffff169060200190929190505050611a01565b6040518082815260200191505060405180910390f35b3480156103ef57600080fd5b5061042e600480360381019080803573ffffffffffffffffffffffffffffffffffffffff16906020019092919080359060200190929190505050611bca565b6040518082815260200191505060405180910390f35b34801561045057600080fd5b506104ae600480360381019080803573ffffffffffffffffffffffffffffffffffffffff16906020019092919080357bffffffffffffffffffffffffffffffffffffffffffffffffffffffff19169060200190929190505050611e42565b604051808215151515815260200191505060405180910390f35b3480156104d457600080fd5b506104dd61210b565b6040518082815260200191505060405180910390f35b3480156104ff57600080fd5b5061055d600480360381019080803573ffffffffffffffffffffffffffffffffffffffff16906020019092919080357bffffffffffffffffffffffffffffffffffffffffffffffffffffffff19169060200190929190505050612111565b604051808381526020018281526020019250505060405180910390f35b34801561058657600080fd5b506105bb600480360381019080803573ffffffffffffffffffffffffffffffffffffffff169060200190929190505050612310565b005b3480156105c957600080fd5b506105fe600480360381019080803573ffffffffffffffffffffffffffffffffffffffff16906020019092919050505061243e565b005b34801561060c57600080fd5b506106156125cf565b6040518082815260200191505060405180910390f35b34801561063757600080fd5b5061066c600480360381019080803573ffffffffffffffffffffffffffffffffffffffff1690602001909291905050506125d5565b005b34801561067a57600080fd5b506106af600480360381019080803573ffffffffffffffffffffffffffffffffffffffff1690602001909291905050506127f2565b005b3480156106bd57600080fd5b506106c6612a28565b6040518082815260200191505060405180910390f35b3480156106e857600080fd5b5061070760048036038101908080359060200190929190505050612a2e565b005b34801561071557600080fd5b5061071e612d32565b005b34801561072c57600080fd5b50610761600480360381019080803573ffffffffffffffffffffffffffffffffffffffff169060200190929190505050612e6d565b604051808260036000925b818410156107b25782846020020151600260200280838360005b838110156107a1578082015181840152602081019050610786565b50505050905001926001019261076c565b9250505091505060405180910390f35b3480156107ce57600080fd5b506107d7613381565b6040518082815260200191505060405180910390f35b3480156107f957600080fd5b50610802613387565b005b34801561081057600080fd5b5061082f600480360381019080803590602001909291905050506138e2565b6040518088815260200187815260200186815260200185815260200184815260200183815260200182815260200197505050505050505060405180910390f35b34801561087b57600080fd5b506108b0600480360381019080803573ffffffffffffffffffffffffffffffffffffffff169060200190929190505050613929565b005b3480156108be57600080fd5b506108c7613cb6565b604051808273ffffffffffffffffffffffffffffffffffffffff1673ffffffffffffffffffffffffffffffffffffffff16815260200191505060405180910390f35b34801561091557600080fd5b5061091e613cdc565b604051808273ffffffffffffffffffffffffffffffffffffffff1673ffffffffffffffffffffffffffffffffffffffff16815260200191505060405180910390f35b34801561096c57600080fd5b5061098b60048036038101908080359060200190929190505050613d02565b005b34801561099957600080fd5b506109ce600480360381019080803573ffffffffffffffffffffffffffffffffffffffff169060200190929190505050613ee5565b604051808215151515815260200191505060405180910390f35b3480156109f457600080fd5b50610a29600480360381019080803573ffffffffffffffffffffffffffffffffffffffff169060200190929190505050614238565b005b348015610a3757600080fd5b50610a40614455565b604051808273ffffffffffffffffffffffffffffffffffffffff1673ffffffffffffffffffffffffffffffffffffffff16815260200191505060405180910390f35b348015610a8e57600080fd5b50610acc60048036038101908080357bffffffffffffffffffffffffffffffffffffffffffffffffffffffff1916906020019092919050505061447b565b6040518082815260200191505060405180910390f35b348015610aee57600080fd5b50610b23600480360381019080803573ffffffffffffffffffffffffffffffffffffffff16906020019092919050505061463a565b005b348015610b3157600080fd5b50610b3a614922565b6040518082815260200191505060405180910390f35b348015610b5c57600080fd5b50610b656149a6565b604051808273ffffffffffffffffffffffffffffffffffffffff1673ffffffffffffffffffffffffffffffffffffffff16815260200191505060405180910390f35b348015610bb357600080fd5b50610bbc6149cc565b6040518082815260200191505060405180910390f35b348015610bde57600080fd5b50610be7614a76565b005b348015610bf557600080fd5b50610c3e600480360381019080803573ffffffffffffffffffffffffffffffffffffffff1690602001909291908035906020019092919080359060200190929190505050614ce1565b005b348015610c4c57600080fd5b50610c55614ed2565b604051808273ffffffffffffffffffffffffffffffffffffffff1673ffffffffffffffffffffffffffffffffffffffff16815260200191505060405180910390f35b348015610ca357600080fd5b50610cd8600480360381019080803573ffffffffffffffffffffffffffffffffffffffff169060200190929190505050614ef7565b005b348015610ce657600080fd5b50610cef615088565b005b348015610cfd57600080fd5b50610d06615317565b604051808273ffffffffffffffffffffffffffffffffffffffff1673ffffffffffffffffffffffffffffffffffffffff16815260200191505060405180910390f35b348015610d5457600080fd5b50610d9c60048036038101908080357bffffffffffffffffffffffffffffffffffffffffffffffffffffffff191690602001909291908035906020019092919050505061533d565b005b348015610daa57600080fd5b50610db36155db565b604051808273ffffffffffffffffffffffffffffffffffffffff1673ffffffffffffffffffffffffffffffffffffffff16815260200191505060405180910390f35b348015610e0157600080fd5b50610e0a615601565b6040518082815260200191505060405180910390f35b348015610e2c57600080fd5b50610e35615608565b6040518082815260200191505060405180910390f35b348015610e5757600080fd5b50610e6061560e565b6040518082815260200191505060405180910390f35b348015610e8257600080fd5b50610ee76004803603810190808035906020019092919080359060200190929190803590602001909291908035906020019092919080359060200190929190803590602001909291908035906020019092919080359060200190929190505050615839565b005b348015610ef557600080fd5b50610f34600480360381019080803573ffffffffffffffffffffffffffffffffffffffff16906020019092919080359060200190929190505050615b78565b005b348015610f4257600080fd5b50610f6160048036038101908080359060200190929190505050615fab565b6040518082815260200191505060405180910390f35b348015610f8357600080fd5b50610fa260048036038101908080359060200190929190505050615fcf565b6040518082815260200191505060405180910390f35b348015610fc457600080fd5b50610fcd616099565b604051808215151515815260200191505060405180910390f35b348015610ff357600080fd5b50611028600480360381019080803573ffffffffffffffffffffffffffffffffffffffff1690602001909291905050506160ac565b005b34801561103657600080fd5b5061103f61620d565b005b34801561104d57600080fd5b50611056616355565b604051808273ffffffffffffffffffffffffffffffffffffffff1673ffffffffffffffffffffffffffffffffffffffff16815260200191505060405180910390f35b3480156110a457600080fd5b506110c36004803603810190808035906020019092919050505061637b565b005b3480156110d157600080fd5b506110f06004803603810190808035906020019092919050505061667c565b6040518082815260200191505060405180910390f35b34801561111257600080fd5b5061115060048036038101908080357bffffffffffffffffffffffffffffffffffffffffffffffffffffffff1916906020019092919050505061669a565b604051808215151515815260200191505060405180910390f35b34801561117657600080fd5b5061117f6167c2565b604051808260ff1660ff16815260200191505060405180910390f35b3480156111a757600080fd5b506111b06167c7565b604051808273ffffffffffffffffffffffffffffffffffffffff1673ffffffffffffffffffffffffffffffffffffffff16815260200191505060405180910390f35b3480156111fe57600080fd5b506112076167ed565b6040518082815260200191505060405180910390f35b34801561122957600080fd5b50611248600480360381019080803590602001909291905050506167f4565b6040518082815260200191505060405180910390f35b34801561126a57600080fd5b50611273616812565b604051808273ffffffffffffffffffffffffffffffffffffffff1673ffffffffffffffffffffffffffffffffffffffff16815260200191505060405180910390f35b3480156112c157600080fd5b506112e060048036038101908080359060200190929190505050616838565b6040518082815260200191505060405180910390f35b34801561130257600080fd5b5061130b616902565b604051808273ffffffffffffffffffffffffffffffffffffffff1673ffffffffffffffffffffffffffffffffffffffff16815260200191505060405180910390f35b34801561135957600080fd5b5061137860048036038101908080359060200190929190505050616928565b6040518082815260200191505060405180910390f35b34801561139a57600080fd5b506113a361694c565b604051808273ffffffffffffffffffffffffffffffffffffffff1673ffffffffffffffffffffffffffffffffffffffff16815260200191505060405180910390f35b3480156113f157600080fd5b506113fa616964565b604051808273ffffffffffffffffffffffffffffffffffffffff1673ffffffffffffffffffffffffffffffffffffffff16815260200191505060405180910390f35b34801561144857600080fd5b5061145161698a565b6040518082815260200191505060405180910390f35b34801561147357600080fd5b5061147c616991565b6040518082815260200191505060405180910390f35b34801561149e57600080fd5b506114bd60048036038101908080359060200190929190505050616a3b565b005b3480156114cb57600080fd5b50611500600480360381019080803573ffffffffffffffffffffffffffffffffffffffff169060200190929190505050616bc2565b005b600260009054906101000a900473ffffffffffffffffffffffffffffffffffffffff1673ffffffffffffffffffffffffffffffffffffffff163373ffffffffffffffffffffffffffffffffffffffff16141580156115ae5750600360009054906101000a900473ffffffffffffffffffffffffffffffffffffffff1673ffffffffffffffffffffffffffffffffffffffff163373ffffffffffffffffffffffffffffffffffffffff1614155b156115f55733600460006101000a81548173ffffffffffffffffffffffffffffffffffffffff021916908373ffffffffffffffffffffffffffffffffffffffff1602179055505b6000809054906101000a900473ffffffffffffffffffffffffffffffffffffffff1673ffffffffffffffffffffffffffffffffffffffff16600460009054906101000a900473ffffffffffffffffffffffffffffffffffffffff1673ffffffffffffffffffffffffffffffffffffffff161415156116db576040517f08c379a00000000000000000000000000000000000000000000000000000000081526004018080602001828103825260138152602001807f4f776e6572206f6e6c792066756e6374696f6e0000000000000000000000000081525060200191505060405180910390fd5b620151808110151515611756576040517f08c379a000000000000000000000000000000000000000000000000000000000815260040180806020018281038252601f8152602001807f76616c7565203c204d494e5f4645455f504552494f445f4455524154494f4e0081525060200191505060405180910390fd5b624f1a0081111515156117d1576040517f08c379a000000000000000000000000000000000000000000000000000000000815260040180806020018281038252601f8152602001807f76616c7565203e204d41585f4645455f504552494f445f4455524154494f4e0081525060200191505060405180910390fd5b806026819055506117e181616e84565b50565b600260009054906101000a900473ffffffffffffffffffffffffffffffffffffffff1673ffffffffffffffffffffffffffffffffffffffff163373ffffffffffffffffffffffffffffffffffffffff16141580156118905750600360009054906101000a900473ffffffffffffffffffffffffffffffffffffffff1673ffffffffffffffffffffffffffffffffffffffff163373ffffffffffffffffffffffffffffffffffffffff1614155b156118d75733600460006101000a81548173ffffffffffffffffffffffffffffffffffffffff021916908373ffffffffffffffffffffffffffffffffffffffff1602179055505b6000809054906101000a900473ffffffffffffffffffffffffffffffffffffffff1673ffffffffffffffffffffffffffffffffffffffff16600460009054906101000a900473ffffffffffffffffffffffffffffffffffffffff1673ffffffffffffffffffffffffffffffffffffffff161415156119bd576040517f08c379a00000000000000000000000000000000000000000000000000000000081526004018080602001828103825260138152602001807f4f776e6572206f6e6c792066756e6374696f6e0000000000000000000000000081525060200191505060405180910390fd5b80600f60006101000a81548173ffffffffffffffffffffffffffffffffffffffff021916908373ffffffffffffffffffffffffffffffffffffffff16021790555050565b6000600b60009054906101000a900473ffffffffffffffffffffffffffffffffffffffff1673ffffffffffffffffffffffffffffffffffffffff1663bdc963d87f6c6173745f6665655f7769746864726177616c00000000000000000000000000846040516020018083600019166000191681526020018273ffffffffffffffffffffffffffffffffffffffff1673ffffffffffffffffffffffffffffffffffffffff166c01000000000000000000000000028152601401925050506040516020818303038152906040526040518082805190602001908083835b602083101515611b015780518252602082019150602081019050602083039250611adc565b6001836020036101000a03801982511681845116808217855250505050505090500191505060405180910390206040518263ffffffff167c0100000000000000000000000000000000000000000000000000000000028152600401808260001916600019168152602001915050602060405180830381600087803b158015611b8857600080fd5b505af1158015611b9c573d6000803e3d6000fd5b505050506040513d6020811015611bb257600080fd5b81019080805190602001909291905050509050919050565b60008060008060008514151515611c49576040517f08c379a00000000000000000000000000000000000000000000000000000000081526004018080602001828103825260208152602001807f43757272656e7420706572696f64206973206e6f7420636c6f7365642079657481525060200191505060405180910390fd5b600360ff1685101515611cc4576040517f08c379a000000000000000000000000000000000000000000000000000000000815260040180806020018281038252601d8152602001807f4578636565647320746865204645455f504552494f445f4c454e47544800000081525060200191505060405180910390fd5b6000601160018703600381101515611cd857fe5b60070201600101541415611ceb57611e39565b611d186001601160018803600381101515611d0257fe5b600702016001015461705790919063ffffffff16565b9250600f60009054906101000a900473ffffffffffffffffffffffffffffffffffffffff1673ffffffffffffffffffffffffffffffffffffffff1663d29c000a87856040518363ffffffff167c0100000000000000000000000000000000000000000000000000000000028152600401808373ffffffffffffffffffffffffffffffffffffffff1673ffffffffffffffffffffffffffffffffffffffff168152602001828152602001925050506040805180830381600087803b158015611dde57600080fd5b505af1158015611df2573d6000803e3d6000fd5b505050506040513d6040811015611e0857600080fd5b8101908080519060200190929190805190602001909291905050508092508193505050611e36838383617078565b93505b50505092915050565b6000600260009054906101000a900473ffffffffffffffffffffffffffffffffffffffff1673ffffffffffffffffffffffffffffffffffffffff163373ffffffffffffffffffffffffffffffffffffffff1614158015611ef05750600360009054906101000a900473ffffffffffffffffffffffffffffffffffffffff1673ffffffffffffffffffffffffffffffffffffffff163373ffffffffffffffffffffffffffffffffffffffff1614155b15611f375733600460006101000a81548173ffffffffffffffffffffffffffffffffffffffff021916908373ffffffffffffffffffffffffffffffffffffffff1602179055505b601060009054906101000a900473ffffffffffffffffffffffffffffffffffffffff1673ffffffffffffffffffffffffffffffffffffffff1663e1270b6e84600460009054906101000a900473ffffffffffffffffffffffffffffffffffffffff166040518363ffffffff167c0100000000000000000000000000000000000000000000000000000000028152600401808373ffffffffffffffffffffffffffffffffffffffff1673ffffffffffffffffffffffffffffffffffffffff1681526020018273ffffffffffffffffffffffffffffffffffffffff1673ffffffffffffffffffffffffffffffffffffffff16815260200192505050602060405180830381600087803b15801561204a57600080fd5b505af115801561205e573d6000803e3d6000fd5b505050506040513d602081101561207457600080fd5b810190808051906020019092919050505015156120f9576040517f08c379a000000000000000000000000000000000000000000000000000000000815260040180806020018281038252601f8152602001807f4e6f7420617070726f76656420746f20636c61696d206f6e20626568616c660081525060200191505060405180910390fd5b6121038383617315565b905092915050565b600d5481565b60008061211c618fb2565b600080600061212a88612e6d565b93506000925060009150600190505b600360ff168110156121c65761217d848260038110151561215657fe5b6020020151600060028110151561216957fe5b6020020151846174ee90919063ffffffff16565b92506121b7848260038110151561219057fe5b602002015160016002811015156121a357fe5b6020020151836174ee90919063ffffffff16565b91508080600101915050612139565b600860009054906101000a900473ffffffffffffffffffffffffffffffffffffffff1673ffffffffffffffffffffffffffffffffffffffff166339d66fc084896040518363ffffffff167c010000000000000000000000000000000000000000000000000000000002815260040180807f5844520000000000000000000000000000000000000000000000000000000000815250602001838152602001827bffffffffffffffffffffffffffffffffffffffffffffffffffffffff19167bffffffffffffffffffffffffffffffffffffffffffffffffffffffff1916815260200192505050602060405180830381600087803b1580156122c557600080fd5b505af11580156122d9573d6000803e3d6000fd5b505050506040513d60208110156122ef57600080fd5b81019080805190602001909291905050508295509550505050509250929050565b6000809054906101000a900473ffffffffffffffffffffffffffffffffffffffff1673ffffffffffffffffffffffffffffffffffffffff163373ffffffffffffffffffffffffffffffffffffffff161415156123fa576040517f08c379a000000000000000000000000000000000000000000000000000000000815260040180806020018281038252602f8152602001807f4f6e6c792074686520636f6e7472616374206f776e6572206d6179207065726681526020017f6f726d207468697320616374696f6e000000000000000000000000000000000081525060400191505060405180910390fd5b80600360006101000a81548173ffffffffffffffffffffffffffffffffffffffff021916908373ffffffffffffffffffffffffffffffffffffffff16021790555050565b6000809054906101000a900473ffffffffffffffffffffffffffffffffffffffff1673ffffffffffffffffffffffffffffffffffffffff163373ffffffffffffffffffffffffffffffffffffffff16141515612528576040517f08c379a000000000000000000000000000000000000000000000000000000000815260040180806020018281038252602f8152602001807f4f6e6c792074686520636f6e7472616374206f776e6572206d6179207065726681526020017f6f726d207468697320616374696f6e000000000000000000000000000000000081525060400191505060405180910390fd5b80600160006101000a81548173ffffffffffffffffffffffffffffffffffffffff021916908373ffffffffffffffffffffffffffffffffffffffff1602179055507f906a1c6bd7e3091ea86693dd029a831c19049ce77f1dce2ce0bab1cacbabce2281604051808273ffffffffffffffffffffffffffffffffffffffff1673ffffffffffffffffffffffffffffffffffffffff16815260200191505060405180910390a150565b60055481565b600260009054906101000a900473ffffffffffffffffffffffffffffffffffffffff1673ffffffffffffffffffffffffffffffffffffffff163373ffffffffffffffffffffffffffffffffffffffff16141580156126815750600360009054906101000a900473ffffffffffffffffffffffffffffffffffffffff1673ffffffffffffffffffffffffffffffffffffffff163373ffffffffffffffffffffffffffffffffffffffff1614155b156126c85733600460006101000a81548173ffffffffffffffffffffffffffffffffffffffff021916908373ffffffffffffffffffffffffffffffffffffffff1602179055505b6000809054906101000a900473ffffffffffffffffffffffffffffffffffffffff1673ffffffffffffffffffffffffffffffffffffffff16600460009054906101000a900473ffffffffffffffffffffffffffffffffffffffff1673ffffffffffffffffffffffffffffffffffffffff161415156127ae576040517f08c379a00000000000000000000000000000000000000000000000000000000081526004018080602001828103825260138152602001807f4f776e6572206f6e6c792066756e6374696f6e0000000000000000000000000081525060200191505060405180910390fd5b80600e60006101000a81548173ffffffffffffffffffffffffffffffffffffffff021916908373ffffffffffffffffffffffffffffffffffffffff16021790555050565b6000809054906101000a900473ffffffffffffffffffffffffffffffffffffffff1673ffffffffffffffffffffffffffffffffffffffff163373ffffffffffffffffffffffffffffffffffffffff161415156128dc576040517f08c379a000000000000000000000000000000000000000000000000000000000815260040180806020018281038252602f8152602001807f4f6e6c792074686520636f6e7472616374206f776e6572206d6179207065726681526020017f6f726d207468697320616374696f6e000000000000000000000000000000000081525060400191505060405180910390fd5b600073ffffffffffffffffffffffffffffffffffffffff168173ffffffffffffffffffffffffffffffffffffffff1614151515612981576040517f08c379a000000000000000000000000000000000000000000000000000000000815260040180806020018281038252601c8152602001807f42656e6566696369617279206d757374206e6f74206265207a65726f0000000081525060200191505060405180910390fd5b80600660016101000a81548173ffffffffffffffffffffffffffffffffffffffff021916908373ffffffffffffffffffffffffffffffffffffffff1602179055507fd5da63a0b864b315bc04128dedbc93888c8529ee6cf47ce664dc204339228c5381604051808273ffffffffffffffffffffffffffffffffffffffff1673ffffffffffffffffffffffffffffffffffffffff16815260200191505060405180910390a150565b60265481565b600260009054906101000a900473ffffffffffffffffffffffffffffffffffffffff1673ffffffffffffffffffffffffffffffffffffffff163373ffffffffffffffffffffffffffffffffffffffff1614158015612ada5750600360009054906101000a900473ffffffffffffffffffffffffffffffffffffffff1673ffffffffffffffffffffffffffffffffffffffff163373ffffffffffffffffffffffffffffffffffffffff1614155b15612b215733600460006101000a81548173ffffffffffffffffffffffffffffffffffffffff021916908373ffffffffffffffffffffffffffffffffffffffff1602179055505b6000809054906101000a900473ffffffffffffffffffffffffffffffffffffffff1673ffffffffffffffffffffffffffffffffffffffff16600460009054906101000a900473ffffffffffffffffffffffffffffffffffffffff1673ffffffffffffffffffffffffffffffffffffffff16141515612c07576040517f08c379a00000000000000000000000000000000000000000000000000000000081526004018080602001828103825260138152602001807f4f776e6572206f6e6c792066756e6374696f6e0000000000000000000000000081525060200191505060405180910390fd5b60008110151515612c80576040517f08c379a000000000000000000000000000000000000000000000000000000000815260040180806020018281038252601c8152602001807f5468726573686f6c642073686f756c6420626520706f7369746976650000000081525060200191505060405180910390fd5b606473__SafeDecimalMath_______________________63907af6c06040518163ffffffff167c010000000000000000000000000000000000000000000000000000000002815260040160206040518083038186803b158015612ce257600080fd5b505af4158015612cf6573d6000803e3d6000fd5b505050506040513d6020811015612d0c57600080fd5b81019080805190602001909291905050508202811515612d2857fe5b0460278190555050565b6000809054906101000a900473ffffffffffffffffffffffffffffffffffffffff1673ffffffffffffffffffffffffffffffffffffffff163373ffffffffffffffffffffffffffffffffffffffff16141515612e1c576040517f08c379a000000000000000000000000000000000000000000000000000000000815260040180806020018281038252602f8152602001807f4f6e6c792074686520636f6e7472616374206f776e6572206d6179207065726681526020017f6f726d207468697320616374696f6e000000000000000000000000000000000081525060400191505060405180910390fd5b60006005819055506000600660006101000a81548160ff0219169083151502179055507f6adcc7125002935e0aa31697538ebbd65cfddf20431eb6ecdcfc3e238bfd082c60405160405180910390a1565b612e75618fb2565b600080600080600080612e86618fe0565b6000600f60009054906101000a900473ffffffffffffffffffffffffffffffffffffffff1673ffffffffffffffffffffffffffffffffffffffff1663b326f84e8b60006040518363ffffffff167c0100000000000000000000000000000000000000000000000000000000028152600401808373ffffffffffffffffffffffffffffffffffffffff1673ffffffffffffffffffffffffffffffffffffffff168152602001828152602001925050506040805180830381600087803b158015612f4d57600080fd5b505af1158015612f61573d6000803e3d6000fd5b505050506040513d6040811015612f7757600080fd5b8101908080519060200190929190805190602001909291905050508098508199505050600087148015612faa5750600088145b15612fb457613374565b6000600860009054906101000a900473ffffffffffffffffffffffffffffffffffffffff1673ffffffffffffffffffffffffffffffffffffffff1663403dca556040518163ffffffff167c010000000000000000000000000000000000000000000000000000000002815260040180807f58445200000000000000000000000000000000000000000000000000000000008152506020019050602060405180830381600087803b15801561306757600080fd5b505af115801561307b573d6000803e3d6000fd5b505050506040513d602081101561309157600080fd5b810190808051906020019092919050505014156130ad57613374565b6130b96000898961750f565b8096508197505050858960006003811015156130d157fe5b602002015160006002811015156130e457fe5b602002018181525050848960006003811015156130fd57fe5b6020020151600160028110151561311057fe5b602002018181525050600160030360ff1693505b60008411156133735760018403925060118360038110151561314257fe5b6007020160e060405190810160405290816000820154815260200160018201548152602001600282015481526020016003820154815260200160048201548152602001600582015481526020016006820154815250509150600082602001511180156131cb57506011846003811015156131b857fe5b60070201600001546131c98b611a01565b105b15613365576131e86001836020015161705790919063ffffffff16565b9050600f60009054906101000a900473ffffffffffffffffffffffffffffffffffffffff1673ffffffffffffffffffffffffffffffffffffffff1663d29c000a8b836040518363ffffffff167c0100000000000000000000000000000000000000000000000000000000028152600401808373ffffffffffffffffffffffffffffffffffffffff1673ffffffffffffffffffffffffffffffffffffffff168152602001828152602001925050506040805180830381600087803b1580156132ae57600080fd5b505af11580156132c2573d6000803e3d6000fd5b505050506040513d60408110156132d857600080fd5b810190808051906020019092919080519060200190929190505050809850819950505061330684898961750f565b809650819750505085898560038110151561331d57fe5b6020020151600060028110151561333057fe5b60200201818152505084898560038110151561334857fe5b6020020151600160028110151561335b57fe5b6020020181815250505b838060019003945050613124565b5b5050505050505050919050565b600c5481565b61338f618fe0565b613397618fe0565b6000806026544203601160006003811015156133af57fe5b60070201600201541115151561342d576040517f08c379a000000000000000000000000000000000000000000000000000000000815260040180806020018281038252601d8152602001807f546f6f206561726c7920746f20636c6f73652066656520706572696f6400000081525060200191505060405180910390fd5b6011600260030360ff1660038110151561344357fe5b6007020160e0604051908101604052908160008201548152602001600182015481526020016002820154815260200160038201548152602001600482015481526020016005820154815260200160068201548152505093506011600160030360ff166003811015156134b157fe5b6007020160e06040519081016040529081600082015481526020016001820154815260200160028201548152602001600382015481526020016004820154815260200160058201548152602001600682015481525050925061353a846060015161352c8560800151866060015161705790919063ffffffff16565b6174ee90919063ffffffff16565b6011600260030360ff1660038110151561355057fe5b600702016003018190555061358c8460a0015161357e8560c001518660a0015161705790919063ffffffff16565b6174ee90919063ffffffff16565b6011600260030360ff166003811015156135a257fe5b6007020160050181905550600260030360ff1691505b600360ff1682101561372f576001820190506011826003811015156135d957fe5b60070201600001546011826003811015156135f057fe5b600702016000018190555060118260038110151561360a57fe5b600702016001015460118260038110151561362157fe5b600702016001018190555060118260038110151561363b57fe5b600702016002015460118260038110151561365257fe5b600702016002018190555060118260038110151561366c57fe5b600702016003015460118260038110151561368357fe5b600702016003018190555060118260038110151561369d57fe5b60070201600401546011826003811015156136b457fe5b60070201600401819055506011826003811015156136ce57fe5b60070201600501546011826003811015156136e557fe5b60070201600501819055506011826003811015156136ff57fe5b600702016006015460118260038110151561371657fe5b60070201600601819055508180600190039250506135b8565b6011600060038110151561373f57fe5b6007020160008082016000905560018201600090556002820160009055600382016000905560048201600090556005820160009055600682016000905550506137a960016011600160038110151561379357fe5b60070201600001546174ee90919063ffffffff16565b601160006003811015156137b957fe5b6007020160000181905550600960009054906101000a900473ffffffffffffffffffffffffffffffffffffffff1673ffffffffffffffffffffffffffffffffffffffff1663cd92eba96040518163ffffffff167c0100000000000000000000000000000000000000000000000000000000028152600401602060405180830381600087803b15801561384a57600080fd5b505af115801561385e573d6000803e3d6000fd5b505050506040513d602081101561387457600080fd5b81019080805190602001909291905050506011600060038110151561389557fe5b600702016001018190555042601160006003811015156138b157fe5b60070201600201819055506138dc601160016003811015156138cf57fe5b60070201600001546175f5565b50505050565b6011816003811015156138f157fe5b600702016000915090508060000154908060010154908060020154908060030154908060040154908060050154908060060154905087565b600260009054906101000a900473ffffffffffffffffffffffffffffffffffffffff1673ffffffffffffffffffffffffffffffffffffffff163373ffffffffffffffffffffffffffffffffffffffff16141580156139d55750600360009054906101000a900473ffffffffffffffffffffffffffffffffffffffff1673ffffffffffffffffffffffffffffffffffffffff163373ffffffffffffffffffffffffffffffffffffffff1614155b15613a1c5733600460006101000a81548173ffffffffffffffffffffffffffffffffffffffff021916908373ffffffffffffffffffffffffffffffffffffffff1602179055505b600073ffffffffffffffffffffffffffffffffffffffff16601060009054906101000a900473ffffffffffffffffffffffffffffffffffffffff1673ffffffffffffffffffffffffffffffffffffffff1614151515613ae3576040517f08c379a000000000000000000000000000000000000000000000000000000000815260040180806020018281038252601a8152602001807f44656c65676174657320436f6e7472616374206d697373696e6700000000000081525060200191505060405180910390fd5b600073ffffffffffffffffffffffffffffffffffffffff168173ffffffffffffffffffffffffffffffffffffffff1614151515613b88576040517f08c379a000000000000000000000000000000000000000000000000000000000815260040180806020018281038252601c8152602001807f43616e27742064656c656761746520746f20616464726573732830290000000081525060200191505060405180910390fd5b601060009054906101000a900473ffffffffffffffffffffffffffffffffffffffff1673ffffffffffffffffffffffffffffffffffffffff1663b3c12354600460009054906101000a900473ffffffffffffffffffffffffffffffffffffffff16836040518363ffffffff167c0100000000000000000000000000000000000000000000000000000000028152600401808373ffffffffffffffffffffffffffffffffffffffff1673ffffffffffffffffffffffffffffffffffffffff1681526020018273ffffffffffffffffffffffffffffffffffffffff1673ffffffffffffffffffffffffffffffffffffffff16815260200192505050600060405180830381600087803b158015613c9b57600080fd5b505af1158015613caf573d6000803e3d6000fd5b5050505050565b600b60009054906101000a900473ffffffffffffffffffffffffffffffffffffffff1681565b600160009054906101000a900473ffffffffffffffffffffffffffffffffffffffff1681565b600260009054906101000a900473ffffffffffffffffffffffffffffffffffffffff1673ffffffffffffffffffffffffffffffffffffffff163373ffffffffffffffffffffffffffffffffffffffff1614158015613dae5750600360009054906101000a900473ffffffffffffffffffffffffffffffffffffffff1673ffffffffffffffffffffffffffffffffffffffff163373ffffffffffffffffffffffffffffffffffffffff1614155b15613df55733600460006101000a81548173ffffffffffffffffffffffffffffffffffffffff021916908373ffffffffffffffffffffffffffffffffffffffff1602179055505b6000809054906101000a900473ffffffffffffffffffffffffffffffffffffffff1673ffffffffffffffffffffffffffffffffffffffff16600460009054906101000a900473ffffffffffffffffffffffffffffffffffffffff1673ffffffffffffffffffffffffffffffffffffffff16141515613edb576040517f08c379a00000000000000000000000000000000000000000000000000000000081526004018080602001828103825260138152602001807f4f776e6572206f6e6c792066756e6374696f6e0000000000000000000000000081525060200191505060405180910390fd5b80600d8190555050565b600080600080600860009054906101000a900473ffffffffffffffffffffffffffffffffffffffff1673ffffffffffffffffffffffffffffffffffffffff1663a311c7c2866040518263ffffffff167c0100000000000000000000000000000000000000000000000000000000028152600401808273ffffffffffffffffffffffffffffffffffffffff1673ffffffffffffffffffffffffffffffffffffffff168152602001915050602060405180830381600087803b158015613fa857600080fd5b505af1158015613fbc573d6000803e3d6000fd5b505050506040513d6020811015613fd257600080fd5b81019080805190602001909291905050509250600860009054906101000a900473ffffffffffffffffffffffffffffffffffffffff1673ffffffffffffffffffffffffffffffffffffffff1663dbd4a4226040518163ffffffff167c0100000000000000000000000000000000000000000000000000000000028152600401602060405180830381600087803b15801561406b57600080fd5b505af115801561407f573d6000803e3d6000fd5b505050506040513d602081101561409557600080fd5b810190808051906020019092919050505073ffffffffffffffffffffffffffffffffffffffff1663b410a0346040518163ffffffff167c0100000000000000000000000000000000000000000000000000000000028152600401602060405180830381600087803b15801561410957600080fd5b505af115801561411d573d6000803e3d6000fd5b505050506040513d602081101561413357600080fd5b81019080805190602001909291905050509150818310156141575760019350614230565b61421861420960275473__SafeDecimalMath_______________________63907af6c06040518163ffffffff167c010000000000000000000000000000000000000000000000000000000002815260040160206040518083038186803b1580156141c057600080fd5b505af41580156141d4573d6000803e3d6000fd5b505050506040513d60208110156141ea57600080fd5b81019080805190602001909291905050506174ee90919063ffffffff16565b836177a290919063ffffffff16565b90508083111561422b5760009350614230565b600193505b505050919050565b600260009054906101000a900473ffffffffffffffffffffffffffffffffffffffff1673ffffffffffffffffffffffffffffffffffffffff163373ffffffffffffffffffffffffffffffffffffffff16141580156142e45750600360009054906101000a900473ffffffffffffffffffffffffffffffffffffffff1673ffffffffffffffffffffffffffffffffffffffff163373ffffffffffffffffffffffffffffffffffffffff1614155b1561432b5733600460006101000a81548173ffffffffffffffffffffffffffffffffffffffff021916908373ffffffffffffffffffffffffffffffffffffffff1602179055505b6000809054906101000a900473ffffffffffffffffffffffffffffffffffffffff1673ffffffffffffffffffffffffffffffffffffffff16600460009054906101000a900473ffffffffffffffffffffffffffffffffffffffff1673ffffffffffffffffffffffffffffffffffffffff16141515614411576040517f08c379a00000000000000000000000000000000000000000000000000000000081526004018080602001828103825260138152602001807f4f776e6572206f6e6c792066756e6374696f6e0000000000000000000000000081525060200191505060405180910390fd5b80601060006101000a81548173ffffffffffffffffffffffffffffffffffffffff021916908373ffffffffffffffffffffffffffffffffffffffff16021790555050565b601060009054906101000a900473ffffffffffffffffffffffffffffffffffffffff1681565b6000806000809150600190505b600360ff168110156144f7576144bd6011826003811015156144a657fe5b6007020160030154836174ee90919063ffffffff16565b91506144e86011826003811015156144d157fe5b60070201600401548361705790919063ffffffff16565b91508080600101915050614488565b600860009054906101000a900473ffffffffffffffffffffffffffffffffffffffff1673ffffffffffffffffffffffffffffffffffffffff166339d66fc083866040518363ffffffff167c010000000000000000000000000000000000000000000000000000000002815260040180807f5844520000000000000000000000000000000000000000000000000000000000815250602001838152602001827bffffffffffffffffffffffffffffffffffffffffffffffffffffffff19167bffffffffffffffffffffffffffffffffffffffffffffffffffffffff1916815260200192505050602060405180830381600087803b1580156145f657600080fd5b505af115801561460a573d6000803e3d6000fd5b505050506040513d602081101561462057600080fd5b810190808051906020019092919050505092505050919050565b600260009054906101000a900473ffffffffffffffffffffffffffffffffffffffff1673ffffffffffffffffffffffffffffffffffffffff163373ffffffffffffffffffffffffffffffffffffffff16141580156146e65750600360009054906101000a900473ffffffffffffffffffffffffffffffffffffffff1673ffffffffffffffffffffffffffffffffffffffff163373ffffffffffffffffffffffffffffffffffffffff1614155b1561472d5733600460006101000a81548173ffffffffffffffffffffffffffffffffffffffff021916908373ffffffffffffffffffffffffffffffffffffffff1602179055505b600073ffffffffffffffffffffffffffffffffffffffff16601060009054906101000a900473ffffffffffffffffffffffffffffffffffffffff1673ffffffffffffffffffffffffffffffffffffffff16141515156147f4576040517f08c379a000000000000000000000000000000000000000000000000000000000815260040180806020018281038252601a8152602001807f44656c65676174657320436f6e7472616374206d697373696e6700000000000081525060200191505060405180910390fd5b601060009054906101000a900473ffffffffffffffffffffffffffffffffffffffff1673ffffffffffffffffffffffffffffffffffffffff16635f0736a1600460009054906101000a900473ffffffffffffffffffffffffffffffffffffffff16836040518363ffffffff167c0100000000000000000000000000000000000000000000000000000000028152600401808373ffffffffffffffffffffffffffffffffffffffff1673ffffffffffffffffffffffffffffffffffffffff1681526020018273ffffffffffffffffffffffffffffffffffffffff1673ffffffffffffffffffffffffffffffffffffffff16815260200192505050600060405180830381600087803b15801561490757600080fd5b505af115801561491b573d6000803e3d6000fd5b5050505050565b6000806000809150600190505b600360ff1681101561499e5761496460118260038110151561494d57fe5b6007020160050154836174ee90919063ffffffff16565b915061498f60118260038110151561497857fe5b60070201600601548361705790919063ffffffff16565b9150808060010191505061492f565b819250505090565b600860009054906101000a900473ffffffffffffffffffffffffffffffffffffffff1681565b600a73__SafeDecimalMath_______________________63907af6c06040518163ffffffff167c010000000000000000000000000000000000000000000000000000000002815260040160206040518083038186803b158015614a2e57600080fd5b505af4158015614a42573d6000803e3d6000fd5b505050506040513d6020811015614a5857600080fd5b8101908080519060200190929190505050811515614a7257fe5b0481565b600160009054906101000a900473ffffffffffffffffffffffffffffffffffffffff1673ffffffffffffffffffffffffffffffffffffffff163373ffffffffffffffffffffffffffffffffffffffff16141515614b61576040517f08c379a00000000000000000000000000000000000000000000000000000000081526004018080602001828103825260358152602001807f596f75206d757374206265206e6f6d696e61746564206265666f726520796f7581526020017f2063616e20616363657074206f776e657273686970000000000000000000000081525060400191505060405180910390fd5b7fb532073b38c83145e3e5135377a08bf9aab55bc0fd7c1179cd4fb995d2a5159c6000809054906101000a900473ffffffffffffffffffffffffffffffffffffffff16600160009054906101000a900473ffffffffffffffffffffffffffffffffffffffff16604051808373ffffffffffffffffffffffffffffffffffffffff1673ffffffffffffffffffffffffffffffffffffffff1681526020018273ffffffffffffffffffffffffffffffffffffffff1673ffffffffffffffffffffffffffffffffffffffff1681526020019250505060405180910390a1600160009054906101000a900473ffffffffffffffffffffffffffffffffffffffff166000806101000a81548173ffffffffffffffffffffffffffffffffffffffff021916908373ffffffffffffffffffffffffffffffffffffffff1602179055506000600160006101000a81548173ffffffffffffffffffffffffffffffffffffffff021916908373ffffffffffffffffffffffffffffffffffffffff160217905550565b600860009054906101000a900473ffffffffffffffffffffffffffffffffffffffff1673ffffffffffffffffffffffffffffffffffffffff163373ffffffffffffffffffffffffffffffffffffffff16141515614da6576040517f08c379a00000000000000000000000000000000000000000000000000000000081526004018080602001828103825260198152602001807f4f6e6c792053796e74686574697820417574686f72697365640000000000000081525060200191505060405180910390fd5b600f60009054906101000a900473ffffffffffffffffffffffffffffffffffffffff1673ffffffffffffffffffffffffffffffffffffffff166394e1a44884848460116000600381101515614df757fe5b60070201600101546040518563ffffffff167c0100000000000000000000000000000000000000000000000000000000028152600401808573ffffffffffffffffffffffffffffffffffffffff1673ffffffffffffffffffffffffffffffffffffffff168152602001848152602001838152602001828152602001945050505050600060405180830381600087803b158015614e9257600080fd5b505af1158015614ea6573d6000803e3d6000fd5b50505050614ecd83838360116000600381101515614ec057fe5b60070201600101546177d1565b505050565b6000809054906101000a900473ffffffffffffffffffffffffffffffffffffffff1681565b6000809054906101000a900473ffffffffffffffffffffffffffffffffffffffff1673ffffffffffffffffffffffffffffffffffffffff163373ffffffffffffffffffffffffffffffffffffffff16141515614fe1576040517f08c379a000000000000000000000000000000000000000000000000000000000815260040180806020018281038252602f8152602001807f4f6e6c792074686520636f6e7472616374206f776e6572206d6179207065726681526020017f6f726d207468697320616374696f6e000000000000000000000000000000000081525060400191505060405180910390fd5b80600260006101000a81548173ffffffffffffffffffffffffffffffffffffffff021916908373ffffffffffffffffffffffffffffffffffffffff1602179055507ffc80377ca9c49cc11ae6982f390a42db976d5530af7c43889264b13fbbd7c57e81604051808273ffffffffffffffffffffffffffffffffffffffff1673ffffffffffffffffffffffffffffffffffffffff16815260200191505060405180910390a150565b60008060009054906101000a900473ffffffffffffffffffffffffffffffffffffffff1673ffffffffffffffffffffffffffffffffffffffff163373ffffffffffffffffffffffffffffffffffffffff16141515615174576040517f08c379a000000000000000000000000000000000000000000000000000000000815260040180806020018281038252602f8152602001807f4f6e6c792074686520636f6e7472616374206f776e6572206d6179207065726681526020017f6f726d207468697320616374696f6e000000000000000000000000000000000081525060400191505060405180910390fd5b600660009054906101000a900460ff1615156151f8576040517f08c379a000000000000000000000000000000000000000000000000000000000815260040180806020018281038252601f8152602001807f53656c66204465737472756374206e6f742079657420696e697469617465640081525060200191505060405180910390fd5b426224ea0060055401101515615276576040517f08c379a000000000000000000000000000000000000000000000000000000000815260040180806020018281038252601b8152602001807f53656c662064657374727563742064656c6179206e6f74206d6574000000000081525060200191505060405180910390fd5b600660019054906101000a900473ffffffffffffffffffffffffffffffffffffffff1690507f8a09e1677ced846cb537dc2b172043bd05a1a81ad7e0033a7ef8ba762df990b781604051808273ffffffffffffffffffffffffffffffffffffffff1673ffffffffffffffffffffffffffffffffffffffff16815260200191505060405180910390a18073ffffffffffffffffffffffffffffffffffffffff16ff5b600360009054906101000a900473ffffffffffffffffffffffffffffffffffffffff1681565b6000600860009054906101000a900473ffffffffffffffffffffffffffffffffffffffff1673ffffffffffffffffffffffffffffffffffffffff163373ffffffffffffffffffffffffffffffffffffffff16141515615404576040517f08c379a00000000000000000000000000000000000000000000000000000000081526004018080602001828103825260198152602001807f4f6e6c792053796e74686574697820417574686f72697365640000000000000081525060200191505060405180910390fd5b7f5844520000000000000000000000000000000000000000000000000000000000837bffffffffffffffffffffffffffffffffffffffffffffffffffffffff191614151561558d57600860009054906101000a900473ffffffffffffffffffffffffffffffffffffffff1673ffffffffffffffffffffffffffffffffffffffff166339d66fc084846040518363ffffffff167c010000000000000000000000000000000000000000000000000000000002815260040180837bffffffffffffffffffffffffffffffffffffffffffffffffffffffff19167bffffffffffffffffffffffffffffffffffffffffffffffffffffffff19168152602001828152602001807f584452000000000000000000000000000000000000000000000000000000000081525060200192505050602060405180830381600087803b15801561554b57600080fd5b505af115801561555f573d6000803e3d6000fd5b505050506040513d602081101561557557600080fd5b81019080805190602001909291905050509050615591565b8190505b6155bb81601160006003811015156155a557fe5b60070201600301546174ee90919063ffffffff16565b601160006003811015156155cb57fe5b6007020160030181905550505050565b600a60009054906101000a900473ffffffffffffffffffffffffffffffffffffffff1681565b6224ea0081565b60275481565b600080600860009054906101000a900473ffffffffffffffffffffffffffffffffffffffff1673ffffffffffffffffffffffffffffffffffffffff1663dbd4a4226040518163ffffffff167c0100000000000000000000000000000000000000000000000000000000028152600401602060405180830381600087803b15801561569757600080fd5b505af11580156156ab573d6000803e3d6000fd5b505050506040513d60208110156156c157600080fd5b810190808051906020019092919050505073ffffffffffffffffffffffffffffffffffffffff1663b410a0346040518163ffffffff167c0100000000000000000000000000000000000000000000000000000000028152600401602060405180830381600087803b15801561573557600080fd5b505af1158015615749573d6000803e3d6000fd5b505050506040513d602081101561575f57600080fd5b8101908080519060200190929190505050905061583361582460275473__SafeDecimalMath_______________________63907af6c06040518163ffffffff167c010000000000000000000000000000000000000000000000000000000002815260040160206040518083038186803b1580156157db57600080fd5b505af41580156157ef573d6000803e3d6000fd5b505050506040513d602081101561580557600080fd5b81019080805190602001909291905050506174ee90919063ffffffff16565b826177a290919063ffffffff16565b91505090565b600260009054906101000a900473ffffffffffffffffffffffffffffffffffffffff1673ffffffffffffffffffffffffffffffffffffffff163373ffffffffffffffffffffffffffffffffffffffff16141580156158e55750600360009054906101000a900473ffffffffffffffffffffffffffffffffffffffff1673ffffffffffffffffffffffffffffffffffffffff163373ffffffffffffffffffffffffffffffffffffffff1614155b1561592c5733600460006101000a81548173ffffffffffffffffffffffffffffffffffffffff021916908373ffffffffffffffffffffffffffffffffffffffff1602179055505b6000809054906101000a900473ffffffffffffffffffffffffffffffffffffffff1673ffffffffffffffffffffffffffffffffffffffff16600460009054906101000a900473ffffffffffffffffffffffffffffffffffffffff1673ffffffffffffffffffffffffffffffffffffffff16141515615a12576040517f08c379a00000000000000000000000000000000000000000000000000000000081526004018080602001828103825260138152602001807f4f776e6572206f6e6c792066756e6374696f6e0000000000000000000000000081525060200191505060405180910390fd5b60075442101515615ab1576040517f08c379a00000000000000000000000000000000000000000000000000000000081526004018080602001828103825260298152602001807f43616e206f6e6c7920706572666f726d207468697320616374696f6e2064757281526020017f696e67207365747570000000000000000000000000000000000000000000000081525060400191505060405180910390fd5b86601189600381101515615ac157fe5b600702016000018190555085601189600381101515615adc57fe5b600702016001018190555084601189600381101515615af757fe5b600702016002018190555083601189600381101515615b1257fe5b600702016003018190555082601189600381101515615b2d57fe5b600702016004018190555081601189600381101515615b4857fe5b600702016005018190555080601189600381101515615b6357fe5b60070201600601819055505050505050505050565b600260009054906101000a900473ffffffffffffffffffffffffffffffffffffffff1673ffffffffffffffffffffffffffffffffffffffff163373ffffffffffffffffffffffffffffffffffffffff1614158015615c245750600360009054906101000a900473ffffffffffffffffffffffffffffffffffffffff1673ffffffffffffffffffffffffffffffffffffffff163373ffffffffffffffffffffffffffffffffffffffff1614155b15615c6b5733600460006101000a81548173ffffffffffffffffffffffffffffffffffffffff021916908373ffffffffffffffffffffffffffffffffffffffff1602179055505b6000809054906101000a900473ffffffffffffffffffffffffffffffffffffffff1673ffffffffffffffffffffffffffffffffffffffff16600460009054906101000a900473ffffffffffffffffffffffffffffffffffffffff1673ffffffffffffffffffffffffffffffffffffffff16141515615d51576040517f08c379a00000000000000000000000000000000000000000000000000000000081526004018080602001828103825260138152602001807f4f776e6572206f6e6c792066756e6374696f6e0000000000000000000000000081525060200191505060405180910390fd5b600860009054906101000a900473ffffffffffffffffffffffffffffffffffffffff1673ffffffffffffffffffffffffffffffffffffffff166323b872dd600460009054906101000a900473ffffffffffffffffffffffffffffffffffffffff16600a60009054906101000a900473ffffffffffffffffffffffffffffffffffffffff16846040518463ffffffff167c0100000000000000000000000000000000000000000000000000000000028152600401808473ffffffffffffffffffffffffffffffffffffffff1673ffffffffffffffffffffffffffffffffffffffff1681526020018373ffffffffffffffffffffffffffffffffffffffff1673ffffffffffffffffffffffffffffffffffffffff1681526020018281526020019350505050602060405180830381600087803b158015615e8e57600080fd5b505af1158015615ea2573d6000803e3d6000fd5b505050506040513d6020811015615eb857600080fd5b810190808051906020019092919050505050600a60009054906101000a900473ffffffffffffffffffffffffffffffffffffffff1673ffffffffffffffffffffffffffffffffffffffff1663b5ddb9c783836040518363ffffffff167c0100000000000000000000000000000000000000000000000000000000028152600401808373ffffffffffffffffffffffffffffffffffffffff1673ffffffffffffffffffffffffffffffffffffffff16815260200182815260200192505050600060405180830381600087803b158015615f8f57600080fd5b505af1158015615fa3573d6000803e3d6000fd5b505050505050565b6000615fc8615fb98361667c565b836174ee90919063ffffffff16565b9050919050565b600061609261608373__SafeDecimalMath_______________________63907af6c06040518163ffffffff167c010000000000000000000000000000000000000000000000000000000002815260040160206040518083038186803b15801561603757600080fd5b505af415801561604b573d6000803e3d6000fd5b505050506040513d602081101561606157600080fd5b8101908080519060200190929190505050600c546174ee90919063ffffffff16565b836179d090919063ffffffff16565b9050919050565b600660009054906101000a900460ff1681565b600260009054906101000a900473ffffffffffffffffffffffffffffffffffffffff1673ffffffffffffffffffffffffffffffffffffffff163373ffffffffffffffffffffffffffffffffffffffff1614806161555750600360009054906101000a900473ffffffffffffffffffffffffffffffffffffffff1673ffffffffffffffffffffffffffffffffffffffff163373ffffffffffffffffffffffffffffffffffffffff16145b15156161c9576040517f08c379a00000000000000000000000000000000000000000000000000000000081526004018080602001828103825260178152602001807f4f6e6c79207468652070726f78792063616e2063616c6c00000000000000000081525060200191505060405180910390fd5b80600460006101000a81548173ffffffffffffffffffffffffffffffffffffffff021916908373ffffffffffffffffffffffffffffffffffffffff16021790555050565b6000809054906101000a900473ffffffffffffffffffffffffffffffffffffffff1673ffffffffffffffffffffffffffffffffffffffff163373ffffffffffffffffffffffffffffffffffffffff161415156162f7576040517f08c379a000000000000000000000000000000000000000000000000000000000815260040180806020018281038252602f8152602001807f4f6e6c792074686520636f6e7472616374206f776e6572206d6179207065726681526020017f6f726d207468697320616374696f6e000000000000000000000000000000000081525060400191505060405180910390fd5b426005819055506001600660006101000a81548160ff0219169083151502179055507fcbd94ca75b8dc45c9d80c77e851670e78843c0d75180cb81db3e2158228fa9a66224ea006040518082815260200191505060405180910390a1565b600660019054906101000a900473ffffffffffffffffffffffffffffffffffffffff1681565b600260009054906101000a900473ffffffffffffffffffffffffffffffffffffffff1673ffffffffffffffffffffffffffffffffffffffff163373ffffffffffffffffffffffffffffffffffffffff16141580156164275750600360009054906101000a900473ffffffffffffffffffffffffffffffffffffffff1673ffffffffffffffffffffffffffffffffffffffff163373ffffffffffffffffffffffffffffffffffffffff1614155b1561646e5733600460006101000a81548173ffffffffffffffffffffffffffffffffffffffff021916908373ffffffffffffffffffffffffffffffffffffffff1602179055505b6000809054906101000a900473ffffffffffffffffffffffffffffffffffffffff1673ffffffffffffffffffffffffffffffffffffffff16600460009054906101000a900473ffffffffffffffffffffffffffffffffffffffff1673ffffffffffffffffffffffffffffffffffffffff16141515616554576040517f08c379a00000000000000000000000000000000000000000000000000000000081526004018080602001828103825260138152602001807f4f776e6572206f6e6c792066756e6374696f6e0000000000000000000000000081525060200191505060405180910390fd5b600a73__SafeDecimalMath_______________________63907af6c06040518163ffffffff167c010000000000000000000000000000000000000000000000000000000002815260040160206040518083038186803b1580156165b657600080fd5b505af41580156165ca573d6000803e3d6000fd5b505050506040513d60208110156165e057600080fd5b81019080805190602001909291905050508115156165fa57fe5b048111151515616672576040517f08c379a000000000000000000000000000000000000000000000000000000000815260040180806020018281038252601e8152602001807f5472616e73666572206665652072617465206d6178206578636565646564000081525060200191505060405180910390fd5b80600c8190555050565b6000616693600d54836177a290919063ffffffff16565b9050919050565b6000600260009054906101000a900473ffffffffffffffffffffffffffffffffffffffff1673ffffffffffffffffffffffffffffffffffffffff163373ffffffffffffffffffffffffffffffffffffffff16141580156167485750600360009054906101000a900473ffffffffffffffffffffffffffffffffffffffff1673ffffffffffffffffffffffffffffffffffffffff163373ffffffffffffffffffffffffffffffffffffffff1614155b1561678f5733600460006101000a81548173ffffffffffffffffffffffffffffffffffffffff021916908373ffffffffffffffffffffffffffffffffffffffff1602179055505b6167bb600460009054906101000a900473ffffffffffffffffffffffffffffffffffffffff1683617315565b9050919050565b600381565b600e60009054906101000a900473ffffffffffffffffffffffffffffffffffffffff1681565b6201518081565b600061680b600c54836177a290919063ffffffff16565b9050919050565b600960009054906101000a900473ffffffffffffffffffffffffffffffffffffffff1681565b60006168fb6168ec600d5473__SafeDecimalMath_______________________63907af6c06040518163ffffffff167c010000000000000000000000000000000000000000000000000000000002815260040160206040518083038186803b1580156168a357600080fd5b505af41580156168b7573d6000803e3d6000fd5b505050506040513d60208110156168cd57600080fd5b810190808051906020019092919050505061705790919063ffffffff16565b836177a290919063ffffffff16565b9050919050565b600f60009054906101000a900473ffffffffffffffffffffffffffffffffffffffff1681565b6000616945616936836167f4565b836174ee90919063ffffffff16565b9050919050565b73feefeefeefeefeefeefeefeefeefeefeefeefeef81565b600260009054906101000a900473ffffffffffffffffffffffffffffffffffffffff1681565b624f1a0081565b600a73__SafeDecimalMath_______________________63907af6c06040518163ffffffff167c010000000000000000000000000000000000000000000000000000000002815260040160206040518083038186803b1580156169f357600080fd5b505af4158015616a07573d6000803e3d6000fd5b505050506040513d6020811015616a1d57600080fd5b8101908080519060200190929190505050811515616a3757fe5b0481565b600e60009054906101000a900473ffffffffffffffffffffffffffffffffffffffff1673ffffffffffffffffffffffffffffffffffffffff16600460009054906101000a900473ffffffffffffffffffffffffffffffffffffffff1673ffffffffffffffffffffffffffffffffffffffff161480616b065750600e60009054906101000a900473ffffffffffffffffffffffffffffffffffffffff1673ffffffffffffffffffffffffffffffffffffffff163373ffffffffffffffffffffffffffffffffffffffff16145b1515616b7a576040517f08c379a000000000000000000000000000000000000000000000000000000000815260040180806020018281038252601e8152602001807f43616c6c6572206973206e6f742072657761726473417574686f72697479000081525060200191505060405180910390fd5b616ba48160116000600381101515616b8e57fe5b60070201600501546174ee90919063ffffffff16565b60116000600381101515616bb457fe5b600702016005018190555050565b600260009054906101000a900473ffffffffffffffffffffffffffffffffffffffff1673ffffffffffffffffffffffffffffffffffffffff163373ffffffffffffffffffffffffffffffffffffffff1614158015616c6e5750600360009054906101000a900473ffffffffffffffffffffffffffffffffffffffff1673ffffffffffffffffffffffffffffffffffffffff163373ffffffffffffffffffffffffffffffffffffffff1614155b15616cb55733600460006101000a81548173ffffffffffffffffffffffffffffffffffffffff021916908373ffffffffffffffffffffffffffffffffffffffff1602179055505b6000809054906101000a900473ffffffffffffffffffffffffffffffffffffffff1673ffffffffffffffffffffffffffffffffffffffff16600460009054906101000a900473ffffffffffffffffffffffffffffffffffffffff1673ffffffffffffffffffffffffffffffffffffffff16141515616d9b576040517f08c379a00000000000000000000000000000000000000000000000000000000081526004018080602001828103825260138152602001807f4f776e6572206f6e6c792066756e6374696f6e0000000000000000000000000081525060200191505060405180910390fd5b600073ffffffffffffffffffffffffffffffffffffffff168173ffffffffffffffffffffffffffffffffffffffff1614151515616e40576040517f08c379a000000000000000000000000000000000000000000000000000000000815260040180806020018281038252601e8152602001807f4e65772053796e746865746978206d757374206265206e6f6e2d7a65726f000081525060200191505060405180910390fd5b80600860006101000a81548173ffffffffffffffffffffffffffffffffffffffff021916908373ffffffffffffffffffffffffffffffffffffffff16021790555050565b600260009054906101000a900473ffffffffffffffffffffffffffffffffffffffff1673ffffffffffffffffffffffffffffffffffffffff1663907dff978260405160200180828152602001915050604051602081830303815290604052600160405180807f466565506572696f644475726174696f6e557064617465642875696e7432353681526020017f29000000000000000000000000000000000000000000000000000000000000008152506021019050604051809103902060008060006040518763ffffffff167c010000000000000000000000000000000000000000000000000000000002815260040180806020018781526020018660001916600019168152602001856001026000191681526020018460010260001916815260200183600102600019168152602001828103825288818151815260200191508051906020019080838360005b83811015616feb578082015181840152602081019050616fd0565b50505050905090810190601f1680156170185780820380516001836020036101000a031916815260200191505b50975050505050505050600060405180830381600087803b15801561703c57600080fd5b505af1158015617050573d6000803e3d6000fd5b5050505050565b60008083831115151561706957600080fd5b82840390508091505092915050565b600080600960009054906101000a900473ffffffffffffffffffffffffffffffffffffffff1673ffffffffffffffffffffffffffffffffffffffff1663cd92eba96040518163ffffffff167c0100000000000000000000000000000000000000000000000000000000028152600401602060405180830381600087803b15801561710157600080fd5b505af1158015617115573d6000803e3d6000fd5b505050506040513d602081101561712b57600080fd5b810190808051906020019092919050505085111561714c576000915061730d565b617307846172f9600960009054906101000a900473ffffffffffffffffffffffffffffffffffffffff1673ffffffffffffffffffffffffffffffffffffffff166308d95cd5876040518263ffffffff167c010000000000000000000000000000000000000000000000000000000002815260040180828152602001915050602060405180830381600087803b1580156171e457600080fd5b505af11580156171f8573d6000803e3d6000fd5b505050506040513d602081101561720e57600080fd5b8101908080519060200190929190505050600960009054906101000a900473ffffffffffffffffffffffffffffffffffffffff1673ffffffffffffffffffffffffffffffffffffffff166308d95cd58a6040518263ffffffff167c010000000000000000000000000000000000000000000000000000000002815260040180828152602001915050602060405180830381600087803b1580156172b057600080fd5b505af11580156172c4573d6000803e3d6000fd5b505050506040513d60208110156172da57600080fd5b8101908080519060200190929190505050617a0690919063ffffffff16565b617a2290919063ffffffff16565b90508091505b509392505050565b600080600080600061732687613ee5565b151561739a576040517f08c379a000000000000000000000000000000000000000000000000000000000815260040180806020018281038252601f8152602001807f432d526174696f2062656c6f772070656e616c7479207468726573686f6c640081525060200191505060405180910390fd5b6173c4877f5844520000000000000000000000000000000000000000000000000000000000612111565b809250819350505060008211806173db5750600081115b1515617475576040517f08c379a00000000000000000000000000000000000000000000000000000000081526004018080602001828103825260408152602001807f4e6f2066656573206f72207265776172647320617661696c61626c6520666f7281526020017f20706572696f642c206f72206665657320616c726561647920636c61696d656481525060400191505060405180910390fd5b617496876011600160038110151561748957fe5b6007020160000154617a3e565b60008211156174b6576174a882617be7565b92506174b5878488617d1a565b5b60008111156174d5576174c881618679565b93506174d487856187ac565b5b6174e0878486618c1c565b600194505050505092915050565b600080828401905083811015151561750557600080fd5b8091505092915050565b600080600080600080600088141561753357600080819150809050955095506175e9565b879350600089111561757c5761756c6001601160018c0360038110151561755657fe5b600702016001015461705790919063ffffffff16565b9250617579838989617078565b93505b6175a58460118b60038110151561758f57fe5b60070201600301546177a290919063ffffffff16565b91506175d08460118b6003811015156175ba57fe5b60070201600501546177a290919063ffffffff16565b90506175db82618e2d565b6175e482618e2d565b955095505b50505050935093915050565b600260009054906101000a900473ffffffffffffffffffffffffffffffffffffffff1673ffffffffffffffffffffffffffffffffffffffff1663907dff978260405160200180828152602001915050604051602081830303815290604052600160405180807f466565506572696f64436c6f7365642875696e743235362900000000000000008152506018019050604051809103902060008060006040518763ffffffff167c010000000000000000000000000000000000000000000000000000000002815260040180806020018781526020018660001916600019168152602001856001026000191681526020018460010260001916815260200183600102600019168152602001828103825288818151815260200191508051906020019080838360005b8381101561773657808201518184015260208101905061771b565b50505050905090810190601f1680156177635780820380516001836020036101000a031916815260200191505b50975050505050505050600060405180830381600087803b15801561778757600080fd5b505af115801561779b573d6000803e3d6000fd5b5050505050565b6000601260ff16600a0a6177bf8385618e8690919063ffffffff16565b8115156177c857fe5b04905092915050565b600260009054906101000a900473ffffffffffffffffffffffffffffffffffffffff1673ffffffffffffffffffffffffffffffffffffffff1663907dff97848484604051602001808481526020018381526020018281526020019350505050604051602081830303815290604052600260405180807f49737375616e636544656274526174696f456e74727928616464726573732c7581526020017f696e743235362c75696e743235362c75696e7432353629000000000000000000815250603701905060405180910390208873ffffffffffffffffffffffffffffffffffffffff166001026000806040518763ffffffff167c01000000000000000000000000000000000000000000000000000000000281526004018080602001878152602001866000191660001916815260200185600019166000191681526020018460010260001916815260200183600102600019168152602001828103825288818151815260200191508051906020019080838360005b83811015617961578082015181840152602081019050617946565b50505050905090810190601f16801561798e5780820380516001836020036101000a031916815260200191505b50975050505050505050600060405180830381600087803b1580156179b257600080fd5b505af11580156179c6573d6000803e3d6000fd5b5050505050505050565b60006179fe826179f0601260ff16600a0a86618e8690919063ffffffff16565b618ec490919063ffffffff16565b905092915050565b6000617a1a8383601b60ff16600a0a618eee565b905092915050565b6000617a368383601b60ff16600a0a618f4f565b905092915050565b600b60009054906101000a900473ffffffffffffffffffffffffffffffffffffffff1673ffffffffffffffffffffffffffffffffffffffff16633562fd207f6c6173745f6665655f7769746864726177616c00000000000000000000000000846040516020018083600019166000191681526020018273ffffffffffffffffffffffffffffffffffffffff1673ffffffffffffffffffffffffffffffffffffffff166c01000000000000000000000000028152601401925050506040516020818303038152906040526040518082805190602001908083835b602083101515617b3c5780518252602082019150602081019050602083039250617b17565b6001836020036101000a0380198251168184511680821785525050505050509050019150506040518091039020836040518363ffffffff167c010000000000000000000000000000000000000000000000000000000002815260040180836000191660001916815260200182815260200192505050600060405180830381600087803b158015617bcb57600080fd5b505af1158015617bdf573d6000803e3d6000fd5b505050505050565b600080600080600080869450600160030360ff1692505b600360ff16831015617d0c57617c49601184600381101515617c1c57fe5b6007020160040154601185600381101515617c3357fe5b600702016003015461705790919063ffffffff16565b91506000821115617cfe57848210617c615784617c63565b815b9050617c8e81601185600381101515617c7857fe5b60070201600401546174ee90919063ffffffff16565b601184600381101515617c9d57fe5b6007020160040181905550617cbb818661705790919063ffffffff16565b9450617cd081856174ee90919063ffffffff16565b93506000851415617ce357839550617d10565b600083148015617cf35750600085115b15617cfd57600094505b5b828060019003935050617bfe565b8395505b5050505050919050565b60008060008573feefeefeefeefeefeefeefeefeefeefeefeefeef73ffffffffffffffffffffffffffffffffffffffff168173ffffffffffffffffffffffffffffffffffffffff1614151515617dd8576040517f08c379a00000000000000000000000000000000000000000000000000000000081526004018080602001828103825260178152602001807f4665652061646472657373206e6f7420616c6c6f77656400000000000000000081525060200191505060405180910390fd5b600073ffffffffffffffffffffffffffffffffffffffff168773ffffffffffffffffffffffffffffffffffffffff1614151515617e7d576040517f08c379a00000000000000000000000000000000000000000000000000000000081526004018080602001828103825260128152602001807f4163636f756e742063616e27742062652030000000000000000000000000000081525060200191505060405180910390fd5b3073ffffffffffffffffffffffffffffffffffffffff168773ffffffffffffffffffffffffffffffffffffffff1614151515617f21576040517f08c379a000000000000000000000000000000000000000000000000000000000815260040180806020018281038252601b8152602001807f43616e27742073656e64206665657320746f2066656520706f6f6c000000000081525060200191505060405180910390fd5b600260009054906101000a900473ffffffffffffffffffffffffffffffffffffffff1673ffffffffffffffffffffffffffffffffffffffff168773ffffffffffffffffffffffffffffffffffffffff1614151515617fe7576040517f08c379a00000000000000000000000000000000000000000000000000000000081526004018080602001828103825260188152602001807f43616e27742073656e64206665657320746f2070726f7879000000000000000081525060200191505060405180910390fd5b600860009054906101000a900473ffffffffffffffffffffffffffffffffffffffff1673ffffffffffffffffffffffffffffffffffffffff168773ffffffffffffffffffffffffffffffffffffffff16141515156180ad576040517f08c379a000000000000000000000000000000000000000000000000000000000815260040180806020018281038252601c8152602001807f43616e27742073656e64206665657320746f2073796e7468657469780000000081525060200191505060405180910390fd5b600860009054906101000a900473ffffffffffffffffffffffffffffffffffffffff1673ffffffffffffffffffffffffffffffffffffffff1663502b8bda6040518163ffffffff167c010000000000000000000000000000000000000000000000000000000002815260040180807f58445200000000000000000000000000000000000000000000000000000000008152506020019050602060405180830381600087803b15801561815e57600080fd5b505af1158015618172573d6000803e3d6000fd5b505050506040513d602081101561818857600080fd5b81019080805190602001909291905050509350600860009054906101000a900473ffffffffffffffffffffffffffffffffffffffff1673ffffffffffffffffffffffffffffffffffffffff1663502b8bda866040518263ffffffff167c010000000000000000000000000000000000000000000000000000000002815260040180827bffffffffffffffffffffffffffffffffffffffffffffffffffffffff19167bffffffffffffffffffffffffffffffffffffffffffffffffffffffff19168152602001915050602060405180830381600087803b15801561826a57600080fd5b505af115801561827e573d6000803e3d6000fd5b505050506040513d602081101561829457600080fd5b810190808051906020019092919050505092508373ffffffffffffffffffffffffffffffffffffffff16639dc29fac73feefeefeefeefeefeefeefeefeefeefeefeefeef886040518363ffffffff167c0100000000000000000000000000000000000000000000000000000000028152600401808373ffffffffffffffffffffffffffffffffffffffff1673ffffffffffffffffffffffffffffffffffffffff16815260200182815260200192505050600060405180830381600087803b15801561835e57600080fd5b505af1158015618372573d6000803e3d6000fd5b50505050600860009054906101000a900473ffffffffffffffffffffffffffffffffffffffff1673ffffffffffffffffffffffffffffffffffffffff166339d66fc087876040518363ffffffff167c010000000000000000000000000000000000000000000000000000000002815260040180807f5844520000000000000000000000000000000000000000000000000000000000815250602001838152602001827bffffffffffffffffffffffffffffffffffffffffffffffffffffffff19167bffffffffffffffffffffffffffffffffffffffffffffffffffffffff1916815260200192505050602060405180830381600087803b15801561847557600080fd5b505af1158015618489573d6000803e3d6000fd5b505050506040513d602081101561849f57600080fd5b810190808051906020019092919050505091508273ffffffffffffffffffffffffffffffffffffffff1663867904b488846040518363ffffffff167c0100000000000000000000000000000000000000000000000000000000028152600401808373ffffffffffffffffffffffffffffffffffffffff1673ffffffffffffffffffffffffffffffffffffffff16815260200182815260200192505050600060405180830381600087803b15801561855557600080fd5b505af1158015618569573d6000803e3d6000fd5b505050508273ffffffffffffffffffffffffffffffffffffffff1663eb6ecc0373feefeefeefeefeefeefeefeefeefeefeefeefeef89856040518463ffffffff167c0100000000000000000000000000000000000000000000000000000000028152600401808473ffffffffffffffffffffffffffffffffffffffff1673ffffffffffffffffffffffffffffffffffffffff1681526020018373ffffffffffffffffffffffffffffffffffffffff1673ffffffffffffffffffffffffffffffffffffffff1681526020018281526020019350505050600060405180830381600087803b15801561865857600080fd5b505af115801561866c573d6000803e3d6000fd5b5050505050505050505050565b600080600080600080869450600160030360ff1692505b600360ff1683101561879e576186db6011846003811015156186ae57fe5b60070201600601546011856003811015156186c557fe5b600702016005015461705790919063ffffffff16565b91506000821115618790578482106186f357846186f5565b815b90506187208160118560038110151561870a57fe5b60070201600601546174ee90919063ffffffff16565b60118460038110151561872f57fe5b600702016006018190555061874d818661705790919063ffffffff16565b945061876281856174ee90919063ffffffff16565b93506000851415618775578395506187a2565b6000831480156187855750600085115b1561878f57600094505b5b828060019003935050618690565b8395505b5050505050919050565b8173feefeefeefeefeefeefeefeefeefeefeefeefeef73ffffffffffffffffffffffffffffffffffffffff168173ffffffffffffffffffffffffffffffffffffffff1614151515618865576040517f08c379a00000000000000000000000000000000000000000000000000000000081526004018080602001828103825260178152602001807f4665652061646472657373206e6f7420616c6c6f77656400000000000000000081525060200191505060405180910390fd5b600073ffffffffffffffffffffffffffffffffffffffff168373ffffffffffffffffffffffffffffffffffffffff161415151561890a576040517f08c379a00000000000000000000000000000000000000000000000000000000081526004018080602001828103825260128152602001807f4163636f756e742063616e27742062652030000000000000000000000000000081525060200191505060405180910390fd5b3073ffffffffffffffffffffffffffffffffffffffff168373ffffffffffffffffffffffffffffffffffffffff16141515156189ae576040517f08c379a000000000000000000000000000000000000000000000000000000000815260040180806020018281038252601e8152602001807f43616e27742073656e64207265776172647320746f2066656520706f6f6c000081525060200191505060405180910390fd5b600260009054906101000a900473ffffffffffffffffffffffffffffffffffffffff1673ffffffffffffffffffffffffffffffffffffffff168373ffffffffffffffffffffffffffffffffffffffff1614151515618a74576040517f08c379a000000000000000000000000000000000000000000000000000000000815260040180806020018281038252601b8152602001807f43616e27742073656e64207265776172647320746f2070726f7879000000000081525060200191505060405180910390fd5b600860009054906101000a900473ffffffffffffffffffffffffffffffffffffffff1673ffffffffffffffffffffffffffffffffffffffff168373ffffffffffffffffffffffffffffffffffffffff1614151515618b3a576040517f08c379a000000000000000000000000000000000000000000000000000000000815260040180806020018281038252601f8152602001807f43616e27742073656e64207265776172647320746f2073796e7468657469780081525060200191505060405180910390fd5b600a60009054906101000a900473ffffffffffffffffffffffffffffffffffffffff1673ffffffffffffffffffffffffffffffffffffffff1663b5ddb9c784846040518363ffffffff167c0100000000000000000000000000000000000000000000000000000000028152600401808373ffffffffffffffffffffffffffffffffffffffff1673ffffffffffffffffffffffffffffffffffffffff16815260200182815260200192505050600060405180830381600087803b158015618bff57600080fd5b505af1158015618c13573d6000803e3d6000fd5b50505050505050565b600260009054906101000a900473ffffffffffffffffffffffffffffffffffffffff1673ffffffffffffffffffffffffffffffffffffffff1663907dff97848484604051602001808473ffffffffffffffffffffffffffffffffffffffff1673ffffffffffffffffffffffffffffffffffffffff1681526020018381526020018281526020019350505050604051602081830303815290604052600160405180807f46656573436c61696d656428616464726573732c75696e743235362c75696e7481526020017f32353629000000000000000000000000000000000000000000000000000000008152506024019050604051809103902060008060006040518763ffffffff167c010000000000000000000000000000000000000000000000000000000002815260040180806020018781526020018660001916600019168152602001856001026000191681526020018460010260001916815260200183600102600019168152602001828103825288818151815260200191508051906020019080838360005b83811015618dbf578082015181840152602081019050618da4565b50505050905090810190601f168015618dec5780820380516001836020036101000a031916815260200191505b50975050505050505050600060405180830381600087803b158015618e1057600080fd5b505af1158015618e24573d6000803e3d6000fd5b50505050505050565b600080600a6012601b0360ff16600a0a811515618e4657fe5b0483811515618e5157fe5b0490506005600a82811515618e6257fe5b06101515618e7157600a810190505b600a81811515618e7d57fe5b04915050919050565b6000806000841415618e9b5760009150618ebd565b8284029050828482811515618eac57fe5b04141515618eb957600080fd5b8091505b5092915050565b600080600083111515618ed657600080fd5b8284811515618ee157fe5b0490508091505092915050565b600080618f1984618f0b600a860288618e8690919063ffffffff16565b618ec490919063ffffffff16565b90506005600a82811515618f2957fe5b06101515618f3857600a810190505b600a81811515618f4457fe5b049150509392505050565b600080600a83811515618f5e57fe5b04618f728587618e8690919063ffffffff16565b811515618f7b57fe5b0490506005600a82811515618f8c57fe5b06101515618f9b57600a810190505b600a81811515618fa757fe5b049150509392505050565b60c0604051908101604052806003905b618fca61901e565b815260200190600190039081618fc25790505090565b60e060405190810160405280600081526020016000815260200160008152602001600081526020016000815260200160008152602001600081525090565b60408051908101604052806002906020820280388339808201915050905050905600a165627a7a723058204b80f44e56f0982c0b1ce76746dbe7eea469c2091de60bc5396f1a3ab36075440029",
  "deployedBytecode": "0x608060405260043610610317576000357c0100000000000000000000000000000000000000000000000000000000900463ffffffff16806304c49f2c1461031c578063075d2c411461034957806307ea50cd1461038c5780630813071c146103e35780630f5024a7146104445780630f9b4955146104c857806310adda0e146104f3578063131b0ae71461057a5780631627540c146105bd57806317c70de4146106005780631c6346ec1461062b57806320714f881461066e57806322425fa4146106b15780632cce0e54146106dc5780633278c960146107095780633314001614610720578063351bf518146107c25780633ebc457a146107ed5780633fcd2240146108045780634180e5b51461086f57806352b9f8a2146108b257806353a47bb714610909578063578a791d1461096057806358aab84a1461098d5780635b292e94146109e85780636138b19e14610a2b578063639cd59c14610a825780636c8bc9fe14610ae25780636de813f114610b25578063759b522514610b5057806376d752a114610ba757806379ba509714610bd25780638664527414610be95780638da5cb5b14610c4057806397107d6d14610c975780639cb8a26a14610cda5780639cbdaeb614610cf1578063a3fd6d0e14610d48578063a430be6c14610d9e578063a461fc8214610df5578063a6d5bb1414610e20578063ac83419314610e4b578063b10090b814610e76578063b5ddb9c714610ee9578063b6dc8e2514610f36578063b7fcfa6914610f77578063b8225dec14610fb8578063bc67f83214610fe7578063bd32aa441461102a578063c58aaae614611041578063c894e1e514611098578063cc9b31c9146110c5578063cd503c0b14611106578063cff2ddad1461116a578063d028a3f71461119b578063d62ae399146111f2578063da46e6c41461121d578063dbd4a4221461125e578063e05bac82146112b5578063e3082f6a146112f6578063e9d36c561461134d578063eb1edd611461138e578063ec556889146113e5578063f344da671461143c578063fb1b4c7e14611467578063fd1f498d14611492578063fec9f9da146114bf575b600080fd5b34801561032857600080fd5b5061034760048036038101908080359060200190929190505050611502565b005b34801561035557600080fd5b5061038a600480360381019080803573ffffffffffffffffffffffffffffffffffffffff1690602001909291905050506117e4565b005b34801561039857600080fd5b506103cd600480360381019080803573ffffffffffffffffffffffffffffffffffffffff169060200190929190505050611a01565b6040518082815260200191505060405180910390f35b3480156103ef57600080fd5b5061042e600480360381019080803573ffffffffffffffffffffffffffffffffffffffff16906020019092919080359060200190929190505050611bca565b6040518082815260200191505060405180910390f35b34801561045057600080fd5b506104ae600480360381019080803573ffffffffffffffffffffffffffffffffffffffff16906020019092919080357bffffffffffffffffffffffffffffffffffffffffffffffffffffffff19169060200190929190505050611e42565b604051808215151515815260200191505060405180910390f35b3480156104d457600080fd5b506104dd61210b565b6040518082815260200191505060405180910390f35b3480156104ff57600080fd5b5061055d600480360381019080803573ffffffffffffffffffffffffffffffffffffffff16906020019092919080357bffffffffffffffffffffffffffffffffffffffffffffffffffffffff19169060200190929190505050612111565b604051808381526020018281526020019250505060405180910390f35b34801561058657600080fd5b506105bb600480360381019080803573ffffffffffffffffffffffffffffffffffffffff169060200190929190505050612310565b005b3480156105c957600080fd5b506105fe600480360381019080803573ffffffffffffffffffffffffffffffffffffffff16906020019092919050505061243e565b005b34801561060c57600080fd5b506106156125cf565b6040518082815260200191505060405180910390f35b34801561063757600080fd5b5061066c600480360381019080803573ffffffffffffffffffffffffffffffffffffffff1690602001909291905050506125d5565b005b34801561067a57600080fd5b506106af600480360381019080803573ffffffffffffffffffffffffffffffffffffffff1690602001909291905050506127f2565b005b3480156106bd57600080fd5b506106c6612a28565b6040518082815260200191505060405180910390f35b3480156106e857600080fd5b5061070760048036038101908080359060200190929190505050612a2e565b005b34801561071557600080fd5b5061071e612d32565b005b34801561072c57600080fd5b50610761600480360381019080803573ffffffffffffffffffffffffffffffffffffffff169060200190929190505050612e6d565b604051808260036000925b818410156107b25782846020020151600260200280838360005b838110156107a1578082015181840152602081019050610786565b50505050905001926001019261076c565b9250505091505060405180910390f35b3480156107ce57600080fd5b506107d7613381565b6040518082815260200191505060405180910390f35b3480156107f957600080fd5b50610802613387565b005b34801561081057600080fd5b5061082f600480360381019080803590602001909291905050506138e2565b6040518088815260200187815260200186815260200185815260200184815260200183815260200182815260200197505050505050505060405180910390f35b34801561087b57600080fd5b506108b0600480360381019080803573ffffffffffffffffffffffffffffffffffffffff169060200190929190505050613929565b005b3480156108be57600080fd5b506108c7613cb6565b604051808273ffffffffffffffffffffffffffffffffffffffff1673ffffffffffffffffffffffffffffffffffffffff16815260200191505060405180910390f35b34801561091557600080fd5b5061091e613cdc565b604051808273ffffffffffffffffffffffffffffffffffffffff1673ffffffffffffffffffffffffffffffffffffffff16815260200191505060405180910390f35b34801561096c57600080fd5b5061098b60048036038101908080359060200190929190505050613d02565b005b34801561099957600080fd5b506109ce600480360381019080803573ffffffffffffffffffffffffffffffffffffffff169060200190929190505050613ee5565b604051808215151515815260200191505060405180910390f35b3480156109f457600080fd5b50610a29600480360381019080803573ffffffffffffffffffffffffffffffffffffffff169060200190929190505050614238565b005b348015610a3757600080fd5b50610a40614455565b604051808273ffffffffffffffffffffffffffffffffffffffff1673ffffffffffffffffffffffffffffffffffffffff16815260200191505060405180910390f35b348015610a8e57600080fd5b50610acc60048036038101908080357bffffffffffffffffffffffffffffffffffffffffffffffffffffffff1916906020019092919050505061447b565b6040518082815260200191505060405180910390f35b348015610aee57600080fd5b50610b23600480360381019080803573ffffffffffffffffffffffffffffffffffffffff16906020019092919050505061463a565b005b348015610b3157600080fd5b50610b3a614922565b6040518082815260200191505060405180910390f35b348015610b5c57600080fd5b50610b656149a6565b604051808273ffffffffffffffffffffffffffffffffffffffff1673ffffffffffffffffffffffffffffffffffffffff16815260200191505060405180910390f35b348015610bb357600080fd5b50610bbc6149cc565b6040518082815260200191505060405180910390f35b348015610bde57600080fd5b50610be7614a76565b005b348015610bf557600080fd5b50610c3e600480360381019080803573ffffffffffffffffffffffffffffffffffffffff1690602001909291908035906020019092919080359060200190929190505050614ce1565b005b348015610c4c57600080fd5b50610c55614ed2565b604051808273ffffffffffffffffffffffffffffffffffffffff1673ffffffffffffffffffffffffffffffffffffffff16815260200191505060405180910390f35b348015610ca357600080fd5b50610cd8600480360381019080803573ffffffffffffffffffffffffffffffffffffffff169060200190929190505050614ef7565b005b348015610ce657600080fd5b50610cef615088565b005b348015610cfd57600080fd5b50610d06615317565b604051808273ffffffffffffffffffffffffffffffffffffffff1673ffffffffffffffffffffffffffffffffffffffff16815260200191505060405180910390f35b348015610d5457600080fd5b50610d9c60048036038101908080357bffffffffffffffffffffffffffffffffffffffffffffffffffffffff191690602001909291908035906020019092919050505061533d565b005b348015610daa57600080fd5b50610db36155db565b604051808273ffffffffffffffffffffffffffffffffffffffff1673ffffffffffffffffffffffffffffffffffffffff16815260200191505060405180910390f35b348015610e0157600080fd5b50610e0a615601565b6040518082815260200191505060405180910390f35b348015610e2c57600080fd5b50610e35615608565b6040518082815260200191505060405180910390f35b348015610e5757600080fd5b50610e6061560e565b6040518082815260200191505060405180910390f35b348015610e8257600080fd5b50610ee76004803603810190808035906020019092919080359060200190929190803590602001909291908035906020019092919080359060200190929190803590602001909291908035906020019092919080359060200190929190505050615839565b005b348015610ef557600080fd5b50610f34600480360381019080803573ffffffffffffffffffffffffffffffffffffffff16906020019092919080359060200190929190505050615b78565b005b348015610f4257600080fd5b50610f6160048036038101908080359060200190929190505050615fab565b6040518082815260200191505060405180910390f35b348015610f8357600080fd5b50610fa260048036038101908080359060200190929190505050615fcf565b6040518082815260200191505060405180910390f35b348015610fc457600080fd5b50610fcd616099565b604051808215151515815260200191505060405180910390f35b348015610ff357600080fd5b50611028600480360381019080803573ffffffffffffffffffffffffffffffffffffffff1690602001909291905050506160ac565b005b34801561103657600080fd5b5061103f61620d565b005b34801561104d57600080fd5b50611056616355565b604051808273ffffffffffffffffffffffffffffffffffffffff1673ffffffffffffffffffffffffffffffffffffffff16815260200191505060405180910390f35b3480156110a457600080fd5b506110c36004803603810190808035906020019092919050505061637b565b005b3480156110d157600080fd5b506110f06004803603810190808035906020019092919050505061667c565b6040518082815260200191505060405180910390f35b34801561111257600080fd5b5061115060048036038101908080357bffffffffffffffffffffffffffffffffffffffffffffffffffffffff1916906020019092919050505061669a565b604051808215151515815260200191505060405180910390f35b34801561117657600080fd5b5061117f6167c2565b604051808260ff1660ff16815260200191505060405180910390f35b3480156111a757600080fd5b506111b06167c7565b604051808273ffffffffffffffffffffffffffffffffffffffff1673ffffffffffffffffffffffffffffffffffffffff16815260200191505060405180910390f35b3480156111fe57600080fd5b506112076167ed565b6040518082815260200191505060405180910390f35b34801561122957600080fd5b50611248600480360381019080803590602001909291905050506167f4565b6040518082815260200191505060405180910390f35b34801561126a57600080fd5b50611273616812565b604051808273ffffffffffffffffffffffffffffffffffffffff1673ffffffffffffffffffffffffffffffffffffffff16815260200191505060405180910390f35b3480156112c157600080fd5b506112e060048036038101908080359060200190929190505050616838565b6040518082815260200191505060405180910390f35b34801561130257600080fd5b5061130b616902565b604051808273ffffffffffffffffffffffffffffffffffffffff1673ffffffffffffffffffffffffffffffffffffffff16815260200191505060405180910390f35b34801561135957600080fd5b5061137860048036038101908080359060200190929190505050616928565b6040518082815260200191505060405180910390f35b34801561139a57600080fd5b506113a361694c565b604051808273ffffffffffffffffffffffffffffffffffffffff1673ffffffffffffffffffffffffffffffffffffffff16815260200191505060405180910390f35b3480156113f157600080fd5b506113fa616964565b604051808273ffffffffffffffffffffffffffffffffffffffff1673ffffffffffffffffffffffffffffffffffffffff16815260200191505060405180910390f35b34801561144857600080fd5b5061145161698a565b6040518082815260200191505060405180910390f35b34801561147357600080fd5b5061147c616991565b6040518082815260200191505060405180910390f35b34801561149e57600080fd5b506114bd60048036038101908080359060200190929190505050616a3b565b005b3480156114cb57600080fd5b50611500600480360381019080803573ffffffffffffffffffffffffffffffffffffffff169060200190929190505050616bc2565b005b600260009054906101000a900473ffffffffffffffffffffffffffffffffffffffff1673ffffffffffffffffffffffffffffffffffffffff163373ffffffffffffffffffffffffffffffffffffffff16141580156115ae5750600360009054906101000a900473ffffffffffffffffffffffffffffffffffffffff1673ffffffffffffffffffffffffffffffffffffffff163373ffffffffffffffffffffffffffffffffffffffff1614155b156115f55733600460006101000a81548173ffffffffffffffffffffffffffffffffffffffff021916908373ffffffffffffffffffffffffffffffffffffffff1602179055505b6000809054906101000a900473ffffffffffffffffffffffffffffffffffffffff1673ffffffffffffffffffffffffffffffffffffffff16600460009054906101000a900473ffffffffffffffffffffffffffffffffffffffff1673ffffffffffffffffffffffffffffffffffffffff161415156116db576040517f08c379a00000000000000000000000000000000000000000000000000000000081526004018080602001828103825260138152602001807f4f776e6572206f6e6c792066756e6374696f6e0000000000000000000000000081525060200191505060405180910390fd5b620151808110151515611756576040517f08c379a000000000000000000000000000000000000000000000000000000000815260040180806020018281038252601f8152602001807f76616c7565203c204d494e5f4645455f504552494f445f4455524154494f4e0081525060200191505060405180910390fd5b624f1a0081111515156117d1576040517f08c379a000000000000000000000000000000000000000000000000000000000815260040180806020018281038252601f8152602001807f76616c7565203e204d41585f4645455f504552494f445f4455524154494f4e0081525060200191505060405180910390fd5b806026819055506117e181616e84565b50565b600260009054906101000a900473ffffffffffffffffffffffffffffffffffffffff1673ffffffffffffffffffffffffffffffffffffffff163373ffffffffffffffffffffffffffffffffffffffff16141580156118905750600360009054906101000a900473ffffffffffffffffffffffffffffffffffffffff1673ffffffffffffffffffffffffffffffffffffffff163373ffffffffffffffffffffffffffffffffffffffff1614155b156118d75733600460006101000a81548173ffffffffffffffffffffffffffffffffffffffff021916908373ffffffffffffffffffffffffffffffffffffffff1602179055505b6000809054906101000a900473ffffffffffffffffffffffffffffffffffffffff1673ffffffffffffffffffffffffffffffffffffffff16600460009054906101000a900473ffffffffffffffffffffffffffffffffffffffff1673ffffffffffffffffffffffffffffffffffffffff161415156119bd576040517f08c379a00000000000000000000000000000000000000000000000000000000081526004018080602001828103825260138152602001807f4f776e6572206f6e6c792066756e6374696f6e0000000000000000000000000081525060200191505060405180910390fd5b80600f60006101000a81548173ffffffffffffffffffffffffffffffffffffffff021916908373ffffffffffffffffffffffffffffffffffffffff16021790555050565b6000600b60009054906101000a900473ffffffffffffffffffffffffffffffffffffffff1673ffffffffffffffffffffffffffffffffffffffff1663bdc963d87f6c6173745f6665655f7769746864726177616c00000000000000000000000000846040516020018083600019166000191681526020018273ffffffffffffffffffffffffffffffffffffffff1673ffffffffffffffffffffffffffffffffffffffff166c01000000000000000000000000028152601401925050506040516020818303038152906040526040518082805190602001908083835b602083101515611b015780518252602082019150602081019050602083039250611adc565b6001836020036101000a03801982511681845116808217855250505050505090500191505060405180910390206040518263ffffffff167c0100000000000000000000000000000000000000000000000000000000028152600401808260001916600019168152602001915050602060405180830381600087803b158015611b8857600080fd5b505af1158015611b9c573d6000803e3d6000fd5b505050506040513d6020811015611bb257600080fd5b81019080805190602001909291905050509050919050565b60008060008060008514151515611c49576040517f08c379a00000000000000000000000000000000000000000000000000000000081526004018080602001828103825260208152602001807f43757272656e7420706572696f64206973206e6f7420636c6f7365642079657481525060200191505060405180910390fd5b600360ff1685101515611cc4576040517f08c379a000000000000000000000000000000000000000000000000000000000815260040180806020018281038252601d8152602001807f4578636565647320746865204645455f504552494f445f4c454e47544800000081525060200191505060405180910390fd5b6000601160018703600381101515611cd857fe5b60070201600101541415611ceb57611e39565b611d186001601160018803600381101515611d0257fe5b600702016001015461705790919063ffffffff16565b9250600f60009054906101000a900473ffffffffffffffffffffffffffffffffffffffff1673ffffffffffffffffffffffffffffffffffffffff1663d29c000a87856040518363ffffffff167c0100000000000000000000000000000000000000000000000000000000028152600401808373ffffffffffffffffffffffffffffffffffffffff1673ffffffffffffffffffffffffffffffffffffffff168152602001828152602001925050506040805180830381600087803b158015611dde57600080fd5b505af1158015611df2573d6000803e3d6000fd5b505050506040513d6040811015611e0857600080fd5b8101908080519060200190929190805190602001909291905050508092508193505050611e36838383617078565b93505b50505092915050565b6000600260009054906101000a900473ffffffffffffffffffffffffffffffffffffffff1673ffffffffffffffffffffffffffffffffffffffff163373ffffffffffffffffffffffffffffffffffffffff1614158015611ef05750600360009054906101000a900473ffffffffffffffffffffffffffffffffffffffff1673ffffffffffffffffffffffffffffffffffffffff163373ffffffffffffffffffffffffffffffffffffffff1614155b15611f375733600460006101000a81548173ffffffffffffffffffffffffffffffffffffffff021916908373ffffffffffffffffffffffffffffffffffffffff1602179055505b601060009054906101000a900473ffffffffffffffffffffffffffffffffffffffff1673ffffffffffffffffffffffffffffffffffffffff1663e1270b6e84600460009054906101000a900473ffffffffffffffffffffffffffffffffffffffff166040518363ffffffff167c0100000000000000000000000000000000000000000000000000000000028152600401808373ffffffffffffffffffffffffffffffffffffffff1673ffffffffffffffffffffffffffffffffffffffff1681526020018273ffffffffffffffffffffffffffffffffffffffff1673ffffffffffffffffffffffffffffffffffffffff16815260200192505050602060405180830381600087803b15801561204a57600080fd5b505af115801561205e573d6000803e3d6000fd5b505050506040513d602081101561207457600080fd5b810190808051906020019092919050505015156120f9576040517f08c379a000000000000000000000000000000000000000000000000000000000815260040180806020018281038252601f8152602001807f4e6f7420617070726f76656420746f20636c61696d206f6e20626568616c660081525060200191505060405180910390fd5b6121038383617315565b905092915050565b600d5481565b60008061211c618fb2565b600080600061212a88612e6d565b93506000925060009150600190505b600360ff168110156121c65761217d848260038110151561215657fe5b6020020151600060028110151561216957fe5b6020020151846174ee90919063ffffffff16565b92506121b7848260038110151561219057fe5b602002015160016002811015156121a357fe5b6020020151836174ee90919063ffffffff16565b91508080600101915050612139565b600860009054906101000a900473ffffffffffffffffffffffffffffffffffffffff1673ffffffffffffffffffffffffffffffffffffffff166339d66fc084896040518363ffffffff167c010000000000000000000000000000000000000000000000000000000002815260040180807f5844520000000000000000000000000000000000000000000000000000000000815250602001838152602001827bffffffffffffffffffffffffffffffffffffffffffffffffffffffff19167bffffffffffffffffffffffffffffffffffffffffffffffffffffffff1916815260200192505050602060405180830381600087803b1580156122c557600080fd5b505af11580156122d9573d6000803e3d6000fd5b505050506040513d60208110156122ef57600080fd5b81019080805190602001909291905050508295509550505050509250929050565b6000809054906101000a900473ffffffffffffffffffffffffffffffffffffffff1673ffffffffffffffffffffffffffffffffffffffff163373ffffffffffffffffffffffffffffffffffffffff161415156123fa576040517f08c379a000000000000000000000000000000000000000000000000000000000815260040180806020018281038252602f8152602001807f4f6e6c792074686520636f6e7472616374206f776e6572206d6179207065726681526020017f6f726d207468697320616374696f6e000000000000000000000000000000000081525060400191505060405180910390fd5b80600360006101000a81548173ffffffffffffffffffffffffffffffffffffffff021916908373ffffffffffffffffffffffffffffffffffffffff16021790555050565b6000809054906101000a900473ffffffffffffffffffffffffffffffffffffffff1673ffffffffffffffffffffffffffffffffffffffff163373ffffffffffffffffffffffffffffffffffffffff16141515612528576040517f08c379a000000000000000000000000000000000000000000000000000000000815260040180806020018281038252602f8152602001807f4f6e6c792074686520636f6e7472616374206f776e6572206d6179207065726681526020017f6f726d207468697320616374696f6e000000000000000000000000000000000081525060400191505060405180910390fd5b80600160006101000a81548173ffffffffffffffffffffffffffffffffffffffff021916908373ffffffffffffffffffffffffffffffffffffffff1602179055507f906a1c6bd7e3091ea86693dd029a831c19049ce77f1dce2ce0bab1cacbabce2281604051808273ffffffffffffffffffffffffffffffffffffffff1673ffffffffffffffffffffffffffffffffffffffff16815260200191505060405180910390a150565b60055481565b600260009054906101000a900473ffffffffffffffffffffffffffffffffffffffff1673ffffffffffffffffffffffffffffffffffffffff163373ffffffffffffffffffffffffffffffffffffffff16141580156126815750600360009054906101000a900473ffffffffffffffffffffffffffffffffffffffff1673ffffffffffffffffffffffffffffffffffffffff163373ffffffffffffffffffffffffffffffffffffffff1614155b156126c85733600460006101000a81548173ffffffffffffffffffffffffffffffffffffffff021916908373ffffffffffffffffffffffffffffffffffffffff1602179055505b6000809054906101000a900473ffffffffffffffffffffffffffffffffffffffff1673ffffffffffffffffffffffffffffffffffffffff16600460009054906101000a900473ffffffffffffffffffffffffffffffffffffffff1673ffffffffffffffffffffffffffffffffffffffff161415156127ae576040517f08c379a00000000000000000000000000000000000000000000000000000000081526004018080602001828103825260138152602001807f4f776e6572206f6e6c792066756e6374696f6e0000000000000000000000000081525060200191505060405180910390fd5b80600e60006101000a81548173ffffffffffffffffffffffffffffffffffffffff021916908373ffffffffffffffffffffffffffffffffffffffff16021790555050565b6000809054906101000a900473ffffffffffffffffffffffffffffffffffffffff1673ffffffffffffffffffffffffffffffffffffffff163373ffffffffffffffffffffffffffffffffffffffff161415156128dc576040517f08c379a000000000000000000000000000000000000000000000000000000000815260040180806020018281038252602f8152602001807f4f6e6c792074686520636f6e7472616374206f776e6572206d6179207065726681526020017f6f726d207468697320616374696f6e000000000000000000000000000000000081525060400191505060405180910390fd5b600073ffffffffffffffffffffffffffffffffffffffff168173ffffffffffffffffffffffffffffffffffffffff1614151515612981576040517f08c379a000000000000000000000000000000000000000000000000000000000815260040180806020018281038252601c8152602001807f42656e6566696369617279206d757374206e6f74206265207a65726f0000000081525060200191505060405180910390fd5b80600660016101000a81548173ffffffffffffffffffffffffffffffffffffffff021916908373ffffffffffffffffffffffffffffffffffffffff1602179055507fd5da63a0b864b315bc04128dedbc93888c8529ee6cf47ce664dc204339228c5381604051808273ffffffffffffffffffffffffffffffffffffffff1673ffffffffffffffffffffffffffffffffffffffff16815260200191505060405180910390a150565b60265481565b600260009054906101000a900473ffffffffffffffffffffffffffffffffffffffff1673ffffffffffffffffffffffffffffffffffffffff163373ffffffffffffffffffffffffffffffffffffffff1614158015612ada5750600360009054906101000a900473ffffffffffffffffffffffffffffffffffffffff1673ffffffffffffffffffffffffffffffffffffffff163373ffffffffffffffffffffffffffffffffffffffff1614155b15612b215733600460006101000a81548173ffffffffffffffffffffffffffffffffffffffff021916908373ffffffffffffffffffffffffffffffffffffffff1602179055505b6000809054906101000a900473ffffffffffffffffffffffffffffffffffffffff1673ffffffffffffffffffffffffffffffffffffffff16600460009054906101000a900473ffffffffffffffffffffffffffffffffffffffff1673ffffffffffffffffffffffffffffffffffffffff16141515612c07576040517f08c379a00000000000000000000000000000000000000000000000000000000081526004018080602001828103825260138152602001807f4f776e6572206f6e6c792066756e6374696f6e0000000000000000000000000081525060200191505060405180910390fd5b60008110151515612c80576040517f08c379a000000000000000000000000000000000000000000000000000000000815260040180806020018281038252601c8152602001807f5468726573686f6c642073686f756c6420626520706f7369746976650000000081525060200191505060405180910390fd5b606473__SafeDecimalMath_______________________63907af6c06040518163ffffffff167c010000000000000000000000000000000000000000000000000000000002815260040160206040518083038186803b158015612ce257600080fd5b505af4158015612cf6573d6000803e3d6000fd5b505050506040513d6020811015612d0c57600080fd5b81019080805190602001909291905050508202811515612d2857fe5b0460278190555050565b6000809054906101000a900473ffffffffffffffffffffffffffffffffffffffff1673ffffffffffffffffffffffffffffffffffffffff163373ffffffffffffffffffffffffffffffffffffffff16141515612e1c576040517f08c379a000000000000000000000000000000000000000000000000000000000815260040180806020018281038252602f8152602001807f4f6e6c792074686520636f6e7472616374206f776e6572206d6179207065726681526020017f6f726d207468697320616374696f6e000000000000000000000000000000000081525060400191505060405180910390fd5b60006005819055506000600660006101000a81548160ff0219169083151502179055507f6adcc7125002935e0aa31697538ebbd65cfddf20431eb6ecdcfc3e238bfd082c60405160405180910390a1565b612e75618fb2565b600080600080600080612e86618fe0565b6000600f60009054906101000a900473ffffffffffffffffffffffffffffffffffffffff1673ffffffffffffffffffffffffffffffffffffffff1663b326f84e8b60006040518363ffffffff167c0100000000000000000000000000000000000000000000000000000000028152600401808373ffffffffffffffffffffffffffffffffffffffff1673ffffffffffffffffffffffffffffffffffffffff168152602001828152602001925050506040805180830381600087803b158015612f4d57600080fd5b505af1158015612f61573d6000803e3d6000fd5b505050506040513d6040811015612f7757600080fd5b8101908080519060200190929190805190602001909291905050508098508199505050600087148015612faa5750600088145b15612fb457613374565b6000600860009054906101000a900473ffffffffffffffffffffffffffffffffffffffff1673ffffffffffffffffffffffffffffffffffffffff1663403dca556040518163ffffffff167c010000000000000000000000000000000000000000000000000000000002815260040180807f58445200000000000000000000000000000000000000000000000000000000008152506020019050602060405180830381600087803b15801561306757600080fd5b505af115801561307b573d6000803e3d6000fd5b505050506040513d602081101561309157600080fd5b810190808051906020019092919050505014156130ad57613374565b6130b96000898961750f565b8096508197505050858960006003811015156130d157fe5b602002015160006002811015156130e457fe5b602002018181525050848960006003811015156130fd57fe5b6020020151600160028110151561311057fe5b602002018181525050600160030360ff1693505b60008411156133735760018403925060118360038110151561314257fe5b6007020160e060405190810160405290816000820154815260200160018201548152602001600282015481526020016003820154815260200160048201548152602001600582015481526020016006820154815250509150600082602001511180156131cb57506011846003811015156131b857fe5b60070201600001546131c98b611a01565b105b15613365576131e86001836020015161705790919063ffffffff16565b9050600f60009054906101000a900473ffffffffffffffffffffffffffffffffffffffff1673ffffffffffffffffffffffffffffffffffffffff1663d29c000a8b836040518363ffffffff167c0100000000000000000000000000000000000000000000000000000000028152600401808373ffffffffffffffffffffffffffffffffffffffff1673ffffffffffffffffffffffffffffffffffffffff168152602001828152602001925050506040805180830381600087803b1580156132ae57600080fd5b505af11580156132c2573d6000803e3d6000fd5b505050506040513d60408110156132d857600080fd5b810190808051906020019092919080519060200190929190505050809850819950505061330684898961750f565b809650819750505085898560038110151561331d57fe5b6020020151600060028110151561333057fe5b60200201818152505084898560038110151561334857fe5b6020020151600160028110151561335b57fe5b6020020181815250505b838060019003945050613124565b5b5050505050505050919050565b600c5481565b61338f618fe0565b613397618fe0565b6000806026544203601160006003811015156133af57fe5b60070201600201541115151561342d576040517f08c379a000000000000000000000000000000000000000000000000000000000815260040180806020018281038252601d8152602001807f546f6f206561726c7920746f20636c6f73652066656520706572696f6400000081525060200191505060405180910390fd5b6011600260030360ff1660038110151561344357fe5b6007020160e0604051908101604052908160008201548152602001600182015481526020016002820154815260200160038201548152602001600482015481526020016005820154815260200160068201548152505093506011600160030360ff166003811015156134b157fe5b6007020160e06040519081016040529081600082015481526020016001820154815260200160028201548152602001600382015481526020016004820154815260200160058201548152602001600682015481525050925061353a846060015161352c8560800151866060015161705790919063ffffffff16565b6174ee90919063ffffffff16565b6011600260030360ff1660038110151561355057fe5b600702016003018190555061358c8460a0015161357e8560c001518660a0015161705790919063ffffffff16565b6174ee90919063ffffffff16565b6011600260030360ff166003811015156135a257fe5b6007020160050181905550600260030360ff1691505b600360ff1682101561372f576001820190506011826003811015156135d957fe5b60070201600001546011826003811015156135f057fe5b600702016000018190555060118260038110151561360a57fe5b600702016001015460118260038110151561362157fe5b600702016001018190555060118260038110151561363b57fe5b600702016002015460118260038110151561365257fe5b600702016002018190555060118260038110151561366c57fe5b600702016003015460118260038110151561368357fe5b600702016003018190555060118260038110151561369d57fe5b60070201600401546011826003811015156136b457fe5b60070201600401819055506011826003811015156136ce57fe5b60070201600501546011826003811015156136e557fe5b60070201600501819055506011826003811015156136ff57fe5b600702016006015460118260038110151561371657fe5b60070201600601819055508180600190039250506135b8565b6011600060038110151561373f57fe5b6007020160008082016000905560018201600090556002820160009055600382016000905560048201600090556005820160009055600682016000905550506137a960016011600160038110151561379357fe5b60070201600001546174ee90919063ffffffff16565b601160006003811015156137b957fe5b6007020160000181905550600960009054906101000a900473ffffffffffffffffffffffffffffffffffffffff1673ffffffffffffffffffffffffffffffffffffffff1663cd92eba96040518163ffffffff167c0100000000000000000000000000000000000000000000000000000000028152600401602060405180830381600087803b15801561384a57600080fd5b505af115801561385e573d6000803e3d6000fd5b505050506040513d602081101561387457600080fd5b81019080805190602001909291905050506011600060038110151561389557fe5b600702016001018190555042601160006003811015156138b157fe5b60070201600201819055506138dc601160016003811015156138cf57fe5b60070201600001546175f5565b50505050565b6011816003811015156138f157fe5b600702016000915090508060000154908060010154908060020154908060030154908060040154908060050154908060060154905087565b600260009054906101000a900473ffffffffffffffffffffffffffffffffffffffff1673ffffffffffffffffffffffffffffffffffffffff163373ffffffffffffffffffffffffffffffffffffffff16141580156139d55750600360009054906101000a900473ffffffffffffffffffffffffffffffffffffffff1673ffffffffffffffffffffffffffffffffffffffff163373ffffffffffffffffffffffffffffffffffffffff1614155b15613a1c5733600460006101000a81548173ffffffffffffffffffffffffffffffffffffffff021916908373ffffffffffffffffffffffffffffffffffffffff1602179055505b600073ffffffffffffffffffffffffffffffffffffffff16601060009054906101000a900473ffffffffffffffffffffffffffffffffffffffff1673ffffffffffffffffffffffffffffffffffffffff1614151515613ae3576040517f08c379a000000000000000000000000000000000000000000000000000000000815260040180806020018281038252601a8152602001807f44656c65676174657320436f6e7472616374206d697373696e6700000000000081525060200191505060405180910390fd5b600073ffffffffffffffffffffffffffffffffffffffff168173ffffffffffffffffffffffffffffffffffffffff1614151515613b88576040517f08c379a000000000000000000000000000000000000000000000000000000000815260040180806020018281038252601c8152602001807f43616e27742064656c656761746520746f20616464726573732830290000000081525060200191505060405180910390fd5b601060009054906101000a900473ffffffffffffffffffffffffffffffffffffffff1673ffffffffffffffffffffffffffffffffffffffff1663b3c12354600460009054906101000a900473ffffffffffffffffffffffffffffffffffffffff16836040518363ffffffff167c0100000000000000000000000000000000000000000000000000000000028152600401808373ffffffffffffffffffffffffffffffffffffffff1673ffffffffffffffffffffffffffffffffffffffff1681526020018273ffffffffffffffffffffffffffffffffffffffff1673ffffffffffffffffffffffffffffffffffffffff16815260200192505050600060405180830381600087803b158015613c9b57600080fd5b505af1158015613caf573d6000803e3d6000fd5b5050505050565b600b60009054906101000a900473ffffffffffffffffffffffffffffffffffffffff1681565b600160009054906101000a900473ffffffffffffffffffffffffffffffffffffffff1681565b600260009054906101000a900473ffffffffffffffffffffffffffffffffffffffff1673ffffffffffffffffffffffffffffffffffffffff163373ffffffffffffffffffffffffffffffffffffffff1614158015613dae5750600360009054906101000a900473ffffffffffffffffffffffffffffffffffffffff1673ffffffffffffffffffffffffffffffffffffffff163373ffffffffffffffffffffffffffffffffffffffff1614155b15613df55733600460006101000a81548173ffffffffffffffffffffffffffffffffffffffff021916908373ffffffffffffffffffffffffffffffffffffffff1602179055505b6000809054906101000a900473ffffffffffffffffffffffffffffffffffffffff1673ffffffffffffffffffffffffffffffffffffffff16600460009054906101000a900473ffffffffffffffffffffffffffffffffffffffff1673ffffffffffffffffffffffffffffffffffffffff16141515613edb576040517f08c379a00000000000000000000000000000000000000000000000000000000081526004018080602001828103825260138152602001807f4f776e6572206f6e6c792066756e6374696f6e0000000000000000000000000081525060200191505060405180910390fd5b80600d8190555050565b600080600080600860009054906101000a900473ffffffffffffffffffffffffffffffffffffffff1673ffffffffffffffffffffffffffffffffffffffff1663a311c7c2866040518263ffffffff167c0100000000000000000000000000000000000000000000000000000000028152600401808273ffffffffffffffffffffffffffffffffffffffff1673ffffffffffffffffffffffffffffffffffffffff168152602001915050602060405180830381600087803b158015613fa857600080fd5b505af1158015613fbc573d6000803e3d6000fd5b505050506040513d6020811015613fd257600080fd5b81019080805190602001909291905050509250600860009054906101000a900473ffffffffffffffffffffffffffffffffffffffff1673ffffffffffffffffffffffffffffffffffffffff1663dbd4a4226040518163ffffffff167c0100000000000000000000000000000000000000000000000000000000028152600401602060405180830381600087803b15801561406b57600080fd5b505af115801561407f573d6000803e3d6000fd5b505050506040513d602081101561409557600080fd5b810190808051906020019092919050505073ffffffffffffffffffffffffffffffffffffffff1663b410a0346040518163ffffffff167c0100000000000000000000000000000000000000000000000000000000028152600401602060405180830381600087803b15801561410957600080fd5b505af115801561411d573d6000803e3d6000fd5b505050506040513d602081101561413357600080fd5b81019080805190602001909291905050509150818310156141575760019350614230565b61421861420960275473__SafeDecimalMath_______________________63907af6c06040518163ffffffff167c010000000000000000000000000000000000000000000000000000000002815260040160206040518083038186803b1580156141c057600080fd5b505af41580156141d4573d6000803e3d6000fd5b505050506040513d60208110156141ea57600080fd5b81019080805190602001909291905050506174ee90919063ffffffff16565b836177a290919063ffffffff16565b90508083111561422b5760009350614230565b600193505b505050919050565b600260009054906101000a900473ffffffffffffffffffffffffffffffffffffffff1673ffffffffffffffffffffffffffffffffffffffff163373ffffffffffffffffffffffffffffffffffffffff16141580156142e45750600360009054906101000a900473ffffffffffffffffffffffffffffffffffffffff1673ffffffffffffffffffffffffffffffffffffffff163373ffffffffffffffffffffffffffffffffffffffff1614155b1561432b5733600460006101000a81548173ffffffffffffffffffffffffffffffffffffffff021916908373ffffffffffffffffffffffffffffffffffffffff1602179055505b6000809054906101000a900473ffffffffffffffffffffffffffffffffffffffff1673ffffffffffffffffffffffffffffffffffffffff16600460009054906101000a900473ffffffffffffffffffffffffffffffffffffffff1673ffffffffffffffffffffffffffffffffffffffff16141515614411576040517f08c379a00000000000000000000000000000000000000000000000000000000081526004018080602001828103825260138152602001807f4f776e6572206f6e6c792066756e6374696f6e0000000000000000000000000081525060200191505060405180910390fd5b80601060006101000a81548173ffffffffffffffffffffffffffffffffffffffff021916908373ffffffffffffffffffffffffffffffffffffffff16021790555050565b601060009054906101000a900473ffffffffffffffffffffffffffffffffffffffff1681565b6000806000809150600190505b600360ff168110156144f7576144bd6011826003811015156144a657fe5b6007020160030154836174ee90919063ffffffff16565b91506144e86011826003811015156144d157fe5b60070201600401548361705790919063ffffffff16565b91508080600101915050614488565b600860009054906101000a900473ffffffffffffffffffffffffffffffffffffffff1673ffffffffffffffffffffffffffffffffffffffff166339d66fc083866040518363ffffffff167c010000000000000000000000000000000000000000000000000000000002815260040180807f5844520000000000000000000000000000000000000000000000000000000000815250602001838152602001827bffffffffffffffffffffffffffffffffffffffffffffffffffffffff19167bffffffffffffffffffffffffffffffffffffffffffffffffffffffff1916815260200192505050602060405180830381600087803b1580156145f657600080fd5b505af115801561460a573d6000803e3d6000fd5b505050506040513d602081101561462057600080fd5b810190808051906020019092919050505092505050919050565b600260009054906101000a900473ffffffffffffffffffffffffffffffffffffffff1673ffffffffffffffffffffffffffffffffffffffff163373ffffffffffffffffffffffffffffffffffffffff16141580156146e65750600360009054906101000a900473ffffffffffffffffffffffffffffffffffffffff1673ffffffffffffffffffffffffffffffffffffffff163373ffffffffffffffffffffffffffffffffffffffff1614155b1561472d5733600460006101000a81548173ffffffffffffffffffffffffffffffffffffffff021916908373ffffffffffffffffffffffffffffffffffffffff1602179055505b600073ffffffffffffffffffffffffffffffffffffffff16601060009054906101000a900473ffffffffffffffffffffffffffffffffffffffff1673ffffffffffffffffffffffffffffffffffffffff16141515156147f4576040517f08c379a000000000000000000000000000000000000000000000000000000000815260040180806020018281038252601a8152602001807f44656c65676174657320436f6e7472616374206d697373696e6700000000000081525060200191505060405180910390fd5b601060009054906101000a900473ffffffffffffffffffffffffffffffffffffffff1673ffffffffffffffffffffffffffffffffffffffff16635f0736a1600460009054906101000a900473ffffffffffffffffffffffffffffffffffffffff16836040518363ffffffff167c0100000000000000000000000000000000000000000000000000000000028152600401808373ffffffffffffffffffffffffffffffffffffffff1673ffffffffffffffffffffffffffffffffffffffff1681526020018273ffffffffffffffffffffffffffffffffffffffff1673ffffffffffffffffffffffffffffffffffffffff16815260200192505050600060405180830381600087803b15801561490757600080fd5b505af115801561491b573d6000803e3d6000fd5b5050505050565b6000806000809150600190505b600360ff1681101561499e5761496460118260038110151561494d57fe5b6007020160050154836174ee90919063ffffffff16565b915061498f60118260038110151561497857fe5b60070201600601548361705790919063ffffffff16565b9150808060010191505061492f565b819250505090565b600860009054906101000a900473ffffffffffffffffffffffffffffffffffffffff1681565b600a73__SafeDecimalMath_______________________63907af6c06040518163ffffffff167c010000000000000000000000000000000000000000000000000000000002815260040160206040518083038186803b158015614a2e57600080fd5b505af4158015614a42573d6000803e3d6000fd5b505050506040513d6020811015614a5857600080fd5b8101908080519060200190929190505050811515614a7257fe5b0481565b600160009054906101000a900473ffffffffffffffffffffffffffffffffffffffff1673ffffffffffffffffffffffffffffffffffffffff163373ffffffffffffffffffffffffffffffffffffffff16141515614b61576040517f08c379a00000000000000000000000000000000000000000000000000000000081526004018080602001828103825260358152602001807f596f75206d757374206265206e6f6d696e61746564206265666f726520796f7581526020017f2063616e20616363657074206f776e657273686970000000000000000000000081525060400191505060405180910390fd5b7fb532073b38c83145e3e5135377a08bf9aab55bc0fd7c1179cd4fb995d2a5159c6000809054906101000a900473ffffffffffffffffffffffffffffffffffffffff16600160009054906101000a900473ffffffffffffffffffffffffffffffffffffffff16604051808373ffffffffffffffffffffffffffffffffffffffff1673ffffffffffffffffffffffffffffffffffffffff1681526020018273ffffffffffffffffffffffffffffffffffffffff1673ffffffffffffffffffffffffffffffffffffffff1681526020019250505060405180910390a1600160009054906101000a900473ffffffffffffffffffffffffffffffffffffffff166000806101000a81548173ffffffffffffffffffffffffffffffffffffffff021916908373ffffffffffffffffffffffffffffffffffffffff1602179055506000600160006101000a81548173ffffffffffffffffffffffffffffffffffffffff021916908373ffffffffffffffffffffffffffffffffffffffff160217905550565b600860009054906101000a900473ffffffffffffffffffffffffffffffffffffffff1673ffffffffffffffffffffffffffffffffffffffff163373ffffffffffffffffffffffffffffffffffffffff16141515614da6576040517f08c379a00000000000000000000000000000000000000000000000000000000081526004018080602001828103825260198152602001807f4f6e6c792053796e74686574697820417574686f72697365640000000000000081525060200191505060405180910390fd5b600f60009054906101000a900473ffffffffffffffffffffffffffffffffffffffff1673ffffffffffffffffffffffffffffffffffffffff166394e1a44884848460116000600381101515614df757fe5b60070201600101546040518563ffffffff167c0100000000000000000000000000000000000000000000000000000000028152600401808573ffffffffffffffffffffffffffffffffffffffff1673ffffffffffffffffffffffffffffffffffffffff168152602001848152602001838152602001828152602001945050505050600060405180830381600087803b158015614e9257600080fd5b505af1158015614ea6573d6000803e3d6000fd5b50505050614ecd83838360116000600381101515614ec057fe5b60070201600101546177d1565b505050565b6000809054906101000a900473ffffffffffffffffffffffffffffffffffffffff1681565b6000809054906101000a900473ffffffffffffffffffffffffffffffffffffffff1673ffffffffffffffffffffffffffffffffffffffff163373ffffffffffffffffffffffffffffffffffffffff16141515614fe1576040517f08c379a000000000000000000000000000000000000000000000000000000000815260040180806020018281038252602f8152602001807f4f6e6c792074686520636f6e7472616374206f776e6572206d6179207065726681526020017f6f726d207468697320616374696f6e000000000000000000000000000000000081525060400191505060405180910390fd5b80600260006101000a81548173ffffffffffffffffffffffffffffffffffffffff021916908373ffffffffffffffffffffffffffffffffffffffff1602179055507ffc80377ca9c49cc11ae6982f390a42db976d5530af7c43889264b13fbbd7c57e81604051808273ffffffffffffffffffffffffffffffffffffffff1673ffffffffffffffffffffffffffffffffffffffff16815260200191505060405180910390a150565b60008060009054906101000a900473ffffffffffffffffffffffffffffffffffffffff1673ffffffffffffffffffffffffffffffffffffffff163373ffffffffffffffffffffffffffffffffffffffff16141515615174576040517f08c379a000000000000000000000000000000000000000000000000000000000815260040180806020018281038252602f8152602001807f4f6e6c792074686520636f6e7472616374206f776e6572206d6179207065726681526020017f6f726d207468697320616374696f6e000000000000000000000000000000000081525060400191505060405180910390fd5b600660009054906101000a900460ff1615156151f8576040517f08c379a000000000000000000000000000000000000000000000000000000000815260040180806020018281038252601f8152602001807f53656c66204465737472756374206e6f742079657420696e697469617465640081525060200191505060405180910390fd5b426224ea0060055401101515615276576040517f08c379a000000000000000000000000000000000000000000000000000000000815260040180806020018281038252601b8152602001807f53656c662064657374727563742064656c6179206e6f74206d6574000000000081525060200191505060405180910390fd5b600660019054906101000a900473ffffffffffffffffffffffffffffffffffffffff1690507f8a09e1677ced846cb537dc2b172043bd05a1a81ad7e0033a7ef8ba762df990b781604051808273ffffffffffffffffffffffffffffffffffffffff1673ffffffffffffffffffffffffffffffffffffffff16815260200191505060405180910390a18073ffffffffffffffffffffffffffffffffffffffff16ff5b600360009054906101000a900473ffffffffffffffffffffffffffffffffffffffff1681565b6000600860009054906101000a900473ffffffffffffffffffffffffffffffffffffffff1673ffffffffffffffffffffffffffffffffffffffff163373ffffffffffffffffffffffffffffffffffffffff16141515615404576040517f08c379a00000000000000000000000000000000000000000000000000000000081526004018080602001828103825260198152602001807f4f6e6c792053796e74686574697820417574686f72697365640000000000000081525060200191505060405180910390fd5b7f5844520000000000000000000000000000000000000000000000000000000000837bffffffffffffffffffffffffffffffffffffffffffffffffffffffff191614151561558d57600860009054906101000a900473ffffffffffffffffffffffffffffffffffffffff1673ffffffffffffffffffffffffffffffffffffffff166339d66fc084846040518363ffffffff167c010000000000000000000000000000000000000000000000000000000002815260040180837bffffffffffffffffffffffffffffffffffffffffffffffffffffffff19167bffffffffffffffffffffffffffffffffffffffffffffffffffffffff19168152602001828152602001807f584452000000000000000000000000000000000000000000000000000000000081525060200192505050602060405180830381600087803b15801561554b57600080fd5b505af115801561555f573d6000803e3d6000fd5b505050506040513d602081101561557557600080fd5b81019080805190602001909291905050509050615591565b8190505b6155bb81601160006003811015156155a557fe5b60070201600301546174ee90919063ffffffff16565b601160006003811015156155cb57fe5b6007020160030181905550505050565b600a60009054906101000a900473ffffffffffffffffffffffffffffffffffffffff1681565b6224ea0081565b60275481565b600080600860009054906101000a900473ffffffffffffffffffffffffffffffffffffffff1673ffffffffffffffffffffffffffffffffffffffff1663dbd4a4226040518163ffffffff167c0100000000000000000000000000000000000000000000000000000000028152600401602060405180830381600087803b15801561569757600080fd5b505af11580156156ab573d6000803e3d6000fd5b505050506040513d60208110156156c157600080fd5b810190808051906020019092919050505073ffffffffffffffffffffffffffffffffffffffff1663b410a0346040518163ffffffff167c0100000000000000000000000000000000000000000000000000000000028152600401602060405180830381600087803b15801561573557600080fd5b505af1158015615749573d6000803e3d6000fd5b505050506040513d602081101561575f57600080fd5b8101908080519060200190929190505050905061583361582460275473__SafeDecimalMath_______________________63907af6c06040518163ffffffff167c010000000000000000000000000000000000000000000000000000000002815260040160206040518083038186803b1580156157db57600080fd5b505af41580156157ef573d6000803e3d6000fd5b505050506040513d602081101561580557600080fd5b81019080805190602001909291905050506174ee90919063ffffffff16565b826177a290919063ffffffff16565b91505090565b600260009054906101000a900473ffffffffffffffffffffffffffffffffffffffff1673ffffffffffffffffffffffffffffffffffffffff163373ffffffffffffffffffffffffffffffffffffffff16141580156158e55750600360009054906101000a900473ffffffffffffffffffffffffffffffffffffffff1673ffffffffffffffffffffffffffffffffffffffff163373ffffffffffffffffffffffffffffffffffffffff1614155b1561592c5733600460006101000a81548173ffffffffffffffffffffffffffffffffffffffff021916908373ffffffffffffffffffffffffffffffffffffffff1602179055505b6000809054906101000a900473ffffffffffffffffffffffffffffffffffffffff1673ffffffffffffffffffffffffffffffffffffffff16600460009054906101000a900473ffffffffffffffffffffffffffffffffffffffff1673ffffffffffffffffffffffffffffffffffffffff16141515615a12576040517f08c379a00000000000000000000000000000000000000000000000000000000081526004018080602001828103825260138152602001807f4f776e6572206f6e6c792066756e6374696f6e0000000000000000000000000081525060200191505060405180910390fd5b60075442101515615ab1576040517f08c379a00000000000000000000000000000000000000000000000000000000081526004018080602001828103825260298152602001807f43616e206f6e6c7920706572666f726d207468697320616374696f6e2064757281526020017f696e67207365747570000000000000000000000000000000000000000000000081525060400191505060405180910390fd5b86601189600381101515615ac157fe5b600702016000018190555085601189600381101515615adc57fe5b600702016001018190555084601189600381101515615af757fe5b600702016002018190555083601189600381101515615b1257fe5b600702016003018190555082601189600381101515615b2d57fe5b600702016004018190555081601189600381101515615b4857fe5b600702016005018190555080601189600381101515615b6357fe5b60070201600601819055505050505050505050565b600260009054906101000a900473ffffffffffffffffffffffffffffffffffffffff1673ffffffffffffffffffffffffffffffffffffffff163373ffffffffffffffffffffffffffffffffffffffff1614158015615c245750600360009054906101000a900473ffffffffffffffffffffffffffffffffffffffff1673ffffffffffffffffffffffffffffffffffffffff163373ffffffffffffffffffffffffffffffffffffffff1614155b15615c6b5733600460006101000a81548173ffffffffffffffffffffffffffffffffffffffff021916908373ffffffffffffffffffffffffffffffffffffffff1602179055505b6000809054906101000a900473ffffffffffffffffffffffffffffffffffffffff1673ffffffffffffffffffffffffffffffffffffffff16600460009054906101000a900473ffffffffffffffffffffffffffffffffffffffff1673ffffffffffffffffffffffffffffffffffffffff16141515615d51576040517f08c379a00000000000000000000000000000000000000000000000000000000081526004018080602001828103825260138152602001807f4f776e6572206f6e6c792066756e6374696f6e0000000000000000000000000081525060200191505060405180910390fd5b600860009054906101000a900473ffffffffffffffffffffffffffffffffffffffff1673ffffffffffffffffffffffffffffffffffffffff166323b872dd600460009054906101000a900473ffffffffffffffffffffffffffffffffffffffff16600a60009054906101000a900473ffffffffffffffffffffffffffffffffffffffff16846040518463ffffffff167c0100000000000000000000000000000000000000000000000000000000028152600401808473ffffffffffffffffffffffffffffffffffffffff1673ffffffffffffffffffffffffffffffffffffffff1681526020018373ffffffffffffffffffffffffffffffffffffffff1673ffffffffffffffffffffffffffffffffffffffff1681526020018281526020019350505050602060405180830381600087803b158015615e8e57600080fd5b505af1158015615ea2573d6000803e3d6000fd5b505050506040513d6020811015615eb857600080fd5b810190808051906020019092919050505050600a60009054906101000a900473ffffffffffffffffffffffffffffffffffffffff1673ffffffffffffffffffffffffffffffffffffffff1663b5ddb9c783836040518363ffffffff167c0100000000000000000000000000000000000000000000000000000000028152600401808373ffffffffffffffffffffffffffffffffffffffff1673ffffffffffffffffffffffffffffffffffffffff16815260200182815260200192505050600060405180830381600087803b158015615f8f57600080fd5b505af1158015615fa3573d6000803e3d6000fd5b505050505050565b6000615fc8615fb98361667c565b836174ee90919063ffffffff16565b9050919050565b600061609261608373__SafeDecimalMath_______________________63907af6c06040518163ffffffff167c010000000000000000000000000000000000000000000000000000000002815260040160206040518083038186803b15801561603757600080fd5b505af415801561604b573d6000803e3d6000fd5b505050506040513d602081101561606157600080fd5b8101908080519060200190929190505050600c546174ee90919063ffffffff16565b836179d090919063ffffffff16565b9050919050565b600660009054906101000a900460ff1681565b600260009054906101000a900473ffffffffffffffffffffffffffffffffffffffff1673ffffffffffffffffffffffffffffffffffffffff163373ffffffffffffffffffffffffffffffffffffffff1614806161555750600360009054906101000a900473ffffffffffffffffffffffffffffffffffffffff1673ffffffffffffffffffffffffffffffffffffffff163373ffffffffffffffffffffffffffffffffffffffff16145b15156161c9576040517f08c379a00000000000000000000000000000000000000000000000000000000081526004018080602001828103825260178152602001807f4f6e6c79207468652070726f78792063616e2063616c6c00000000000000000081525060200191505060405180910390fd5b80600460006101000a81548173ffffffffffffffffffffffffffffffffffffffff021916908373ffffffffffffffffffffffffffffffffffffffff16021790555050565b6000809054906101000a900473ffffffffffffffffffffffffffffffffffffffff1673ffffffffffffffffffffffffffffffffffffffff163373ffffffffffffffffffffffffffffffffffffffff161415156162f7576040517f08c379a000000000000000000000000000000000000000000000000000000000815260040180806020018281038252602f8152602001807f4f6e6c792074686520636f6e7472616374206f776e6572206d6179207065726681526020017f6f726d207468697320616374696f6e000000000000000000000000000000000081525060400191505060405180910390fd5b426005819055506001600660006101000a81548160ff0219169083151502179055507fcbd94ca75b8dc45c9d80c77e851670e78843c0d75180cb81db3e2158228fa9a66224ea006040518082815260200191505060405180910390a1565b600660019054906101000a900473ffffffffffffffffffffffffffffffffffffffff1681565b600260009054906101000a900473ffffffffffffffffffffffffffffffffffffffff1673ffffffffffffffffffffffffffffffffffffffff163373ffffffffffffffffffffffffffffffffffffffff16141580156164275750600360009054906101000a900473ffffffffffffffffffffffffffffffffffffffff1673ffffffffffffffffffffffffffffffffffffffff163373ffffffffffffffffffffffffffffffffffffffff1614155b1561646e5733600460006101000a81548173ffffffffffffffffffffffffffffffffffffffff021916908373ffffffffffffffffffffffffffffffffffffffff1602179055505b6000809054906101000a900473ffffffffffffffffffffffffffffffffffffffff1673ffffffffffffffffffffffffffffffffffffffff16600460009054906101000a900473ffffffffffffffffffffffffffffffffffffffff1673ffffffffffffffffffffffffffffffffffffffff16141515616554576040517f08c379a00000000000000000000000000000000000000000000000000000000081526004018080602001828103825260138152602001807f4f776e6572206f6e6c792066756e6374696f6e0000000000000000000000000081525060200191505060405180910390fd5b600a73__SafeDecimalMath_______________________63907af6c06040518163ffffffff167c010000000000000000000000000000000000000000000000000000000002815260040160206040518083038186803b1580156165b657600080fd5b505af41580156165ca573d6000803e3d6000fd5b505050506040513d60208110156165e057600080fd5b81019080805190602001909291905050508115156165fa57fe5b048111151515616672576040517f08c379a000000000000000000000000000000000000000000000000000000000815260040180806020018281038252601e8152602001807f5472616e73666572206665652072617465206d6178206578636565646564000081525060200191505060405180910390fd5b80600c8190555050565b6000616693600d54836177a290919063ffffffff16565b9050919050565b6000600260009054906101000a900473ffffffffffffffffffffffffffffffffffffffff1673ffffffffffffffffffffffffffffffffffffffff163373ffffffffffffffffffffffffffffffffffffffff16141580156167485750600360009054906101000a900473ffffffffffffffffffffffffffffffffffffffff1673ffffffffffffffffffffffffffffffffffffffff163373ffffffffffffffffffffffffffffffffffffffff1614155b1561678f5733600460006101000a81548173ffffffffffffffffffffffffffffffffffffffff021916908373ffffffffffffffffffffffffffffffffffffffff1602179055505b6167bb600460009054906101000a900473ffffffffffffffffffffffffffffffffffffffff1683617315565b9050919050565b600381565b600e60009054906101000a900473ffffffffffffffffffffffffffffffffffffffff1681565b6201518081565b600061680b600c54836177a290919063ffffffff16565b9050919050565b600960009054906101000a900473ffffffffffffffffffffffffffffffffffffffff1681565b60006168fb6168ec600d5473__SafeDecimalMath_______________________63907af6c06040518163ffffffff167c010000000000000000000000000000000000000000000000000000000002815260040160206040518083038186803b1580156168a357600080fd5b505af41580156168b7573d6000803e3d6000fd5b505050506040513d60208110156168cd57600080fd5b810190808051906020019092919050505061705790919063ffffffff16565b836177a290919063ffffffff16565b9050919050565b600f60009054906101000a900473ffffffffffffffffffffffffffffffffffffffff1681565b6000616945616936836167f4565b836174ee90919063ffffffff16565b9050919050565b73feefeefeefeefeefeefeefeefeefeefeefeefeef81565b600260009054906101000a900473ffffffffffffffffffffffffffffffffffffffff1681565b624f1a0081565b600a73__SafeDecimalMath_______________________63907af6c06040518163ffffffff167c010000000000000000000000000000000000000000000000000000000002815260040160206040518083038186803b1580156169f357600080fd5b505af4158015616a07573d6000803e3d6000fd5b505050506040513d6020811015616a1d57600080fd5b8101908080519060200190929190505050811515616a3757fe5b0481565b600e60009054906101000a900473ffffffffffffffffffffffffffffffffffffffff1673ffffffffffffffffffffffffffffffffffffffff16600460009054906101000a900473ffffffffffffffffffffffffffffffffffffffff1673ffffffffffffffffffffffffffffffffffffffff161480616b065750600e60009054906101000a900473ffffffffffffffffffffffffffffffffffffffff1673ffffffffffffffffffffffffffffffffffffffff163373ffffffffffffffffffffffffffffffffffffffff16145b1515616b7a576040517f08c379a000000000000000000000000000000000000000000000000000000000815260040180806020018281038252601e8152602001807f43616c6c6572206973206e6f742072657761726473417574686f72697479000081525060200191505060405180910390fd5b616ba48160116000600381101515616b8e57fe5b60070201600501546174ee90919063ffffffff16565b60116000600381101515616bb457fe5b600702016005018190555050565b600260009054906101000a900473ffffffffffffffffffffffffffffffffffffffff1673ffffffffffffffffffffffffffffffffffffffff163373ffffffffffffffffffffffffffffffffffffffff1614158015616c6e5750600360009054906101000a900473ffffffffffffffffffffffffffffffffffffffff1673ffffffffffffffffffffffffffffffffffffffff163373ffffffffffffffffffffffffffffffffffffffff1614155b15616cb55733600460006101000a81548173ffffffffffffffffffffffffffffffffffffffff021916908373ffffffffffffffffffffffffffffffffffffffff1602179055505b6000809054906101000a900473ffffffffffffffffffffffffffffffffffffffff1673ffffffffffffffffffffffffffffffffffffffff16600460009054906101000a900473ffffffffffffffffffffffffffffffffffffffff1673ffffffffffffffffffffffffffffffffffffffff16141515616d9b576040517f08c379a00000000000000000000000000000000000000000000000000000000081526004018080602001828103825260138152602001807f4f776e6572206f6e6c792066756e6374696f6e0000000000000000000000000081525060200191505060405180910390fd5b600073ffffffffffffffffffffffffffffffffffffffff168173ffffffffffffffffffffffffffffffffffffffff1614151515616e40576040517f08c379a000000000000000000000000000000000000000000000000000000000815260040180806020018281038252601e8152602001807f4e65772053796e746865746978206d757374206265206e6f6e2d7a65726f000081525060200191505060405180910390fd5b80600860006101000a81548173ffffffffffffffffffffffffffffffffffffffff021916908373ffffffffffffffffffffffffffffffffffffffff16021790555050565b600260009054906101000a900473ffffffffffffffffffffffffffffffffffffffff1673ffffffffffffffffffffffffffffffffffffffff1663907dff978260405160200180828152602001915050604051602081830303815290604052600160405180807f466565506572696f644475726174696f6e557064617465642875696e7432353681526020017f29000000000000000000000000000000000000000000000000000000000000008152506021019050604051809103902060008060006040518763ffffffff167c010000000000000000000000000000000000000000000000000000000002815260040180806020018781526020018660001916600019168152602001856001026000191681526020018460010260001916815260200183600102600019168152602001828103825288818151815260200191508051906020019080838360005b83811015616feb578082015181840152602081019050616fd0565b50505050905090810190601f1680156170185780820380516001836020036101000a031916815260200191505b50975050505050505050600060405180830381600087803b15801561703c57600080fd5b505af1158015617050573d6000803e3d6000fd5b5050505050565b60008083831115151561706957600080fd5b82840390508091505092915050565b600080600960009054906101000a900473ffffffffffffffffffffffffffffffffffffffff1673ffffffffffffffffffffffffffffffffffffffff1663cd92eba96040518163ffffffff167c0100000000000000000000000000000000000000000000000000000000028152600401602060405180830381600087803b15801561710157600080fd5b505af1158015617115573d6000803e3d6000fd5b505050506040513d602081101561712b57600080fd5b810190808051906020019092919050505085111561714c576000915061730d565b617307846172f9600960009054906101000a900473ffffffffffffffffffffffffffffffffffffffff1673ffffffffffffffffffffffffffffffffffffffff166308d95cd5876040518263ffffffff167c010000000000000000000000000000000000000000000000000000000002815260040180828152602001915050602060405180830381600087803b1580156171e457600080fd5b505af11580156171f8573d6000803e3d6000fd5b505050506040513d602081101561720e57600080fd5b8101908080519060200190929190505050600960009054906101000a900473ffffffffffffffffffffffffffffffffffffffff1673ffffffffffffffffffffffffffffffffffffffff166308d95cd58a6040518263ffffffff167c010000000000000000000000000000000000000000000000000000000002815260040180828152602001915050602060405180830381600087803b1580156172b057600080fd5b505af11580156172c4573d6000803e3d6000fd5b505050506040513d60208110156172da57600080fd5b8101908080519060200190929190505050617a0690919063ffffffff16565b617a2290919063ffffffff16565b90508091505b509392505050565b600080600080600061732687613ee5565b151561739a576040517f08c379a000000000000000000000000000000000000000000000000000000000815260040180806020018281038252601f8152602001807f432d526174696f2062656c6f772070656e616c7479207468726573686f6c640081525060200191505060405180910390fd5b6173c4877f5844520000000000000000000000000000000000000000000000000000000000612111565b809250819350505060008211806173db5750600081115b1515617475576040517f08c379a00000000000000000000000000000000000000000000000000000000081526004018080602001828103825260408152602001807f4e6f2066656573206f72207265776172647320617661696c61626c6520666f7281526020017f20706572696f642c206f72206665657320616c726561647920636c61696d656481525060400191505060405180910390fd5b617496876011600160038110151561748957fe5b6007020160000154617a3e565b60008211156174b6576174a882617be7565b92506174b5878488617d1a565b5b60008111156174d5576174c881618679565b93506174d487856187ac565b5b6174e0878486618c1c565b600194505050505092915050565b600080828401905083811015151561750557600080fd5b8091505092915050565b600080600080600080600088141561753357600080819150809050955095506175e9565b879350600089111561757c5761756c6001601160018c0360038110151561755657fe5b600702016001015461705790919063ffffffff16565b9250617579838989617078565b93505b6175a58460118b60038110151561758f57fe5b60070201600301546177a290919063ffffffff16565b91506175d08460118b6003811015156175ba57fe5b60070201600501546177a290919063ffffffff16565b90506175db82618e2d565b6175e482618e2d565b955095505b50505050935093915050565b600260009054906101000a900473ffffffffffffffffffffffffffffffffffffffff1673ffffffffffffffffffffffffffffffffffffffff1663907dff978260405160200180828152602001915050604051602081830303815290604052600160405180807f466565506572696f64436c6f7365642875696e743235362900000000000000008152506018019050604051809103902060008060006040518763ffffffff167c010000000000000000000000000000000000000000000000000000000002815260040180806020018781526020018660001916600019168152602001856001026000191681526020018460010260001916815260200183600102600019168152602001828103825288818151815260200191508051906020019080838360005b8381101561773657808201518184015260208101905061771b565b50505050905090810190601f1680156177635780820380516001836020036101000a031916815260200191505b50975050505050505050600060405180830381600087803b15801561778757600080fd5b505af115801561779b573d6000803e3d6000fd5b5050505050565b6000601260ff16600a0a6177bf8385618e8690919063ffffffff16565b8115156177c857fe5b04905092915050565b600260009054906101000a900473ffffffffffffffffffffffffffffffffffffffff1673ffffffffffffffffffffffffffffffffffffffff1663907dff97848484604051602001808481526020018381526020018281526020019350505050604051602081830303815290604052600260405180807f49737375616e636544656274526174696f456e74727928616464726573732c7581526020017f696e743235362c75696e743235362c75696e7432353629000000000000000000815250603701905060405180910390208873ffffffffffffffffffffffffffffffffffffffff166001026000806040518763ffffffff167c01000000000000000000000000000000000000000000000000000000000281526004018080602001878152602001866000191660001916815260200185600019166000191681526020018460010260001916815260200183600102600019168152602001828103825288818151815260200191508051906020019080838360005b83811015617961578082015181840152602081019050617946565b50505050905090810190601f16801561798e5780820380516001836020036101000a031916815260200191505b50975050505050505050600060405180830381600087803b1580156179b257600080fd5b505af11580156179c6573d6000803e3d6000fd5b5050505050505050565b60006179fe826179f0601260ff16600a0a86618e8690919063ffffffff16565b618ec490919063ffffffff16565b905092915050565b6000617a1a8383601b60ff16600a0a618eee565b905092915050565b6000617a368383601b60ff16600a0a618f4f565b905092915050565b600b60009054906101000a900473ffffffffffffffffffffffffffffffffffffffff1673ffffffffffffffffffffffffffffffffffffffff16633562fd207f6c6173745f6665655f7769746864726177616c00000000000000000000000000846040516020018083600019166000191681526020018273ffffffffffffffffffffffffffffffffffffffff1673ffffffffffffffffffffffffffffffffffffffff166c01000000000000000000000000028152601401925050506040516020818303038152906040526040518082805190602001908083835b602083101515617b3c5780518252602082019150602081019050602083039250617b17565b6001836020036101000a0380198251168184511680821785525050505050509050019150506040518091039020836040518363ffffffff167c010000000000000000000000000000000000000000000000000000000002815260040180836000191660001916815260200182815260200192505050600060405180830381600087803b158015617bcb57600080fd5b505af1158015617bdf573d6000803e3d6000fd5b505050505050565b600080600080600080869450600160030360ff1692505b600360ff16831015617d0c57617c49601184600381101515617c1c57fe5b6007020160040154601185600381101515617c3357fe5b600702016003015461705790919063ffffffff16565b91506000821115617cfe57848210617c615784617c63565b815b9050617c8e81601185600381101515617c7857fe5b60070201600401546174ee90919063ffffffff16565b601184600381101515617c9d57fe5b6007020160040181905550617cbb818661705790919063ffffffff16565b9450617cd081856174ee90919063ffffffff16565b93506000851415617ce357839550617d10565b600083148015617cf35750600085115b15617cfd57600094505b5b828060019003935050617bfe565b8395505b5050505050919050565b60008060008573feefeefeefeefeefeefeefeefeefeefeefeefeef73ffffffffffffffffffffffffffffffffffffffff168173ffffffffffffffffffffffffffffffffffffffff1614151515617dd8576040517f08c379a00000000000000000000000000000000000000000000000000000000081526004018080602001828103825260178152602001807f4665652061646472657373206e6f7420616c6c6f77656400000000000000000081525060200191505060405180910390fd5b600073ffffffffffffffffffffffffffffffffffffffff168773ffffffffffffffffffffffffffffffffffffffff1614151515617e7d576040517f08c379a00000000000000000000000000000000000000000000000000000000081526004018080602001828103825260128152602001807f4163636f756e742063616e27742062652030000000000000000000000000000081525060200191505060405180910390fd5b3073ffffffffffffffffffffffffffffffffffffffff168773ffffffffffffffffffffffffffffffffffffffff1614151515617f21576040517f08c379a000000000000000000000000000000000000000000000000000000000815260040180806020018281038252601b8152602001807f43616e27742073656e64206665657320746f2066656520706f6f6c000000000081525060200191505060405180910390fd5b600260009054906101000a900473ffffffffffffffffffffffffffffffffffffffff1673ffffffffffffffffffffffffffffffffffffffff168773ffffffffffffffffffffffffffffffffffffffff1614151515617fe7576040517f08c379a00000000000000000000000000000000000000000000000000000000081526004018080602001828103825260188152602001807f43616e27742073656e64206665657320746f2070726f7879000000000000000081525060200191505060405180910390fd5b600860009054906101000a900473ffffffffffffffffffffffffffffffffffffffff1673ffffffffffffffffffffffffffffffffffffffff168773ffffffffffffffffffffffffffffffffffffffff16141515156180ad576040517f08c379a000000000000000000000000000000000000000000000000000000000815260040180806020018281038252601c8152602001807f43616e27742073656e64206665657320746f2073796e7468657469780000000081525060200191505060405180910390fd5b600860009054906101000a900473ffffffffffffffffffffffffffffffffffffffff1673ffffffffffffffffffffffffffffffffffffffff1663502b8bda6040518163ffffffff167c010000000000000000000000000000000000000000000000000000000002815260040180807f58445200000000000000000000000000000000000000000000000000000000008152506020019050602060405180830381600087803b15801561815e57600080fd5b505af1158015618172573d6000803e3d6000fd5b505050506040513d602081101561818857600080fd5b81019080805190602001909291905050509350600860009054906101000a900473ffffffffffffffffffffffffffffffffffffffff1673ffffffffffffffffffffffffffffffffffffffff1663502b8bda866040518263ffffffff167c010000000000000000000000000000000000000000000000000000000002815260040180827bffffffffffffffffffffffffffffffffffffffffffffffffffffffff19167bffffffffffffffffffffffffffffffffffffffffffffffffffffffff19168152602001915050602060405180830381600087803b15801561826a57600080fd5b505af115801561827e573d6000803e3d6000fd5b505050506040513d602081101561829457600080fd5b810190808051906020019092919050505092508373ffffffffffffffffffffffffffffffffffffffff16639dc29fac73feefeefeefeefeefeefeefeefeefeefeefeefeef886040518363ffffffff167c0100000000000000000000000000000000000000000000000000000000028152600401808373ffffffffffffffffffffffffffffffffffffffff1673ffffffffffffffffffffffffffffffffffffffff16815260200182815260200192505050600060405180830381600087803b15801561835e57600080fd5b505af1158015618372573d6000803e3d6000fd5b50505050600860009054906101000a900473ffffffffffffffffffffffffffffffffffffffff1673ffffffffffffffffffffffffffffffffffffffff166339d66fc087876040518363ffffffff167c010000000000000000000000000000000000000000000000000000000002815260040180807f5844520000000000000000000000000000000000000000000000000000000000815250602001838152602001827bffffffffffffffffffffffffffffffffffffffffffffffffffffffff19167bffffffffffffffffffffffffffffffffffffffffffffffffffffffff1916815260200192505050602060405180830381600087803b15801561847557600080fd5b505af1158015618489573d6000803e3d6000fd5b505050506040513d602081101561849f57600080fd5b810190808051906020019092919050505091508273ffffffffffffffffffffffffffffffffffffffff1663867904b488846040518363ffffffff167c0100000000000000000000000000000000000000000000000000000000028152600401808373ffffffffffffffffffffffffffffffffffffffff1673ffffffffffffffffffffffffffffffffffffffff16815260200182815260200192505050600060405180830381600087803b15801561855557600080fd5b505af1158015618569573d6000803e3d6000fd5b505050508273ffffffffffffffffffffffffffffffffffffffff1663eb6ecc0373feefeefeefeefeefeefeefeefeefeefeefeefeef89856040518463ffffffff167c0100000000000000000000000000000000000000000000000000000000028152600401808473ffffffffffffffffffffffffffffffffffffffff1673ffffffffffffffffffffffffffffffffffffffff1681526020018373ffffffffffffffffffffffffffffffffffffffff1673ffffffffffffffffffffffffffffffffffffffff1681526020018281526020019350505050600060405180830381600087803b15801561865857600080fd5b505af115801561866c573d6000803e3d6000fd5b5050505050505050505050565b600080600080600080869450600160030360ff1692505b600360ff1683101561879e576186db6011846003811015156186ae57fe5b60070201600601546011856003811015156186c557fe5b600702016005015461705790919063ffffffff16565b91506000821115618790578482106186f357846186f5565b815b90506187208160118560038110151561870a57fe5b60070201600601546174ee90919063ffffffff16565b60118460038110151561872f57fe5b600702016006018190555061874d818661705790919063ffffffff16565b945061876281856174ee90919063ffffffff16565b93506000851415618775578395506187a2565b6000831480156187855750600085115b1561878f57600094505b5b828060019003935050618690565b8395505b5050505050919050565b8173feefeefeefeefeefeefeefeefeefeefeefeefeef73ffffffffffffffffffffffffffffffffffffffff168173ffffffffffffffffffffffffffffffffffffffff1614151515618865576040517f08c379a00000000000000000000000000000000000000000000000000000000081526004018080602001828103825260178152602001807f4665652061646472657373206e6f7420616c6c6f77656400000000000000000081525060200191505060405180910390fd5b600073ffffffffffffffffffffffffffffffffffffffff168373ffffffffffffffffffffffffffffffffffffffff161415151561890a576040517f08c379a00000000000000000000000000000000000000000000000000000000081526004018080602001828103825260128152602001807f4163636f756e742063616e27742062652030000000000000000000000000000081525060200191505060405180910390fd5b3073ffffffffffffffffffffffffffffffffffffffff168373ffffffffffffffffffffffffffffffffffffffff16141515156189ae576040517f08c379a000000000000000000000000000000000000000000000000000000000815260040180806020018281038252601e8152602001807f43616e27742073656e64207265776172647320746f2066656520706f6f6c000081525060200191505060405180910390fd5b600260009054906101000a900473ffffffffffffffffffffffffffffffffffffffff1673ffffffffffffffffffffffffffffffffffffffff168373ffffffffffffffffffffffffffffffffffffffff1614151515618a74576040517f08c379a000000000000000000000000000000000000000000000000000000000815260040180806020018281038252601b8152602001807f43616e27742073656e64207265776172647320746f2070726f7879000000000081525060200191505060405180910390fd5b600860009054906101000a900473ffffffffffffffffffffffffffffffffffffffff1673ffffffffffffffffffffffffffffffffffffffff168373ffffffffffffffffffffffffffffffffffffffff1614151515618b3a576040517f08c379a000000000000000000000000000000000000000000000000000000000815260040180806020018281038252601f8152602001807f43616e27742073656e64207265776172647320746f2073796e7468657469780081525060200191505060405180910390fd5b600a60009054906101000a900473ffffffffffffffffffffffffffffffffffffffff1673ffffffffffffffffffffffffffffffffffffffff1663b5ddb9c784846040518363ffffffff167c0100000000000000000000000000000000000000000000000000000000028152600401808373ffffffffffffffffffffffffffffffffffffffff1673ffffffffffffffffffffffffffffffffffffffff16815260200182815260200192505050600060405180830381600087803b158015618bff57600080fd5b505af1158015618c13573d6000803e3d6000fd5b50505050505050565b600260009054906101000a900473ffffffffffffffffffffffffffffffffffffffff1673ffffffffffffffffffffffffffffffffffffffff1663907dff97848484604051602001808473ffffffffffffffffffffffffffffffffffffffff1673ffffffffffffffffffffffffffffffffffffffff1681526020018381526020018281526020019350505050604051602081830303815290604052600160405180807f46656573436c61696d656428616464726573732c75696e743235362c75696e7481526020017f32353629000000000000000000000000000000000000000000000000000000008152506024019050604051809103902060008060006040518763ffffffff167c010000000000000000000000000000000000000000000000000000000002815260040180806020018781526020018660001916600019168152602001856001026000191681526020018460010260001916815260200183600102600019168152602001828103825288818151815260200191508051906020019080838360005b83811015618dbf578082015181840152602081019050618da4565b50505050905090810190601f168015618dec5780820380516001836020036101000a031916815260200191505b50975050505050505050600060405180830381600087803b158015618e1057600080fd5b505af1158015618e24573d6000803e3d6000fd5b50505050505050565b600080600a6012601b0360ff16600a0a811515618e4657fe5b0483811515618e5157fe5b0490506005600a82811515618e6257fe5b06101515618e7157600a810190505b600a81811515618e7d57fe5b04915050919050565b6000806000841415618e9b5760009150618ebd565b8284029050828482811515618eac57fe5b04141515618eb957600080fd5b8091505b5092915050565b600080600083111515618ed657600080fd5b8284811515618ee157fe5b0490508091505092915050565b600080618f1984618f0b600a860288618e8690919063ffffffff16565b618ec490919063ffffffff16565b90506005600a82811515618f2957fe5b06101515618f3857600a810190505b600a81811515618f4457fe5b049150509392505050565b600080600a83811515618f5e57fe5b04618f728587618e8690919063ffffffff16565b811515618f7b57fe5b0490506005600a82811515618f8c57fe5b06101515618f9b57600a810190505b600a81811515618fa757fe5b049150509392505050565b60c0604051908101604052806003905b618fca61901e565b815260200190600190039081618fc25790505090565b60e060405190810160405280600081526020016000815260200160008152602001600081526020016000815260200160008152602001600081525090565b60408051908101604052806002906020820280388339808201915050905050905600a165627a7a723058204b80f44e56f0982c0b1ce76746dbe7eea469c2091de60bc5396f1a3ab36075440029",
  "source": "/*\n-----------------------------------------------------------------\nFILE INFORMATION\n-----------------------------------------------------------------\n\nfile:       FeePool.sol\nversion:    2.8.0\nauthors:    Kevin Brown\n            Jackson Chan\n            Clinton Ennis\ndate:       2018-10-15\n\n-----------------------------------------------------------------\nMODULE DESCRIPTION\n-----------------------------------------------------------------\n\nThe FeePool is a place for users to interact with the fees that\nhave been generated from the Synthetix system if they've helped\nto create the economy.\n\nUsers stake Synthetix to create Synths. As Synth users transact,\na small fee is deducted from exchange transactions, which collects\nin the fee pool. Fees are immediately converted to XDRs, a type\nof reserve currency similar to SDRs used by the IMF:\nhttps://www.imf.org/en/About/Factsheets/Sheets/2016/08/01/14/51/Special-Drawing-Right-SDR\n\nUsers are entitled to withdraw fees from periods that they participated\nin fully, e.g. they have to stake before the period starts. They\ncan withdraw fees for the last 2 periods as a single lump sum.\nCurrently fee periods are 7 days long, meaning it's assumed\nusers will withdraw their fees approximately once a fortnight. Fees\nwhich are not withdrawn are redistributed to the whole pool,\nenabling these non-claimed fees to go back to the rest of the commmunity.\n\nFees can be withdrawn in any synth currency.\n\n-----------------------------------------------------------------\n*/\n\npragma solidity 0.4.25;\n\nimport \"./Proxyable.sol\";\nimport \"./SelfDestructible.sol\";\nimport \"./SafeDecimalMath.sol\";\nimport \"./Synthetix.sol\";\nimport \"./interfaces/ISynthetixEscrow.sol\";\nimport \"./interfaces/ISynthetixState.sol\";\nimport \"./Synth.sol\";\nimport \"./FeePoolState.sol\";\nimport \"./FeePoolEternalStorage.sol\";\nimport \"./DelegateApprovals.sol\";\n\ncontract FeePool is Proxyable, SelfDestructible, LimitedSetup {\n\n    using SafeMath for uint;\n    using SafeDecimalMath for uint;\n\n    Synthetix public synthetix;\n    ISynthetixState public synthetixState;\n    ISynthetixEscrow public rewardEscrow;\n    FeePoolEternalStorage public feePoolEternalStorage;\n\n    // A percentage fee charged on each transfer.\n    uint public transferFeeRate;\n\n    // Transfer fee may not exceed 10%.\n    uint constant public MAX_TRANSFER_FEE_RATE = SafeDecimalMath.unit() / 10;\n\n    // A percentage fee charged on each exchange between currencies.\n    uint public exchangeFeeRate;\n\n    // Exchange fee may not exceed 10%.\n    uint constant public MAX_EXCHANGE_FEE_RATE = SafeDecimalMath.unit() / 10;\n\n    // The address with the authority to distribute rewards.\n    address public rewardsAuthority;\n\n    // The address to the FeePoolState Contract.\n    FeePoolState public feePoolState;\n\n    // The address to the DelegateApproval contract.\n    DelegateApprovals public delegates;\n\n    // Where fees are pooled in XDRs.\n    address public constant FEE_ADDRESS = 0xfeEFEEfeefEeFeefEEFEEfEeFeefEEFeeFEEFEeF;\n\n    // This struct represents the issuance activity that's happened in a fee period.\n    struct FeePeriod {\n        uint feePeriodId;\n        uint startingDebtIndex;\n        uint startTime;\n        uint feesToDistribute;\n        uint feesClaimed;\n        uint rewardsToDistribute;\n        uint rewardsClaimed;\n    }\n\n    // The last 2 fee periods are all that you can claim from.\n    // These are stored and managed from [0], such that [0] is always\n    // the current avtive fee period which is not claimable until the\n    // public function closeCurrentFeePeriod() is called closing the\n    // current weeks collected fees. [1] is last weeks feeperiod and\n    // [2] is the oldest fee period that users can claim for.\n    uint8 constant public FEE_PERIOD_LENGTH = 3;\n\n    FeePeriod[FEE_PERIOD_LENGTH] public recentFeePeriods;\n\n    // How long a fee period lasts at a minimum. It is required for the\n    // fee authority to roll over the periods, so they are not guaranteed\n    // to roll over at exactly this duration, but the contract enforces\n    // that they cannot roll over any quicker than this duration.\n    uint public feePeriodDuration = 1 weeks;\n    // The fee period must be between 1 day and 60 days.\n    uint public constant MIN_FEE_PERIOD_DURATION = 1 days;\n    uint public constant MAX_FEE_PERIOD_DURATION = 60 days;\n\n    // Users are unable to claim fees if their collateralisation ratio drifts out of target treshold\n    uint public TARGET_THRESHOLD = (10 * SafeDecimalMath.unit()) / 100;\n\n    /* ========== ETERNAL STORAGE CONSTANTS ========== */\n\n    bytes32 constant LAST_FEE_WITHDRAWAL = \"last_fee_withdrawal\";\n\n    constructor(\n        address _proxy,\n        address _owner,\n        Synthetix _synthetix,\n        FeePoolState _feePoolState,\n        FeePoolEternalStorage _feePoolEternalStorage,\n        ISynthetixState _synthetixState,\n        ISynthetixEscrow _rewardEscrow,\n        address _rewardsAuthority,\n        uint _transferFeeRate,\n        uint _exchangeFeeRate)\n        SelfDestructible(_owner)\n        Proxyable(_proxy, _owner)\n        LimitedSetup(3 weeks)\n        public\n    {\n        // Constructed fee rates should respect the maximum fee rates.\n        require(_transferFeeRate <= MAX_TRANSFER_FEE_RATE, \"Transfer fee rate max exceeded\");\n        require(_exchangeFeeRate <= MAX_EXCHANGE_FEE_RATE, \"Exchange fee rate max exceeded\");\n\n        synthetix = _synthetix;\n        feePoolState = _feePoolState;\n        feePoolEternalStorage = _feePoolEternalStorage;\n        rewardEscrow = _rewardEscrow;\n        synthetixState = _synthetixState;\n        rewardsAuthority = _rewardsAuthority;\n        transferFeeRate = _transferFeeRate;\n        exchangeFeeRate = _exchangeFeeRate;\n\n        // Set our initial fee period\n        recentFeePeriods[0].feePeriodId = 1;\n        recentFeePeriods[0].startTime = now;\n    }\n\n    /**\n     * @notice Logs an accounts issuance data per fee period\n     * @param account Message.Senders account address\n     * @param debtRatio Debt percentage this account has locked after minting or burning their synth\n     * @param debtEntryIndex The index in the global debt ledger. synthetix.synthetixState().issuanceData(account)\n     * @dev onlySynthetix to call me on synthetix.issue() & synthetix.burn() calls to store the locked SNX\n     * per fee period so we know to allocate the correct proportions of fees and rewards per period\n     */\n    function appendAccountIssuanceRecord(address account, uint debtRatio, uint debtEntryIndex)\n        external\n        onlySynthetix\n    {\n        feePoolState.appendAccountIssuanceRecord(account, debtRatio, debtEntryIndex, recentFeePeriods[0].startingDebtIndex);\n\n        emitIssuanceDebtRatioEntry(account, debtRatio, debtEntryIndex, recentFeePeriods[0].startingDebtIndex);\n    }\n\n    /**\n     * @notice Set the exchange fee, anywhere within the range 0-10%.\n     * @dev The fee rate is in decimal format, with UNIT being the value of 100%.\n     */\n    function setExchangeFeeRate(uint _exchangeFeeRate)\n        external\n        optionalProxy_onlyOwner\n    {\n        exchangeFeeRate = _exchangeFeeRate;\n    }\n\n    /**\n     * @notice Set the transfer fee, anywhere within the range 0-10%.\n     * @dev The fee rate is in decimal format, with UNIT being the value of 100%.\n     */\n    function setTransferFeeRate(uint _transferFeeRate)\n        external\n        optionalProxy_onlyOwner\n    {\n        require(_transferFeeRate <= MAX_TRANSFER_FEE_RATE, \"Transfer fee rate max exceeded\");\n\n        transferFeeRate = _transferFeeRate;\n    }\n\n    /**\n     * @notice Set the address of the contract responsible for distributing rewards\n     */\n    function setRewardsAuthority(address _rewardsAuthority)\n        external\n        optionalProxy_onlyOwner\n    {\n        rewardsAuthority = _rewardsAuthority;\n    }\n\n    /**\n     * @notice Set the address of the contract for feePool state\n     */\n    function setFeePoolState(FeePoolState _feePoolState)\n        external\n        optionalProxy_onlyOwner\n    {\n        feePoolState = _feePoolState;\n    }\n\n    /**\n     * @notice Set the address of the contract for delegate approvals\n     */\n    function setDelegateApprovals(DelegateApprovals _delegates)\n        external\n        optionalProxy_onlyOwner\n    {\n        delegates = _delegates;\n    }\n\n    /**\n     * @notice Set the fee period duration\n     */\n    function setFeePeriodDuration(uint _feePeriodDuration)\n        external\n        optionalProxy_onlyOwner\n    {\n        require(_feePeriodDuration >= MIN_FEE_PERIOD_DURATION, \"value < MIN_FEE_PERIOD_DURATION\");\n        require(_feePeriodDuration <= MAX_FEE_PERIOD_DURATION, \"value > MAX_FEE_PERIOD_DURATION\");\n\n        feePeriodDuration = _feePeriodDuration;\n\n        emitFeePeriodDurationUpdated(_feePeriodDuration);\n    }\n\n    /**\n     * @notice Set the synthetix contract\n     */\n    function setSynthetix(Synthetix _synthetix)\n        external\n        optionalProxy_onlyOwner\n    {\n        require(address(_synthetix) != address(0), \"New Synthetix must be non-zero\");\n\n        synthetix = _synthetix;\n    }\n\n    function setTargetThreshold(uint _percent)\n        external\n        optionalProxy_onlyOwner\n    {\n        require(_percent >= 0, \"Threshold should be positive\");\n        TARGET_THRESHOLD = (_percent * SafeDecimalMath.unit()) / 100;\n    }\n\n    /**\n     * @notice The Synthetix contract informs us when fees are paid.\n     */\n    function feePaid(bytes4 currencyKey, uint amount)\n        external\n        onlySynthetix\n    {\n        uint xdrAmount;\n\n        if (currencyKey != \"XDR\") {\n            xdrAmount = synthetix.effectiveValue(currencyKey, amount, \"XDR\");\n        } else {\n            xdrAmount = amount;\n        }\n\n        // Keep track of in XDRs in our fee pool.\n        recentFeePeriods[0].feesToDistribute = recentFeePeriods[0].feesToDistribute.add(xdrAmount);\n    }\n\n    /**\n     * @notice The RewardsDistribution contract informs us how many SNX rewards are sent to RewardEscrow to be claimed.\n     */\n    function setRewardsToDistribute(uint amount)\n        external\n    {\n        require(messageSender == rewardsAuthority || msg.sender == rewardsAuthority, \"Caller is not rewardsAuthority\");\n        // Add the amount of SNX rewards to distribute on top of any rolling unclaimed amount\n        recentFeePeriods[0].rewardsToDistribute = recentFeePeriods[0].rewardsToDistribute.add(amount);\n    }\n\n    /**\n     * @notice Close the current fee period and start a new one. Only callable by the fee authority.\n     */\n    function closeCurrentFeePeriod()\n        external\n    {\n        require(recentFeePeriods[0].startTime <= (now - feePeriodDuration), \"Too early to close fee period\");\n\n        FeePeriod memory secondLastFeePeriod = recentFeePeriods[FEE_PERIOD_LENGTH - 2];\n        FeePeriod memory lastFeePeriod = recentFeePeriods[FEE_PERIOD_LENGTH - 1];\n\n        // Any unclaimed fees from the last period in the array roll back one period.\n        // Because of the subtraction here, they're effectively proportionally redistributed to those who\n        // have already claimed from the old period, available in the new period.\n        // The subtraction is important so we don't create a ticking time bomb of an ever growing\n        // number of fees that can never decrease and will eventually overflow at the end of the fee pool.\n        recentFeePeriods[FEE_PERIOD_LENGTH - 2].feesToDistribute = lastFeePeriod.feesToDistribute\n            .sub(lastFeePeriod.feesClaimed)\n            .add(secondLastFeePeriod.feesToDistribute);\n        recentFeePeriods[FEE_PERIOD_LENGTH - 2].rewardsToDistribute = lastFeePeriod.rewardsToDistribute\n            .sub(lastFeePeriod.rewardsClaimed)\n            .add(secondLastFeePeriod.rewardsToDistribute);\n\n        // Shift the previous fee periods across to make room for the new one.\n        // Condition checks for overflow when uint subtracts one from zero\n        // Could be written with int instead of uint, but then we have to convert everywhere\n        // so it felt better from a gas perspective to just change the condition to check\n        // for overflow after subtracting one from zero.\n        for (uint i = FEE_PERIOD_LENGTH - 2; i < FEE_PERIOD_LENGTH; i--) {\n            uint next = i + 1;\n            recentFeePeriods[next].feePeriodId = recentFeePeriods[i].feePeriodId;\n            recentFeePeriods[next].startingDebtIndex = recentFeePeriods[i].startingDebtIndex;\n            recentFeePeriods[next].startTime = recentFeePeriods[i].startTime;\n            recentFeePeriods[next].feesToDistribute = recentFeePeriods[i].feesToDistribute;\n            recentFeePeriods[next].feesClaimed = recentFeePeriods[i].feesClaimed;\n            recentFeePeriods[next].rewardsToDistribute = recentFeePeriods[i].rewardsToDistribute;\n            recentFeePeriods[next].rewardsClaimed = recentFeePeriods[i].rewardsClaimed;\n        }\n\n        // Clear the first element of the array to make sure we don't have any stale values.\n        delete recentFeePeriods[0];\n\n        // Open up the new fee period. Take a snapshot of the total value of the system.\n        // Increment periodId from the recent closed period feePeriodId\n        recentFeePeriods[0].feePeriodId = recentFeePeriods[1].feePeriodId.add(1);\n        recentFeePeriods[0].startingDebtIndex = synthetixState.debtLedgerLength();\n        recentFeePeriods[0].startTime = now;\n\n        emitFeePeriodClosed(recentFeePeriods[1].feePeriodId);\n    }\n\n    /**\n    * @notice Claim fees for last period when available or not already withdrawn.\n    * @param currencyKey Synth currency you wish to receive the fees in.\n    */\n    function claimFees(bytes4 currencyKey)\n        external\n        optionalProxy\n        returns (bool)\n    {\n        return _claimFees(messageSender, currencyKey);\n    }\n\n    function claimOnBehalf(address claimingForAddress, bytes4 currencyKey)\n        external\n        optionalProxy\n        returns (bool)\n    {\n        require(delegates.approval(claimingForAddress, messageSender), \"Not approved to claim on behalf\");\n\n        return _claimFees(claimingForAddress, currencyKey);\n    }\n\n    function _claimFees(address claimingAddress, bytes4 currencyKey)\n        internal\n        returns (bool)\n    {\n        uint rewardsPaid;\n        uint feesPaid;\n        uint availableFees;\n        uint availableRewards;\n\n        // Address wont be able to claim fees if it is to far below the target c-ratio.\n        // It will need to burn synths then try claiming again.\n        require(feesClaimable(claimingAddress), \"C-Ratio below penalty threshold\");\n\n        // Get the claimingAddress available fees and rewards\n        (availableFees, availableRewards) = feesAvailable(claimingAddress, \"XDR\");\n\n        require(availableFees > 0 || availableRewards > 0, \"No fees or rewards available for period, or fees already claimed\");\n\n        // Record the address has claimed for this period\n        _setLastFeeWithdrawal(claimingAddress, recentFeePeriods[1].feePeriodId);\n\n        if (availableFees > 0) {\n            // Record the fee payment in our recentFeePeriods\n            feesPaid = _recordFeePayment(availableFees);\n\n            // Send them their fees\n            _payFees(claimingAddress, feesPaid, currencyKey);\n        }\n\n        if (availableRewards > 0) {\n            // Record the reward payment in our recentFeePeriods\n            rewardsPaid = _recordRewardPayment(availableRewards);\n\n            // Send them their rewards\n            _payRewards(claimingAddress, rewardsPaid);\n        }\n\n        emitFeesClaimed(claimingAddress, feesPaid, rewardsPaid);\n\n        return true;\n    }\n\n    function importFeePeriod(\n        uint feePeriodIndex, uint feePeriodId, uint startingDebtIndex, uint startTime,\n        uint feesToDistribute, uint feesClaimed, uint rewardsToDistribute, uint rewardsClaimed)\n        public\n        optionalProxy_onlyOwner\n        onlyDuringSetup\n    {\n        recentFeePeriods[feePeriodIndex].feePeriodId = feePeriodId;\n        recentFeePeriods[feePeriodIndex].startingDebtIndex = startingDebtIndex;\n        recentFeePeriods[feePeriodIndex].startTime = startTime;\n        recentFeePeriods[feePeriodIndex].feesToDistribute = feesToDistribute;\n        recentFeePeriods[feePeriodIndex].feesClaimed = feesClaimed;\n        recentFeePeriods[feePeriodIndex].rewardsToDistribute = rewardsToDistribute;\n        recentFeePeriods[feePeriodIndex].rewardsClaimed = rewardsClaimed;\n    }\n\n    /**\n    * @notice Owner can escrow SNX. Owner to send the tokens to the RewardEscrow\n    * @param account Address to escrow tokens for\n    * @param quantity Amount of tokens to escrow\n    */\n    function appendVestingEntry(address account, uint quantity)\n        public\n        optionalProxy_onlyOwner\n    {\n        // Transfer SNX from messageSender to the Reward Escrow\n        synthetix.transferFrom(messageSender, rewardEscrow, quantity);\n\n        // Create Vesting Entry\n        rewardEscrow.appendVestingEntry(account, quantity);\n    }\n\n    function approveClaimOnBehalf(address account)\n        public\n        optionalProxy\n    {\n        require(delegates != address(0), \"Delegates Contract missing\");\n        require(account != address(0), \"Can't delegate to address(0)\");\n        delegates.setApproval(messageSender, account);\n    }\n\n    function removeClaimOnBehalf(address account)\n        public\n        optionalProxy\n    {\n        require(delegates != address(0), \"Delegates Contract missing\");\n        delegates.withdrawApproval(messageSender, account);\n    }\n\n    /**\n     * @notice Record the fee payment in our recentFeePeriods.\n     * @param xdrAmount The amount of fees priced in XDRs.\n     */\n    function _recordFeePayment(uint xdrAmount)\n        internal\n        returns (uint)\n    {\n        // Don't assign to the parameter\n        uint remainingToAllocate = xdrAmount;\n\n        uint feesPaid;\n        // Start at the oldest period and record the amount, moving to newer periods\n        // until we've exhausted the amount.\n        // The condition checks for overflow because we're going to 0 with an unsigned int.\n        for (uint i = FEE_PERIOD_LENGTH - 1; i < FEE_PERIOD_LENGTH; i--) {\n            uint delta = recentFeePeriods[i].feesToDistribute.sub(recentFeePeriods[i].feesClaimed);\n\n            if (delta > 0) {\n                // Take the smaller of the amount left to claim in the period and the amount we need to allocate\n                uint amountInPeriod = delta < remainingToAllocate ? delta : remainingToAllocate;\n\n                recentFeePeriods[i].feesClaimed = recentFeePeriods[i].feesClaimed.add(amountInPeriod);\n                remainingToAllocate = remainingToAllocate.sub(amountInPeriod);\n                feesPaid = feesPaid.add(amountInPeriod);\n\n                // No need to continue iterating if we've recorded the whole amount;\n                if (remainingToAllocate == 0) return feesPaid;\n\n                // We've exhausted feePeriods to distribute and no fees remain in last period\n                // User last to claim would in this scenario have their remainder slashed\n                if (i == 0 && remainingToAllocate > 0) {\n                    remainingToAllocate = 0;\n                }\n            }\n        }\n\n        return feesPaid;\n    }\n\n    /**\n     * @notice Record the reward payment in our recentFeePeriods.\n     * @param snxAmount The amount of SNX tokens.\n     */\n    function _recordRewardPayment(uint snxAmount)\n        internal\n        returns (uint)\n    {\n        // Don't assign to the parameter\n        uint remainingToAllocate = snxAmount;\n\n        uint rewardPaid;\n\n        // Start at the oldest period and record the amount, moving to newer periods\n        // until we've exhausted the amount.\n        // The condition checks for overflow because we're going to 0 with an unsigned int.\n        for (uint i = FEE_PERIOD_LENGTH - 1; i < FEE_PERIOD_LENGTH; i--) {\n            uint toDistribute = recentFeePeriods[i].rewardsToDistribute.sub(recentFeePeriods[i].rewardsClaimed);\n\n            if (toDistribute > 0) {\n                // Take the smaller of the amount left to claim in the period and the amount we need to allocate\n                uint amountInPeriod = toDistribute < remainingToAllocate ? toDistribute : remainingToAllocate;\n\n                recentFeePeriods[i].rewardsClaimed = recentFeePeriods[i].rewardsClaimed.add(amountInPeriod);\n                remainingToAllocate = remainingToAllocate.sub(amountInPeriod);\n                rewardPaid = rewardPaid.add(amountInPeriod);\n\n                // No need to continue iterating if we've recorded the whole amount;\n                if (remainingToAllocate == 0) return rewardPaid;\n\n                // We've exhausted feePeriods to distribute and no rewards remain in last period\n                // User last to claim would in this scenario have their remainder slashed\n                // due to rounding up of PreciseDecimal\n                if (i == 0 && remainingToAllocate > 0) {\n                    remainingToAllocate = 0;\n                }\n            }\n        }\n        return rewardPaid;\n    }\n\n    /**\n    * @notice Send the fees to claiming address.\n    * @param account The address to send the fees to.\n    * @param xdrAmount The amount of fees priced in XDRs.\n    * @param destinationCurrencyKey The synth currency the user wishes to receive their fees in (convert to this currency).\n    */\n    function _payFees(address account, uint xdrAmount, bytes4 destinationCurrencyKey)\n        internal\n        notFeeAddress(account)\n    {\n        require(account != address(0), \"Account can't be 0\");\n        require(account != address(this), \"Can't send fees to fee pool\");\n        require(account != address(proxy), \"Can't send fees to proxy\");\n        require(account != address(synthetix), \"Can't send fees to synthetix\");\n\n        Synth xdrSynth = synthetix.synths(\"XDR\");\n        Synth destinationSynth = synthetix.synths(destinationCurrencyKey);\n\n        // Note: We don't need to check the fee pool balance as the burn() below will do a safe subtraction which requires\n        // the subtraction to not overflow, which would happen if the balance is not sufficient.\n\n        // Burn the source amount\n        xdrSynth.burn(FEE_ADDRESS, xdrAmount);\n\n        // How much should they get in the destination currency?\n        uint destinationAmount = synthetix.effectiveValue(\"XDR\", xdrAmount, destinationCurrencyKey);\n\n        // There's no fee on withdrawing fees, as that'd be way too meta.\n\n        // Mint their new synths\n        destinationSynth.issue(account, destinationAmount);\n\n        // Nothing changes as far as issuance data goes because the total value in the system hasn't changed.\n\n        // Call the ERC223 transfer callback if needed\n        destinationSynth.triggerTokenFallbackIfNeeded(FEE_ADDRESS, account, destinationAmount);\n    }\n\n    /**\n    * @notice Send the rewards to claiming address - will be locked in rewardEscrow.\n    * @param account The address to send the fees to.\n    * @param snxAmount The amount of SNX.\n    */\n    function _payRewards(address account, uint snxAmount)\n        internal\n        notFeeAddress(account)\n    {\n        require(account != address(0), \"Account can't be 0\");\n        require(account != address(this), \"Can't send rewards to fee pool\");\n        require(account != address(proxy), \"Can't send rewards to proxy\");\n        require(account != address(synthetix), \"Can't send rewards to synthetix\");\n\n        // Record vesting entry for claiming address and amount\n        // SNX already minted to rewardEscrow balance\n        rewardEscrow.appendVestingEntry(account, snxAmount);\n    }\n\n    /**\n     * @notice Calculate the Fee charged on top of a value being sent\n     * @return Return the fee charged\n     */\n    function transferFeeIncurred(uint value)\n        public\n        view\n        returns (uint)\n    {\n        return value.multiplyDecimal(transferFeeRate);\n\n        // Transfers less than the reciprocal of transferFeeRate should be completely eaten up by fees.\n        // This is on the basis that transfers less than this value will result in a nil fee.\n        // Probably too insignificant to worry about, but the following code will achieve it.\n        //      if (fee == 0 && transferFeeRate != 0) {\n        //          return _value;\n        //      }\n        //      return fee;\n    }\n\n    /**\n     * @notice The value that you would need to send so that the recipient receives\n     * a specified value.\n     * @param value The value you want the recipient to receive\n     */\n    function transferredAmountToReceive(uint value)\n        external\n        view\n        returns (uint)\n    {\n        return value.add(transferFeeIncurred(value));\n    }\n\n    /**\n     * @notice The amount the recipient will receive if you send a certain number of tokens.\n     * @param value The amount of tokens you intend to send.\n     */\n    function amountReceivedFromTransfer(uint value)\n        external\n        view\n        returns (uint)\n    {\n        return value.divideDecimal(transferFeeRate.add(SafeDecimalMath.unit()));\n    }\n\n    /**\n     * @notice Calculate the fee charged on top of a value being sent via an exchange\n     * @return Return the fee charged\n     */\n    function exchangeFeeIncurred(uint value)\n        public\n        view\n        returns (uint)\n    {\n        return value.multiplyDecimal(exchangeFeeRate);\n\n        // Exchanges less than the reciprocal of exchangeFeeRate should be completely eaten up by fees.\n        // This is on the basis that exchanges less than this value will result in a nil fee.\n        // Probably too insignificant to worry about, but the following code will achieve it.\n        //      if (fee == 0 && exchangeFeeRate != 0) {\n        //          return _value;\n        //      }\n        //      return fee;\n    }\n\n    /**\n     * @notice The value that you would need to get after currency exchange so that the recipient receives\n     * a specified value.\n     * @param value The value you want the recipient to receive\n     */\n    function exchangedAmountToReceive(uint value)\n        external\n        view\n        returns (uint)\n    {\n        return value.add(exchangeFeeIncurred(value));\n    }\n\n    /**\n     * @notice The amount the recipient will receive if you are performing an exchange and the\n     * destination currency will be worth a certain number of tokens.\n     * @param value The amount of destination currency tokens they received after the exchange.\n     */\n    function amountReceivedFromExchange(uint value)\n        external\n        view\n        returns (uint)\n    {\n        return value.multiplyDecimal(SafeDecimalMath.unit().sub(exchangeFeeRate));\n    }\n\n    /**\n     * @notice The total fees available in the system to be withdrawn, priced in currencyKey currency\n     * @param currencyKey The currency you want to price the fees in\n     */\n    function totalFeesAvailable(bytes4 currencyKey)\n        external\n        view\n        returns (uint)\n    {\n        uint totalFees = 0;\n\n        // Fees in fee period [0] are not yet available for withdrawal\n        for (uint i = 1; i < FEE_PERIOD_LENGTH; i++) {\n            totalFees = totalFees.add(recentFeePeriods[i].feesToDistribute);\n            totalFees = totalFees.sub(recentFeePeriods[i].feesClaimed);\n        }\n\n        return synthetix.effectiveValue(\"XDR\", totalFees, currencyKey);\n    }\n\n    /**\n     * @notice The total SNX rewards available in the system to be withdrawn\n     */\n    function totalRewardsAvailable()\n        external\n        view\n        returns (uint)\n    {\n        uint totalRewards = 0;\n\n        // Rewards in fee period [0] are not yet available for withdrawal\n        for (uint i = 1; i < FEE_PERIOD_LENGTH; i++) {\n            totalRewards = totalRewards.add(recentFeePeriods[i].rewardsToDistribute);\n            totalRewards = totalRewards.sub(recentFeePeriods[i].rewardsClaimed);\n        }\n\n        return totalRewards;\n    }\n\n    /**\n     * @notice The fees available to be withdrawn by a specific account, priced in currencyKey currency\n     * @dev Returns two amounts, one for fees and one for SNX rewards\n     * @param currencyKey The currency you want to price the fees in\n     */\n    function feesAvailable(address account, bytes4 currencyKey)\n        public\n        view\n        returns (uint, uint)\n    {\n        // Add up the fees\n        uint[2][FEE_PERIOD_LENGTH] memory userFees = feesByPeriod(account);\n\n        uint totalFees = 0;\n        uint totalRewards = 0;\n\n        // Fees & Rewards in fee period [0] are not yet available for withdrawal\n        for (uint i = 1; i < FEE_PERIOD_LENGTH; i++) {\n            totalFees = totalFees.add(userFees[i][0]);\n            totalRewards = totalRewards.add(userFees[i][1]);\n        }\n\n        // And convert totalFees to their desired currency\n        // Return totalRewards as is in SNX amount\n        return (\n            synthetix.effectiveValue(\"XDR\", totalFees, currencyKey),\n            totalRewards\n        );\n    }\n\n    /**\n     * @notice Check if a particular address is able to claim fees right now\n     * @param account The address you want to query for\n     */\n    function feesClaimable(address account)\n        public\n        view\n        returns (bool)\n    {\n        // Threshold is calculated from ratio % above the target ratio (issuanceRatio).\n        //  0  <  10%:   Claimable\n        // 10% > above:  Unable to claim\n        uint ratio = synthetix.collateralisationRatio(account);\n        uint targetRatio = synthetix.synthetixState().issuanceRatio();\n\n        // Claimable if collateral ratio below target ratio\n        if (ratio < targetRatio) {\n            return true;\n        }\n\n        // Calculate the threshold for collateral ratio before fees can't be claimed.\n        uint ratio_threshold = targetRatio.multiplyDecimal(SafeDecimalMath.unit().add(TARGET_THRESHOLD));\n\n        // Not claimable if collateral ratio above threshold\n        if (ratio > ratio_threshold) {\n            return false;\n        }\n\n        return true;\n    }\n\n    /**\n     * @notice Calculates fees by period for an account, priced in XDRs\n     * @param account The address you want to query the fees for\n     */\n    function feesByPeriod(address account)\n        public\n        view\n        returns (uint[2][FEE_PERIOD_LENGTH] memory results)\n    {\n        // What's the user's debt entry index and the debt they owe to the system at current feePeriod\n        uint userOwnershipPercentage;\n        uint debtEntryIndex;\n        (userOwnershipPercentage, debtEntryIndex) = feePoolState.getAccountsDebtEntry(account, 0);\n\n        // If they don't have any debt ownership and they haven't minted, they don't have any fees\n        if (debtEntryIndex == 0 && userOwnershipPercentage == 0) return;\n\n        // If there are no XDR synths, then they don't have any fees\n        if (synthetix.totalIssuedSynths(\"XDR\") == 0) return;\n\n        // The [0] fee period is not yet ready to claim, but it is a fee period that they can have\n        // fees owing for, so we need to report on it anyway.\n        uint feesFromPeriod;\n        uint rewardsFromPeriod;\n        (feesFromPeriod, rewardsFromPeriod) = _feesAndRewardsFromPeriod(0, userOwnershipPercentage, debtEntryIndex);\n\n        results[0][0] = feesFromPeriod;\n        results[0][1] = rewardsFromPeriod;\n\n        // Go through our fee periods from the oldest feePeriod[FEE_PERIOD_LENGTH - 1] and figure out what we owe them.\n        // Condition checks for periods > 0\n        for (uint i = FEE_PERIOD_LENGTH - 1; i > 0; i--) {\n            uint next = i - 1;\n            FeePeriod memory nextPeriod = recentFeePeriods[next];\n\n            // We can skip period if no debt minted during period\n            if (nextPeriod.startingDebtIndex > 0 &&\n            getLastFeeWithdrawal(account) < recentFeePeriods[i].feePeriodId) {\n\n                // We calculate a feePeriod's closingDebtIndex by looking at the next feePeriod's startingDebtIndex\n                // we can use the most recent issuanceData[0] for the current feePeriod\n                // else find the applicableIssuanceData for the feePeriod based on the StartingDebtIndex of the period\n                uint closingDebtIndex = nextPeriod.startingDebtIndex.sub(1);\n\n                // Gas optimisation - to reuse debtEntryIndex if found new applicable one\n                // if applicable is 0,0 (none found) we keep most recent one from issuanceData[0]\n                // return if userOwnershipPercentage = 0)\n                (userOwnershipPercentage, debtEntryIndex) = feePoolState.applicableIssuanceData(account, closingDebtIndex);\n\n                (feesFromPeriod, rewardsFromPeriod) = _feesAndRewardsFromPeriod(i, userOwnershipPercentage, debtEntryIndex);\n\n                results[i][0] = feesFromPeriod;\n                results[i][1] = rewardsFromPeriod;\n            }\n        }\n    }\n\n    /**\n     * @notice ownershipPercentage is a high precision decimals uint based on\n     * wallet's debtPercentage. Gives a precise amount of the feesToDistribute\n     * for fees in the period. Precision factor is removed before results are\n     * returned.\n     */\n    function _feesAndRewardsFromPeriod(uint period, uint ownershipPercentage, uint debtEntryIndex)\n        internal\n        returns (uint, uint)\n    {\n        // If it's zero, they haven't issued, and they have no fees OR rewards.\n        if (ownershipPercentage == 0) return (0, 0);\n\n        uint debtOwnershipForPeriod = ownershipPercentage;\n\n        // If period has closed we want to calculate debtPercentage for the period\n        if (period > 0) {\n            uint closingDebtIndex = recentFeePeriods[period - 1].startingDebtIndex.sub(1);\n            debtOwnershipForPeriod = _effectiveDebtRatioForPeriod(closingDebtIndex, ownershipPercentage, debtEntryIndex);\n        }\n\n        // Calculate their percentage of the fees / rewards in this period\n        // This is a high precision integer.\n        uint feesFromPeriod = recentFeePeriods[period].feesToDistribute\n            .multiplyDecimal(debtOwnershipForPeriod);\n\n        uint rewardsFromPeriod = recentFeePeriods[period].rewardsToDistribute\n            .multiplyDecimal(debtOwnershipForPeriod);\n\n        return (\n            feesFromPeriod.preciseDecimalToDecimal(),\n            rewardsFromPeriod.preciseDecimalToDecimal()\n        );\n    }\n\n    function _effectiveDebtRatioForPeriod(uint closingDebtIndex, uint ownershipPercentage, uint debtEntryIndex)\n        internal\n        view\n        returns (uint)\n    {\n        // Condition to check if debtLedger[] has value otherwise return 0\n        if (closingDebtIndex > synthetixState.debtLedgerLength()) return 0;\n\n        // Figure out their global debt percentage delta at end of fee Period.\n        // This is a high precision integer.\n        uint feePeriodDebtOwnership = synthetixState.debtLedger(closingDebtIndex)\n            .divideDecimalRoundPrecise(synthetixState.debtLedger(debtEntryIndex))\n            .multiplyDecimalRoundPrecise(ownershipPercentage);\n\n        return feePeriodDebtOwnership;\n    }\n\n    function effectiveDebtRatioForPeriod(address account, uint period)\n        external\n        view\n        returns (uint)\n    {\n        require(period != 0, \"Current period is not closed yet\");\n        require(period < FEE_PERIOD_LENGTH, \"Exceeds the FEE_PERIOD_LENGTH\");\n\n        // No debt minted during period as next period starts at 0\n        if (recentFeePeriods[period - 1].startingDebtIndex == 0) return;\n\n        uint closingDebtIndex = recentFeePeriods[period - 1].startingDebtIndex.sub(1);\n\n        uint ownershipPercentage;\n        uint debtEntryIndex;\n        (ownershipPercentage, debtEntryIndex) = feePoolState.applicableIssuanceData(account, closingDebtIndex);\n\n        // internal function will check closingDebtIndex has corresponding debtLedger entry\n        return _effectiveDebtRatioForPeriod(closingDebtIndex, ownershipPercentage, debtEntryIndex);\n    }\n\n    /**\n     * @notice Get the feePeriodID of the last claim this account made\n     * @param _claimingAddress account to check the last fee period ID claim for\n     * @return uint of the feePeriodID this account last claimed\n     */\n    function getLastFeeWithdrawal(address _claimingAddress)\n        public\n        view\n        returns (uint)\n    {\n        return feePoolEternalStorage.getUIntValue(keccak256(abi.encodePacked(LAST_FEE_WITHDRAWAL, _claimingAddress)));\n    }\n\n    /**\n    * @notice Calculate the collateral ratio before user is blocked from claiming.\n    */\n    function getPenaltyThresholdRatio()\n        public\n        view\n        returns (uint)\n    {\n        uint targetRatio = synthetix.synthetixState().issuanceRatio();\n\n        return targetRatio.multiplyDecimal(SafeDecimalMath.unit().add(TARGET_THRESHOLD));\n    }\n\n    /* ========== Modifiers ========== */\n\n    /**\n     * @notice Set the feePeriodID of the last claim this account made\n     * @param _claimingAddress account to set the last feePeriodID claim for\n     * @param _feePeriodID the feePeriodID this account claimed fees for\n     */\n    function _setLastFeeWithdrawal(address _claimingAddress, uint _feePeriodID)\n        internal\n    {\n        feePoolEternalStorage.setUIntValue(keccak256(abi.encodePacked(LAST_FEE_WITHDRAWAL, _claimingAddress)), _feePeriodID);\n    }\n\n    modifier onlySynthetix\n    {\n        require(msg.sender == address(synthetix), \"Only Synthetix Authorised\");\n        _;\n    }\n\n    modifier notFeeAddress(address account) {\n        require(account != FEE_ADDRESS, \"Fee address not allowed\");\n        _;\n    }\n\n    /* ========== Proxy Events ========== */\n\n    event IssuanceDebtRatioEntry(address indexed account, uint debtRatio, uint debtEntryIndex, uint feePeriodStartingDebtIndex);\n    bytes32 constant ISSUANCEDEBTRATIOENTRY_SIG = keccak256(\"IssuanceDebtRatioEntry(address,uint256,uint256,uint256)\");\n    function emitIssuanceDebtRatioEntry(address account, uint debtRatio, uint debtEntryIndex, uint feePeriodStartingDebtIndex) internal {\n        proxy._emit(abi.encode(debtRatio, debtEntryIndex, feePeriodStartingDebtIndex), 2, ISSUANCEDEBTRATIOENTRY_SIG, bytes32(account), 0, 0);\n    }\n\n    event TransferFeeUpdated(uint newFeeRate);\n    bytes32 constant TRANSFERFEEUPDATED_SIG = keccak256(\"TransferFeeUpdated(uint256)\");\n    function emitTransferFeeUpdated(uint newFeeRate) internal {\n        proxy._emit(abi.encode(newFeeRate), 1, TRANSFERFEEUPDATED_SIG, 0, 0, 0);\n    }\n\n    event ExchangeFeeUpdated(uint newFeeRate);\n    bytes32 constant EXCHANGEFEEUPDATED_SIG = keccak256(\"ExchangeFeeUpdated(uint256)\");\n    function emitExchangeFeeUpdated(uint newFeeRate) internal {\n        proxy._emit(abi.encode(newFeeRate), 1, EXCHANGEFEEUPDATED_SIG, 0, 0, 0);\n    }\n\n    event FeePeriodDurationUpdated(uint newFeePeriodDuration);\n    bytes32 constant FEEPERIODDURATIONUPDATED_SIG = keccak256(\"FeePeriodDurationUpdated(uint256)\");\n    function emitFeePeriodDurationUpdated(uint newFeePeriodDuration) internal {\n        proxy._emit(abi.encode(newFeePeriodDuration), 1, FEEPERIODDURATIONUPDATED_SIG, 0, 0, 0);\n    }\n\n    event FeePeriodClosed(uint feePeriodId);\n    bytes32 constant FEEPERIODCLOSED_SIG = keccak256(\"FeePeriodClosed(uint256)\");\n    function emitFeePeriodClosed(uint feePeriodId) internal {\n        proxy._emit(abi.encode(feePeriodId), 1, FEEPERIODCLOSED_SIG, 0, 0, 0);\n    }\n\n    event FeesClaimed(address account, uint xdrAmount, uint snxRewards);\n    bytes32 constant FEESCLAIMED_SIG = keccak256(\"FeesClaimed(address,uint256,uint256)\");\n    function emitFeesClaimed(address account, uint xdrAmount, uint snxRewards) internal {\n        proxy._emit(abi.encode(account, xdrAmount, snxRewards), 1, FEESCLAIMED_SIG, 0, 0, 0);\n    }\n}\n",
  "sourcePath": "/Users/hz/workspace/synthetix/contracts/FeePool.sol",
  "compiler": {
    "name": "solc",
    "version": "0.4.25+commit.59dbf8f1.Emscripten.clang"
  },
  "schemaVersion": "2.0.2",
  "updatedAt": "2019-09-19T02:10:36.461Z"
}