{
  "contractName": "FeePoolState",
  "abi": [
    {
      "constant": false,
      "inputs": [
        {
          "name": "_owner",
          "type": "address"
        }
      ],
      "name": "nominateNewOwner",
      "outputs": [],
      "payable": false,
      "stateMutability": "nonpayable",
      "type": "function"
    },
    {
      "constant": true,
      "inputs": [],
      "name": "initiationTime",
      "outputs": [
        {
          "name": "",
          "type": "uint256"
        }
      ],
      "payable": false,
      "stateMutability": "view",
      "type": "function"
    },
    {
      "constant": false,
      "inputs": [
        {
          "name": "_beneficiary",
          "type": "address"
        }
      ],
      "name": "setSelfDestructBeneficiary",
      "outputs": [],
      "payable": false,
      "stateMutability": "nonpayable",
      "type": "function"
    },
    {
      "constant": false,
      "inputs": [],
      "name": "terminateSelfDestruct",
      "outputs": [],
      "payable": false,
      "stateMutability": "nonpayable",
      "type": "function"
    },
    {
      "constant": true,
      "inputs": [],
      "name": "nominatedOwner",
      "outputs": [
        {
          "name": "",
          "type": "address"
        }
      ],
      "payable": false,
      "stateMutability": "view",
      "type": "function"
    },
    {
      "constant": false,
      "inputs": [],
      "name": "acceptOwnership",
      "outputs": [],
      "payable": false,
      "stateMutability": "nonpayable",
      "type": "function"
    },
    {
      "constant": true,
      "inputs": [
        {
          "name": "",
          "type": "address"
        },
        {
          "name": "",
          "type": "uint256"
        }
      ],
      "name": "accountIssuanceLedger",
      "outputs": [
        {
          "name": "debtPercentage",
          "type": "uint256"
        },
        {
          "name": "debtEntryIndex",
          "type": "uint256"
        }
      ],
      "payable": false,
      "stateMutability": "view",
      "type": "function"
    },
    {
      "constant": true,
      "inputs": [],
      "name": "owner",
      "outputs": [
        {
          "name": "",
          "type": "address"
        }
      ],
      "payable": false,
      "stateMutability": "view",
      "type": "function"
    },
    {
      "constant": false,
      "inputs": [],
      "name": "selfDestruct",
      "outputs": [],
      "payable": false,
      "stateMutability": "nonpayable",
      "type": "function"
    },
    {
      "constant": true,
      "inputs": [],
      "name": "SELFDESTRUCT_DELAY",
      "outputs": [
        {
          "name": "",
          "type": "uint256"
        }
      ],
      "payable": false,
      "stateMutability": "view",
      "type": "function"
    },
    {
      "constant": true,
      "inputs": [],
      "name": "feePool",
      "outputs": [
        {
          "name": "",
          "type": "address"
        }
      ],
      "payable": false,
      "stateMutability": "view",
      "type": "function"
    },
    {
      "constant": true,
      "inputs": [],
      "name": "selfDestructInitiated",
      "outputs": [
        {
          "name": "",
          "type": "bool"
        }
      ],
      "payable": false,
      "stateMutability": "view",
      "type": "function"
    },
    {
      "constant": false,
      "inputs": [],
      "name": "initiateSelfDestruct",
      "outputs": [],
      "payable": false,
      "stateMutability": "nonpayable",
      "type": "function"
    },
    {
      "constant": true,
      "inputs": [],
      "name": "selfDestructBeneficiary",
      "outputs": [
        {
          "name": "",
          "type": "address"
        }
      ],
      "payable": false,
      "stateMutability": "view",
      "type": "function"
    },
    {
      "constant": true,
      "inputs": [],
      "name": "FEE_PERIOD_LENGTH",
      "outputs": [
        {
          "name": "",
          "type": "uint8"
        }
      ],
      "payable": false,
      "stateMutability": "view",
      "type": "function"
    },
    {
      "inputs": [
        {
          "name": "_owner",
          "type": "address"
        },
        {
          "name": "_feePool",
          "type": "address"
        }
      ],
      "payable": false,
      "stateMutability": "nonpayable",
      "type": "constructor"
    },
    {
      "anonymous": false,
      "inputs": [
        {
          "indexed": true,
          "name": "account",
          "type": "address"
        },
        {
          "indexed": false,
          "name": "debtRatio",
          "type": "uint256"
        },
        {
          "indexed": false,
          "name": "feePeriodCloseIndex",
          "type": "uint256"
        }
      ],
      "name": "IssuanceDebtRatioEntry",
      "type": "event"
    },
    {
      "anonymous": false,
      "inputs": [],
      "name": "SelfDestructTerminated",
      "type": "event"
    },
    {
      "anonymous": false,
      "inputs": [
        {
          "indexed": false,
          "name": "beneficiary",
          "type": "address"
        }
      ],
      "name": "SelfDestructed",
      "type": "event"
    },
    {
      "anonymous": false,
      "inputs": [
        {
          "indexed": false,
          "name": "selfDestructDelay",
          "type": "uint256"
        }
      ],
      "name": "SelfDestructInitiated",
      "type": "event"
    },
    {
      "anonymous": false,
      "inputs": [
        {
          "indexed": false,
          "name": "newBeneficiary",
          "type": "address"
        }
      ],
      "name": "SelfDestructBeneficiaryUpdated",
      "type": "event"
    },
    {
      "anonymous": false,
      "inputs": [
        {
          "indexed": false,
          "name": "newOwner",
          "type": "address"
        }
      ],
      "name": "OwnerNominated",
      "type": "event"
    },
    {
      "anonymous": false,
      "inputs": [
        {
          "indexed": false,
          "name": "oldOwner",
          "type": "address"
        },
        {
          "indexed": false,
          "name": "newOwner",
          "type": "address"
        }
      ],
      "name": "OwnerChanged",
      "type": "event"
    },
    {
      "constant": false,
      "inputs": [
        {
          "name": "_feePool",
          "type": "address"
        }
      ],
      "name": "setFeePool",
      "outputs": [],
      "payable": false,
      "stateMutability": "nonpayable",
      "type": "function"
    },
    {
      "constant": true,
      "inputs": [
        {
          "name": "account",
          "type": "address"
        },
        {
          "name": "index",
          "type": "uint256"
        }
      ],
      "name": "getAccountsDebtEntry",
      "outputs": [
        {
          "name": "debtPercentage",
          "type": "uint256"
        },
        {
          "name": "debtEntryIndex",
          "type": "uint256"
        }
      ],
      "payable": false,
      "stateMutability": "view",
      "type": "function"
    },
    {
      "constant": true,
      "inputs": [
        {
          "name": "account",
          "type": "address"
        },
        {
          "name": "closingDebtIndex",
          "type": "uint256"
        }
      ],
      "name": "applicableIssuanceData",
      "outputs": [
        {
          "name": "",
          "type": "uint256"
        },
        {
          "name": "",
          "type": "uint256"
        }
      ],
      "payable": false,
      "stateMutability": "view",
      "type": "function"
    },
    {
      "constant": false,
      "inputs": [
        {
          "name": "account",
          "type": "address"
        },
        {
          "name": "debtRatio",
          "type": "uint256"
        },
        {
          "name": "debtEntryIndex",
          "type": "uint256"
        },
        {
          "name": "currentPeriodStartDebtIndex",
          "type": "uint256"
        }
      ],
      "name": "appendAccountIssuanceRecord",
      "outputs": [],
      "payable": false,
      "stateMutability": "nonpayable",
      "type": "function"
    },
    {
      "constant": false,
      "inputs": [
        {
          "name": "accounts",
          "type": "address[]"
        },
        {
          "name": "ratios",
          "type": "uint256[]"
        },
        {
          "name": "periodToInsert",
          "type": "uint256"
        },
        {
          "name": "feePeriodCloseIndex",
          "type": "uint256"
        }
      ],
      "name": "importIssuerData",
      "outputs": [],
      "payable": false,
      "stateMutability": "nonpayable",
      "type": "function"
    }
  ],
  "bytecode": "0x608060405234801561001057600080fd5b50604051604080612186833981018060405281019080805190602001909291908051906020019092919050505062375f008280600073ffffffffffffffffffffffffffffffffffffffff168173ffffffffffffffffffffffffffffffffffffffff16141515156100e8576040517f08c379a00000000000000000000000000000000000000000000000000000000081526004018080602001828103825260198152602001807f4f776e657220616464726573732063616e6e6f7420626520300000000000000081525060200191505060405180910390fd5b806000806101000a81548173ffffffffffffffffffffffffffffffffffffffff021916908373ffffffffffffffffffffffffffffffffffffffff1602179055507fb532073b38c83145e3e5135377a08bf9aab55bc0fd7c1179cd4fb995d2a5159c600082604051808373ffffffffffffffffffffffffffffffffffffffff1673ffffffffffffffffffffffffffffffffffffffff1681526020018273ffffffffffffffffffffffffffffffffffffffff1673ffffffffffffffffffffffffffffffffffffffff1681526020019250505060405180910390a150600073ffffffffffffffffffffffffffffffffffffffff168173ffffffffffffffffffffffffffffffffffffffff1614151515610266576040517f08c379a00000000000000000000000000000000000000000000000000000000081526004018080602001828103825260168152602001807f4f776e6572206d757374206e6f74206265207a65726f0000000000000000000081525060200191505060405180910390fd5b80600360016101000a81548173ffffffffffffffffffffffffffffffffffffffff021916908373ffffffffffffffffffffffffffffffffffffffff1602179055507fd5da63a0b864b315bc04128dedbc93888c8529ee6cf47ce664dc204339228c5381604051808273ffffffffffffffffffffffffffffffffffffffff1673ffffffffffffffffffffffffffffffffffffffff16815260200191505060405180910390a1508042016004819055505080600560006101000a81548173ffffffffffffffffffffffffffffffffffffffff021916908373ffffffffffffffffffffffffffffffffffffffff1602179055505050611e1f806103676000396000f300608060405260043610610112576000357c0100000000000000000000000000000000000000000000000000000000900463ffffffff1680631627540c1461011757806317c70de41461015a57806319db22281461018557806320714f88146101c85780633278c9601461020b57806339a3f63f1461022257806353a47bb71461028957806379ba5097146102e05780637de65545146102f75780638da5cb5b1461035f57806394e1a448146103b65780639cb8a26a14610417578063a461fc821461042e578063ae2e933b14610459578063b326f84e146104b0578063b8225dec14610518578063bd32aa4414610547578063c58aaae61461055e578063cff2ddad146105b5578063d29c000a146105e6575b600080fd5b34801561012357600080fd5b50610158600480360381019080803573ffffffffffffffffffffffffffffffffffffffff16906020019092919050505061064e565b005b34801561016657600080fd5b5061016f6107df565b6040518082815260200191505060405180910390f35b34801561019157600080fd5b506101c6600480360381019080803573ffffffffffffffffffffffffffffffffffffffff1690602001909291905050506107e5565b005b3480156101d457600080fd5b50610209600480360381019080803573ffffffffffffffffffffffffffffffffffffffff169060200190929190505050610913565b005b34801561021757600080fd5b50610220610b49565b005b34801561022e57600080fd5b506102876004803603810190808035906020019082018035906020019190919293919293908035906020019082018035906020019190919293919293908035906020019092919080359060200190929190505050610c84565b005b34801561029557600080fd5b5061029e611070565b604051808273ffffffffffffffffffffffffffffffffffffffff1673ffffffffffffffffffffffffffffffffffffffff16815260200191505060405180910390f35b3480156102ec57600080fd5b506102f5611096565b005b34801561030357600080fd5b50610342600480360381019080803573ffffffffffffffffffffffffffffffffffffffff16906020019092919080359060200190929190505050611301565b604051808381526020018281526020019250505060405180910390f35b34801561036b57600080fd5b50610374611337565b604051808273ffffffffffffffffffffffffffffffffffffffff1673ffffffffffffffffffffffffffffffffffffffff16815260200191505060405180910390f35b3480156103c257600080fd5b50610415600480360381019080803573ffffffffffffffffffffffffffffffffffffffff16906020019092919080359060200190929190803590602001909291908035906020019092919050505061135c565b005b34801561042357600080fd5b5061042c611565565b005b34801561043a57600080fd5b506104436117f4565b6040518082815260200191505060405180910390f35b34801561046557600080fd5b5061046e6117fb565b604051808273ffffffffffffffffffffffffffffffffffffffff1673ffffffffffffffffffffffffffffffffffffffff16815260200191505060405180910390f35b3480156104bc57600080fd5b506104fb600480360381019080803573ffffffffffffffffffffffffffffffffffffffff16906020019092919080359060200190929190505050611821565b604051808381526020018281526020019250505060405180910390f35b34801561052457600080fd5b5061052d611978565b604051808215151515815260200191505060405180910390f35b34801561055357600080fd5b5061055c61198b565b005b34801561056a57600080fd5b50610573611ad3565b604051808273ffffffffffffffffffffffffffffffffffffffff1673ffffffffffffffffffffffffffffffffffffffff16815260200191505060405180910390f35b3480156105c157600080fd5b506105ca611af9565b604051808260ff1660ff16815260200191505060405180910390f35b3480156105f257600080fd5b50610631600480360381019080803573ffffffffffffffffffffffffffffffffffffffff16906020019092919080359060200190929190505050611afe565b604051808381526020018281526020019250505060405180910390f35b6000809054906101000a900473ffffffffffffffffffffffffffffffffffffffff1673ffffffffffffffffffffffffffffffffffffffff163373ffffffffffffffffffffffffffffffffffffffff16141515610738576040517f08c379a000000000000000000000000000000000000000000000000000000000815260040180806020018281038252602f8152602001807f4f6e6c792074686520636f6e7472616374206f776e6572206d6179207065726681526020017f6f726d207468697320616374696f6e000000000000000000000000000000000081525060400191505060405180910390fd5b80600160006101000a81548173ffffffffffffffffffffffffffffffffffffffff021916908373ffffffffffffffffffffffffffffffffffffffff1602179055507f906a1c6bd7e3091ea86693dd029a831c19049ce77f1dce2ce0bab1cacbabce2281604051808273ffffffffffffffffffffffffffffffffffffffff1673ffffffffffffffffffffffffffffffffffffffff16815260200191505060405180910390a150565b60025481565b6000809054906101000a900473ffffffffffffffffffffffffffffffffffffffff1673ffffffffffffffffffffffffffffffffffffffff163373ffffffffffffffffffffffffffffffffffffffff161415156108cf576040517f08c379a000000000000000000000000000000000000000000000000000000000815260040180806020018281038252602f8152602001807f4f6e6c792074686520636f6e7472616374206f776e6572206d6179207065726681526020017f6f726d207468697320616374696f6e000000000000000000000000000000000081525060400191505060405180910390fd5b80600560006101000a81548173ffffffffffffffffffffffffffffffffffffffff021916908373ffffffffffffffffffffffffffffffffffffffff16021790555050565b6000809054906101000a900473ffffffffffffffffffffffffffffffffffffffff1673ffffffffffffffffffffffffffffffffffffffff163373ffffffffffffffffffffffffffffffffffffffff161415156109fd576040517f08c379a000000000000000000000000000000000000000000000000000000000815260040180806020018281038252602f8152602001807f4f6e6c792074686520636f6e7472616374206f776e6572206d6179207065726681526020017f6f726d207468697320616374696f6e000000000000000000000000000000000081525060400191505060405180910390fd5b600073ffffffffffffffffffffffffffffffffffffffff168173ffffffffffffffffffffffffffffffffffffffff1614151515610aa2576040517f08c379a000000000000000000000000000000000000000000000000000000000815260040180806020018281038252601c8152602001807f42656e6566696369617279206d757374206e6f74206265207a65726f0000000081525060200191505060405180910390fd5b80600360016101000a81548173ffffffffffffffffffffffffffffffffffffffff021916908373ffffffffffffffffffffffffffffffffffffffff1602179055507fd5da63a0b864b315bc04128dedbc93888c8529ee6cf47ce664dc204339228c5381604051808273ffffffffffffffffffffffffffffffffffffffff1673ffffffffffffffffffffffffffffffffffffffff16815260200191505060405180910390a150565b6000809054906101000a900473ffffffffffffffffffffffffffffffffffffffff1673ffffffffffffffffffffffffffffffffffffffff163373ffffffffffffffffffffffffffffffffffffffff16141515610c33576040517f08c379a000000000000000000000000000000000000000000000000000000000815260040180806020018281038252602f8152602001807f4f6e6c792074686520636f6e7472616374206f776e6572206d6179207065726681526020017f6f726d207468697320616374696f6e000000000000000000000000000000000081525060400191505060405180910390fd5b60006002819055506000600360006101000a81548160ff0219169083151502179055507f6adcc7125002935e0aa31697538ebbd65cfddf20431eb6ecdcfc3e238bfd082c60405160405180910390a1565b60008060009054906101000a900473ffffffffffffffffffffffffffffffffffffffff1673ffffffffffffffffffffffffffffffffffffffff163373ffffffffffffffffffffffffffffffffffffffff16141515610d70576040517f08c379a000000000000000000000000000000000000000000000000000000000815260040180806020018281038252602f8152602001807f4f6e6c792074686520636f6e7472616374206f776e6572206d6179207065726681526020017f6f726d207468697320616374696f6e000000000000000000000000000000000081525060400191505060405180910390fd5b60045442101515610e0f576040517f08c379a00000000000000000000000000000000000000000000000000000000081526004018080602001828103825260298152602001807f43616e206f6e6c7920706572666f726d207468697320616374696f6e2064757281526020017f696e67207365747570000000000000000000000000000000000000000000000081525060400191505060405180910390fd5b8484905087879050141515610e8c576040517f08c379a000000000000000000000000000000000000000000000000000000000815260040180806020018281038252600f8152602001807f4c656e677468206d69736d61746368000000000000000000000000000000000081525060200191505060405180910390fd5b600090505b868690508160ff1610156110675784848260ff168181101515610eb057fe5b905060200201356006600089898560ff168181101515610ecc57fe5b9050602002013573ffffffffffffffffffffffffffffffffffffffff1673ffffffffffffffffffffffffffffffffffffffff1673ffffffffffffffffffffffffffffffffffffffff16815260200190815260200160002084600681101515610f3057fe5b6002020160000181905550816006600089898560ff168181101515610f5157fe5b9050602002013573ffffffffffffffffffffffffffffffffffffffff1673ffffffffffffffffffffffffffffffffffffffff1673ffffffffffffffffffffffffffffffffffffffff16815260200190815260200160002084600681101515610fb557fe5b600202016001018190555086868260ff168181101515610fd157fe5b9050602002013573ffffffffffffffffffffffffffffffffffffffff1673ffffffffffffffffffffffffffffffffffffffff167f3846bc3c5dca9c6ef89995aa7b28d43a5a99aa2e3ea230494da474b8d4b29aea86868460ff16818110151561103657fe5b9050602002013584604051808381526020018281526020019250505060405180910390a28080600101915050610e91565b50505050505050565b600160009054906101000a900473ffffffffffffffffffffffffffffffffffffffff1681565b600160009054906101000a900473ffffffffffffffffffffffffffffffffffffffff1673ffffffffffffffffffffffffffffffffffffffff163373ffffffffffffffffffffffffffffffffffffffff16141515611181576040517f08c379a00000000000000000000000000000000000000000000000000000000081526004018080602001828103825260358152602001807f596f75206d757374206265206e6f6d696e61746564206265666f726520796f7581526020017f2063616e20616363657074206f776e657273686970000000000000000000000081525060400191505060405180910390fd5b7fb532073b38c83145e3e5135377a08bf9aab55bc0fd7c1179cd4fb995d2a5159c6000809054906101000a900473ffffffffffffffffffffffffffffffffffffffff16600160009054906101000a900473ffffffffffffffffffffffffffffffffffffffff16604051808373ffffffffffffffffffffffffffffffffffffffff1673ffffffffffffffffffffffffffffffffffffffff1681526020018273ffffffffffffffffffffffffffffffffffffffff1673ffffffffffffffffffffffffffffffffffffffff1681526020019250505060405180910390a1600160009054906101000a900473ffffffffffffffffffffffffffffffffffffffff166000806101000a81548173ffffffffffffffffffffffffffffffffffffffff021916908373ffffffffffffffffffffffffffffffffffffffff1602179055506000600160006101000a81548173ffffffffffffffffffffffffffffffffffffffff021916908373ffffffffffffffffffffffffffffffffffffffff160217905550565b60066020528160005260406000208160068110151561131c57fe5b60020201600091509150508060000154908060010154905082565b6000809054906101000a900473ffffffffffffffffffffffffffffffffffffffff1681565b600560009054906101000a900473ffffffffffffffffffffffffffffffffffffffff1673ffffffffffffffffffffffffffffffffffffffff163373ffffffffffffffffffffffffffffffffffffffff16141515611447576040517f08c379a00000000000000000000000000000000000000000000000000000000081526004018080602001828103825260318152602001807f4f6e6c792074686520466565506f6f6c20636f6e74726163742063616e20706581526020017f72666f726d207468697320616374696f6e00000000000000000000000000000081525060400191505060405180910390fd5b80600660008673ffffffffffffffffffffffffffffffffffffffff1673ffffffffffffffffffffffffffffffffffffffff168152602001908152602001600020600060068110151561149557fe5b600202016001015410156114ad576114ac84611c21565b5b82600660008673ffffffffffffffffffffffffffffffffffffffff1673ffffffffffffffffffffffffffffffffffffffff16815260200190815260200160002060006006811015156114fb57fe5b600202016000018190555081600660008673ffffffffffffffffffffffffffffffffffffffff1673ffffffffffffffffffffffffffffffffffffffff168152602001908152602001600020600060068110151561155457fe5b600202016001018190555050505050565b60008060009054906101000a900473ffffffffffffffffffffffffffffffffffffffff1673ffffffffffffffffffffffffffffffffffffffff163373ffffffffffffffffffffffffffffffffffffffff16141515611651576040517f08c379a000000000000000000000000000000000000000000000000000000000815260040180806020018281038252602f8152602001807f4f6e6c792074686520636f6e7472616374206f776e6572206d6179207065726681526020017f6f726d207468697320616374696f6e000000000000000000000000000000000081525060400191505060405180910390fd5b600360009054906101000a900460ff1615156116d5576040517f08c379a000000000000000000000000000000000000000000000000000000000815260040180806020018281038252601f8152602001807f53656c66204465737472756374206e6f742079657420696e697469617465640081525060200191505060405180910390fd5b426224ea0060025401101515611753576040517f08c379a000000000000000000000000000000000000000000000000000000000815260040180806020018281038252601b8152602001807f53656c662064657374727563742064656c6179206e6f74206d6574000000000081525060200191505060405180910390fd5b600360019054906101000a900473ffffffffffffffffffffffffffffffffffffffff1690507f8a09e1677ced846cb537dc2b172043bd05a1a81ad7e0033a7ef8ba762df990b781604051808273ffffffffffffffffffffffffffffffffffffffff1673ffffffffffffffffffffffffffffffffffffffff16815260200191505060405180910390a18073ffffffffffffffffffffffffffffffffffffffff16ff5b6224ea0081565b600560009054906101000a900473ffffffffffffffffffffffffffffffffffffffff1681565b600080600660ff16831015156118c5576040517f08c379a00000000000000000000000000000000000000000000000000000000081526004018080602001828103825260238152602001807f696e646578206578636565647320746865204645455f504552494f445f4c454e81526020017f475448000000000000000000000000000000000000000000000000000000000081525060400191505060405180910390fd5b600660008573ffffffffffffffffffffffffffffffffffffffff1673ffffffffffffffffffffffffffffffffffffffff1681526020019081526020016000208360068110151561191157fe5b60020201600001549150600660008573ffffffffffffffffffffffffffffffffffffffff1673ffffffffffffffffffffffffffffffffffffffff1681526020019081526020016000208360068110151561196757fe5b600202016001015490509250929050565b600360009054906101000a900460ff1681565b6000809054906101000a900473ffffffffffffffffffffffffffffffffffffffff1673ffffffffffffffffffffffffffffffffffffffff163373ffffffffffffffffffffffffffffffffffffffff16141515611a75576040517f08c379a000000000000000000000000000000000000000000000000000000000815260040180806020018281038252602f8152602001807f4f6e6c792074686520636f6e7472616374206f776e6572206d6179207065726681526020017f6f726d207468697320616374696f6e000000000000000000000000000000000081525060400191505060405180910390fd5b426002819055506001600360006101000a81548160ff0219169083151502179055507fcbd94ca75b8dc45c9d80c77e851670e78843c0d75180cb81db3e2158228fa9a66224ea006040518082815260200191505060405180910390a1565b600360019054906101000a900473ffffffffffffffffffffffffffffffffffffffff1681565b600681565b600080611b09611daa565b6000600660008773ffffffffffffffffffffffffffffffffffffffff1673ffffffffffffffffffffffffffffffffffffffff168152602001908152602001600020600680602002604051908101604052809291906000905b82821015611b9d578382600202016040805190810160405290816000820154815260200160018201548152505081526020019060010190611b61565b505050509150600090505b600660ff16811015611c17578181600681101515611bc257fe5b60200201516020015185101515611c0a578181600681101515611be157fe5b6020020151600001518282600681101515611bf857fe5b60200201516020015193509350611c18565b8080600101915050611ba8565b5b50509250929050565b600080600260060360ff1691505b600660ff16821015611da557600182019050600660008473ffffffffffffffffffffffffffffffffffffffff1673ffffffffffffffffffffffffffffffffffffffff16815260200190815260200160002082600681101515611c8d57fe5b6002020160000154600660008573ffffffffffffffffffffffffffffffffffffffff1673ffffffffffffffffffffffffffffffffffffffff16815260200190815260200160002082600681101515611ce157fe5b6002020160000181905550600660008473ffffffffffffffffffffffffffffffffffffffff1673ffffffffffffffffffffffffffffffffffffffff16815260200190815260200160002082600681101515611d3857fe5b6002020160010154600660008573ffffffffffffffffffffffffffffffffffffffff1673ffffffffffffffffffffffffffffffffffffffff16815260200190815260200160002082600681101515611d8c57fe5b6002020160010181905550818060019003925050611c2f565b505050565b610180604051908101604052806006905b611dc3611dd9565b815260200190600190039081611dbb5790505090565b6040805190810160405280600081526020016000815250905600a165627a7a72305820d673756f64b58753813eb16d6e8561aff21df091d76bbb864c912fef72f8fc150029",
  "source": "/*\n-----------------------------------------------------------------\nFILE INFORMATION\n-----------------------------------------------------------------\n\nfile:       FeePoolState.sol\nversion:    1.0\nauthor:     Clinton Ennis\n            Jackson Chan\ndate:       2019-04-05\n\n-----------------------------------------------------------------\nMODULE DESCRIPTION\n-----------------------------------------------------------------\n\nThe FeePoolState simply stores the accounts issuance ratio for\neach fee period in the FeePool.\n\nThis is use to caclulate the correct allocation of fees/rewards\nowed to minters of the stablecoin total supply\n\n-----------------------------------------------------------------\n*/\n\npragma solidity 0.4.25;\n\nimport \"./SelfDestructible.sol\";\nimport \"./SafeDecimalMath.sol\";\nimport \"./LimitedSetup.sol\";\nimport \"./interfaces/IFeePool.sol\";\n\ncontract FeePoolState is SelfDestructible, LimitedSetup {\n    using SafeMath for uint;\n    using SafeDecimalMath for uint;\n\n    /* ========== STATE VARIABLES ========== */\n\n    uint8 constant public FEE_PERIOD_LENGTH = 6;\n\n    address public feePool;\n\n    // The IssuanceData activity that's happened in a fee period.\n    struct IssuanceData {\n        uint debtPercentage;\n        uint debtEntryIndex;\n    }\n\n    // The IssuanceData activity that's happened in a fee period.\n    mapping(address => IssuanceData[FEE_PERIOD_LENGTH]) public accountIssuanceLedger;\n\n    /**\n     * @dev Constructor.\n     * @param _owner The owner of this contract.\n     */\n    constructor(address _owner, IFeePool _feePool)\n        SelfDestructible(_owner)\n        LimitedSetup(6 weeks)\n        public\n    {\n        feePool = _feePool;\n    }\n\n    /* ========== SETTERS ========== */\n\n    /**\n     * @notice set the FeePool contract as it is the only authority to be able to call\n     * appendAccountIssuanceRecord with the onlyFeePool modifer\n     * @dev Must be set by owner when FeePool logic is upgraded\n     */\n    function setFeePool(IFeePool _feePool)\n        external\n        onlyOwner\n    {\n        feePool = _feePool;\n    }\n\n    /* ========== VIEWS ========== */\n\n    /**\n     * @notice Get an accounts issuanceData for\n     * @param account users account\n     * @param index Index in the array to retrieve. Upto FEE_PERIOD_LENGTH\n     */\n    function getAccountsDebtEntry(address account, uint index)\n        public\n        view\n        returns (uint debtPercentage, uint debtEntryIndex)\n    {\n        require(index < FEE_PERIOD_LENGTH, \"index exceeds the FEE_PERIOD_LENGTH\");\n\n        debtPercentage = accountIssuanceLedger[account][index].debtPercentage;\n        debtEntryIndex = accountIssuanceLedger[account][index].debtEntryIndex;\n    }\n\n    /**\n     * @notice Find the oldest debtEntryIndex for the corresponding closingDebtIndex\n     * @param account users account\n     * @param closingDebtIndex the last periods debt index on close\n     */\n    function applicableIssuanceData(address account, uint closingDebtIndex)\n        external\n        view\n        returns (uint, uint)\n    {\n        IssuanceData[FEE_PERIOD_LENGTH] memory issuanceData = accountIssuanceLedger[account];\n        \n        // We want to use the user's debtEntryIndex at when the period closed\n        // Find the oldest debtEntryIndex for the corresponding closingDebtIndex\n        for (uint i = 0; i < FEE_PERIOD_LENGTH; i++) {\n            if (closingDebtIndex >= issuanceData[i].debtEntryIndex) {\n                return (issuanceData[i].debtPercentage, issuanceData[i].debtEntryIndex);\n            }\n        }\n    }\n\n    /* ========== MUTATIVE FUNCTIONS ========== */\n\n    /**\n     * @notice Logs an accounts issuance data in the current fee period which is then stored historically\n     * @param account Message.Senders account address\n     * @param debtRatio Debt percentage this account has locked after minting or burning their synth\n     * @param debtEntryIndex The index in the global debt ledger. synthetix.synthetixState().issuanceData(account)\n     * @param currentPeriodStartDebtIndex The startingDebtIndex of the current fee period\n     * @dev onlyFeePool to call me on synthetix.issue() & synthetix.burn() calls to store the locked SNX\n     * per fee period so we know to allocate the correct proportions of fees and rewards per period\n      accountIssuanceLedger[account][0] has the latest locked amount for the current period. This can be update as many time\n      accountIssuanceLedger[account][1-3] has the last locked amount for a previous period they minted or burned\n     */\n    function appendAccountIssuanceRecord(address account, uint debtRatio, uint debtEntryIndex, uint currentPeriodStartDebtIndex)\n        external\n        onlyFeePool\n    {\n        // Is the current debtEntryIndex within this fee period\n        if (accountIssuanceLedger[account][0].debtEntryIndex < currentPeriodStartDebtIndex) {\n             // If its older then shift the previous IssuanceData entries periods down to make room for the new one.\n            issuanceDataIndexOrder(account);\n        }\n        \n        // Always store the latest IssuanceData entry at [0]\n        accountIssuanceLedger[account][0].debtPercentage = debtRatio;\n        accountIssuanceLedger[account][0].debtEntryIndex = debtEntryIndex;\n    }\n\n    /**\n     * @notice Pushes down the entire array of debt ratios per fee period\n     */\n    function issuanceDataIndexOrder(address account)\n        private\n    {\n        for (uint i = FEE_PERIOD_LENGTH - 2; i < FEE_PERIOD_LENGTH; i--) {\n            uint next = i + 1;\n            accountIssuanceLedger[account][next].debtPercentage = accountIssuanceLedger[account][i].debtPercentage;\n            accountIssuanceLedger[account][next].debtEntryIndex = accountIssuanceLedger[account][i].debtEntryIndex;\n        }\n    }\n\n    /**\n     * @notice Import issuer data from synthetixState.issuerData on FeePeriodClose() block #\n     * @dev Only callable by the contract owner, and only for 6 weeks after deployment.\n     * @param accounts Array of issuing addresses\n     * @param ratios Array of debt ratios\n     * @param periodToInsert The Fee Period to insert the historical records into\n     * @param feePeriodCloseIndex An accounts debtEntryIndex is valid when within the fee peroid,\n     * since the input ratio will be an average of the pervious periods it just needs to be\n     * > recentFeePeriods[periodToInsert].startingDebtIndex\n     * < recentFeePeriods[periodToInsert - 1].startingDebtIndex\n     */\n    function importIssuerData(address[] accounts, uint[] ratios, uint periodToInsert, uint feePeriodCloseIndex)\n        external\n        onlyOwner\n        onlyDuringSetup\n    {\n        require(accounts.length == ratios.length, \"Length mismatch\");\n\n        for (uint8 i = 0; i < accounts.length; i++) {\n            accountIssuanceLedger[accounts[i]][periodToInsert].debtPercentage = ratios[i];\n            accountIssuanceLedger[accounts[i]][periodToInsert].debtEntryIndex = feePeriodCloseIndex;\n            emit IssuanceDebtRatioEntry(accounts[i], ratios[i], feePeriodCloseIndex);\n        }\n    }\n\n    /* ========== MODIFIERS ========== */\n\n    modifier onlyFeePool\n    {\n        require(msg.sender == address(feePool), \"Only the FeePool contract can perform this action\");\n        _;\n    }\n\n    /* ========== Events ========== */\n    event IssuanceDebtRatioEntry(address indexed account, uint debtRatio, uint feePeriodCloseIndex);\n}\n",
  "sourcePath": "/Users/hz/workspace/synthetix/contracts/FeePoolState.sol",
  "compiler": {
    "name": "solc",
    "version": "0.4.25+commit.59dbf8f1.Emscripten.clang"
  },
  "schemaVersion": "2.0.2",
  "updatedAt": "2019-09-19T02:10:36.477Z"
}