{
  "contractName": "Pausable",
  "abi": [
    {
      "constant": false,
      "inputs": [
        {
          "name": "_owner",
          "type": "address"
        }
      ],
      "name": "nominateNewOwner",
      "outputs": [],
      "payable": false,
      "stateMutability": "nonpayable",
      "type": "function"
    },
    {
      "constant": true,
      "inputs": [],
      "name": "nominatedOwner",
      "outputs": [
        {
          "name": "",
          "type": "address"
        }
      ],
      "payable": false,
      "stateMutability": "view",
      "type": "function"
    },
    {
      "constant": true,
      "inputs": [],
      "name": "paused",
      "outputs": [
        {
          "name": "",
          "type": "bool"
        }
      ],
      "payable": false,
      "stateMutability": "view",
      "type": "function"
    },
    {
      "constant": false,
      "inputs": [],
      "name": "acceptOwnership",
      "outputs": [],
      "payable": false,
      "stateMutability": "nonpayable",
      "type": "function"
    },
    {
      "constant": true,
      "inputs": [],
      "name": "owner",
      "outputs": [
        {
          "name": "",
          "type": "address"
        }
      ],
      "payable": false,
      "stateMutability": "view",
      "type": "function"
    },
    {
      "constant": true,
      "inputs": [],
      "name": "lastPauseTime",
      "outputs": [
        {
          "name": "",
          "type": "uint256"
        }
      ],
      "payable": false,
      "stateMutability": "view",
      "type": "function"
    },
    {
      "inputs": [
        {
          "name": "_owner",
          "type": "address"
        }
      ],
      "payable": false,
      "stateMutability": "nonpayable",
      "type": "constructor"
    },
    {
      "anonymous": false,
      "inputs": [
        {
          "indexed": false,
          "name": "isPaused",
          "type": "bool"
        }
      ],
      "name": "PauseChanged",
      "type": "event"
    },
    {
      "anonymous": false,
      "inputs": [
        {
          "indexed": false,
          "name": "newOwner",
          "type": "address"
        }
      ],
      "name": "OwnerNominated",
      "type": "event"
    },
    {
      "anonymous": false,
      "inputs": [
        {
          "indexed": false,
          "name": "oldOwner",
          "type": "address"
        },
        {
          "indexed": false,
          "name": "newOwner",
          "type": "address"
        }
      ],
      "name": "OwnerChanged",
      "type": "event"
    },
    {
      "constant": false,
      "inputs": [
        {
          "name": "_paused",
          "type": "bool"
        }
      ],
      "name": "setPaused",
      "outputs": [],
      "payable": false,
      "stateMutability": "nonpayable",
      "type": "function"
    }
  ],
  "bytecode": "0x608060405234801561001057600080fd5b506040516020806109f68339810180604052810190808051906020019092919050505080600073ffffffffffffffffffffffffffffffffffffffff168173ffffffffffffffffffffffffffffffffffffffff16141515156100d9576040517f08c379a00000000000000000000000000000000000000000000000000000000081526004018080602001828103825260198152602001807f4f776e657220616464726573732063616e6e6f7420626520300000000000000081525060200191505060405180910390fd5b806000806101000a81548173ffffffffffffffffffffffffffffffffffffffff021916908373ffffffffffffffffffffffffffffffffffffffff1602179055507fb532073b38c83145e3e5135377a08bf9aab55bc0fd7c1179cd4fb995d2a5159c600082604051808373ffffffffffffffffffffffffffffffffffffffff1673ffffffffffffffffffffffffffffffffffffffff1681526020018273ffffffffffffffffffffffffffffffffffffffff1673ffffffffffffffffffffffffffffffffffffffff1681526020019250505060405180910390a15050610834806101c26000396000f300608060405260043610610083576000357c0100000000000000000000000000000000000000000000000000000000900463ffffffff1680631627540c1461008857806316c38b3c146100cb57806353a47bb7146100fa5780635c975abb1461015157806379ba5097146101805780638da5cb5b1461019757806391b4ded9146101ee575b600080fd5b34801561009457600080fd5b506100c9600480360381019080803573ffffffffffffffffffffffffffffffffffffffff169060200190929190505050610219565b005b3480156100d757600080fd5b506100f86004803603810190808035151590602001909291905050506103aa565b005b34801561010657600080fd5b5061010f610539565b604051808273ffffffffffffffffffffffffffffffffffffffff1673ffffffffffffffffffffffffffffffffffffffff16815260200191505060405180910390f35b34801561015d57600080fd5b5061016661055f565b604051808215151515815260200191505060405180910390f35b34801561018c57600080fd5b50610195610572565b005b3480156101a357600080fd5b506101ac6107dd565b604051808273ffffffffffffffffffffffffffffffffffffffff1673ffffffffffffffffffffffffffffffffffffffff16815260200191505060405180910390f35b3480156101fa57600080fd5b50610203610802565b6040518082815260200191505060405180910390f35b6000809054906101000a900473ffffffffffffffffffffffffffffffffffffffff1673ffffffffffffffffffffffffffffffffffffffff163373ffffffffffffffffffffffffffffffffffffffff16141515610303576040517f08c379a000000000000000000000000000000000000000000000000000000000815260040180806020018281038252602f8152602001807f4f6e6c792074686520636f6e7472616374206f776e6572206d6179207065726681526020017f6f726d207468697320616374696f6e000000000000000000000000000000000081525060400191505060405180910390fd5b80600160006101000a81548173ffffffffffffffffffffffffffffffffffffffff021916908373ffffffffffffffffffffffffffffffffffffffff1602179055507f906a1c6bd7e3091ea86693dd029a831c19049ce77f1dce2ce0bab1cacbabce2281604051808273ffffffffffffffffffffffffffffffffffffffff1673ffffffffffffffffffffffffffffffffffffffff16815260200191505060405180910390a150565b6000809054906101000a900473ffffffffffffffffffffffffffffffffffffffff1673ffffffffffffffffffffffffffffffffffffffff163373ffffffffffffffffffffffffffffffffffffffff16141515610494576040517f08c379a000000000000000000000000000000000000000000000000000000000815260040180806020018281038252602f8152602001807f4f6e6c792074686520636f6e7472616374206f776e6572206d6179207065726681526020017f6f726d207468697320616374696f6e000000000000000000000000000000000081525060400191505060405180910390fd5b600360009054906101000a900460ff16151581151514156104b457610536565b80600360006101000a81548160ff021916908315150217905550600360009054906101000a900460ff16156104eb57426002819055505b7f8fb6c181ee25a520cf3dd6565006ef91229fcfe5a989566c2a3b8c115570cec5600360009054906101000a900460ff16604051808215151515815260200191505060405180910390a15b50565b600160009054906101000a900473ffffffffffffffffffffffffffffffffffffffff1681565b600360009054906101000a900460ff1681565b600160009054906101000a900473ffffffffffffffffffffffffffffffffffffffff1673ffffffffffffffffffffffffffffffffffffffff163373ffffffffffffffffffffffffffffffffffffffff1614151561065d576040517f08c379a00000000000000000000000000000000000000000000000000000000081526004018080602001828103825260358152602001807f596f75206d757374206265206e6f6d696e61746564206265666f726520796f7581526020017f2063616e20616363657074206f776e657273686970000000000000000000000081525060400191505060405180910390fd5b7fb532073b38c83145e3e5135377a08bf9aab55bc0fd7c1179cd4fb995d2a5159c6000809054906101000a900473ffffffffffffffffffffffffffffffffffffffff16600160009054906101000a900473ffffffffffffffffffffffffffffffffffffffff16604051808373ffffffffffffffffffffffffffffffffffffffff1673ffffffffffffffffffffffffffffffffffffffff1681526020018273ffffffffffffffffffffffffffffffffffffffff1673ffffffffffffffffffffffffffffffffffffffff1681526020019250505060405180910390a1600160009054906101000a900473ffffffffffffffffffffffffffffffffffffffff166000806101000a81548173ffffffffffffffffffffffffffffffffffffffff021916908373ffffffffffffffffffffffffffffffffffffffff1602179055506000600160006101000a81548173ffffffffffffffffffffffffffffffffffffffff021916908373ffffffffffffffffffffffffffffffffffffffff160217905550565b6000809054906101000a900473ffffffffffffffffffffffffffffffffffffffff1681565b600254815600a165627a7a72305820f79c6aabb6e93de5be686233bcdc3ec642e88d35da544cdff0f3b440839b55300029",
  "source": "/*\n-----------------------------------------------------------------\nFILE INFORMATION\n-----------------------------------------------------------------\n\nfile:       Pausable.sol\nversion:    1.0\nauthor:     Kevin Brown\n\ndate:       2018-05-22\n\n-----------------------------------------------------------------\nMODULE DESCRIPTION\n-----------------------------------------------------------------\n\nThis contract allows an inheriting contract to be marked as\npaused. It also defines a modifier which can be used by the\ninheriting contract to prevent actions while paused.\n\n-----------------------------------------------------------------\n*/\n\npragma solidity 0.4.25;\n\n\nimport \"./Owned.sol\";\n\n\n/**\n * @title A contract that can be paused by its owner\n */\ncontract Pausable is Owned {\n    \n    uint public lastPauseTime;\n    bool public paused;\n\n    /**\n     * @dev Constructor\n     * @param _owner The account which controls this contract.\n     */\n    constructor(address _owner)\n        Owned(_owner)\n        public\n    {\n        // Paused will be false, and lastPauseTime will be 0 upon initialisation\n    }\n\n    /**\n     * @notice Change the paused state of the contract\n     * @dev Only the contract owner may call this.\n     */\n    function setPaused(bool _paused)\n        external\n        onlyOwner\n    {\n        // Ensure we're actually changing the state before we do anything\n        if (_paused == paused) {\n            return;\n        }\n\n        // Set our paused state.\n        paused = _paused;\n        \n        // If applicable, set the last pause time.\n        if (paused) {\n            lastPauseTime = now;\n        }\n\n        // Let everyone know that our pause state has changed.\n        emit PauseChanged(paused);\n    }\n\n    event PauseChanged(bool isPaused);\n\n    modifier notPaused {\n        require(!paused, \"This action cannot be performed while the contract is paused\");\n        _;\n    }\n}\n",
  "sourcePath": "/Users/hz/workspace/synthetix/contracts/Pausable.sol",
  "compiler": {
    "name": "solc",
    "version": "0.4.25+commit.59dbf8f1.Emscripten.clang"
  },
  "schemaVersion": "2.0.2",
  "updatedAt": "2019-09-19T02:10:36.483Z"
}