{
  "contractName": "ProxyERC20",
  "abi": [
    {
      "constant": false,
      "inputs": [
        {
          "name": "_owner",
          "type": "address"
        }
      ],
      "name": "nominateNewOwner",
      "outputs": [],
      "payable": false,
      "stateMutability": "nonpayable",
      "type": "function"
    },
    {
      "constant": true,
      "inputs": [],
      "name": "nominatedOwner",
      "outputs": [
        {
          "name": "",
          "type": "address"
        }
      ],
      "payable": false,
      "stateMutability": "view",
      "type": "function"
    },
    {
      "constant": false,
      "inputs": [
        {
          "name": "_target",
          "type": "address"
        }
      ],
      "name": "setTarget",
      "outputs": [],
      "payable": false,
      "stateMutability": "nonpayable",
      "type": "function"
    },
    {
      "constant": false,
      "inputs": [],
      "name": "acceptOwnership",
      "outputs": [],
      "payable": false,
      "stateMutability": "nonpayable",
      "type": "function"
    },
    {
      "constant": true,
      "inputs": [],
      "name": "owner",
      "outputs": [
        {
          "name": "",
          "type": "address"
        }
      ],
      "payable": false,
      "stateMutability": "view",
      "type": "function"
    },
    {
      "constant": false,
      "inputs": [
        {
          "name": "callData",
          "type": "bytes"
        },
        {
          "name": "numTopics",
          "type": "uint256"
        },
        {
          "name": "topic1",
          "type": "bytes32"
        },
        {
          "name": "topic2",
          "type": "bytes32"
        },
        {
          "name": "topic3",
          "type": "bytes32"
        },
        {
          "name": "topic4",
          "type": "bytes32"
        }
      ],
      "name": "_emit",
      "outputs": [],
      "payable": false,
      "stateMutability": "nonpayable",
      "type": "function"
    },
    {
      "constant": true,
      "inputs": [],
      "name": "useDELEGATECALL",
      "outputs": [
        {
          "name": "",
          "type": "bool"
        }
      ],
      "payable": false,
      "stateMutability": "view",
      "type": "function"
    },
    {
      "constant": false,
      "inputs": [
        {
          "name": "value",
          "type": "bool"
        }
      ],
      "name": "setUseDELEGATECALL",
      "outputs": [],
      "payable": false,
      "stateMutability": "nonpayable",
      "type": "function"
    },
    {
      "constant": true,
      "inputs": [],
      "name": "target",
      "outputs": [
        {
          "name": "",
          "type": "address"
        }
      ],
      "payable": false,
      "stateMutability": "view",
      "type": "function"
    },
    {
      "inputs": [
        {
          "name": "_owner",
          "type": "address"
        }
      ],
      "payable": false,
      "stateMutability": "nonpayable",
      "type": "constructor"
    },
    {
      "payable": true,
      "stateMutability": "payable",
      "type": "fallback"
    },
    {
      "anonymous": false,
      "inputs": [
        {
          "indexed": true,
          "name": "from",
          "type": "address"
        },
        {
          "indexed": true,
          "name": "to",
          "type": "address"
        },
        {
          "indexed": false,
          "name": "value",
          "type": "uint256"
        }
      ],
      "name": "Transfer",
      "type": "event"
    },
    {
      "anonymous": false,
      "inputs": [
        {
          "indexed": true,
          "name": "owner",
          "type": "address"
        },
        {
          "indexed": true,
          "name": "spender",
          "type": "address"
        },
        {
          "indexed": false,
          "name": "value",
          "type": "uint256"
        }
      ],
      "name": "Approval",
      "type": "event"
    },
    {
      "anonymous": false,
      "inputs": [
        {
          "indexed": false,
          "name": "newTarget",
          "type": "address"
        }
      ],
      "name": "TargetUpdated",
      "type": "event"
    },
    {
      "anonymous": false,
      "inputs": [
        {
          "indexed": false,
          "name": "newOwner",
          "type": "address"
        }
      ],
      "name": "OwnerNominated",
      "type": "event"
    },
    {
      "anonymous": false,
      "inputs": [
        {
          "indexed": false,
          "name": "oldOwner",
          "type": "address"
        },
        {
          "indexed": false,
          "name": "newOwner",
          "type": "address"
        }
      ],
      "name": "OwnerChanged",
      "type": "event"
    },
    {
      "constant": true,
      "inputs": [],
      "name": "name",
      "outputs": [
        {
          "name": "",
          "type": "string"
        }
      ],
      "payable": false,
      "stateMutability": "view",
      "type": "function"
    },
    {
      "constant": true,
      "inputs": [],
      "name": "symbol",
      "outputs": [
        {
          "name": "",
          "type": "string"
        }
      ],
      "payable": false,
      "stateMutability": "view",
      "type": "function"
    },
    {
      "constant": true,
      "inputs": [],
      "name": "decimals",
      "outputs": [
        {
          "name": "",
          "type": "uint8"
        }
      ],
      "payable": false,
      "stateMutability": "view",
      "type": "function"
    },
    {
      "constant": true,
      "inputs": [],
      "name": "totalSupply",
      "outputs": [
        {
          "name": "",
          "type": "uint256"
        }
      ],
      "payable": false,
      "stateMutability": "view",
      "type": "function"
    },
    {
      "constant": true,
      "inputs": [
        {
          "name": "owner",
          "type": "address"
        }
      ],
      "name": "balanceOf",
      "outputs": [
        {
          "name": "",
          "type": "uint256"
        }
      ],
      "payable": false,
      "stateMutability": "view",
      "type": "function"
    },
    {
      "constant": true,
      "inputs": [
        {
          "name": "owner",
          "type": "address"
        },
        {
          "name": "spender",
          "type": "address"
        }
      ],
      "name": "allowance",
      "outputs": [
        {
          "name": "",
          "type": "uint256"
        }
      ],
      "payable": false,
      "stateMutability": "view",
      "type": "function"
    },
    {
      "constant": false,
      "inputs": [
        {
          "name": "to",
          "type": "address"
        },
        {
          "name": "value",
          "type": "uint256"
        }
      ],
      "name": "transfer",
      "outputs": [
        {
          "name": "",
          "type": "bool"
        }
      ],
      "payable": false,
      "stateMutability": "nonpayable",
      "type": "function"
    },
    {
      "constant": false,
      "inputs": [
        {
          "name": "spender",
          "type": "address"
        },
        {
          "name": "value",
          "type": "uint256"
        }
      ],
      "name": "approve",
      "outputs": [
        {
          "name": "",
          "type": "bool"
        }
      ],
      "payable": false,
      "stateMutability": "nonpayable",
      "type": "function"
    },
    {
      "constant": false,
      "inputs": [
        {
          "name": "from",
          "type": "address"
        },
        {
          "name": "to",
          "type": "address"
        },
        {
          "name": "value",
          "type": "uint256"
        }
      ],
      "name": "transferFrom",
      "outputs": [
        {
          "name": "",
          "type": "bool"
        }
      ],
      "payable": false,
      "stateMutability": "nonpayable",
      "type": "function"
    }
  ],
  "bytecode": "0x608060405234801561001057600080fd5b50604051602080611eaa833981018060405281019080805190602001909291905050508080600073ffffffffffffffffffffffffffffffffffffffff168173ffffffffffffffffffffffffffffffffffffffff16141515156100da576040517f08c379a00000000000000000000000000000000000000000000000000000000081526004018080602001828103825260198152602001807f4f776e657220616464726573732063616e6e6f7420626520300000000000000081525060200191505060405180910390fd5b806000806101000a81548173ffffffffffffffffffffffffffffffffffffffff021916908373ffffffffffffffffffffffffffffffffffffffff1602179055507fb532073b38c83145e3e5135377a08bf9aab55bc0fd7c1179cd4fb995d2a5159c600082604051808373ffffffffffffffffffffffffffffffffffffffff1673ffffffffffffffffffffffffffffffffffffffff1681526020018273ffffffffffffffffffffffffffffffffffffffff1673ffffffffffffffffffffffffffffffffffffffff1681526020019250505060405180910390a1505050611ce6806101c46000396000f3006080604052600436106100fc576000357c0100000000000000000000000000000000000000000000000000000000900463ffffffff16806306fdde0314610233578063095ea7b3146102c35780631627540c1461032857806318160ddd1461036b57806323b872dd14610396578063313ce5671461041b57806353a47bb71461044c57806370a08231146104a3578063776d1a01146104fa57806379ba50971461053d5780638da5cb5b14610554578063907dff97146105ab57806395578ebd1461062857806395d89b4114610657578063a9059cbb146106e7578063befff6af1461074c578063d4b839921461077b578063dd62ed3e146107d2575b600260149054906101000a900460ff161561013757604051366000823760008036836002545af43d6000833e801515610133573d82fd5b3d82f35b600260009054906101000a900473ffffffffffffffffffffffffffffffffffffffff1673ffffffffffffffffffffffffffffffffffffffff1663bc67f832336040518263ffffffff167c0100000000000000000000000000000000000000000000000000000000028152600401808273ffffffffffffffffffffffffffffffffffffffff1673ffffffffffffffffffffffffffffffffffffffff168152602001915050600060405180830381600087803b1580156101f457600080fd5b505af1158015610208573d6000803e3d6000fd5b5050505060405136600082376000803683346002545af13d6000833e80151561022f573d82fd5b3d82f35b34801561023f57600080fd5b50610248610849565b6040518080602001828103825283818151815260200191508051906020019080838360005b8381101561028857808201518184015260208101905061026d565b50505050905090810190601f1680156102b55780820380516001836020036101000a031916815260200191505b509250505060405180910390f35b3480156102cf57600080fd5b5061030e600480360381019080803573ffffffffffffffffffffffffffffffffffffffff16906020019092919080359060200190929190505050610967565b604051808215151515815260200191505060405180910390f35b34801561033457600080fd5b50610369600480360381019080803573ffffffffffffffffffffffffffffffffffffffff169060200190929190505050610b49565b005b34801561037757600080fd5b50610380610cda565b6040518082815260200191505060405180910390f35b3480156103a257600080fd5b50610401600480360381019080803573ffffffffffffffffffffffffffffffffffffffff169060200190929190803573ffffffffffffffffffffffffffffffffffffffff16906020019092919080359060200190929190505050610da2565b604051808215151515815260200191505060405180910390f35b34801561042757600080fd5b50610430610fb9565b604051808260ff1660ff16815260200191505060405180910390f35b34801561045857600080fd5b50610461611081565b604051808273ffffffffffffffffffffffffffffffffffffffff1673ffffffffffffffffffffffffffffffffffffffff16815260200191505060405180910390f35b3480156104af57600080fd5b506104e4600480360381019080803573ffffffffffffffffffffffffffffffffffffffff1690602001909291905050506110a7565b6040518082815260200191505060405180910390f35b34801561050657600080fd5b5061053b600480360381019080803573ffffffffffffffffffffffffffffffffffffffff1690602001909291905050506111a8565b005b34801561054957600080fd5b50610552611339565b005b34801561056057600080fd5b506105696115a4565b604051808273ffffffffffffffffffffffffffffffffffffffff1673ffffffffffffffffffffffffffffffffffffffff16815260200191505060405180910390f35b3480156105b757600080fd5b506106266004803603810190808035906020019082018035906020019190919293919293908035906020019092919080356000191690602001909291908035600019169060200190929190803560001916906020019092919080356000191690602001909291905050506115c9565b005b34801561063457600080fd5b5061063d611744565b604051808215151515815260200191505060405180910390f35b34801561066357600080fd5b5061066c611757565b6040518080602001828103825283818151815260200191508051906020019080838360005b838110156106ac578082015181840152602081019050610691565b50505050905090810190601f1680156106d95780820380516001836020036101000a031916815260200191505b509250505060405180910390f35b3480156106f357600080fd5b50610732600480360381019080803573ffffffffffffffffffffffffffffffffffffffff16906020019092919080359060200190929190505050611875565b604051808215151515815260200191505060405180910390f35b34801561075857600080fd5b50610779600480360381019080803515159060200190929190505050611a57565b005b34801561078757600080fd5b50610790611b5e565b604051808273ffffffffffffffffffffffffffffffffffffffff1673ffffffffffffffffffffffffffffffffffffffff16815260200191505060405180910390f35b3480156107de57600080fd5b50610833600480360381019080803573ffffffffffffffffffffffffffffffffffffffff169060200190929190803573ffffffffffffffffffffffffffffffffffffffff169060200190929190505050611b84565b6040518082815260200191505060405180910390f35b6060600260009054906101000a900473ffffffffffffffffffffffffffffffffffffffff1673ffffffffffffffffffffffffffffffffffffffff166306fdde036040518163ffffffff167c0100000000000000000000000000000000000000000000000000000000028152600401600060405180830381600087803b1580156108d157600080fd5b505af11580156108e5573d6000803e3d6000fd5b505050506040513d6000823e3d601f19601f82011682018060405250602081101561090f57600080fd5b81019080805164010000000081111561092757600080fd5b8281019050602081018481111561093d57600080fd5b815185600182028301116401000000008211171561095a57600080fd5b5050929190505050905090565b6000600260009054906101000a900473ffffffffffffffffffffffffffffffffffffffff1673ffffffffffffffffffffffffffffffffffffffff1663bc67f832336040518263ffffffff167c0100000000000000000000000000000000000000000000000000000000028152600401808273ffffffffffffffffffffffffffffffffffffffff1673ffffffffffffffffffffffffffffffffffffffff168152602001915050600060405180830381600087803b158015610a2657600080fd5b505af1158015610a3a573d6000803e3d6000fd5b50505050600260009054906101000a900473ffffffffffffffffffffffffffffffffffffffff1673ffffffffffffffffffffffffffffffffffffffff1663095ea7b384846040518363ffffffff167c0100000000000000000000000000000000000000000000000000000000028152600401808373ffffffffffffffffffffffffffffffffffffffff1673ffffffffffffffffffffffffffffffffffffffff16815260200182815260200192505050602060405180830381600087803b158015610b0357600080fd5b505af1158015610b17573d6000803e3d6000fd5b505050506040513d6020811015610b2d57600080fd5b8101908080519060200190929190505050506001905092915050565b6000809054906101000a900473ffffffffffffffffffffffffffffffffffffffff1673ffffffffffffffffffffffffffffffffffffffff163373ffffffffffffffffffffffffffffffffffffffff16141515610c33576040517f08c379a000000000000000000000000000000000000000000000000000000000815260040180806020018281038252602f8152602001807f4f6e6c792074686520636f6e7472616374206f776e6572206d6179207065726681526020017f6f726d207468697320616374696f6e000000000000000000000000000000000081525060400191505060405180910390fd5b80600160006101000a81548173ffffffffffffffffffffffffffffffffffffffff021916908373ffffffffffffffffffffffffffffffffffffffff1602179055507f906a1c6bd7e3091ea86693dd029a831c19049ce77f1dce2ce0bab1cacbabce2281604051808273ffffffffffffffffffffffffffffffffffffffff1673ffffffffffffffffffffffffffffffffffffffff16815260200191505060405180910390a150565b6000600260009054906101000a900473ffffffffffffffffffffffffffffffffffffffff1673ffffffffffffffffffffffffffffffffffffffff166318160ddd6040518163ffffffff167c0100000000000000000000000000000000000000000000000000000000028152600401602060405180830381600087803b158015610d6257600080fd5b505af1158015610d76573d6000803e3d6000fd5b505050506040513d6020811015610d8c57600080fd5b8101908080519060200190929190505050905090565b6000600260009054906101000a900473ffffffffffffffffffffffffffffffffffffffff1673ffffffffffffffffffffffffffffffffffffffff1663bc67f832336040518263ffffffff167c0100000000000000000000000000000000000000000000000000000000028152600401808273ffffffffffffffffffffffffffffffffffffffff1673ffffffffffffffffffffffffffffffffffffffff168152602001915050600060405180830381600087803b158015610e6157600080fd5b505af1158015610e75573d6000803e3d6000fd5b50505050600260009054906101000a900473ffffffffffffffffffffffffffffffffffffffff1673ffffffffffffffffffffffffffffffffffffffff166323b872dd8585856040518463ffffffff167c0100000000000000000000000000000000000000000000000000000000028152600401808473ffffffffffffffffffffffffffffffffffffffff1673ffffffffffffffffffffffffffffffffffffffff1681526020018373ffffffffffffffffffffffffffffffffffffffff1673ffffffffffffffffffffffffffffffffffffffff1681526020018281526020019350505050602060405180830381600087803b158015610f7257600080fd5b505af1158015610f86573d6000803e3d6000fd5b505050506040513d6020811015610f9c57600080fd5b810190808051906020019092919050505050600190509392505050565b6000600260009054906101000a900473ffffffffffffffffffffffffffffffffffffffff1673ffffffffffffffffffffffffffffffffffffffff1663313ce5676040518163ffffffff167c0100000000000000000000000000000000000000000000000000000000028152600401602060405180830381600087803b15801561104157600080fd5b505af1158015611055573d6000803e3d6000fd5b505050506040513d602081101561106b57600080fd5b8101908080519060200190929190505050905090565b600160009054906101000a900473ffffffffffffffffffffffffffffffffffffffff1681565b6000600260009054906101000a900473ffffffffffffffffffffffffffffffffffffffff1673ffffffffffffffffffffffffffffffffffffffff166370a08231836040518263ffffffff167c0100000000000000000000000000000000000000000000000000000000028152600401808273ffffffffffffffffffffffffffffffffffffffff1673ffffffffffffffffffffffffffffffffffffffff168152602001915050602060405180830381600087803b15801561116657600080fd5b505af115801561117a573d6000803e3d6000fd5b505050506040513d602081101561119057600080fd5b81019080805190602001909291905050509050919050565b6000809054906101000a900473ffffffffffffffffffffffffffffffffffffffff1673ffffffffffffffffffffffffffffffffffffffff163373ffffffffffffffffffffffffffffffffffffffff16141515611292576040517f08c379a000000000000000000000000000000000000000000000000000000000815260040180806020018281038252602f8152602001807f4f6e6c792074686520636f6e7472616374206f776e6572206d6179207065726681526020017f6f726d207468697320616374696f6e000000000000000000000000000000000081525060400191505060405180910390fd5b80600260006101000a81548173ffffffffffffffffffffffffffffffffffffffff021916908373ffffffffffffffffffffffffffffffffffffffff1602179055507f814250a3b8c79fcbe2ead2c131c952a278491c8f4322a79fe84b5040a810373e81604051808273ffffffffffffffffffffffffffffffffffffffff1673ffffffffffffffffffffffffffffffffffffffff16815260200191505060405180910390a150565b600160009054906101000a900473ffffffffffffffffffffffffffffffffffffffff1673ffffffffffffffffffffffffffffffffffffffff163373ffffffffffffffffffffffffffffffffffffffff16141515611424576040517f08c379a00000000000000000000000000000000000000000000000000000000081526004018080602001828103825260358152602001807f596f75206d757374206265206e6f6d696e61746564206265666f726520796f7581526020017f2063616e20616363657074206f776e657273686970000000000000000000000081525060400191505060405180910390fd5b7fb532073b38c83145e3e5135377a08bf9aab55bc0fd7c1179cd4fb995d2a5159c6000809054906101000a900473ffffffffffffffffffffffffffffffffffffffff16600160009054906101000a900473ffffffffffffffffffffffffffffffffffffffff16604051808373ffffffffffffffffffffffffffffffffffffffff1673ffffffffffffffffffffffffffffffffffffffff1681526020018273ffffffffffffffffffffffffffffffffffffffff1673ffffffffffffffffffffffffffffffffffffffff1681526020019250505060405180910390a1600160009054906101000a900473ffffffffffffffffffffffffffffffffffffffff166000806101000a81548173ffffffffffffffffffffffffffffffffffffffff021916908373ffffffffffffffffffffffffffffffffffffffff1602179055506000600160006101000a81548173ffffffffffffffffffffffffffffffffffffffff021916908373ffffffffffffffffffffffffffffffffffffffff160217905550565b6000809054906101000a900473ffffffffffffffffffffffffffffffffffffffff1681565b60006060600260009054906101000a900473ffffffffffffffffffffffffffffffffffffffff1673ffffffffffffffffffffffffffffffffffffffff163373ffffffffffffffffffffffffffffffffffffffff16141515611692576040517f08c379a00000000000000000000000000000000000000000000000000000000081526004018080602001828103825260148152602001807f4d7573742062652070726f78792074617267657400000000000000000000000081525060200191505060405180910390fd5b88889050915088888080601f016020809104026020016040519081016040528093929190818152602001838380828437820191505050505050905086600081146116fb57600181146117065760028114611712576003811461171f576004811461172d57611738565b8260208301a0611738565b868360208401a1611738565b85878460208501a2611738565b8486888560208601a3611738565b838587898660208701a45b50505050505050505050565b600260149054906101000a900460ff1681565b6060600260009054906101000a900473ffffffffffffffffffffffffffffffffffffffff1673ffffffffffffffffffffffffffffffffffffffff166395d89b416040518163ffffffff167c0100000000000000000000000000000000000000000000000000000000028152600401600060405180830381600087803b1580156117df57600080fd5b505af11580156117f3573d6000803e3d6000fd5b505050506040513d6000823e3d601f19601f82011682018060405250602081101561181d57600080fd5b81019080805164010000000081111561183557600080fd5b8281019050602081018481111561184b57600080fd5b815185600182028301116401000000008211171561186857600080fd5b5050929190505050905090565b6000600260009054906101000a900473ffffffffffffffffffffffffffffffffffffffff1673ffffffffffffffffffffffffffffffffffffffff1663bc67f832336040518263ffffffff167c0100000000000000000000000000000000000000000000000000000000028152600401808273ffffffffffffffffffffffffffffffffffffffff1673ffffffffffffffffffffffffffffffffffffffff168152602001915050600060405180830381600087803b15801561193457600080fd5b505af1158015611948573d6000803e3d6000fd5b50505050600260009054906101000a900473ffffffffffffffffffffffffffffffffffffffff1673ffffffffffffffffffffffffffffffffffffffff1663a9059cbb84846040518363ffffffff167c0100000000000000000000000000000000000000000000000000000000028152600401808373ffffffffffffffffffffffffffffffffffffffff1673ffffffffffffffffffffffffffffffffffffffff16815260200182815260200192505050602060405180830381600087803b158015611a1157600080fd5b505af1158015611a25573d6000803e3d6000fd5b505050506040513d6020811015611a3b57600080fd5b8101908080519060200190929190505050506001905092915050565b6000809054906101000a900473ffffffffffffffffffffffffffffffffffffffff1673ffffffffffffffffffffffffffffffffffffffff163373ffffffffffffffffffffffffffffffffffffffff16141515611b41576040517f08c379a000000000000000000000000000000000000000000000000000000000815260040180806020018281038252602f8152602001807f4f6e6c792074686520636f6e7472616374206f776e6572206d6179207065726681526020017f6f726d207468697320616374696f6e000000000000000000000000000000000081525060400191505060405180910390fd5b80600260146101000a81548160ff02191690831515021790555050565b600260009054906101000a900473ffffffffffffffffffffffffffffffffffffffff1681565b6000600260009054906101000a900473ffffffffffffffffffffffffffffffffffffffff1673ffffffffffffffffffffffffffffffffffffffff1663dd62ed3e84846040518363ffffffff167c0100000000000000000000000000000000000000000000000000000000028152600401808373ffffffffffffffffffffffffffffffffffffffff1673ffffffffffffffffffffffffffffffffffffffff1681526020018273ffffffffffffffffffffffffffffffffffffffff1673ffffffffffffffffffffffffffffffffffffffff16815260200192505050602060405180830381600087803b158015611c7757600080fd5b505af1158015611c8b573d6000803e3d6000fd5b505050506040513d6020811015611ca157600080fd5b81019080805190602001909291905050509050929150505600a165627a7a72305820ab5fde35ac485f641c1b7ca59280d72841bde7038de6ca634970bb8d5024d0240029",
  "source": "/*\n-----------------------------------------------------------------\nFILE INFORMATION\n-----------------------------------------------------------------\n\nfile:       ProxyERC20.sol\nversion:    1.0\nauthor:     Jackson Chan, Clinton Ennis\n\ndate:       2019-06-19\n\n-----------------------------------------------------------------\nMODULE DESCRIPTION\n-----------------------------------------------------------------\n\nA proxy contract that is ERC20 compliant for the Synthetix Network.\n\nIf it does not recognise a function being called on it, passes all\nvalue and call data to an underlying target contract.\n\nThe ERC20 standard has been explicitly implemented to ensure\ncontract to contract calls are compatable on MAINNET\n\n-----------------------------------------------------------------\n*/\n\npragma solidity 0.4.25;\n\nimport \"./Owned.sol\";\nimport \"./Proxyable.sol\";\nimport \"./Proxy.sol\";\nimport \"./interfaces/IERC20.sol\";\n\ncontract ProxyERC20 is Proxy, IERC20 {\n\n    constructor(address _owner)\n        Proxy(_owner)\n        public\n    {}\n\n    // ------------- ERC20 Details ------------- //\n\n    function name() public view returns (string){\n        // Immutable static call from target contract\n        return IERC20(target).name();\n    }\n\n    function symbol() public view returns (string){\n         // Immutable static call from target contract\n        return IERC20(target).symbol();\n    }\n\n    function decimals() public view returns (uint8){\n         // Immutable static call from target contract\n        return IERC20(target).decimals();\n    }\n\n    // ------------- ERC20 Interface ------------- //\n\n    /**\n    * @dev Total number of tokens in existence\n    */\n    function totalSupply() public view returns (uint256) {\n        // Immutable static call from target contract\n        return IERC20(target).totalSupply();\n    }\n\n    /**\n    * @dev Gets the balance of the specified address.\n    * @param owner The address to query the balance of.\n    * @return An uint256 representing the amount owned by the passed address.\n    */\n    function balanceOf(address owner) public view returns (uint256) {\n        // Immutable static call from target contract\n        return IERC20(target).balanceOf(owner);\n    }\n\n    /**\n    * @dev Function to check the amount of tokens that an owner allowed to a spender.\n    * @param owner address The address which owns the funds.\n    * @param spender address The address which will spend the funds.\n    * @return A uint256 specifying the amount of tokens still available for the spender.\n    */\n    function allowance(\n        address owner,\n        address spender\n    )\n        public\n        view\n        returns (uint256)\n    {\n        // Immutable static call from target contract\n        return IERC20(target).allowance(owner, spender);\n    }\n\n    /**\n    * @dev Transfer token for a specified address\n    * @param to The address to transfer to.\n    * @param value The amount to be transferred.\n    */\n    function transfer(address to, uint256 value) public returns (bool) {\n        // Mutable state call requires the proxy to tell the target who the msg.sender is.\n        target.setMessageSender(msg.sender);\n\n        // Forward the ERC20 call to the target contract\n        IERC20(target).transfer(to, value);\n\n        // Event emitting will occur via Synthetix.Proxy._emit()\n        return true;\n    }\n\n    /**\n    * @dev Approve the passed address to spend the specified amount of tokens on behalf of msg.sender.\n    * Beware that changing an allowance with this method brings the risk that someone may use both the old\n    * and the new allowance by unfortunate transaction ordering. One possible solution to mitigate this\n    * race condition is to first reduce the spender's allowance to 0 and set the desired value afterwards:\n    * https://github.com/ethereum/EIPs/issues/20#issuecomment-263524729\n    * @param spender The address which will spend the funds.\n    * @param value The amount of tokens to be spent.\n    */\n    function approve(address spender, uint256 value) public returns (bool) {\n        // Mutable state call requires the proxy to tell the target who the msg.sender is.\n        target.setMessageSender(msg.sender);\n\n        // Forward the ERC20 call to the target contract\n        IERC20(target).approve(spender, value);\n\n        // Event emitting will occur via Synthetix.Proxy._emit()\n        return true;\n    }\n\n    /**\n    * @dev Transfer tokens from one address to another\n    * @param from address The address which you want to send tokens from\n    * @param to address The address which you want to transfer to\n    * @param value uint256 the amount of tokens to be transferred\n    */\n    function transferFrom(\n        address from,\n        address to,\n        uint256 value\n    )\n        public\n        returns (bool)\n    {\n        // Mutable state call requires the proxy to tell the target who the msg.sender is.\n        target.setMessageSender(msg.sender);\n\n        // Forward the ERC20 call to the target contract\n        IERC20(target).transferFrom(from, to, value);\n\n        // Event emitting will occur via Synthetix.Proxy._emit()\n        return true;\n    }\n}\n",
  "sourcePath": "/Users/hz/workspace/synthetix/contracts/ProxyERC20.sol",
  "compiler": {
    "name": "solc",
    "version": "0.4.25+commit.59dbf8f1.Emscripten.clang"
  },
  "schemaVersion": "2.0.2",
  "updatedAt": "2019-09-19T02:10:36.485Z"
}