{
  "contractName": "PublicSafeDecimalMath",
  "abi": [
    {
      "constant": true,
      "inputs": [],
      "name": "unit",
      "outputs": [
        {
          "name": "",
          "type": "uint256"
        }
      ],
      "payable": false,
      "stateMutability": "pure",
      "type": "function"
    },
    {
      "constant": true,
      "inputs": [],
      "name": "preciseUnit",
      "outputs": [
        {
          "name": "",
          "type": "uint256"
        }
      ],
      "payable": false,
      "stateMutability": "pure",
      "type": "function"
    },
    {
      "constant": true,
      "inputs": [
        {
          "name": "x",
          "type": "uint256"
        },
        {
          "name": "y",
          "type": "uint256"
        }
      ],
      "name": "multiplyDecimal",
      "outputs": [
        {
          "name": "",
          "type": "uint256"
        }
      ],
      "payable": false,
      "stateMutability": "pure",
      "type": "function"
    },
    {
      "constant": true,
      "inputs": [
        {
          "name": "x",
          "type": "uint256"
        },
        {
          "name": "y",
          "type": "uint256"
        }
      ],
      "name": "multiplyDecimalRound",
      "outputs": [
        {
          "name": "",
          "type": "uint256"
        }
      ],
      "payable": false,
      "stateMutability": "pure",
      "type": "function"
    },
    {
      "constant": true,
      "inputs": [
        {
          "name": "x",
          "type": "uint256"
        },
        {
          "name": "y",
          "type": "uint256"
        }
      ],
      "name": "multiplyDecimalRoundPrecise",
      "outputs": [
        {
          "name": "",
          "type": "uint256"
        }
      ],
      "payable": false,
      "stateMutability": "pure",
      "type": "function"
    },
    {
      "constant": true,
      "inputs": [
        {
          "name": "x",
          "type": "uint256"
        },
        {
          "name": "y",
          "type": "uint256"
        }
      ],
      "name": "divideDecimal",
      "outputs": [
        {
          "name": "",
          "type": "uint256"
        }
      ],
      "payable": false,
      "stateMutability": "pure",
      "type": "function"
    },
    {
      "constant": true,
      "inputs": [
        {
          "name": "x",
          "type": "uint256"
        },
        {
          "name": "y",
          "type": "uint256"
        }
      ],
      "name": "divideDecimalRound",
      "outputs": [
        {
          "name": "",
          "type": "uint256"
        }
      ],
      "payable": false,
      "stateMutability": "pure",
      "type": "function"
    },
    {
      "constant": true,
      "inputs": [
        {
          "name": "x",
          "type": "uint256"
        },
        {
          "name": "y",
          "type": "uint256"
        }
      ],
      "name": "divideDecimalRoundPrecise",
      "outputs": [
        {
          "name": "",
          "type": "uint256"
        }
      ],
      "payable": false,
      "stateMutability": "pure",
      "type": "function"
    },
    {
      "constant": true,
      "inputs": [
        {
          "name": "i",
          "type": "uint256"
        }
      ],
      "name": "decimalToPreciseDecimal",
      "outputs": [
        {
          "name": "",
          "type": "uint256"
        }
      ],
      "payable": false,
      "stateMutability": "pure",
      "type": "function"
    },
    {
      "constant": true,
      "inputs": [
        {
          "name": "i",
          "type": "uint256"
        }
      ],
      "name": "preciseDecimalToDecimal",
      "outputs": [
        {
          "name": "",
          "type": "uint256"
        }
      ],
      "payable": false,
      "stateMutability": "pure",
      "type": "function"
    }
  ],
  "bytecode": "0x608060405234801561001057600080fd5b50610805806100206000396000f3006080604052600436106100a4576000357c0100000000000000000000000000000000000000000000000000000000900463ffffffff1680630fa53db8146100a95780631c933e2f146100f4578063338824791461013f57806353cb26c61461018a578063907af6c0146101cb578063bd79a42a146101f6578063d1abdab814610237578063d5e5e6e614610282578063e4187d02146102ad578063f63a5d22146102f8575b600080fd5b3480156100b557600080fd5b506100de6004803603810190808035906020019092919080359060200190929190505050610343565b6040518082815260200191505060405180910390f35b34801561010057600080fd5b506101296004803603810190808035906020019092919080359060200190929190505050610360565b6040518082815260200191505060405180910390f35b34801561014b57600080fd5b50610174600480360381019080803590602001909291908035906020019092919050505061037d565b6040518082815260200191505060405180910390f35b34801561019657600080fd5b506101b56004803603810190808035906020019092919050505061039a565b6040518082815260200191505060405180910390f35b3480156101d757600080fd5b506101e06103ac565b6040518082815260200191505060405180910390f35b34801561020257600080fd5b506102216004803603810190808035906020019092919050505061044e565b6040518082815260200191505060405180910390f35b34801561024357600080fd5b5061026c6004803603810190808035906020019092919080359060200190929190505050610460565b6040518082815260200191505060405180910390f35b34801561028e57600080fd5b5061029761047d565b6040518082815260200191505060405180910390f35b3480156102b957600080fd5b506102e2600480360381019080803590602001909291908035906020019092919050505061051f565b6040518082815260200191505060405180910390f35b34801561030457600080fd5b5061032d600480360381019080803590602001909291908035906020019092919050505061053c565b6040518082815260200191505060405180910390f35b6000610358828461055990919063ffffffff16565b905092915050565b6000610375828461057590919063ffffffff16565b905092915050565b6000610392828461059190919063ffffffff16565b905092915050565b60006103a5826105ad565b9050919050565b600073__SafeDecimalMath_______________________63907af6c06040518163ffffffff167c010000000000000000000000000000000000000000000000000000000002815260040160206040518083038186803b15801561040e57600080fd5b505af4158015610422573d6000803e3d6000fd5b505050506040513d602081101561043857600080fd5b8101908080519060200190929190505050905090565b600061045982610606565b9050919050565b6000610475828461062c90919063ffffffff16565b905092915050565b600073__SafeDecimalMath_______________________63d5e5e6e66040518163ffffffff167c010000000000000000000000000000000000000000000000000000000002815260040160206040518083038186803b1580156104df57600080fd5b505af41580156104f3573d6000803e3d6000fd5b505050506040513d602081101561050957600080fd5b8101908080519060200190929190505050905090565b6000610534828461066290919063ffffffff16565b905092915050565b6000610551828461069190919063ffffffff16565b905092915050565b600061056d8383601260ff16600a0a6106ad565b905092915050565b60006105898383601b60ff16600a0a61070e565b905092915050565b60006105a58383601260ff16600a0a61070e565b905092915050565b600080600a6012601b0360ff16600a0a8115156105c657fe5b04838115156105d157fe5b0490506005600a828115156105e257fe5b061015156105f157600a810190505b600a818115156105fd57fe5b04915050919050565b60006106256012601b0360ff16600a0a8361077190919063ffffffff16565b9050919050565b600061065a8261064c601260ff16600a0a8661077190919063ffffffff16565b6107af90919063ffffffff16565b905092915050565b6000601260ff16600a0a61067f838561077190919063ffffffff16565b81151561068857fe5b04905092915050565b60006106a58383601b60ff16600a0a6106ad565b905092915050565b6000806106d8846106ca600a86028861077190919063ffffffff16565b6107af90919063ffffffff16565b90506005600a828115156106e857fe5b061015156106f757600a810190505b600a8181151561070357fe5b049150509392505050565b600080600a8381151561071d57fe5b04610731858761077190919063ffffffff16565b81151561073a57fe5b0490506005600a8281151561074b57fe5b0610151561075a57600a810190505b600a8181151561076657fe5b049150509392505050565b600080600084141561078657600091506107a8565b828402905082848281151561079757fe5b041415156107a457600080fd5b8091505b5092915050565b6000806000831115156107c157600080fd5b82848115156107cc57fe5b04905080915050929150505600a165627a7a72305820ffccb212d0c4f122a35a2c5290f3fad5699fcd69f57710d9e743d9763ab646c10029",
  "source": "/* PublicSafeDecimalMath.sol: expose the internal functions in SafeDecimalMath\n * for testing purposes.\n */\npragma solidity 0.4.25;\n\nimport \"../SafeDecimalMath.sol\";\n\ncontract PublicSafeDecimalMath {\n    using SafeDecimalMath for uint;\n    \n    function unit()\n        public\n        pure\n        returns (uint)\n    {\n        return SafeDecimalMath.unit();\n    }\n\n    function preciseUnit()\n        public\n        pure\n        returns (uint)\n    {\n        return SafeDecimalMath.preciseUnit();\n    }\n\n    function multiplyDecimal(uint x, uint y)\n        public\n        pure\n        returns (uint)\n    {\n        return x.multiplyDecimal(y);\n    }\n\n    function multiplyDecimalRound(uint x, uint y)\n        public\n        pure\n        returns (uint)\n    {\n        return x.multiplyDecimalRound(y);\n    }\n\n    function multiplyDecimalRoundPrecise(uint x, uint y)\n        public\n        pure\n        returns (uint)\n    {\n        return x.multiplyDecimalRoundPrecise(y);\n    }\n\n    function divideDecimal(uint x, uint y)\n        public\n        pure\n        returns (uint)\n    {\n        return x.divideDecimal(y);\n    }\n\n    function divideDecimalRound(uint x, uint y)\n        public\n        pure\n        returns (uint)\n    {\n        return x.divideDecimalRound(y);\n    }\n\n    function divideDecimalRoundPrecise(uint x, uint y)\n        public\n        pure\n        returns (uint)\n    {\n        return x.divideDecimalRoundPrecise(y);\n    }\n\n    function decimalToPreciseDecimal(uint i)\n        public\n        pure\n        returns (uint)\n    {\n        return i.decimalToPreciseDecimal();\n    }\n\n    function preciseDecimalToDecimal(uint i)\n        public\n        pure\n        returns (uint)\n    {\n        return i.preciseDecimalToDecimal();\n    }\n}\n",
  "sourcePath": "/Users/hz/workspace/synthetix/contracts/test-helpers/PublicSafeDecimalMath.sol",
  "compiler": {
    "name": "solc",
    "version": "0.4.25+commit.59dbf8f1.Emscripten.clang"
  },
  "schemaVersion": "2.0.2",
  "updatedAt": "2019-09-19T02:10:36.536Z"
}