{
  "contractName": "RewardsDistribution",
  "abi": [
    {
      "constant": false,
      "inputs": [
        {
          "name": "_owner",
          "type": "address"
        }
      ],
      "name": "nominateNewOwner",
      "outputs": [],
      "payable": false,
      "stateMutability": "nonpayable",
      "type": "function"
    },
    {
      "constant": true,
      "inputs": [
        {
          "name": "",
          "type": "uint256"
        }
      ],
      "name": "distributions",
      "outputs": [
        {
          "name": "destination",
          "type": "address"
        },
        {
          "name": "amount",
          "type": "uint256"
        }
      ],
      "payable": false,
      "stateMutability": "view",
      "type": "function"
    },
    {
      "constant": true,
      "inputs": [],
      "name": "nominatedOwner",
      "outputs": [
        {
          "name": "",
          "type": "address"
        }
      ],
      "payable": false,
      "stateMutability": "view",
      "type": "function"
    },
    {
      "constant": false,
      "inputs": [],
      "name": "acceptOwnership",
      "outputs": [],
      "payable": false,
      "stateMutability": "nonpayable",
      "type": "function"
    },
    {
      "constant": true,
      "inputs": [],
      "name": "owner",
      "outputs": [
        {
          "name": "",
          "type": "address"
        }
      ],
      "payable": false,
      "stateMutability": "view",
      "type": "function"
    },
    {
      "constant": true,
      "inputs": [],
      "name": "rewardEscrow",
      "outputs": [
        {
          "name": "",
          "type": "address"
        }
      ],
      "payable": false,
      "stateMutability": "view",
      "type": "function"
    },
    {
      "constant": true,
      "inputs": [],
      "name": "synthetixProxy",
      "outputs": [
        {
          "name": "",
          "type": "address"
        }
      ],
      "payable": false,
      "stateMutability": "view",
      "type": "function"
    },
    {
      "constant": true,
      "inputs": [],
      "name": "authority",
      "outputs": [
        {
          "name": "",
          "type": "address"
        }
      ],
      "payable": false,
      "stateMutability": "view",
      "type": "function"
    },
    {
      "constant": true,
      "inputs": [],
      "name": "feePoolProxy",
      "outputs": [
        {
          "name": "",
          "type": "address"
        }
      ],
      "payable": false,
      "stateMutability": "view",
      "type": "function"
    },
    {
      "inputs": [
        {
          "name": "_owner",
          "type": "address"
        },
        {
          "name": "_authority",
          "type": "address"
        },
        {
          "name": "_synthetixProxy",
          "type": "address"
        },
        {
          "name": "_rewardEscrow",
          "type": "address"
        },
        {
          "name": "_feePoolProxy",
          "type": "address"
        }
      ],
      "payable": false,
      "stateMutability": "nonpayable",
      "type": "constructor"
    },
    {
      "anonymous": false,
      "inputs": [
        {
          "indexed": false,
          "name": "index",
          "type": "uint256"
        },
        {
          "indexed": false,
          "name": "destination",
          "type": "address"
        },
        {
          "indexed": false,
          "name": "amount",
          "type": "uint256"
        }
      ],
      "name": "RewardDistributionAdded",
      "type": "event"
    },
    {
      "anonymous": false,
      "inputs": [
        {
          "indexed": false,
          "name": "amount",
          "type": "uint256"
        }
      ],
      "name": "RewardsDistributed",
      "type": "event"
    },
    {
      "anonymous": false,
      "inputs": [
        {
          "indexed": false,
          "name": "newOwner",
          "type": "address"
        }
      ],
      "name": "OwnerNominated",
      "type": "event"
    },
    {
      "anonymous": false,
      "inputs": [
        {
          "indexed": false,
          "name": "oldOwner",
          "type": "address"
        },
        {
          "indexed": false,
          "name": "newOwner",
          "type": "address"
        }
      ],
      "name": "OwnerChanged",
      "type": "event"
    },
    {
      "constant": false,
      "inputs": [
        {
          "name": "_synthetixProxy",
          "type": "address"
        }
      ],
      "name": "setSynthetixProxy",
      "outputs": [],
      "payable": false,
      "stateMutability": "nonpayable",
      "type": "function"
    },
    {
      "constant": false,
      "inputs": [
        {
          "name": "_rewardEscrow",
          "type": "address"
        }
      ],
      "name": "setRewardEscrow",
      "outputs": [],
      "payable": false,
      "stateMutability": "nonpayable",
      "type": "function"
    },
    {
      "constant": false,
      "inputs": [
        {
          "name": "_feePoolProxy",
          "type": "address"
        }
      ],
      "name": "setFeePoolProxy",
      "outputs": [],
      "payable": false,
      "stateMutability": "nonpayable",
      "type": "function"
    },
    {
      "constant": false,
      "inputs": [
        {
          "name": "_authority",
          "type": "address"
        }
      ],
      "name": "setAuthority",
      "outputs": [],
      "payable": false,
      "stateMutability": "nonpayable",
      "type": "function"
    },
    {
      "constant": false,
      "inputs": [
        {
          "name": "destination",
          "type": "address"
        },
        {
          "name": "amount",
          "type": "uint256"
        }
      ],
      "name": "addRewardDistribution",
      "outputs": [
        {
          "name": "",
          "type": "bool"
        }
      ],
      "payable": false,
      "stateMutability": "nonpayable",
      "type": "function"
    },
    {
      "constant": false,
      "inputs": [
        {
          "name": "index",
          "type": "uint256"
        }
      ],
      "name": "removeRewardDistribution",
      "outputs": [],
      "payable": false,
      "stateMutability": "nonpayable",
      "type": "function"
    },
    {
      "constant": false,
      "inputs": [
        {
          "name": "index",
          "type": "uint256"
        },
        {
          "name": "destination",
          "type": "address"
        },
        {
          "name": "amount",
          "type": "uint256"
        }
      ],
      "name": "editRewardDistribution",
      "outputs": [
        {
          "name": "",
          "type": "bool"
        }
      ],
      "payable": false,
      "stateMutability": "nonpayable",
      "type": "function"
    },
    {
      "constant": false,
      "inputs": [
        {
          "name": "amount",
          "type": "uint256"
        }
      ],
      "name": "distributeRewards",
      "outputs": [
        {
          "name": "",
          "type": "bool"
        }
      ],
      "payable": false,
      "stateMutability": "nonpayable",
      "type": "function"
    },
    {
      "constant": true,
      "inputs": [],
      "name": "distributionsLength",
      "outputs": [
        {
          "name": "",
          "type": "uint256"
        }
      ],
      "payable": false,
      "stateMutability": "view",
      "type": "function"
    }
  ],
  "bytecode": "0x608060405234801561001057600080fd5b5060405160a080612591833981018060405281019080805190602001909291908051906020019092919080519060200190929190805190602001909291908051906020019092919050505084600073ffffffffffffffffffffffffffffffffffffffff168173ffffffffffffffffffffffffffffffffffffffff1614151515610101576040517f08c379a00000000000000000000000000000000000000000000000000000000081526004018080602001828103825260198152602001807f4f776e657220616464726573732063616e6e6f7420626520300000000000000081525060200191505060405180910390fd5b806000806101000a81548173ffffffffffffffffffffffffffffffffffffffff021916908373ffffffffffffffffffffffffffffffffffffffff1602179055507fb532073b38c83145e3e5135377a08bf9aab55bc0fd7c1179cd4fb995d2a5159c600082604051808373ffffffffffffffffffffffffffffffffffffffff1673ffffffffffffffffffffffffffffffffffffffff1681526020018273ffffffffffffffffffffffffffffffffffffffff1673ffffffffffffffffffffffffffffffffffffffff1681526020019250505060405180910390a15083600260006101000a81548173ffffffffffffffffffffffffffffffffffffffff021916908373ffffffffffffffffffffffffffffffffffffffff16021790555082600360006101000a81548173ffffffffffffffffffffffffffffffffffffffff021916908373ffffffffffffffffffffffffffffffffffffffff16021790555081600460006101000a81548173ffffffffffffffffffffffffffffffffffffffff021916908373ffffffffffffffffffffffffffffffffffffffff16021790555080600560006101000a81548173ffffffffffffffffffffffffffffffffffffffff021916908373ffffffffffffffffffffffffffffffffffffffff160217905550505050505061229f806102f26000396000f3006080604052600436106100fc576000357c0100000000000000000000000000000000000000000000000000000000900463ffffffff168063060ca250146101015780631627540c1461012c5780634487d3df1461016f57806353a47bb7146101e357806359974e381461023a5780635de399341461027f57806360eb3ff2146102c257806379ba5097146103275780637a9e5e4b1461033e578063817a6951146103815780638da5cb5b146103ae57806395896b7614610405578063a430be6c14610448578063bdd124821461049f578063bf7e214f146104f6578063c9e9cc4d1461054d578063d8297e44146105a4578063e54c1671146105e7575b600080fd5b34801561010d57600080fd5b50610116610656565b6040518082815260200191505060405180910390f35b34801561013857600080fd5b5061016d600480360381019080803573ffffffffffffffffffffffffffffffffffffffff169060200190929190505050610663565b005b34801561017b57600080fd5b5061019a600480360381019080803590602001909291905050506107f4565b604051808373ffffffffffffffffffffffffffffffffffffffff1673ffffffffffffffffffffffffffffffffffffffff1681526020018281526020019250505060405180910390f35b3480156101ef57600080fd5b506101f8610847565b604051808273ffffffffffffffffffffffffffffffffffffffff1673ffffffffffffffffffffffffffffffffffffffff16815260200191505060405180910390f35b34801561024657600080fd5b506102656004803603810190808035906020019092919050505061086d565b604051808215151515815260200191505060405180910390f35b34801561028b57600080fd5b506102c0600480360381019080803573ffffffffffffffffffffffffffffffffffffffff169060200190929190505050611228565b005b3480156102ce57600080fd5b5061030d600480360381019080803573ffffffffffffffffffffffffffffffffffffffff16906020019092919080359060200190929190505050611356565b604051808215151515815260200191505060405180910390f35b34801561033357600080fd5b5061033c61169d565b005b34801561034a57600080fd5b5061037f600480360381019080803573ffffffffffffffffffffffffffffffffffffffff169060200190929190505050611908565b005b34801561038d57600080fd5b506103ac60048036038101908080359060200190929190505050611a36565b005b3480156103ba57600080fd5b506103c3611c8e565b604051808273ffffffffffffffffffffffffffffffffffffffff1673ffffffffffffffffffffffffffffffffffffffff16815260200191505060405180910390f35b34801561041157600080fd5b50610446600480360381019080803573ffffffffffffffffffffffffffffffffffffffff169060200190929190505050611cb3565b005b34801561045457600080fd5b5061045d611de1565b604051808273ffffffffffffffffffffffffffffffffffffffff1673ffffffffffffffffffffffffffffffffffffffff16815260200191505060405180910390f35b3480156104ab57600080fd5b506104b4611e07565b604051808273ffffffffffffffffffffffffffffffffffffffff1673ffffffffffffffffffffffffffffffffffffffff16815260200191505060405180910390f35b34801561050257600080fd5b5061050b611e2d565b604051808273ffffffffffffffffffffffffffffffffffffffff1673ffffffffffffffffffffffffffffffffffffffff16815260200191505060405180910390f35b34801561055957600080fd5b50610562611e53565b604051808273ffffffffffffffffffffffffffffffffffffffff1673ffffffffffffffffffffffffffffffffffffffff16815260200191505060405180910390f35b3480156105b057600080fd5b506105e5600480360381019080803573ffffffffffffffffffffffffffffffffffffffff169060200190929190505050611e79565b005b3480156105f357600080fd5b5061063c60048036038101908080359060200190929190803573ffffffffffffffffffffffffffffffffffffffff16906020019092919080359060200190929190505050611fa7565b604051808215151515815260200191505060405180910390f35b6000600680549050905090565b6000809054906101000a900473ffffffffffffffffffffffffffffffffffffffff1673ffffffffffffffffffffffffffffffffffffffff163373ffffffffffffffffffffffffffffffffffffffff1614151561074d576040517f08c379a000000000000000000000000000000000000000000000000000000000815260040180806020018281038252602f8152602001807f4f6e6c792074686520636f6e7472616374206f776e6572206d6179207065726681526020017f6f726d207468697320616374696f6e000000000000000000000000000000000081525060400191505060405180910390fd5b80600160006101000a81548173ffffffffffffffffffffffffffffffffffffffff021916908373ffffffffffffffffffffffffffffffffffffffff1602179055507f906a1c6bd7e3091ea86693dd029a831c19049ce77f1dce2ce0bab1cacbabce2281604051808273ffffffffffffffffffffffffffffffffffffffff1673ffffffffffffffffffffffffffffffffffffffff16815260200191505060405180910390a150565b60068181548110151561080357fe5b90600052602060002090600202016000915090508060000160009054906101000a900473ffffffffffffffffffffffffffffffffffffffff16908060010154905082565b600160009054906101000a900473ffffffffffffffffffffffffffffffffffffffff1681565b6000806000600260009054906101000a900473ffffffffffffffffffffffffffffffffffffffff1673ffffffffffffffffffffffffffffffffffffffff163373ffffffffffffffffffffffffffffffffffffffff16141515610937576040517f08c379a00000000000000000000000000000000000000000000000000000000081526004018080602001828103825260188152602001807f43616c6c6572206973206e6f7420617574686f7269736564000000000000000081525060200191505060405180910390fd5b600073ffffffffffffffffffffffffffffffffffffffff16600460009054906101000a900473ffffffffffffffffffffffffffffffffffffffff1673ffffffffffffffffffffffffffffffffffffffff16141515156109fe576040517f08c379a00000000000000000000000000000000000000000000000000000000081526004018080602001828103825260178152602001807f526577617264457363726f77206973206e6f742073657400000000000000000081525060200191505060405180910390fd5b600073ffffffffffffffffffffffffffffffffffffffff16600360009054906101000a900473ffffffffffffffffffffffffffffffffffffffff1673ffffffffffffffffffffffffffffffffffffffff1614151515610ac5576040517f08c379a00000000000000000000000000000000000000000000000000000000081526004018080602001828103825260198152602001807f53796e74686574697850726f7879206973206e6f74207365740000000000000081525060200191505060405180910390fd5b600073ffffffffffffffffffffffffffffffffffffffff16600560009054906101000a900473ffffffffffffffffffffffffffffffffffffffff1673ffffffffffffffffffffffffffffffffffffffff1614151515610b8c576040517f08c379a00000000000000000000000000000000000000000000000000000000081526004018080602001828103825260178152602001807f466565506f6f6c50726f7879206973206e6f742073657400000000000000000081525060200191505060405180910390fd5b600084111515610c04576040517f08c379a00000000000000000000000000000000000000000000000000000000081526004018080602001828103825260158152602001807f4e6f7468696e6720746f2064697374726962757465000000000000000000000081525060200191505060405180910390fd5b83600360009054906101000a900473ffffffffffffffffffffffffffffffffffffffff1673ffffffffffffffffffffffffffffffffffffffff166370a08231306040518263ffffffff167c0100000000000000000000000000000000000000000000000000000000028152600401808273ffffffffffffffffffffffffffffffffffffffff1673ffffffffffffffffffffffffffffffffffffffff168152602001915050602060405180830381600087803b158015610cc257600080fd5b505af1158015610cd6573d6000803e3d6000fd5b505050506040513d6020811015610cec57600080fd5b810190808051906020019092919050505010151515610dbf576040517f08c379a00000000000000000000000000000000000000000000000000000000081526004018080602001828103825260468152602001807f52657761726473446973747269627574696f6e20636f6e747261637420646f6581526020017f73206e6f74206861766520656e6f75676820746f6b656e7320746f206469737481526020017f726962757465000000000000000000000000000000000000000000000000000081525060600191505060405180910390fd5b839150600090505b60068054905081101561101a57600073ffffffffffffffffffffffffffffffffffffffff16600682815481101515610dfb57fe5b906000526020600020906002020160000160009054906101000a900473ffffffffffffffffffffffffffffffffffffffff1673ffffffffffffffffffffffffffffffffffffffff16141580610e7157506000600682815481101515610e5c57fe5b90600052602060002090600202016001015414155b1561100d57610ea9600682815481101515610e8857fe5b906000526020600020906002020160010154836121a290919063ffffffff16565b9150600360009054906101000a900473ffffffffffffffffffffffffffffffffffffffff1673ffffffffffffffffffffffffffffffffffffffff1663a9059cbb600683815481101515610ef857fe5b906000526020600020906002020160000160009054906101000a900473ffffffffffffffffffffffffffffffffffffffff16600684815481101515610f3957fe5b9060005260206000209060020201600101546040518363ffffffff167c0100000000000000000000000000000000000000000000000000000000028152600401808373ffffffffffffffffffffffffffffffffffffffff1673ffffffffffffffffffffffffffffffffffffffff16815260200182815260200192505050602060405180830381600087803b158015610fd057600080fd5b505af1158015610fe4573d6000803e3d6000fd5b505050506040513d6020811015610ffa57600080fd5b8101908080519060200190929190505050505b8080600101915050610dc7565b600360009054906101000a900473ffffffffffffffffffffffffffffffffffffffff1673ffffffffffffffffffffffffffffffffffffffff1663a9059cbb600460009054906101000a900473ffffffffffffffffffffffffffffffffffffffff16846040518363ffffffff167c0100000000000000000000000000000000000000000000000000000000028152600401808373ffffffffffffffffffffffffffffffffffffffff1673ffffffffffffffffffffffffffffffffffffffff16815260200182815260200192505050602060405180830381600087803b15801561110157600080fd5b505af1158015611115573d6000803e3d6000fd5b505050506040513d602081101561112b57600080fd5b810190808051906020019092919050505050600560009054906101000a900473ffffffffffffffffffffffffffffffffffffffff1673ffffffffffffffffffffffffffffffffffffffff1663fd1f498d836040518263ffffffff167c010000000000000000000000000000000000000000000000000000000002815260040180828152602001915050600060405180830381600087803b1580156111ce57600080fd5b505af11580156111e2573d6000803e3d6000fd5b505050507f6d1c76d614228b523baa4dcd9539e2c713b54ff4ab3ff2d1627e7f6cd32be442846040518082815260200191505060405180910390a1600192505050919050565b6000809054906101000a900473ffffffffffffffffffffffffffffffffffffffff1673ffffffffffffffffffffffffffffffffffffffff163373ffffffffffffffffffffffffffffffffffffffff16141515611312576040517f08c379a000000000000000000000000000000000000000000000000000000000815260040180806020018281038252602f8152602001807f4f6e6c792074686520636f6e7472616374206f776e6572206d6179207065726681526020017f6f726d207468697320616374696f6e000000000000000000000000000000000081525060400191505060405180910390fd5b80600460006101000a81548173ffffffffffffffffffffffffffffffffffffffff021916908373ffffffffffffffffffffffffffffffffffffffff16021790555050565b60006113606121c3565b6000809054906101000a900473ffffffffffffffffffffffffffffffffffffffff1673ffffffffffffffffffffffffffffffffffffffff163373ffffffffffffffffffffffffffffffffffffffff1614151561144a576040517f08c379a000000000000000000000000000000000000000000000000000000000815260040180806020018281038252602f8152602001807f4f6e6c792074686520636f6e7472616374206f776e6572206d6179207065726681526020017f6f726d207468697320616374696f6e000000000000000000000000000000000081525060400191505060405180910390fd5b600073ffffffffffffffffffffffffffffffffffffffff168473ffffffffffffffffffffffffffffffffffffffff16141515156114ef576040517f08c379a00000000000000000000000000000000000000000000000000000000081526004018080602001828103825260178152602001807f43616e74206164642061207a65726f206164647265737300000000000000000081525060200191505060405180910390fd5b60008314151515611568576040517f08c379a00000000000000000000000000000000000000000000000000000000081526004018080602001828103825260168152602001807f43616e74206164642061207a65726f20616d6f756e740000000000000000000081525060200191505060405180910390fd5b60408051908101604052808573ffffffffffffffffffffffffffffffffffffffff1681526020018481525090506006819080600181540180825580915050906001820390600052602060002090600202016000909192909190915060008201518160000160006101000a81548173ffffffffffffffffffffffffffffffffffffffff021916908373ffffffffffffffffffffffffffffffffffffffff160217905550602082015181600101555050507f08fff3cb767a84a8039ea0f84053799c5cdca0e8efb031eeb6b05b9c174aa2086001600680549050038585604051808481526020018373ffffffffffffffffffffffffffffffffffffffff1673ffffffffffffffffffffffffffffffffffffffff168152602001828152602001935050505060405180910390a1600191505092915050565b600160009054906101000a900473ffffffffffffffffffffffffffffffffffffffff1673ffffffffffffffffffffffffffffffffffffffff163373ffffffffffffffffffffffffffffffffffffffff16141515611788576040517f08c379a00000000000000000000000000000000000000000000000000000000081526004018080602001828103825260358152602001807f596f75206d757374206265206e6f6d696e61746564206265666f726520796f7581526020017f2063616e20616363657074206f776e657273686970000000000000000000000081525060400191505060405180910390fd5b7fb532073b38c83145e3e5135377a08bf9aab55bc0fd7c1179cd4fb995d2a5159c6000809054906101000a900473ffffffffffffffffffffffffffffffffffffffff16600160009054906101000a900473ffffffffffffffffffffffffffffffffffffffff16604051808373ffffffffffffffffffffffffffffffffffffffff1673ffffffffffffffffffffffffffffffffffffffff1681526020018273ffffffffffffffffffffffffffffffffffffffff1673ffffffffffffffffffffffffffffffffffffffff1681526020019250505060405180910390a1600160009054906101000a900473ffffffffffffffffffffffffffffffffffffffff166000806101000a81548173ffffffffffffffffffffffffffffffffffffffff021916908373ffffffffffffffffffffffffffffffffffffffff1602179055506000600160006101000a81548173ffffffffffffffffffffffffffffffffffffffff021916908373ffffffffffffffffffffffffffffffffffffffff160217905550565b6000809054906101000a900473ffffffffffffffffffffffffffffffffffffffff1673ffffffffffffffffffffffffffffffffffffffff163373ffffffffffffffffffffffffffffffffffffffff161415156119f2576040517f08c379a000000000000000000000000000000000000000000000000000000000815260040180806020018281038252602f8152602001807f4f6e6c792074686520636f6e7472616374206f776e6572206d6179207065726681526020017f6f726d207468697320616374696f6e000000000000000000000000000000000081525060400191505060405180910390fd5b80600260006101000a81548173ffffffffffffffffffffffffffffffffffffffff021916908373ffffffffffffffffffffffffffffffffffffffff16021790555050565b60008060009054906101000a900473ffffffffffffffffffffffffffffffffffffffff1673ffffffffffffffffffffffffffffffffffffffff163373ffffffffffffffffffffffffffffffffffffffff16141515611b22576040517f08c379a000000000000000000000000000000000000000000000000000000000815260040180806020018281038252602f8152602001807f4f6e6c792074686520636f6e7472616374206f776e6572206d6179207065726681526020017f6f726d207468697320616374696f6e000000000000000000000000000000000081525060400191505060405180910390fd5b6001600680549050038211151515611ba2576040517f08c379a00000000000000000000000000000000000000000000000000000000081526004018080602001828103825260138152602001807f696e646578206f7574206f6620626f756e64730000000000000000000000000081525060200191505060405180910390fd5b8190505b600160068054905003811015611c7457600660018201815481101515611bc857fe5b9060005260206000209060020201600682815481101515611be557fe5b90600052602060002090600202016000820160009054906101000a900473ffffffffffffffffffffffffffffffffffffffff168160000160006101000a81548173ffffffffffffffffffffffffffffffffffffffff021916908373ffffffffffffffffffffffffffffffffffffffff160217905550600182015481600101559050508080600101915050611ba6565b6006805480919060019003611c8991906121f3565b505050565b6000809054906101000a900473ffffffffffffffffffffffffffffffffffffffff1681565b6000809054906101000a900473ffffffffffffffffffffffffffffffffffffffff1673ffffffffffffffffffffffffffffffffffffffff163373ffffffffffffffffffffffffffffffffffffffff16141515611d9d576040517f08c379a000000000000000000000000000000000000000000000000000000000815260040180806020018281038252602f8152602001807f4f6e6c792074686520636f6e7472616374206f776e6572206d6179207065726681526020017f6f726d207468697320616374696f6e000000000000000000000000000000000081525060400191505060405180910390fd5b80600360006101000a81548173ffffffffffffffffffffffffffffffffffffffff021916908373ffffffffffffffffffffffffffffffffffffffff16021790555050565b600460009054906101000a900473ffffffffffffffffffffffffffffffffffffffff1681565b600360009054906101000a900473ffffffffffffffffffffffffffffffffffffffff1681565b600260009054906101000a900473ffffffffffffffffffffffffffffffffffffffff1681565b600560009054906101000a900473ffffffffffffffffffffffffffffffffffffffff1681565b6000809054906101000a900473ffffffffffffffffffffffffffffffffffffffff1673ffffffffffffffffffffffffffffffffffffffff163373ffffffffffffffffffffffffffffffffffffffff16141515611f63576040517f08c379a000000000000000000000000000000000000000000000000000000000815260040180806020018281038252602f8152602001807f4f6e6c792074686520636f6e7472616374206f776e6572206d6179207065726681526020017f6f726d207468697320616374696f6e000000000000000000000000000000000081525060400191505060405180910390fd5b80600560006101000a81548173ffffffffffffffffffffffffffffffffffffffff021916908373ffffffffffffffffffffffffffffffffffffffff16021790555050565b60008060009054906101000a900473ffffffffffffffffffffffffffffffffffffffff1673ffffffffffffffffffffffffffffffffffffffff163373ffffffffffffffffffffffffffffffffffffffff16141515612093576040517f08c379a000000000000000000000000000000000000000000000000000000000815260040180806020018281038252602f8152602001807f4f6e6c792074686520636f6e7472616374206f776e6572206d6179207065726681526020017f6f726d207468697320616374696f6e000000000000000000000000000000000081525060400191505060405180910390fd5b6001600680549050038411151515612113576040517f08c379a00000000000000000000000000000000000000000000000000000000081526004018080602001828103825260138152602001807f696e646578206f7574206f6620626f756e64730000000000000000000000000081525060200191505060405180910390fd5b8260068581548110151561212357fe5b906000526020600020906002020160000160006101000a81548173ffffffffffffffffffffffffffffffffffffffff021916908373ffffffffffffffffffffffffffffffffffffffff1602179055508160068581548110151561218257fe5b906000526020600020906002020160010181905550600190509392505050565b6000808383111515156121b457600080fd5b82840390508091505092915050565b6040805190810160405280600073ffffffffffffffffffffffffffffffffffffffff168152602001600081525090565b8154818355818111156122205760020281600202836000526020600020918201910161221f9190612225565b5b505050565b61227091905b8082111561226c57600080820160006101000a81549073ffffffffffffffffffffffffffffffffffffffff021916905560018201600090555060020161222b565b5090565b905600a165627a7a723058208488c7db3fddf3e6e575c8d65d182692cb030540359944e538155bb675c7a3ae0029",
  "source": "/*\n-----------------------------------------------------------------\nFILE INFORMATION\n-----------------------------------------------------------------\n\nfile:       RewardsDistribution.sol\nversion:    1.0\nauthor:     Clinton Ennis, Jackson Chan\n\ndate:       2019-08-12\n\n-----------------------------------------------------------------\nMODULE DESCRIPTION\n-----------------------------------------------------------------\n\nDistributes the inflationary supply rewards after they have been\nminted.\n\nDistributionData can be added to the distributions array simply\nwith an address and an amount of tokens to send to that address.\n\ni.e. The sETH arb pool is assigned 5% of the current Inflationary\nsupply so it is allocated 72K of the tokens. If that is the only\ndistribution added then 72K SNX is deducted from the weeks\ninflationary supply and sent to the sETH Arb Pool then the\nremainder is sent to the RewardsEscrow Contract for the SNX\nStaking Rewards.\n\nRewardDistributions can be added, edited and removed.\n\n-----------------------------------------------------------------\n*/\n\n\npragma solidity 0.4.25;\n\n\nimport \"./Owned.sol\";\nimport \"./SafeDecimalMath.sol\";\nimport \"./interfaces/IERC20.sol\";\nimport \"./interfaces/IFeePool.sol\";\n\ncontract RewardsDistribution is Owned {\n    using SafeMath for uint;\n    using SafeDecimalMath for uint;\n\n    /**\n     * @notice Authorised address able to call distributeRewards\n     */\n    address public authority;\n\n    /**\n     * @notice Address of the Synthetix ProxyERC20\n     */\n    address public synthetixProxy;\n    \n    /**\n     * @notice Address of the RewardEscrow contract\n     */\n    address public rewardEscrow;\n\n    /**\n     * @notice Address of the FeePoolProxy\n     */\n    address public feePoolProxy;\n\n    /**\n     * @notice Stores an address and amount\n     * of the inflationary supply to sent to the address.\n     */\n    struct DistributionData {\n        address destination;\n        uint amount;\n    }\n\n    /**\n     * @notice An array of addresses and amounts to send\n     */\n    DistributionData[] public distributions;\n\n    /**\n     * @dev _authority maybe the underlying synthetix contract.\n     * Remember to set the autority on a synthetix upgrade\n     */\n    constructor(address _owner, address _authority, address _synthetixProxy, address _rewardEscrow, address _feePoolProxy)\n        Owned(_owner)\n        public\n    {\n        authority = _authority;\n        synthetixProxy = _synthetixProxy;\n        rewardEscrow = _rewardEscrow;\n        feePoolProxy = _feePoolProxy;\n    }\n\n    // ========== EXTERNAL SETTERS ==========\n\n    function setSynthetixProxy(address _synthetixProxy)\n        external\n        onlyOwner\n    {\n        synthetixProxy = _synthetixProxy;\n    }\n\n    function setRewardEscrow(address _rewardEscrow)\n        external\n        onlyOwner\n    {\n        rewardEscrow = _rewardEscrow;\n    }\n\n    function setFeePoolProxy(address _feePoolProxy)\n        external\n        onlyOwner\n    {\n        feePoolProxy = _feePoolProxy;\n    }\n\n    /**\n     * @notice Set the address of the contract authorised to call distributeRewards()\n     * @param _authority Address of the authorised calling contract.\n     */\n    function setAuthority(address _authority)\n        external\n        onlyOwner\n    {\n        authority = _authority;\n    }\n\n    // ========== EXTERNAL FUNCTIONS ==========\n\n    /**\n     * @notice Adds a Rewards DistributionData struct to the distributions\n     * array. Any entries here will be iterated and rewards distributed to\n     * each address when tokens are sent to this contract and distributeRewards()\n     * is called by the autority.\n     * @param destination An address to send rewards tokens too\n     * @param amount The amount of rewards tokens to send\n     */\n    function addRewardDistribution(address destination, uint amount)\n        external\n        onlyOwner\n        returns (bool)\n    {\n        require(destination != address(0), \"Cant add a zero address\");\n        require(amount != 0, \"Cant add a zero amount\");\n\n        DistributionData memory rewardsDistribution = DistributionData(destination, amount);\n        distributions.push(rewardsDistribution);\n\n        emit RewardDistributionAdded(distributions.length - 1, destination, amount);\n        return true;\n    }\n\n    /**\n     * @notice Deletes a RewardDistribution from the distributions\n     * so it will no longer be included in the call to distributeRewards()\n     * @param index The index of the DistributionData to delete\n     */\n    function removeRewardDistribution(uint index)\n        external\n        onlyOwner\n    {\n        require(index <= distributions.length - 1, \"index out of bounds\");\n\n        // shift distributions indexes across\n        for (uint i = index; i < distributions.length - 1; i++) {\n            distributions[i] = distributions[i+1];\n        }\n        distributions.length--;\n    }\n\n     /**\n     * @notice Edits a RewardDistribution in the distributions array.\n     * @param index The index of the DistributionData to edit\n     * @param destination The destination address. Send the same address to keep or different address to change it.\n     * @param amount The amount of tokens to edit. Send the same number to keep or change the amount of tokens to send.\n     */\n    function editRewardDistribution(uint index, address destination, uint amount)\n        external\n        onlyOwner\n        returns (bool)\n    {\n        require(index <= distributions.length - 1, \"index out of bounds\");\n\n        distributions[index].destination = destination;\n        distributions[index].amount = amount;\n\n        return true;\n    }\n\n    /**\n     * @notice Iterates the distributions sending set out amounts of\n     * tokens to the specified address. The remainder is then sent to the RewardEscrow Contract\n     * and applied to the FeePools staking rewards.\n     * @param amount The total number of tokens being distributed\n\n     */\n    function distributeRewards(uint amount)\n        external\n        returns (bool)\n    {\n        require(msg.sender == authority, \"Caller is not authorised\");\n        require(rewardEscrow != address(0), \"RewardEscrow is not set\");\n        require(synthetixProxy != address(0), \"SynthetixProxy is not set\");\n        require(feePoolProxy != address(0), \"FeePoolProxy is not set\");\n        require(amount > 0, \"Nothing to distribute\");\n        require(IERC20(synthetixProxy).balanceOf(this) >= amount, \"RewardsDistribution contract does not have enough tokens to distribute\");\n                \n        uint remainder = amount;\n\n        // Iterate the array of distributions sending the configured amounts\n        for (uint i = 0; i < distributions.length; i++) {\n            if (distributions[i].destination != address(0) || distributions[i].amount != 0) {\n                remainder = remainder.sub(distributions[i].amount);\n                IERC20(synthetixProxy).transfer(distributions[i].destination, distributions[i].amount);\n            }\n        }\n\n        // After all ditributions have been sent, send the remainder to the RewardsEscrow contract\n        IERC20(synthetixProxy).transfer(rewardEscrow, remainder);\n\n        // Tell the FeePool how much it has to distribute to the stakers\n        IFeePool(feePoolProxy).setRewardsToDistribute(remainder);\n\n        emit RewardsDistributed(amount);\n        return true;\n    }\n\n    /* ========== VIEWS ========== */\n\n    /**\n     * @notice Retrieve the length of the distributions array\n     */\n    function distributionsLength()\n        external\n        view\n        returns (uint)\n    {\n        return distributions.length;\n    }\n\n    /* ========== Events ========== */\n\n    event RewardDistributionAdded(uint index, address destination, uint amount);\n    event RewardsDistributed(uint amount);\n}\n",
  "sourcePath": "/Users/hz/workspace/synthetix/contracts/RewardsDistribution.sol",
  "compiler": {
    "name": "solc",
    "version": "0.4.25+commit.59dbf8f1.Emscripten.clang"
  },
  "schemaVersion": "2.0.2",
  "updatedAt": "2019-09-19T02:10:36.493Z"
}