{
  "contractName": "RewardEscrow",
  "abi": [
    {
      "constant": false,
      "inputs": [
        {
          "name": "_owner",
          "type": "address"
        }
      ],
      "name": "nominateNewOwner",
      "outputs": [],
      "payable": false,
      "stateMutability": "nonpayable",
      "type": "function"
    },
    {
      "constant": true,
      "inputs": [
        {
          "name": "",
          "type": "address"
        }
      ],
      "name": "totalVestedAccountBalance",
      "outputs": [
        {
          "name": "",
          "type": "uint256"
        }
      ],
      "payable": false,
      "stateMutability": "view",
      "type": "function"
    },
    {
      "constant": true,
      "inputs": [
        {
          "name": "",
          "type": "address"
        }
      ],
      "name": "totalEscrowedAccountBalance",
      "outputs": [
        {
          "name": "",
          "type": "uint256"
        }
      ],
      "payable": false,
      "stateMutability": "view",
      "type": "function"
    },
    {
      "constant": true,
      "inputs": [
        {
          "name": "",
          "type": "address"
        },
        {
          "name": "",
          "type": "uint256"
        },
        {
          "name": "",
          "type": "uint256"
        }
      ],
      "name": "vestingSchedules",
      "outputs": [
        {
          "name": "",
          "type": "uint256"
        }
      ],
      "payable": false,
      "stateMutability": "view",
      "type": "function"
    },
    {
      "constant": true,
      "inputs": [],
      "name": "nominatedOwner",
      "outputs": [
        {
          "name": "",
          "type": "address"
        }
      ],
      "payable": false,
      "stateMutability": "view",
      "type": "function"
    },
    {
      "constant": true,
      "inputs": [],
      "name": "totalEscrowedBalance",
      "outputs": [
        {
          "name": "",
          "type": "uint256"
        }
      ],
      "payable": false,
      "stateMutability": "view",
      "type": "function"
    },
    {
      "constant": true,
      "inputs": [],
      "name": "synthetix",
      "outputs": [
        {
          "name": "",
          "type": "address"
        }
      ],
      "payable": false,
      "stateMutability": "view",
      "type": "function"
    },
    {
      "constant": false,
      "inputs": [],
      "name": "acceptOwnership",
      "outputs": [],
      "payable": false,
      "stateMutability": "nonpayable",
      "type": "function"
    },
    {
      "constant": true,
      "inputs": [],
      "name": "owner",
      "outputs": [
        {
          "name": "",
          "type": "address"
        }
      ],
      "payable": false,
      "stateMutability": "view",
      "type": "function"
    },
    {
      "constant": true,
      "inputs": [],
      "name": "feePool",
      "outputs": [
        {
          "name": "",
          "type": "address"
        }
      ],
      "payable": false,
      "stateMutability": "view",
      "type": "function"
    },
    {
      "constant": true,
      "inputs": [],
      "name": "MAX_VESTING_ENTRIES",
      "outputs": [
        {
          "name": "",
          "type": "uint256"
        }
      ],
      "payable": false,
      "stateMutability": "view",
      "type": "function"
    },
    {
      "inputs": [
        {
          "name": "_owner",
          "type": "address"
        },
        {
          "name": "_synthetix",
          "type": "address"
        },
        {
          "name": "_feePool",
          "type": "address"
        }
      ],
      "payable": false,
      "stateMutability": "nonpayable",
      "type": "constructor"
    },
    {
      "anonymous": false,
      "inputs": [
        {
          "indexed": false,
          "name": "newSynthetix",
          "type": "address"
        }
      ],
      "name": "SynthetixUpdated",
      "type": "event"
    },
    {
      "anonymous": false,
      "inputs": [
        {
          "indexed": false,
          "name": "newFeePool",
          "type": "address"
        }
      ],
      "name": "FeePoolUpdated",
      "type": "event"
    },
    {
      "anonymous": false,
      "inputs": [
        {
          "indexed": true,
          "name": "beneficiary",
          "type": "address"
        },
        {
          "indexed": false,
          "name": "time",
          "type": "uint256"
        },
        {
          "indexed": false,
          "name": "value",
          "type": "uint256"
        }
      ],
      "name": "Vested",
      "type": "event"
    },
    {
      "anonymous": false,
      "inputs": [
        {
          "indexed": true,
          "name": "beneficiary",
          "type": "address"
        },
        {
          "indexed": false,
          "name": "time",
          "type": "uint256"
        },
        {
          "indexed": false,
          "name": "value",
          "type": "uint256"
        }
      ],
      "name": "VestingEntryCreated",
      "type": "event"
    },
    {
      "anonymous": false,
      "inputs": [
        {
          "indexed": false,
          "name": "newOwner",
          "type": "address"
        }
      ],
      "name": "OwnerNominated",
      "type": "event"
    },
    {
      "anonymous": false,
      "inputs": [
        {
          "indexed": false,
          "name": "oldOwner",
          "type": "address"
        },
        {
          "indexed": false,
          "name": "newOwner",
          "type": "address"
        }
      ],
      "name": "OwnerChanged",
      "type": "event"
    },
    {
      "constant": false,
      "inputs": [
        {
          "name": "_synthetix",
          "type": "address"
        }
      ],
      "name": "setSynthetix",
      "outputs": [],
      "payable": false,
      "stateMutability": "nonpayable",
      "type": "function"
    },
    {
      "constant": false,
      "inputs": [
        {
          "name": "_feePool",
          "type": "address"
        }
      ],
      "name": "setFeePool",
      "outputs": [],
      "payable": false,
      "stateMutability": "nonpayable",
      "type": "function"
    },
    {
      "constant": true,
      "inputs": [
        {
          "name": "account",
          "type": "address"
        }
      ],
      "name": "balanceOf",
      "outputs": [
        {
          "name": "",
          "type": "uint256"
        }
      ],
      "payable": false,
      "stateMutability": "view",
      "type": "function"
    },
    {
      "constant": true,
      "inputs": [
        {
          "name": "account",
          "type": "address"
        }
      ],
      "name": "numVestingEntries",
      "outputs": [
        {
          "name": "",
          "type": "uint256"
        }
      ],
      "payable": false,
      "stateMutability": "view",
      "type": "function"
    },
    {
      "constant": true,
      "inputs": [
        {
          "name": "account",
          "type": "address"
        },
        {
          "name": "index",
          "type": "uint256"
        }
      ],
      "name": "getVestingScheduleEntry",
      "outputs": [
        {
          "name": "",
          "type": "uint256[2]"
        }
      ],
      "payable": false,
      "stateMutability": "view",
      "type": "function"
    },
    {
      "constant": true,
      "inputs": [
        {
          "name": "account",
          "type": "address"
        },
        {
          "name": "index",
          "type": "uint256"
        }
      ],
      "name": "getVestingTime",
      "outputs": [
        {
          "name": "",
          "type": "uint256"
        }
      ],
      "payable": false,
      "stateMutability": "view",
      "type": "function"
    },
    {
      "constant": true,
      "inputs": [
        {
          "name": "account",
          "type": "address"
        },
        {
          "name": "index",
          "type": "uint256"
        }
      ],
      "name": "getVestingQuantity",
      "outputs": [
        {
          "name": "",
          "type": "uint256"
        }
      ],
      "payable": false,
      "stateMutability": "view",
      "type": "function"
    },
    {
      "constant": true,
      "inputs": [
        {
          "name": "account",
          "type": "address"
        }
      ],
      "name": "getNextVestingIndex",
      "outputs": [
        {
          "name": "",
          "type": "uint256"
        }
      ],
      "payable": false,
      "stateMutability": "view",
      "type": "function"
    },
    {
      "constant": true,
      "inputs": [
        {
          "name": "account",
          "type": "address"
        }
      ],
      "name": "getNextVestingEntry",
      "outputs": [
        {
          "name": "",
          "type": "uint256[2]"
        }
      ],
      "payable": false,
      "stateMutability": "view",
      "type": "function"
    },
    {
      "constant": true,
      "inputs": [
        {
          "name": "account",
          "type": "address"
        }
      ],
      "name": "getNextVestingTime",
      "outputs": [
        {
          "name": "",
          "type": "uint256"
        }
      ],
      "payable": false,
      "stateMutability": "view",
      "type": "function"
    },
    {
      "constant": true,
      "inputs": [
        {
          "name": "account",
          "type": "address"
        }
      ],
      "name": "getNextVestingQuantity",
      "outputs": [
        {
          "name": "",
          "type": "uint256"
        }
      ],
      "payable": false,
      "stateMutability": "view",
      "type": "function"
    },
    {
      "constant": true,
      "inputs": [
        {
          "name": "account",
          "type": "address"
        }
      ],
      "name": "checkAccountSchedule",
      "outputs": [
        {
          "name": "",
          "type": "uint256[520]"
        }
      ],
      "payable": false,
      "stateMutability": "view",
      "type": "function"
    },
    {
      "constant": false,
      "inputs": [
        {
          "name": "account",
          "type": "address"
        },
        {
          "name": "quantity",
          "type": "uint256"
        }
      ],
      "name": "appendVestingEntry",
      "outputs": [],
      "payable": false,
      "stateMutability": "nonpayable",
      "type": "function"
    },
    {
      "constant": false,
      "inputs": [],
      "name": "vest",
      "outputs": [],
      "payable": false,
      "stateMutability": "nonpayable",
      "type": "function"
    }
  ],
  "bytecode": "0x608060405234801561001057600080fd5b506040516060806122b483398101806040528101908080519060200190929190805190602001909291908051906020019092919050505082600073ffffffffffffffffffffffffffffffffffffffff168173ffffffffffffffffffffffffffffffffffffffff16141515156100ed576040517f08c379a00000000000000000000000000000000000000000000000000000000081526004018080602001828103825260198152602001807f4f776e657220616464726573732063616e6e6f7420626520300000000000000081525060200191505060405180910390fd5b806000806101000a81548173ffffffffffffffffffffffffffffffffffffffff021916908373ffffffffffffffffffffffffffffffffffffffff1602179055507fb532073b38c83145e3e5135377a08bf9aab55bc0fd7c1179cd4fb995d2a5159c600082604051808373ffffffffffffffffffffffffffffffffffffffff1673ffffffffffffffffffffffffffffffffffffffff1681526020018273ffffffffffffffffffffffffffffffffffffffff1673ffffffffffffffffffffffffffffffffffffffff1681526020019250505060405180910390a15081600260006101000a81548173ffffffffffffffffffffffffffffffffffffffff021916908373ffffffffffffffffffffffffffffffffffffffff16021790555080600360006101000a81548173ffffffffffffffffffffffffffffffffffffffff021916908373ffffffffffffffffffffffffffffffffffffffff16021790555050505061205a8061025a6000396000f300608060405260043610610149576000357c0100000000000000000000000000000000000000000000000000000000900463ffffffff1680631627540c1461014e57806319db22281461019157806319e740c0146101d4578063204b676a1461022b578063227d517a146102825780632f5bb661146102d9578063326a3cfb14610358578063449d0eb1146103af578063458efde31461042f57806345e5441f1461044657806353a47bb7146104b15780636b3905c41461050857806370a082311461055f57806371e780f3146105b6578063759b5225146105e157806379ba5097146106385780638da5cb5b1461064f57806397f46527146106a65780639b217f90146106fd578063ae2e933b1461075e578063b5ddb9c7146107b5578063d0cc82e314610802578063da7bd3e91461082d578063ee1d036c146108b6578063fec9f9da14610917575b600080fd5b34801561015a57600080fd5b5061018f600480360381019080803573ffffffffffffffffffffffffffffffffffffffff16906020019092919050505061095a565b005b34801561019d57600080fd5b506101d2600480360381019080803573ffffffffffffffffffffffffffffffffffffffff169060200190929190505050610aeb565b005b3480156101e057600080fd5b50610215600480360381019080803573ffffffffffffffffffffffffffffffffffffffff169060200190929190505050610c7c565b6040518082815260200191505060405180910390f35b34801561023757600080fd5b5061026c600480360381019080803573ffffffffffffffffffffffffffffffffffffffff169060200190929190505050610ccc565b6040518082815260200191505060405180910390f35b34801561028e57600080fd5b506102c3600480360381019080803573ffffffffffffffffffffffffffffffffffffffff169060200190929190505050610d18565b6040518082815260200191505060405180910390f35b3480156102e557600080fd5b5061031a600480360381019080803573ffffffffffffffffffffffffffffffffffffffff169060200190929190505050610d30565b6040518082600260200280838360005b8381101561034557808201518184015260208101905061032a565b5050505090500191505060405180910390f35b34801561036457600080fd5b50610399600480360381019080803573ffffffffffffffffffffffffffffffffffffffff169060200190929190505050610d86565b6040518082815260200191505060405180910390f35b3480156103bb57600080fd5b506103f0600480360381019080803573ffffffffffffffffffffffffffffffffffffffff169060200190929190505050610d9e565b604051808261020860200280838360005b8381101561041c578082015181840152602081019050610401565b5050505090500191505060405180910390f35b34801561043b57600080fd5b50610444610e57565b005b34801561045257600080fd5b5061049b600480360381019080803573ffffffffffffffffffffffffffffffffffffffff1690602001909291908035906020019092919080359060200190929190505050611201565b6040518082815260200191505060405180910390f35b3480156104bd57600080fd5b506104c6611244565b604051808273ffffffffffffffffffffffffffffffffffffffff1673ffffffffffffffffffffffffffffffffffffffff16815260200191505060405180910390f35b34801561051457600080fd5b50610549600480360381019080803573ffffffffffffffffffffffffffffffffffffffff16906020019092919050505061126a565b6040518082815260200191505060405180910390f35b34801561056b57600080fd5b506105a0600480360381019080803573ffffffffffffffffffffffffffffffffffffffff16906020019092919050505061128f565b6040518082815260200191505060405180910390f35b3480156105c257600080fd5b506105cb6112d8565b6040518082815260200191505060405180910390f35b3480156105ed57600080fd5b506105f66112de565b604051808273ffffffffffffffffffffffffffffffffffffffff1673ffffffffffffffffffffffffffffffffffffffff16815260200191505060405180910390f35b34801561064457600080fd5b5061064d611304565b005b34801561065b57600080fd5b5061066461156f565b604051808273ffffffffffffffffffffffffffffffffffffffff1673ffffffffffffffffffffffffffffffffffffffff16815260200191505060405180910390f35b3480156106b257600080fd5b506106e7600480360381019080803573ffffffffffffffffffffffffffffffffffffffff169060200190929190505050611594565b6040518082815260200191505060405180910390f35b34801561070957600080fd5b50610748600480360381019080803573ffffffffffffffffffffffffffffffffffffffff169060200190929190803590602001909291905050506115b9565b6040518082815260200191505060405180910390f35b34801561076a57600080fd5b506107736115e0565b604051808273ffffffffffffffffffffffffffffffffffffffff1673ffffffffffffffffffffffffffffffffffffffff16815260200191505060405180910390f35b3480156107c157600080fd5b50610800600480360381019080803573ffffffffffffffffffffffffffffffffffffffff16906020019092919080359060200190929190505050611606565b005b34801561080e57600080fd5b50610817611c97565b6040518082815260200191505060405180910390f35b34801561083957600080fd5b50610878600480360381019080803573ffffffffffffffffffffffffffffffffffffffff16906020019092919080359060200190929190505050611c9d565b6040518082600260200280838360005b838110156108a3578082015181840152602081019050610888565b5050505090500191505060405180910390f35b3480156108c257600080fd5b50610901600480360381019080803573ffffffffffffffffffffffffffffffffffffffff16906020019092919080359060200190929190505050611d43565b6040518082815260200191505060405180910390f35b34801561092357600080fd5b50610958600480360381019080803573ffffffffffffffffffffffffffffffffffffffff169060200190929190505050611d6a565b005b6000809054906101000a900473ffffffffffffffffffffffffffffffffffffffff1673ffffffffffffffffffffffffffffffffffffffff163373ffffffffffffffffffffffffffffffffffffffff16141515610a44576040517f08c379a000000000000000000000000000000000000000000000000000000000815260040180806020018281038252602f8152602001807f4f6e6c792074686520636f6e7472616374206f776e6572206d6179207065726681526020017f6f726d207468697320616374696f6e000000000000000000000000000000000081525060400191505060405180910390fd5b80600160006101000a81548173ffffffffffffffffffffffffffffffffffffffff021916908373ffffffffffffffffffffffffffffffffffffffff1602179055507f906a1c6bd7e3091ea86693dd029a831c19049ce77f1dce2ce0bab1cacbabce2281604051808273ffffffffffffffffffffffffffffffffffffffff1673ffffffffffffffffffffffffffffffffffffffff16815260200191505060405180910390a150565b6000809054906101000a900473ffffffffffffffffffffffffffffffffffffffff1673ffffffffffffffffffffffffffffffffffffffff163373ffffffffffffffffffffffffffffffffffffffff16141515610bd5576040517f08c379a000000000000000000000000000000000000000000000000000000000815260040180806020018281038252602f8152602001807f4f6e6c792074686520636f6e7472616374206f776e6572206d6179207065726681526020017f6f726d207468697320616374696f6e000000000000000000000000000000000081525060400191505060405180910390fd5b80600360006101000a81548173ffffffffffffffffffffffffffffffffffffffff021916908373ffffffffffffffffffffffffffffffffffffffff1602179055507f6d1d088acfe4f30d6014f6f693c61c16258f9784a6ed8439b2c59213eecb629581604051808273ffffffffffffffffffffffffffffffffffffffff1673ffffffffffffffffffffffffffffffffffffffff16815260200191505060405180910390a150565b6000806000610c8a84610ccc565b9150600090505b81811015610cc1576000610ca585836115b9565b141515610cb457809250610cc5565b8080600101915050610c91565b8192505b5050919050565b6000600460008373ffffffffffffffffffffffffffffffffffffffff1673ffffffffffffffffffffffffffffffffffffffff168152602001908152602001600020805490509050919050565b60066020528060005260406000206000915090505481565b610d38611f3d565b6000610d4383610c7c565b9050610d4e83610ccc565b811415610d735760408051908101604052806000815260200160008152509150610d80565b610d7d8382611c9d565b91505b50919050565b60056020528060005260406000206000915090505481565b610da6611f5f565b610dae611f5f565b600080610db9611f3d565b610dc286610ccc565b9250600091505b82821015610e4b57610ddb8683611c9d565b9050806000600281101515610dec57fe5b6020020151846002840261020881101515610e0357fe5b602002018181525050806001600281101515610e1b57fe5b6020020151846001600285020161020881101515610e3557fe5b6020020181815250508180600101925050610dc9565b83945050505050919050565b6000806000806000610e6833610ccc565b9450600092505b84831015610f5357610e8133846115b9565b915042821115610e9057610f53565b610e9a3384611d43565b90506000811415610eaa57610f46565b6040805190810160405280600060ff168152602001600060ff16815250600460003373ffffffffffffffffffffffffffffffffffffffff1673ffffffffffffffffffffffffffffffffffffffff16815260200190815260200160002084815481101515610f1357fe5b9060005260206000209060020201906002610f2f929190611f84565b50610f438185611efb90919063ffffffff16565b93505b8280600101935050610e6f565b6000841415156111fa57610f7284600754611f1c90919063ffffffff16565b600781905550610fca84600560003373ffffffffffffffffffffffffffffffffffffffff1673ffffffffffffffffffffffffffffffffffffffff16815260200190815260200160002054611f1c90919063ffffffff16565b600560003373ffffffffffffffffffffffffffffffffffffffff1673ffffffffffffffffffffffffffffffffffffffff1681526020019081526020016000208190555061105f84600660003373ffffffffffffffffffffffffffffffffffffffff1673ffffffffffffffffffffffffffffffffffffffff16815260200190815260200160002054611efb90919063ffffffff16565b600660003373ffffffffffffffffffffffffffffffffffffffff1673ffffffffffffffffffffffffffffffffffffffff16815260200190815260200160002081905550600260009054906101000a900473ffffffffffffffffffffffffffffffffffffffff1673ffffffffffffffffffffffffffffffffffffffff1663a9059cbb33866040518363ffffffff167c0100000000000000000000000000000000000000000000000000000000028152600401808373ffffffffffffffffffffffffffffffffffffffff1673ffffffffffffffffffffffffffffffffffffffff16815260200182815260200192505050602060405180830381600087803b15801561116757600080fd5b505af115801561117b573d6000803e3d6000fd5b505050506040513d602081101561119157600080fd5b8101908080519060200190929190505050503373ffffffffffffffffffffffffffffffffffffffff167ffbeff59d2bfda0d79ea8a29f8c57c66d48c7a13eabbdb90908d9115ec41c9dc64286604051808381526020018281526020019250505060405180910390a25b5050505050565b60046020528260005260406000208281548110151561121c57fe5b90600052602060002090600202018160028110151561123757fe5b0160009250925050505481565b600160009054906101000a900473ffffffffffffffffffffffffffffffffffffffff1681565b600061127582610d30565b600060028110151561128357fe5b60200201519050919050565b6000600560008373ffffffffffffffffffffffffffffffffffffffff1673ffffffffffffffffffffffffffffffffffffffff168152602001908152602001600020549050919050565b60075481565b600260009054906101000a900473ffffffffffffffffffffffffffffffffffffffff1681565b600160009054906101000a900473ffffffffffffffffffffffffffffffffffffffff1673ffffffffffffffffffffffffffffffffffffffff163373ffffffffffffffffffffffffffffffffffffffff161415156113ef576040517f08c379a00000000000000000000000000000000000000000000000000000000081526004018080602001828103825260358152602001807f596f75206d757374206265206e6f6d696e61746564206265666f726520796f7581526020017f2063616e20616363657074206f776e657273686970000000000000000000000081525060400191505060405180910390fd5b7fb532073b38c83145e3e5135377a08bf9aab55bc0fd7c1179cd4fb995d2a5159c6000809054906101000a900473ffffffffffffffffffffffffffffffffffffffff16600160009054906101000a900473ffffffffffffffffffffffffffffffffffffffff16604051808373ffffffffffffffffffffffffffffffffffffffff1673ffffffffffffffffffffffffffffffffffffffff1681526020018273ffffffffffffffffffffffffffffffffffffffff1673ffffffffffffffffffffffffffffffffffffffff1681526020019250505060405180910390a1600160009054906101000a900473ffffffffffffffffffffffffffffffffffffffff166000806101000a81548173ffffffffffffffffffffffffffffffffffffffff021916908373ffffffffffffffffffffffffffffffffffffffff1602179055506000600160006101000a81548173ffffffffffffffffffffffffffffffffffffffff021916908373ffffffffffffffffffffffffffffffffffffffff160217905550565b6000809054906101000a900473ffffffffffffffffffffffffffffffffffffffff1681565b600061159f82610d30565b60016002811015156115ad57fe5b60200201519050919050565b60006115c58383611c9d565b60006002811015156115d357fe5b6020020151905092915050565b600360009054906101000a900473ffffffffffffffffffffffffffffffffffffffff1681565b6000806000600360009054906101000a900473ffffffffffffffffffffffffffffffffffffffff1673ffffffffffffffffffffffffffffffffffffffff163373ffffffffffffffffffffffffffffffffffffffff161490508015156116f9576040517f08c379a00000000000000000000000000000000000000000000000000000000081526004018080602001828103825260328152602001807f4f6e6c792074686520466565506f6f6c20636f6e7472616374732063616e207081526020017f6572666f726d207468697320616374696f6e000000000000000000000000000081525060400191505060405180910390fd5b60008414151515611772576040517f08c379a00000000000000000000000000000000000000000000000000000000081526004018080602001828103825260178152602001807f5175616e746974792063616e6e6f74206265207a65726f00000000000000000081525060200191505060405180910390fd5b61178784600754611efb90919063ffffffff16565b600781905550600260009054906101000a900473ffffffffffffffffffffffffffffffffffffffff1673ffffffffffffffffffffffffffffffffffffffff166370a08231306040518263ffffffff167c0100000000000000000000000000000000000000000000000000000000028152600401808273ffffffffffffffffffffffffffffffffffffffff1673ffffffffffffffffffffffffffffffffffffffff168152602001915050602060405180830381600087803b15801561184a57600080fd5b505af115801561185e573d6000803e3d6000fd5b505050506040513d602081101561187457600080fd5b81019080805190602001909291905050506007541115151561194a576040517f08c379a00000000000000000000000000000000000000000000000000000000081526004018080602001828103825260478152602001807f4d75737420626520656e6f7567682062616c616e636520696e2074686520636f81526020017f6e747261637420746f2070726f7669646520666f72207468652076657374696e81526020017f6720656e7472790000000000000000000000000000000000000000000000000081525060600191505060405180910390fd5b600460008673ffffffffffffffffffffffffffffffffffffffff1673ffffffffffffffffffffffffffffffffffffffff1681526020019081526020016000208054905092506101048311151515611a09576040517f08c379a000000000000000000000000000000000000000000000000000000000815260040180806020018281038252601c8152602001807f56657374696e67207363686564756c6520697320746f6f206c6f6e670000000081525060200191505060405180910390fd5b6301dfe200420191506000831415611a645783600560008773ffffffffffffffffffffffffffffffffffffffff1673ffffffffffffffffffffffffffffffffffffffff16815260200190815260200160002081905550611bab565b81611a7a866001611a7489610ccc565b036115b9565b101515611b15576040517f08c379a00000000000000000000000000000000000000000000000000000000081526004018080602001828103825260378152602001807f43616e6e6f7420616464206e65772076657374656420656e747269657320656181526020017f726c696572207468616e20746865206c617374206f6e6500000000000000000081525060400191505060405180910390fd5b611b6784600560008873ffffffffffffffffffffffffffffffffffffffff1673ffffffffffffffffffffffffffffffffffffffff16815260200190815260200160002054611efb90919063ffffffff16565b600560008773ffffffffffffffffffffffffffffffffffffffff1673ffffffffffffffffffffffffffffffffffffffff168152602001908152602001600020819055505b600460008673ffffffffffffffffffffffffffffffffffffffff1673ffffffffffffffffffffffffffffffffffffffff16815260200190815260200160002060408051908101604052808481526020018681525090806001815401808255809150509060018203906000526020600020906002020160009091929091909150906002611c38929190611fc9565b50508473ffffffffffffffffffffffffffffffffffffffff167fedd34dc5a5ea12bd847909801d0660781b50e26c7f4cec3c7b308f1ea410635c4286604051808381526020018281526020019250505060405180910390a25050505050565b61010481565b611ca5611f3d565b600460008473ffffffffffffffffffffffffffffffffffffffff1673ffffffffffffffffffffffffffffffffffffffff16815260200190815260200160002082815481101515611cf157fe5b9060005260206000209060020201600280602002604051908101604052809291908260028015611d36576020028201915b815481526020019060010190808311611d22575b5050505050905092915050565b6000611d4f8383611c9d565b6001600281101515611d5d57fe5b6020020151905092915050565b6000809054906101000a900473ffffffffffffffffffffffffffffffffffffffff1673ffffffffffffffffffffffffffffffffffffffff163373ffffffffffffffffffffffffffffffffffffffff16141515611e54576040517f08c379a000000000000000000000000000000000000000000000000000000000815260040180806020018281038252602f8152602001807f4f6e6c792074686520636f6e7472616374206f776e6572206d6179207065726681526020017f6f726d207468697320616374696f6e000000000000000000000000000000000081525060400191505060405180910390fd5b80600260006101000a81548173ffffffffffffffffffffffffffffffffffffffff021916908373ffffffffffffffffffffffffffffffffffffffff1602179055507f46e9c68bd7831071bdd478f1ae4c4a52463961a9d620383a0a121dbfc0e0f06d81604051808273ffffffffffffffffffffffffffffffffffffffff1673ffffffffffffffffffffffffffffffffffffffff16815260200191505060405180910390a150565b6000808284019050838110151515611f1257600080fd5b8091505092915050565b600080838311151515611f2e57600080fd5b82840390508091505092915050565b6040805190810160405280600290602082028038833980820191505090505090565b6141006040519081016040528061020890602082028038833980820191505090505090565b8260028101928215611fb8579160200282015b82811115611fb7578251829060ff16905591602001919060010190611f97565b5b509050611fc59190612009565b5090565b8260028101928215611ff8579160200282015b82811115611ff7578251825591602001919060010190611fdc565b5b5090506120059190612009565b5090565b61202b91905b8082111561202757600081600090555060010161200f565b5090565b905600a165627a7a72305820398a55f670d7667fae4268d336b9ea46c6354a686646ab20e45bcebbec9b41470029",
  "source": "/*\n-----------------------------------------------------------------\nFILE INFORMATION\n-----------------------------------------------------------------\n\nfile:       RewardEscrow.sol\nversion:    1.0\nauthor:     Jackson Chan\n            Clinton Ennis\n\ndate:       2019-03-01\n\n-----------------------------------------------------------------\nMODULE DESCRIPTION\n-----------------------------------------------------------------\nEscrows the SNX rewards from the inflationary supply awarded to\nusers for staking their SNX and maintaining the c-rationn target.\n\nSNW rewards are escrowed for 1 year from the claim date and users\ncan call vest in 12 months time.\n-----------------------------------------------------------------\n*/\n\npragma solidity 0.4.25;\n\n\nimport \"./SafeDecimalMath.sol\";\nimport \"./Owned.sol\";\nimport \"./interfaces/IFeePool.sol\";\nimport \"./interfaces/ISynthetix.sol\";\n\n/**\n * @title A contract to hold escrowed SNX and free them at given schedules.\n */\ncontract RewardEscrow is Owned {\n\n    using SafeMath for uint;\n\n    /* The corresponding Synthetix contract. */\n    ISynthetix public synthetix;\n\n    IFeePool public feePool;\n\n    /* Lists of (timestamp, quantity) pairs per account, sorted in ascending time order.\n     * These are the times at which each given quantity of SNX vests. */\n    mapping(address => uint[2][]) public vestingSchedules;\n\n    /* An account's total escrowed synthetix balance to save recomputing this for fee extraction purposes. */\n    mapping(address => uint) public totalEscrowedAccountBalance;\n\n    /* An account's total vested reward synthetix. */\n    mapping(address => uint) public totalVestedAccountBalance;\n\n    /* The total remaining escrowed balance, for verifying the actual synthetix balance of this contract against. */\n    uint public totalEscrowedBalance;\n\n    uint constant TIME_INDEX = 0;\n    uint constant QUANTITY_INDEX = 1;\n\n    /* Limit vesting entries to disallow unbounded iteration over vesting schedules.\n    * There are 5 years of the supply scedule */\n    uint constant public MAX_VESTING_ENTRIES = 52*5;\n\n\n    /* ========== CONSTRUCTOR ========== */\n\n    constructor(address _owner, ISynthetix _synthetix, IFeePool _feePool)\n    Owned(_owner)\n    public\n    {\n        synthetix = _synthetix;\n        feePool = _feePool;\n    }\n\n\n    /* ========== SETTERS ========== */\n\n    /**\n     * @notice set the synthetix contract address as we need to transfer SNX when the user vests\n     */\n    function setSynthetix(ISynthetix _synthetix)\n    external\n    onlyOwner\n    {\n        synthetix = _synthetix;\n        emit SynthetixUpdated(_synthetix);\n    }\n\n    /**\n     * @notice set the FeePool contract as it is the only authority to be able to call\n     * appendVestingEntry with the onlyFeePool modifer\n     */\n    function setFeePool(IFeePool _feePool)\n        external\n        onlyOwner\n    {\n        feePool = _feePool;\n        emit FeePoolUpdated(_feePool);\n    }\n\n\n    /* ========== VIEW FUNCTIONS ========== */\n\n    /**\n     * @notice A simple alias to totalEscrowedAccountBalance: provides ERC20 balance integration.\n     */\n    function balanceOf(address account)\n    public\n    view\n    returns (uint)\n    {\n        return totalEscrowedAccountBalance[account];\n    }\n\n    /**\n     * @notice The number of vesting dates in an account's schedule.\n     */\n    function numVestingEntries(address account)\n    public\n    view\n    returns (uint)\n    {\n        return vestingSchedules[account].length;\n    }\n\n    /**\n     * @notice Get a particular schedule entry for an account.\n     * @return A pair of uints: (timestamp, synthetix quantity).\n     */\n    function getVestingScheduleEntry(address account, uint index)\n    public\n    view\n    returns (uint[2])\n    {\n        return vestingSchedules[account][index];\n    }\n\n    /**\n     * @notice Get the time at which a given schedule entry will vest.\n     */\n    function getVestingTime(address account, uint index)\n    public\n    view\n    returns (uint)\n    {\n        return getVestingScheduleEntry(account,index)[TIME_INDEX];\n    }\n\n    /**\n     * @notice Get the quantity of SNX associated with a given schedule entry.\n     */\n    function getVestingQuantity(address account, uint index)\n    public\n    view\n    returns (uint)\n    {\n        return getVestingScheduleEntry(account,index)[QUANTITY_INDEX];\n    }\n\n    /**\n     * @notice Obtain the index of the next schedule entry that will vest for a given user.\n     */\n    function getNextVestingIndex(address account)\n    public\n    view\n    returns (uint)\n    {\n        uint len = numVestingEntries(account);\n        for (uint i = 0; i < len; i++) {\n            if (getVestingTime(account, i) != 0) {\n                return i;\n            }\n        }\n        return len;\n    }\n\n    /**\n     * @notice Obtain the next schedule entry that will vest for a given user.\n     * @return A pair of uints: (timestamp, synthetix quantity). */\n    function getNextVestingEntry(address account)\n    public\n    view\n    returns (uint[2])\n    {\n        uint index = getNextVestingIndex(account);\n        if (index == numVestingEntries(account)) {\n            return [uint(0), 0];\n        }\n        return getVestingScheduleEntry(account, index);\n    }\n\n    /**\n     * @notice Obtain the time at which the next schedule entry will vest for a given user.\n     */\n    function getNextVestingTime(address account)\n    external\n    view\n    returns (uint)\n    {\n        return getNextVestingEntry(account)[TIME_INDEX];\n    }\n\n    /**\n     * @notice Obtain the quantity which the next schedule entry will vest for a given user.\n     */\n    function getNextVestingQuantity(address account)\n    external\n    view\n    returns (uint)\n    {\n        return getNextVestingEntry(account)[QUANTITY_INDEX];\n    }\n\n    /**\n     * @notice return the full vesting schedule entries vest for a given user.\n     */\n    function checkAccountSchedule(address account)\n        public\n        view\n        returns (uint[520])\n    {\n        uint[520] memory _result;\n        uint schedules = numVestingEntries(account);\n        for (uint i = 0; i < schedules; i++) {\n            uint[2] memory pair = getVestingScheduleEntry(account, i);\n            _result[i*2] = pair[0];\n            _result[i*2 + 1] = pair[1];\n        }\n        return _result;\n    }\n\n\n    /* ========== MUTATIVE FUNCTIONS ========== */\n\n    /**\n     * @notice Add a new vesting entry at a given time and quantity to an account's schedule.\n     * @dev A call to this should accompany a previous successfull call to synthetix.transfer(tewardEscrow, amount),\n     * to ensure that when the funds are withdrawn, there is enough balance.\n     * Note; although this function could technically be used to produce unbounded\n     * arrays, it's only withinn the 4 year period of the weekly inflation schedule.\n     * @param account The account to append a new vesting entry to.\n     * @param quantity The quantity of SNX that will be escrowed.\n     */\n    function appendVestingEntry(address account, uint quantity)\n    public\n    onlyFeePool\n    {\n        /* No empty or already-passed vesting entries allowed. */\n        require(quantity != 0, \"Quantity cannot be zero\");\n\n        /* There must be enough balance in the contract to provide for the vesting entry. */\n        totalEscrowedBalance = totalEscrowedBalance.add(quantity);\n        require(totalEscrowedBalance <= synthetix.balanceOf(this), \"Must be enough balance in the contract to provide for the vesting entry\");\n\n        /* Disallow arbitrarily long vesting schedules in light of the gas limit. */\n        uint scheduleLength = vestingSchedules[account].length;\n        require(scheduleLength <= MAX_VESTING_ENTRIES, \"Vesting schedule is too long\");\n\n        /* Escrow the tokens for 1 year. */\n        uint time = now + 52 weeks;\n\n        if (scheduleLength == 0) {\n            totalEscrowedAccountBalance[account] = quantity;\n        } else {\n            /* Disallow adding new vested SNX earlier than the last one.\n             * Since entries are only appended, this means that no vesting date can be repeated. */\n            require(getVestingTime(account, numVestingEntries(account) - 1) < time, \"Cannot add new vested entries earlier than the last one\");\n            totalEscrowedAccountBalance[account] = totalEscrowedAccountBalance[account].add(quantity);\n        }\n\n        vestingSchedules[account].push([time, quantity]);\n\n        emit VestingEntryCreated(account, now, quantity);\n    }\n\n    /**\n     * @notice Allow a user to withdraw any SNX in their schedule that have vested.\n     */\n    function vest()\n    external\n    {\n        uint numEntries = numVestingEntries(msg.sender);\n        uint total;\n        for (uint i = 0; i < numEntries; i++) {\n            uint time = getVestingTime(msg.sender, i);\n            /* The list is sorted; when we reach the first future time, bail out. */\n            if (time > now) {\n                break;\n            }\n            uint qty = getVestingQuantity(msg.sender, i);\n            if (qty == 0) {\n                continue;\n            }\n\n            vestingSchedules[msg.sender][i] = [0, 0];\n            total = total.add(qty);\n        }\n\n        if (total != 0) {\n            totalEscrowedBalance = totalEscrowedBalance.sub(total);\n            totalEscrowedAccountBalance[msg.sender] = totalEscrowedAccountBalance[msg.sender].sub(total);\n            totalVestedAccountBalance[msg.sender] = totalVestedAccountBalance[msg.sender].add(total);\n            synthetix.transfer(msg.sender, total);\n            emit Vested(msg.sender, now, total);\n        }\n    }\n\n    /* ========== MODIFIERS ========== */\n\n    modifier onlyFeePool() {\n        bool isFeePool = msg.sender == address(feePool);\n\n        require(isFeePool, \"Only the FeePool contracts can perform this action\");\n        _;\n    }\n\n\n    /* ========== EVENTS ========== */\n\n    event SynthetixUpdated(address newSynthetix);\n\n    event FeePoolUpdated(address newFeePool);\n\n    event Vested(address indexed beneficiary, uint time, uint value);\n\n    event VestingEntryCreated(address indexed beneficiary, uint time, uint value);\n\n}\n",
  "sourcePath": "/Users/hz/workspace/synthetix/contracts/RewardEscrow.sol",
  "compiler": {
    "name": "solc",
    "version": "0.4.25+commit.59dbf8f1.Emscripten.clang"
  },
  "schemaVersion": "2.0.2",
  "updatedAt": "2019-09-19T02:10:36.489Z"
}