{
  "contractName": "SupplySchedule",
  "abi": [
    {
      "constant": true,
      "inputs": [],
      "name": "YEAR_FIVE",
      "outputs": [
        {
          "name": "",
          "type": "uint256"
        }
      ],
      "payable": false,
      "stateMutability": "view",
      "type": "function"
    },
    {
      "constant": false,
      "inputs": [
        {
          "name": "_owner",
          "type": "address"
        }
      ],
      "name": "nominateNewOwner",
      "outputs": [],
      "payable": false,
      "stateMutability": "nonpayable",
      "type": "function"
    },
    {
      "constant": true,
      "inputs": [],
      "name": "YEAR_SEVEN",
      "outputs": [
        {
          "name": "",
          "type": "uint256"
        }
      ],
      "payable": false,
      "stateMutability": "view",
      "type": "function"
    },
    {
      "constant": true,
      "inputs": [],
      "name": "START_DATE",
      "outputs": [
        {
          "name": "",
          "type": "uint256"
        }
      ],
      "payable": false,
      "stateMutability": "view",
      "type": "function"
    },
    {
      "constant": true,
      "inputs": [],
      "name": "YEAR_FOUR",
      "outputs": [
        {
          "name": "",
          "type": "uint256"
        }
      ],
      "payable": false,
      "stateMutability": "view",
      "type": "function"
    },
    {
      "constant": true,
      "inputs": [],
      "name": "nominatedOwner",
      "outputs": [
        {
          "name": "",
          "type": "address"
        }
      ],
      "payable": false,
      "stateMutability": "view",
      "type": "function"
    },
    {
      "constant": true,
      "inputs": [],
      "name": "synthetix",
      "outputs": [
        {
          "name": "",
          "type": "address"
        }
      ],
      "payable": false,
      "stateMutability": "view",
      "type": "function"
    },
    {
      "constant": true,
      "inputs": [],
      "name": "INFLATION_SCHEDULES_LENGTH",
      "outputs": [
        {
          "name": "",
          "type": "uint8"
        }
      ],
      "payable": false,
      "stateMutability": "view",
      "type": "function"
    },
    {
      "constant": false,
      "inputs": [],
      "name": "acceptOwnership",
      "outputs": [],
      "payable": false,
      "stateMutability": "nonpayable",
      "type": "function"
    },
    {
      "constant": true,
      "inputs": [],
      "name": "owner",
      "outputs": [
        {
          "name": "",
          "type": "address"
        }
      ],
      "payable": false,
      "stateMutability": "view",
      "type": "function"
    },
    {
      "constant": true,
      "inputs": [],
      "name": "mintPeriodDuration",
      "outputs": [
        {
          "name": "",
          "type": "uint256"
        }
      ],
      "payable": false,
      "stateMutability": "view",
      "type": "function"
    },
    {
      "constant": true,
      "inputs": [],
      "name": "minterReward",
      "outputs": [
        {
          "name": "",
          "type": "uint256"
        }
      ],
      "payable": false,
      "stateMutability": "view",
      "type": "function"
    },
    {
      "constant": true,
      "inputs": [],
      "name": "YEAR_TWO",
      "outputs": [
        {
          "name": "",
          "type": "uint256"
        }
      ],
      "payable": false,
      "stateMutability": "view",
      "type": "function"
    },
    {
      "constant": true,
      "inputs": [
        {
          "name": "",
          "type": "uint256"
        }
      ],
      "name": "schedules",
      "outputs": [
        {
          "name": "totalSupply",
          "type": "uint256"
        },
        {
          "name": "startPeriod",
          "type": "uint256"
        },
        {
          "name": "endPeriod",
          "type": "uint256"
        },
        {
          "name": "totalSupplyMinted",
          "type": "uint256"
        }
      ],
      "payable": false,
      "stateMutability": "view",
      "type": "function"
    },
    {
      "constant": true,
      "inputs": [],
      "name": "lastMintEvent",
      "outputs": [
        {
          "name": "",
          "type": "uint256"
        }
      ],
      "payable": false,
      "stateMutability": "view",
      "type": "function"
    },
    {
      "constant": true,
      "inputs": [],
      "name": "YEAR_THREE",
      "outputs": [
        {
          "name": "",
          "type": "uint256"
        }
      ],
      "payable": false,
      "stateMutability": "view",
      "type": "function"
    },
    {
      "constant": true,
      "inputs": [],
      "name": "YEAR_SIX",
      "outputs": [
        {
          "name": "",
          "type": "uint256"
        }
      ],
      "payable": false,
      "stateMutability": "view",
      "type": "function"
    },
    {
      "constant": true,
      "inputs": [],
      "name": "YEAR_ONE",
      "outputs": [
        {
          "name": "",
          "type": "uint256"
        }
      ],
      "payable": false,
      "stateMutability": "view",
      "type": "function"
    },
    {
      "inputs": [
        {
          "name": "_owner",
          "type": "address"
        }
      ],
      "payable": false,
      "stateMutability": "nonpayable",
      "type": "constructor"
    },
    {
      "anonymous": false,
      "inputs": [
        {
          "indexed": false,
          "name": "previousPeriodAmount",
          "type": "uint256"
        },
        {
          "indexed": false,
          "name": "currentAmount",
          "type": "uint256"
        },
        {
          "indexed": true,
          "name": "schedule",
          "type": "uint256"
        },
        {
          "indexed": false,
          "name": "timestamp",
          "type": "uint256"
        }
      ],
      "name": "SupplyMinted",
      "type": "event"
    },
    {
      "anonymous": false,
      "inputs": [
        {
          "indexed": false,
          "name": "newRewardAmount",
          "type": "uint256"
        }
      ],
      "name": "MinterRewardUpdated",
      "type": "event"
    },
    {
      "anonymous": false,
      "inputs": [
        {
          "indexed": false,
          "name": "newOwner",
          "type": "address"
        }
      ],
      "name": "OwnerNominated",
      "type": "event"
    },
    {
      "anonymous": false,
      "inputs": [
        {
          "indexed": false,
          "name": "oldOwner",
          "type": "address"
        },
        {
          "indexed": false,
          "name": "newOwner",
          "type": "address"
        }
      ],
      "name": "OwnerChanged",
      "type": "event"
    },
    {
      "constant": false,
      "inputs": [
        {
          "name": "_synthetix",
          "type": "address"
        }
      ],
      "name": "setSynthetix",
      "outputs": [],
      "payable": false,
      "stateMutability": "nonpayable",
      "type": "function"
    },
    {
      "constant": true,
      "inputs": [],
      "name": "mintableSupply",
      "outputs": [
        {
          "name": "",
          "type": "uint256"
        }
      ],
      "payable": false,
      "stateMutability": "view",
      "type": "function"
    },
    {
      "constant": true,
      "inputs": [
        {
          "name": "_timeDiff",
          "type": "uint256"
        }
      ],
      "name": "_numWeeksRoundedDown",
      "outputs": [
        {
          "name": "",
          "type": "uint256"
        }
      ],
      "payable": false,
      "stateMutability": "view",
      "type": "function"
    },
    {
      "constant": true,
      "inputs": [],
      "name": "isMintable",
      "outputs": [
        {
          "name": "",
          "type": "bool"
        }
      ],
      "payable": false,
      "stateMutability": "view",
      "type": "function"
    },
    {
      "constant": true,
      "inputs": [],
      "name": "getCurrentSchedule",
      "outputs": [
        {
          "name": "",
          "type": "uint256"
        }
      ],
      "payable": false,
      "stateMutability": "view",
      "type": "function"
    },
    {
      "constant": false,
      "inputs": [],
      "name": "updateMintValues",
      "outputs": [
        {
          "name": "",
          "type": "bool"
        }
      ],
      "payable": false,
      "stateMutability": "nonpayable",
      "type": "function"
    },
    {
      "constant": false,
      "inputs": [
        {
          "name": "_amount",
          "type": "uint256"
        }
      ],
      "name": "setMinterReward",
      "outputs": [],
      "payable": false,
      "stateMutability": "nonpayable",
      "type": "function"
    }
  ],
  "bytecode": "0x608060405262093a8060025573__SafeDecimalMath_______________________63907af6c06040518163ffffffff167c010000000000000000000000000000000000000000000000000000000002815260040160206040518083038186803b1580156200006c57600080fd5b505af415801562000081573d6000803e3d6000fd5b505050506040513d60208110156200009857600080fd5b810190808051906020019092919050505060c802602155348015620000bc57600080fd5b50604051602080620021708339810180604052810190808051906020019092919050505080600073ffffffffffffffffffffffffffffffffffffffff168173ffffffffffffffffffffffffffffffffffffffff161415151562000187576040517f08c379a00000000000000000000000000000000000000000000000000000000081526004018080602001828103825260198152602001807f4f776e657220616464726573732063616e6e6f7420626520300000000000000081525060200191505060405180910390fd5b806000806101000a81548173ffffffffffffffffffffffffffffffffffffffff021916908373ffffffffffffffffffffffffffffffffffffffff1602179055507fb532073b38c83145e3e5135377a08bf9aab55bc0fd7c1179cd4fb995d2a5159c600082604051808373ffffffffffffffffffffffffffffffffffffffff1673ffffffffffffffffffffffffffffffffffffffff1681526020018273ffffffffffffffffffffffffffffffffffffffff1673ffffffffffffffffffffffffffffffffffffffff1681526020019250505060405180910390a15060806040519081016040528073__SafeDecimalMath_______________________63907af6c06040518163ffffffff167c010000000000000000000000000000000000000000000000000000000002815260040160206040518083038186803b158015620002cd57600080fd5b505af4158015620002e2573d6000803e3d6000fd5b505050506040513d6020811015620002f957600080fd5b81019080805190602001909291905050506305f5e100028152602001635a9dda00815260200160016200034960016301e1338062000bf0640100000000026200132d179091906401000000009004565b635a9dda000103815260200173__SafeDecimalMath_______________________63907af6c06040518163ffffffff167c010000000000000000000000000000000000000000000000000000000002815260040160206040518083038186803b158015620003b657600080fd5b505af4158015620003cb573d6000803e3d6000fd5b505050506040513d6020811015620003e257600080fd5b81019080805190602001909291905050506305f5e10002815250600560006007811015156200040d57fe5b600402016000820151816000015560208201518160010155604082015181600201556060820151816003015590505060806040519081016040528073__SafeDecimalMath_______________________63907af6c06040518163ffffffff167c010000000000000000000000000000000000000000000000000000000002815260040160206040518083038186803b158015620004a957600080fd5b505af4158015620004be573d6000803e3d6000fd5b505050506040513d6020811015620004d557600080fd5b810190808051906020019092919050505063047868c00281526020016200051960016301e1338062000bf0640100000000026200132d179091906401000000009004565b635a9dda0001815260200160016200054e60026301e1338062000bf0640100000000026200132d179091906401000000009004565b635a9dda00010381526020016000815250600560016007811015156200057057fe5b600402016000820151816000015560208201518160010155604082015181600201556060820151816003015590505060806040519081016040528073__SafeDecimalMath_______________________63907af6c06040518163ffffffff167c010000000000000000000000000000000000000000000000000000000002815260040160206040518083038186803b1580156200060c57600080fd5b505af415801562000621573d6000803e3d6000fd5b505050506040513d60208110156200063857600080fd5b810190808051906020019092919050505063023c34600281526020016200067c60026301e1338062000bf0640100000000026200132d179091906401000000009004565b635a9dda000181526020016001620006b160036301e1338062000bf0640100000000026200132d179091906401000000009004565b635a9dda0001038152602001600081525060056002600781101515620006d357fe5b600402016000820151816000015560208201518160010155604082015181600201556060820151816003015590505060806040519081016040528073__SafeDecimalMath_______________________63907af6c06040518163ffffffff167c010000000000000000000000000000000000000000000000000000000002815260040160206040518083038186803b1580156200076f57600080fd5b505af415801562000784573d6000803e3d6000fd5b505050506040513d60208110156200079b57600080fd5b810190808051906020019092919050505063011e1a30028152602001620007df60036301e1338062000bf0640100000000026200132d179091906401000000009004565b635a9dda0001815260200160016200081460046301e1338062000bf0640100000000026200132d179091906401000000009004565b635a9dda00010381526020016000815250600560036007811015156200083657fe5b600402016000820151816000015560208201518160010155604082015181600201556060820151816003015590505060806040519081016040528073__SafeDecimalMath_______________________63907af6c06040518163ffffffff167c010000000000000000000000000000000000000000000000000000000002815260040160206040518083038186803b158015620008d257600080fd5b505af4158015620008e7573d6000803e3d6000fd5b505050506040513d6020811015620008fe57600080fd5b8101908080519060200190929190505050628f0d180281526020016200094160046301e1338062000bf0640100000000026200132d179091906401000000009004565b635a9dda0001815260200160016200097660056301e1338062000bf0640100000000026200132d179091906401000000009004565b635a9dda00010381526020016000815250600560046007811015156200099857fe5b600402016000820151816000015560208201518160010155604082015181600201556060820151816003015590505060806040519081016040528073__SafeDecimalMath_______________________63907af6c06040518163ffffffff167c010000000000000000000000000000000000000000000000000000000002815260040160206040518083038186803b15801562000a3457600080fd5b505af415801562000a49573d6000803e3d6000fd5b505050506040513d602081101562000a6057600080fd5b81019080805190602001909291905050506247868c02815260200162000aa360056301e1338062000bf0640100000000026200132d179091906401000000009004565b635a9dda00018152602001600162000ad860066301e1338062000bf0640100000000026200132d179091906401000000009004565b635a9dda0001038152602001600081525060058060078110151562000af957fe5b60040201600082015181600001556020820151816001015560408201518160020155606082015181600301559050506080604051908101604052806000815260200162000b6360066301e1338062000bf0640100000000026200132d179091906401000000009004565b635a9dda00018152602001600162000b9860076301e1338062000bf0640100000000026200132d179091906401000000009004565b635a9dda000103815260200160008152506005600660078110151562000bba57fe5b60040201600082015181600001556020820151816001015560408201518160020155606082015181600301559050505062000c32565b600080600084141562000c07576000915062000c2b565b828402905082848281151562000c1957fe5b0414151562000c2757600080fd5b8091505b5092915050565b61152e8062000c426000396000f300608060405260043610610149576000357c0100000000000000000000000000000000000000000000000000000000900463ffffffff16806307abcd9a1461014e57806311b92f80146101795780631627540c146101ba57806335ecdf1f146101fd578063372c6533146102285780633dbf6ea21461025357806346b45af71461027e57806349e70159146102ad5780634ae26521146102dc57806353a47bb714610309578063759b5225146103605780637838096d146103b757806379ba5097146103e85780638a1a5f3f146103ff5780638da5cb5b1461042a5780638f3a7a49146104815780639bdd7ac7146104ac578063b8da6bd5146104d7578063bdc6d9ab14610502578063be801f0114610558578063bfd7277f14610583578063cc5c095c146105ae578063cdf3c270146105d9578063e4cde88914610604578063fec9f9da1461062f575b600080fd5b34801561015a57600080fd5b50610163610672565b6040518082815260200191505060405180910390f35b34801561018557600080fd5b506101a460048036038101908080359060200190929190505050610693565b6040518082815260200191505060405180910390f35b3480156101c657600080fd5b506101fb600480360381019080803573ffffffffffffffffffffffffffffffffffffffff1690602001909291905050506106b1565b005b34801561020957600080fd5b50610212610842565b6040518082815260200191505060405180910390f35b34801561023457600080fd5b5061023d610863565b6040518082815260200191505060405180910390f35b34801561025f57600080fd5b5061026861086b565b6040518082815260200191505060405180910390f35b34801561028a57600080fd5b5061029361088c565b604051808215151515815260200191505060405180910390f35b3480156102b957600080fd5b506102c26108d0565b604051808215151515815260200191505060405180910390f35b3480156102e857600080fd5b5061030760048036038101908080359060200190929190505050610ae1565b005b34801561031557600080fd5b5061031e610c0c565b604051808273ffffffffffffffffffffffffffffffffffffffff1673ffffffffffffffffffffffffffffffffffffffff16815260200191505060405180910390f35b34801561036c57600080fd5b50610375610c32565b604051808273ffffffffffffffffffffffffffffffffffffffff1673ffffffffffffffffffffffffffffffffffffffff16815260200191505060405180910390f35b3480156103c357600080fd5b506103cc610c58565b604051808260ff1660ff16815260200191505060405180910390f35b3480156103f457600080fd5b506103fd610c5d565b005b34801561040b57600080fd5b50610414610ec8565b6040518082815260200191505060405180910390f35b34801561043657600080fd5b5061043f610fc6565b604051808273ffffffffffffffffffffffffffffffffffffffff1673ffffffffffffffffffffffffffffffffffffffff16815260200191505060405180910390f35b34801561048d57600080fd5b50610496610feb565b6040518082815260200191505060405180910390f35b3480156104b857600080fd5b506104c1610ff1565b6040518082815260200191505060405180910390f35b3480156104e357600080fd5b506104ec610ff7565b6040518082815260200191505060405180910390f35b34801561050e57600080fd5b5061052d60048036038101908080359060200190929190505050611018565b6040518085815260200184815260200183815260200182815260200194505050505060405180910390f35b34801561056457600080fd5b5061056d61104d565b6040518082815260200191505060405180910390f35b34801561058f57600080fd5b50610598611053565b6040518082815260200191505060405180910390f35b3480156105ba57600080fd5b506105c3611074565b6040518082815260200191505060405180910390f35b3480156105e557600080fd5b506105ee6111bd565b6040518082815260200191505060405180910390f35b34801561061057600080fd5b506106196111de565b6040518082815260200191505060405180910390f35b34801561063b57600080fd5b50610670600480360381019080803573ffffffffffffffffffffffffffffffffffffffff1690602001909291905050506111ff565b005b61068a60056301e1338061132d90919063ffffffff16565b635a9dda000181565b60006106aa6002548361136b90919063ffffffff16565b9050919050565b6000809054906101000a900473ffffffffffffffffffffffffffffffffffffffff1673ffffffffffffffffffffffffffffffffffffffff163373ffffffffffffffffffffffffffffffffffffffff1614151561079b576040517f08c379a000000000000000000000000000000000000000000000000000000000815260040180806020018281038252602f8152602001807f4f6e6c792074686520636f6e7472616374206f776e6572206d6179207065726681526020017f6f726d207468697320616374696f6e000000000000000000000000000000000081525060400191505060405180910390fd5b80600160006101000a81548173ffffffffffffffffffffffffffffffffffffffff021916908373ffffffffffffffffffffffffffffffffffffffff1602179055507f906a1c6bd7e3091ea86693dd029a831c19049ce77f1dce2ce0bab1cacbabce2281604051808273ffffffffffffffffffffffffffffffffffffffff1673ffffffffffffffffffffffffffffffffffffffff16815260200191505060405180910390a150565b61085a60076301e1338061132d90919063ffffffff16565b635a9dda000181565b635a9dda0081565b61088360046301e1338061132d90919063ffffffff16565b635a9dda000181565b6000806000905060025460035442031180156108bf5750600560066007811015156108b357fe5b60040201600201544211155b156108c957600190505b8091505090565b600080600080600460009054906101000a900473ffffffffffffffffffffffffffffffffffffffff1673ffffffffffffffffffffffffffffffffffffffff163373ffffffffffffffffffffffffffffffffffffffff161415156109c1576040517f08c379a00000000000000000000000000000000000000000000000000000000081526004018080602001828103825260338152602001807f4f6e6c79207468652073796e74686574697820636f6e74726163742063616e2081526020017f706572666f726d207468697320616374696f6e0000000000000000000000000081525060400191505060405180910390fd5b6109c9610ec8565b92506109d483611395565b91506109f0826109e2611074565b61143290919063ffffffff16565b90506000821115610a4557610a2782600560018603600781101515610a1157fe5b600402016003015461145390919063ffffffff16565b600560018503600781101515610a3957fe5b60040201600301819055505b610a6e81600585600781101515610a5857fe5b600402016003015461145390919063ffffffff16565b600584600781101515610a7d57fe5b600402016003018190555042600381905550827f601e517d4811033fed8290c79b7823ce1ab70258da45400fe2391a3c7432edab83834260405180848152602001838152602001828152602001935050505060405180910390a26001935050505090565b6000809054906101000a900473ffffffffffffffffffffffffffffffffffffffff1673ffffffffffffffffffffffffffffffffffffffff163373ffffffffffffffffffffffffffffffffffffffff16141515610bcb576040517f08c379a000000000000000000000000000000000000000000000000000000000815260040180806020018281038252602f8152602001807f4f6e6c792074686520636f6e7472616374206f776e6572206d6179207065726681526020017f6f726d207468697320616374696f6e000000000000000000000000000000000081525060400191505060405180910390fd5b806021819055507f036e0c635f8b7d9314bb6f2a577046108ef0f8b5e3869fbd29fd5a448ed99d30816040518082815260200191505060405180910390a150565b600160009054906101000a900473ffffffffffffffffffffffffffffffffffffffff1681565b600460009054906101000a900473ffffffffffffffffffffffffffffffffffffffff1681565b600781565b600160009054906101000a900473ffffffffffffffffffffffffffffffffffffffff1673ffffffffffffffffffffffffffffffffffffffff163373ffffffffffffffffffffffffffffffffffffffff16141515610d48576040517f08c379a00000000000000000000000000000000000000000000000000000000081526004018080602001828103825260358152602001807f596f75206d757374206265206e6f6d696e61746564206265666f726520796f7581526020017f2063616e20616363657074206f776e657273686970000000000000000000000081525060400191505060405180910390fd5b7fb532073b38c83145e3e5135377a08bf9aab55bc0fd7c1179cd4fb995d2a5159c6000809054906101000a900473ffffffffffffffffffffffffffffffffffffffff16600160009054906101000a900473ffffffffffffffffffffffffffffffffffffffff16604051808373ffffffffffffffffffffffffffffffffffffffff1673ffffffffffffffffffffffffffffffffffffffff1681526020018273ffffffffffffffffffffffffffffffffffffffff1673ffffffffffffffffffffffffffffffffffffffff1681526020019250505060405180910390a1600160009054906101000a900473ffffffffffffffffffffffffffffffffffffffff166000806101000a81548173ffffffffffffffffffffffffffffffffffffffff021916908373ffffffffffffffffffffffffffffffffffffffff1602179055506000600160006101000a81548173ffffffffffffffffffffffffffffffffffffffff021916908373ffffffffffffffffffffffffffffffffffffffff160217905550565b60008060056006600781101515610edb57fe5b60040201600201544211151515610f5a576040517f08c379a000000000000000000000000000000000000000000000000000000000815260040180806020018281038252601b8152602001807f4d696e7461626c6520706572696f6473206861766520656e646564000000000081525060200191505060405180910390fd5b600090505b600760ff16811015610fc15742600582600781101515610f7b57fe5b600402016001015411158015610fa7575042600582600781101515610f9c57fe5b600402016002015410155b15610fb457809150610fc2565b8080600101915050610f5f565b5b5090565b6000809054906101000a900473ffffffffffffffffffffffffffffffffffffffff1681565b60025481565b60215481565b61100f60026301e1338061132d90919063ffffffff16565b635a9dda000181565b60058160078110151561102757fe5b600402016000915090508060000154908060010154908060020154908060030154905084565b60035481565b61106b60036301e1338061132d90919063ffffffff16565b635a9dda000181565b60008060006110816114d9565b60008060008061108f61088c565b151561109e57600097506111b3565b6110a6610ec8565b96506110b187611395565b95506005876007811015156110c257fe5b6004020160806040519081016040529081600082015481526020016001820154815260200160028201548152602001600382015481525050945061111b600254866020015187604001510361136b90919063ffffffff16565b935061113484866000015161147490919063ffffffff16565b9250846020015160035410156111685761116361115e86602001514261143290919063ffffffff16565b610693565b611186565b6111856111806003544261143290919063ffffffff16565b610693565b5b915061119b82846114aa90919063ffffffff16565b90506111b0868261145390919063ffffffff16565b97505b5050505050505090565b6111d560066301e1338061132d90919063ffffffff16565b635a9dda000181565b6111f660016301e1338061132d90919063ffffffff16565b635a9dda000181565b6000809054906101000a900473ffffffffffffffffffffffffffffffffffffffff1673ffffffffffffffffffffffffffffffffffffffff163373ffffffffffffffffffffffffffffffffffffffff161415156112e9576040517f08c379a000000000000000000000000000000000000000000000000000000000815260040180806020018281038252602f8152602001807f4f6e6c792074686520636f6e7472616374206f776e6572206d6179207065726681526020017f6f726d207468697320616374696f6e000000000000000000000000000000000081525060400191505060405180910390fd5b80600460006101000a81548173ffffffffffffffffffffffffffffffffffffffff021916908373ffffffffffffffffffffffffffffffffffffffff16021790555050565b60008060008414156113425760009150611364565b828402905082848281151561135357fe5b0414151561136057600080fd5b8091505b5092915050565b60008060008311151561137d57600080fd5b828481151561138857fe5b0490508091505092915050565b60008060008314806113c157506005600184036007811015156113b457fe5b6004020160020154600354115b156113cf576000915061142c565b6114146005600185036007811015156113e457fe5b60040201600301546005600186036007811015156113fe57fe5b600402016000015461143290919063ffffffff16565b90506000811015611428576000915061142c565b8091505b50919050565b60008083831115151561144457600080fd5b82840390508091505092915050565b600080828401905083811015151561146a57600080fd5b8091505092915050565b60006114a282611494601260ff16600a0a8661132d90919063ffffffff16565b61136b90919063ffffffff16565b905092915050565b6000601260ff16600a0a6114c7838561132d90919063ffffffff16565b8115156114d057fe5b04905092915050565b6080604051908101604052806000815260200160008152602001600081526020016000815250905600a165627a7a72305820834a469af9b9ce353cb4fa42fb0e9196fdaed53ae9919bdd87ffaa99aa207b5a0029",
  "deployedBytecode": "0x608060405260043610610149576000357c0100000000000000000000000000000000000000000000000000000000900463ffffffff16806307abcd9a1461014e57806311b92f80146101795780631627540c146101ba57806335ecdf1f146101fd578063372c6533146102285780633dbf6ea21461025357806346b45af71461027e57806349e70159146102ad5780634ae26521146102dc57806353a47bb714610309578063759b5225146103605780637838096d146103b757806379ba5097146103e85780638a1a5f3f146103ff5780638da5cb5b1461042a5780638f3a7a49146104815780639bdd7ac7146104ac578063b8da6bd5146104d7578063bdc6d9ab14610502578063be801f0114610558578063bfd7277f14610583578063cc5c095c146105ae578063cdf3c270146105d9578063e4cde88914610604578063fec9f9da1461062f575b600080fd5b34801561015a57600080fd5b50610163610672565b6040518082815260200191505060405180910390f35b34801561018557600080fd5b506101a460048036038101908080359060200190929190505050610693565b6040518082815260200191505060405180910390f35b3480156101c657600080fd5b506101fb600480360381019080803573ffffffffffffffffffffffffffffffffffffffff1690602001909291905050506106b1565b005b34801561020957600080fd5b50610212610842565b6040518082815260200191505060405180910390f35b34801561023457600080fd5b5061023d610863565b6040518082815260200191505060405180910390f35b34801561025f57600080fd5b5061026861086b565b6040518082815260200191505060405180910390f35b34801561028a57600080fd5b5061029361088c565b604051808215151515815260200191505060405180910390f35b3480156102b957600080fd5b506102c26108d0565b604051808215151515815260200191505060405180910390f35b3480156102e857600080fd5b5061030760048036038101908080359060200190929190505050610ae1565b005b34801561031557600080fd5b5061031e610c0c565b604051808273ffffffffffffffffffffffffffffffffffffffff1673ffffffffffffffffffffffffffffffffffffffff16815260200191505060405180910390f35b34801561036c57600080fd5b50610375610c32565b604051808273ffffffffffffffffffffffffffffffffffffffff1673ffffffffffffffffffffffffffffffffffffffff16815260200191505060405180910390f35b3480156103c357600080fd5b506103cc610c58565b604051808260ff1660ff16815260200191505060405180910390f35b3480156103f457600080fd5b506103fd610c5d565b005b34801561040b57600080fd5b50610414610ec8565b6040518082815260200191505060405180910390f35b34801561043657600080fd5b5061043f610fc6565b604051808273ffffffffffffffffffffffffffffffffffffffff1673ffffffffffffffffffffffffffffffffffffffff16815260200191505060405180910390f35b34801561048d57600080fd5b50610496610feb565b6040518082815260200191505060405180910390f35b3480156104b857600080fd5b506104c1610ff1565b6040518082815260200191505060405180910390f35b3480156104e357600080fd5b506104ec610ff7565b6040518082815260200191505060405180910390f35b34801561050e57600080fd5b5061052d60048036038101908080359060200190929190505050611018565b6040518085815260200184815260200183815260200182815260200194505050505060405180910390f35b34801561056457600080fd5b5061056d61104d565b6040518082815260200191505060405180910390f35b34801561058f57600080fd5b50610598611053565b6040518082815260200191505060405180910390f35b3480156105ba57600080fd5b506105c3611074565b6040518082815260200191505060405180910390f35b3480156105e557600080fd5b506105ee6111bd565b6040518082815260200191505060405180910390f35b34801561061057600080fd5b506106196111de565b6040518082815260200191505060405180910390f35b34801561063b57600080fd5b50610670600480360381019080803573ffffffffffffffffffffffffffffffffffffffff1690602001909291905050506111ff565b005b61068a60056301e1338061132d90919063ffffffff16565b635a9dda000181565b60006106aa6002548361136b90919063ffffffff16565b9050919050565b6000809054906101000a900473ffffffffffffffffffffffffffffffffffffffff1673ffffffffffffffffffffffffffffffffffffffff163373ffffffffffffffffffffffffffffffffffffffff1614151561079b576040517f08c379a000000000000000000000000000000000000000000000000000000000815260040180806020018281038252602f8152602001807f4f6e6c792074686520636f6e7472616374206f776e6572206d6179207065726681526020017f6f726d207468697320616374696f6e000000000000000000000000000000000081525060400191505060405180910390fd5b80600160006101000a81548173ffffffffffffffffffffffffffffffffffffffff021916908373ffffffffffffffffffffffffffffffffffffffff1602179055507f906a1c6bd7e3091ea86693dd029a831c19049ce77f1dce2ce0bab1cacbabce2281604051808273ffffffffffffffffffffffffffffffffffffffff1673ffffffffffffffffffffffffffffffffffffffff16815260200191505060405180910390a150565b61085a60076301e1338061132d90919063ffffffff16565b635a9dda000181565b635a9dda0081565b61088360046301e1338061132d90919063ffffffff16565b635a9dda000181565b6000806000905060025460035442031180156108bf5750600560066007811015156108b357fe5b60040201600201544211155b156108c957600190505b8091505090565b600080600080600460009054906101000a900473ffffffffffffffffffffffffffffffffffffffff1673ffffffffffffffffffffffffffffffffffffffff163373ffffffffffffffffffffffffffffffffffffffff161415156109c1576040517f08c379a00000000000000000000000000000000000000000000000000000000081526004018080602001828103825260338152602001807f4f6e6c79207468652073796e74686574697820636f6e74726163742063616e2081526020017f706572666f726d207468697320616374696f6e0000000000000000000000000081525060400191505060405180910390fd5b6109c9610ec8565b92506109d483611395565b91506109f0826109e2611074565b61143290919063ffffffff16565b90506000821115610a4557610a2782600560018603600781101515610a1157fe5b600402016003015461145390919063ffffffff16565b600560018503600781101515610a3957fe5b60040201600301819055505b610a6e81600585600781101515610a5857fe5b600402016003015461145390919063ffffffff16565b600584600781101515610a7d57fe5b600402016003018190555042600381905550827f601e517d4811033fed8290c79b7823ce1ab70258da45400fe2391a3c7432edab83834260405180848152602001838152602001828152602001935050505060405180910390a26001935050505090565b6000809054906101000a900473ffffffffffffffffffffffffffffffffffffffff1673ffffffffffffffffffffffffffffffffffffffff163373ffffffffffffffffffffffffffffffffffffffff16141515610bcb576040517f08c379a000000000000000000000000000000000000000000000000000000000815260040180806020018281038252602f8152602001807f4f6e6c792074686520636f6e7472616374206f776e6572206d6179207065726681526020017f6f726d207468697320616374696f6e000000000000000000000000000000000081525060400191505060405180910390fd5b806021819055507f036e0c635f8b7d9314bb6f2a577046108ef0f8b5e3869fbd29fd5a448ed99d30816040518082815260200191505060405180910390a150565b600160009054906101000a900473ffffffffffffffffffffffffffffffffffffffff1681565b600460009054906101000a900473ffffffffffffffffffffffffffffffffffffffff1681565b600781565b600160009054906101000a900473ffffffffffffffffffffffffffffffffffffffff1673ffffffffffffffffffffffffffffffffffffffff163373ffffffffffffffffffffffffffffffffffffffff16141515610d48576040517f08c379a00000000000000000000000000000000000000000000000000000000081526004018080602001828103825260358152602001807f596f75206d757374206265206e6f6d696e61746564206265666f726520796f7581526020017f2063616e20616363657074206f776e657273686970000000000000000000000081525060400191505060405180910390fd5b7fb532073b38c83145e3e5135377a08bf9aab55bc0fd7c1179cd4fb995d2a5159c6000809054906101000a900473ffffffffffffffffffffffffffffffffffffffff16600160009054906101000a900473ffffffffffffffffffffffffffffffffffffffff16604051808373ffffffffffffffffffffffffffffffffffffffff1673ffffffffffffffffffffffffffffffffffffffff1681526020018273ffffffffffffffffffffffffffffffffffffffff1673ffffffffffffffffffffffffffffffffffffffff1681526020019250505060405180910390a1600160009054906101000a900473ffffffffffffffffffffffffffffffffffffffff166000806101000a81548173ffffffffffffffffffffffffffffffffffffffff021916908373ffffffffffffffffffffffffffffffffffffffff1602179055506000600160006101000a81548173ffffffffffffffffffffffffffffffffffffffff021916908373ffffffffffffffffffffffffffffffffffffffff160217905550565b60008060056006600781101515610edb57fe5b60040201600201544211151515610f5a576040517f08c379a000000000000000000000000000000000000000000000000000000000815260040180806020018281038252601b8152602001807f4d696e7461626c6520706572696f6473206861766520656e646564000000000081525060200191505060405180910390fd5b600090505b600760ff16811015610fc15742600582600781101515610f7b57fe5b600402016001015411158015610fa7575042600582600781101515610f9c57fe5b600402016002015410155b15610fb457809150610fc2565b8080600101915050610f5f565b5b5090565b6000809054906101000a900473ffffffffffffffffffffffffffffffffffffffff1681565b60025481565b60215481565b61100f60026301e1338061132d90919063ffffffff16565b635a9dda000181565b60058160078110151561102757fe5b600402016000915090508060000154908060010154908060020154908060030154905084565b60035481565b61106b60036301e1338061132d90919063ffffffff16565b635a9dda000181565b60008060006110816114d9565b60008060008061108f61088c565b151561109e57600097506111b3565b6110a6610ec8565b96506110b187611395565b95506005876007811015156110c257fe5b6004020160806040519081016040529081600082015481526020016001820154815260200160028201548152602001600382015481525050945061111b600254866020015187604001510361136b90919063ffffffff16565b935061113484866000015161147490919063ffffffff16565b9250846020015160035410156111685761116361115e86602001514261143290919063ffffffff16565b610693565b611186565b6111856111806003544261143290919063ffffffff16565b610693565b5b915061119b82846114aa90919063ffffffff16565b90506111b0868261145390919063ffffffff16565b97505b5050505050505090565b6111d560066301e1338061132d90919063ffffffff16565b635a9dda000181565b6111f660016301e1338061132d90919063ffffffff16565b635a9dda000181565b6000809054906101000a900473ffffffffffffffffffffffffffffffffffffffff1673ffffffffffffffffffffffffffffffffffffffff163373ffffffffffffffffffffffffffffffffffffffff161415156112e9576040517f08c379a000000000000000000000000000000000000000000000000000000000815260040180806020018281038252602f8152602001807f4f6e6c792074686520636f6e7472616374206f776e6572206d6179207065726681526020017f6f726d207468697320616374696f6e000000000000000000000000000000000081525060400191505060405180910390fd5b80600460006101000a81548173ffffffffffffffffffffffffffffffffffffffff021916908373ffffffffffffffffffffffffffffffffffffffff16021790555050565b60008060008414156113425760009150611364565b828402905082848281151561135357fe5b0414151561136057600080fd5b8091505b5092915050565b60008060008311151561137d57600080fd5b828481151561138857fe5b0490508091505092915050565b60008060008314806113c157506005600184036007811015156113b457fe5b6004020160020154600354115b156113cf576000915061142c565b6114146005600185036007811015156113e457fe5b60040201600301546005600186036007811015156113fe57fe5b600402016000015461143290919063ffffffff16565b90506000811015611428576000915061142c565b8091505b50919050565b60008083831115151561144457600080fd5b82840390508091505092915050565b600080828401905083811015151561146a57600080fd5b8091505092915050565b60006114a282611494601260ff16600a0a8661132d90919063ffffffff16565b61136b90919063ffffffff16565b905092915050565b6000601260ff16600a0a6114c7838561132d90919063ffffffff16565b8115156114d057fe5b04905092915050565b6080604051908101604052806000815260200160008152602001600081526020016000815250905600a165627a7a72305820834a469af9b9ce353cb4fa42fb0e9196fdaed53ae9919bdd87ffaa99aa207b5a0029",
  "source": "/*\n-----------------------------------------------------------------\nFILE INFORMATION\n-----------------------------------------------------------------\n\nfile:       SupplySchedule.sol\nversion:    1.0\nauthor:     Jackson Chan\n            Clinton Ennis\ndate:       2019-03-01\n\n-----------------------------------------------------------------\nMODULE DESCRIPTION\n-----------------------------------------------------------------\n\nSupply Schedule contract. SNX is a transferable ERC20 token.\n\nUser's get staking rewards as part of the incentives of\n+------+-------------+--------------+----------+\n| Year |  Increase   | Total Supply | Increase |\n+------+-------------+--------------+----------+\n|    1 |           0 |  100,000,000 |          |\n|    2 |  75,000,000 |  175,000,000 | 75%      |\n|    3 |  37,500,000 |  212,500,000 | 21%      |\n|    4 |  18,750,000 |  231,250,000 | 9%       |\n|    5 |   9,375,000 |  240,625,000 | 4%       |\n|    6 |   4,687,500 |  245,312,500 | 2%       |\n+------+-------------+--------------+----------+\n\n\n-----------------------------------------------------------------\n*/\n\npragma solidity 0.4.25;\n\nimport \"./SafeDecimalMath.sol\";\nimport \"./Owned.sol\";\nimport \"./Synthetix.sol\";\n\n/**\n * @title SupplySchedule contract\n */\ncontract SupplySchedule is Owned {\n    using SafeMath for uint;\n    using SafeDecimalMath for uint;\n\n    /* Storage */\n    struct ScheduleData {\n        // Total supply issuable during period\n        uint totalSupply;\n\n        // UTC Time - Start of the schedule\n        uint startPeriod;\n\n        // UTC Time - End of the schedule\n        uint endPeriod;\n\n        // UTC Time - Total of supply minted\n        uint totalSupplyMinted;\n    }\n\n    // How long each mint period is\n    uint public mintPeriodDuration = 1 weeks;\n\n    // time supply last minted\n    uint public lastMintEvent;\n\n    Synthetix public synthetix;\n\n    uint constant SECONDS_IN_YEAR = 60 * 60 * 24 * 365;\n\n    uint public constant START_DATE = 1520294400; // 2018-03-06T00:00:00+00:00\n    uint public constant YEAR_ONE = START_DATE + SECONDS_IN_YEAR.mul(1);\n    uint public constant YEAR_TWO = START_DATE + SECONDS_IN_YEAR.mul(2);\n    uint public constant YEAR_THREE = START_DATE + SECONDS_IN_YEAR.mul(3);\n    uint public constant YEAR_FOUR = START_DATE + SECONDS_IN_YEAR.mul(4);\n    uint public constant YEAR_FIVE = START_DATE + SECONDS_IN_YEAR.mul(5);\n    uint public constant YEAR_SIX = START_DATE + SECONDS_IN_YEAR.mul(6);\n    uint public constant YEAR_SEVEN = START_DATE + SECONDS_IN_YEAR.mul(7);\n\n    uint8 constant public INFLATION_SCHEDULES_LENGTH = 7;\n    ScheduleData[INFLATION_SCHEDULES_LENGTH] public schedules;\n\n    uint public minterReward = 200 * SafeDecimalMath.unit();\n\n    constructor(address _owner)\n        Owned(_owner)\n        public\n    {\n        // ScheduleData(totalSupply, startPeriod, endPeriod, totalSupplyMinted)\n        // Year 1 - Total supply 100,000,000\n        schedules[0] = ScheduleData(1e8 * SafeDecimalMath.unit(), START_DATE, YEAR_ONE - 1, 1e8 * SafeDecimalMath.unit());\n        schedules[1] = ScheduleData(75e6 * SafeDecimalMath.unit(), YEAR_ONE, YEAR_TWO - 1, 0); // Year 2 - Total supply 175,000,000\n        schedules[2] = ScheduleData(37.5e6 * SafeDecimalMath.unit(), YEAR_TWO, YEAR_THREE - 1, 0); // Year 3 - Total supply 212,500,000\n        schedules[3] = ScheduleData(18.75e6 * SafeDecimalMath.unit(), YEAR_THREE, YEAR_FOUR - 1, 0); // Year 4 - Total supply 231,250,000\n        schedules[4] = ScheduleData(9.375e6 * SafeDecimalMath.unit(), YEAR_FOUR, YEAR_FIVE - 1, 0); // Year 5 - Total supply 240,625,000\n        schedules[5] = ScheduleData(4.6875e6 * SafeDecimalMath.unit(), YEAR_FIVE, YEAR_SIX - 1, 0); // Year 6 - Total supply 245,312,500\n        schedules[6] = ScheduleData(0, YEAR_SIX, YEAR_SEVEN - 1, 0); // Year 7 - Total supply 245,312,500\n    }\n\n    // ========== SETTERS ========== */\n    function setSynthetix(Synthetix _synthetix)\n        external\n        onlyOwner\n    {\n        synthetix = _synthetix;\n        // emit event\n    }\n\n    // ========== VIEWS ==========\n    function mintableSupply()\n        public\n        view\n        returns (uint)\n    {\n        if (!isMintable()) {\n            return 0;\n        }\n\n        uint index = getCurrentSchedule();\n\n        // Calculate previous year's mintable supply\n        uint amountPreviousPeriod = _remainingSupplyFromPreviousYear(index);\n\n        /* solium-disable */\n\n        // Last mint event within current period will use difference in (now - lastMintEvent)\n        // Last mint event not set (0) / outside of current Period will use current Period\n        // start time resolved in (now - schedule.startPeriod)\n        ScheduleData memory schedule = schedules[index];\n\n        uint weeksInPeriod = (schedule.endPeriod - schedule.startPeriod).div(mintPeriodDuration);\n\n        uint supplyPerWeek = schedule.totalSupply.divideDecimal(weeksInPeriod);\n\n        uint weeksToMint = lastMintEvent >= schedule.startPeriod ? _numWeeksRoundedDown(now.sub(lastMintEvent)) : _numWeeksRoundedDown(now.sub(schedule.startPeriod));\n        // /* solium-enable */\n\n        uint amountInPeriod = supplyPerWeek.multiplyDecimal(weeksToMint);\n        return amountInPeriod.add(amountPreviousPeriod);\n    }\n\n    function _numWeeksRoundedDown(uint _timeDiff)\n        public\n        view\n        returns (uint)\n    {\n        // Take timeDiff in seconds (Dividend) and mintPeriodDuration as (Divisor)\n        // Calculate the numberOfWeeks since last mint rounded down to 1 week\n        // Fraction of a week will return 0\n        return _timeDiff.div(mintPeriodDuration);\n    }\n\n    function isMintable()\n        public\n        view\n        returns (bool)\n    {\n        bool mintable = false;\n        if (now - lastMintEvent > mintPeriodDuration && now <= schedules[6].endPeriod) // Ensure time is not after end of Year 7\n        {\n            mintable = true;\n        }\n        return mintable;\n    }\n\n    // Return the current schedule based on the timestamp\n    // applicable based on startPeriod and endPeriod\n    function getCurrentSchedule()\n        public\n        view\n        returns (uint)\n    {\n        require(now <= schedules[6].endPeriod, \"Mintable periods have ended\");\n\n        for (uint i = 0; i < INFLATION_SCHEDULES_LENGTH; i++) {\n            if (schedules[i].startPeriod <= now && schedules[i].endPeriod >= now) {\n                return i;\n            }\n        }\n    }\n\n    function _remainingSupplyFromPreviousYear(uint currentSchedule)\n        internal\n        view\n        returns (uint)\n    {\n        // All supply has been minted for previous period if last minting event is after\n        // the endPeriod for last year\n        if (currentSchedule == 0 || lastMintEvent > schedules[currentSchedule - 1].endPeriod) {\n            return 0;\n        }\n\n        // return the remaining supply to be minted for previous period missed\n        uint amountInPeriod = schedules[currentSchedule - 1].totalSupply.sub(schedules[currentSchedule - 1].totalSupplyMinted);\n\n        // Ensure previous period remaining amount is not less than 0\n        if (amountInPeriod < 0) {\n            return 0;\n        }\n\n        return amountInPeriod;\n    }\n\n    // ========== MUTATIVE FUNCTIONS ==========\n    function updateMintValues()\n        external\n        onlySynthetix\n        returns (bool)\n    {\n        // Will fail if the time is outside of schedules\n        uint currentIndex = getCurrentSchedule();\n        uint lastPeriodAmount = _remainingSupplyFromPreviousYear(currentIndex);\n        uint currentPeriodAmount = mintableSupply().sub(lastPeriodAmount);\n\n        // Update schedule[n - 1].totalSupplyMinted\n        if (lastPeriodAmount > 0) {\n            schedules[currentIndex - 1].totalSupplyMinted = schedules[currentIndex - 1].totalSupplyMinted.add(lastPeriodAmount);\n        }\n\n        // Update schedule.totalSupplyMinted for currentSchedule\n        schedules[currentIndex].totalSupplyMinted = schedules[currentIndex].totalSupplyMinted.add(currentPeriodAmount);\n        // Update mint event to now\n        lastMintEvent = now;\n\n        emit SupplyMinted(lastPeriodAmount, currentPeriodAmount, currentIndex, now);\n        return true;\n    }\n\n    function setMinterReward(uint _amount)\n        external\n        onlyOwner\n    {\n        minterReward = _amount;\n        emit MinterRewardUpdated(_amount);\n    }\n\n    // ========== MODIFIERS ==========\n\n    modifier onlySynthetix() {\n        require(msg.sender == address(synthetix), \"Only the synthetix contract can perform this action\");\n        _;\n    }\n\n    /* ========== EVENTS ========== */\n\n    event SupplyMinted(uint previousPeriodAmount, uint currentAmount, uint indexed schedule, uint timestamp);\n    event MinterRewardUpdated(uint newRewardAmount);\n}\n",
  "sourcePath": "/Users/hz/workspace/synthetix/contracts/SupplySchedule.sol",
  "compiler": {
    "name": "solc",
    "version": "0.4.25+commit.59dbf8f1.Emscripten.clang"
  },
  "schemaVersion": "2.0.2",
  "updatedAt": "2019-09-19T02:10:36.498Z"
}