{
  "contractName": "Synthetix",
  "abi": [
    {
      "constant": true,
      "inputs": [],
      "name": "name",
      "outputs": [
        {
          "name": "",
          "type": "string"
        }
      ],
      "payable": false,
      "stateMutability": "view",
      "type": "function"
    },
    {
      "constant": false,
      "inputs": [
        {
          "name": "spender",
          "type": "address"
        },
        {
          "name": "value",
          "type": "uint256"
        }
      ],
      "name": "approve",
      "outputs": [
        {
          "name": "",
          "type": "bool"
        }
      ],
      "payable": false,
      "stateMutability": "nonpayable",
      "type": "function"
    },
    {
      "constant": false,
      "inputs": [
        {
          "name": "_integrationProxy",
          "type": "address"
        }
      ],
      "name": "setIntegrationProxy",
      "outputs": [],
      "payable": false,
      "stateMutability": "nonpayable",
      "type": "function"
    },
    {
      "constant": false,
      "inputs": [
        {
          "name": "_owner",
          "type": "address"
        }
      ],
      "name": "nominateNewOwner",
      "outputs": [],
      "payable": false,
      "stateMutability": "nonpayable",
      "type": "function"
    },
    {
      "constant": true,
      "inputs": [],
      "name": "initiationTime",
      "outputs": [
        {
          "name": "",
          "type": "uint256"
        }
      ],
      "payable": false,
      "stateMutability": "view",
      "type": "function"
    },
    {
      "constant": true,
      "inputs": [],
      "name": "totalSupply",
      "outputs": [
        {
          "name": "",
          "type": "uint256"
        }
      ],
      "payable": false,
      "stateMutability": "view",
      "type": "function"
    },
    {
      "constant": false,
      "inputs": [
        {
          "name": "_beneficiary",
          "type": "address"
        }
      ],
      "name": "setSelfDestructBeneficiary",
      "outputs": [],
      "payable": false,
      "stateMutability": "nonpayable",
      "type": "function"
    },
    {
      "constant": true,
      "inputs": [],
      "name": "decimals",
      "outputs": [
        {
          "name": "",
          "type": "uint8"
        }
      ],
      "payable": false,
      "stateMutability": "view",
      "type": "function"
    },
    {
      "constant": false,
      "inputs": [],
      "name": "terminateSelfDestruct",
      "outputs": [],
      "payable": false,
      "stateMutability": "nonpayable",
      "type": "function"
    },
    {
      "constant": true,
      "inputs": [],
      "name": "rewardsDistribution",
      "outputs": [
        {
          "name": "",
          "type": "address"
        }
      ],
      "payable": false,
      "stateMutability": "view",
      "type": "function"
    },
    {
      "constant": true,
      "inputs": [],
      "name": "exchangeRates",
      "outputs": [
        {
          "name": "",
          "type": "address"
        }
      ],
      "payable": false,
      "stateMutability": "view",
      "type": "function"
    },
    {
      "constant": true,
      "inputs": [
        {
          "name": "",
          "type": "bytes4"
        }
      ],
      "name": "synths",
      "outputs": [
        {
          "name": "",
          "type": "address"
        }
      ],
      "payable": false,
      "stateMutability": "view",
      "type": "function"
    },
    {
      "constant": true,
      "inputs": [],
      "name": "nominatedOwner",
      "outputs": [
        {
          "name": "",
          "type": "address"
        }
      ],
      "payable": false,
      "stateMutability": "view",
      "type": "function"
    },
    {
      "constant": true,
      "inputs": [
        {
          "name": "account",
          "type": "address"
        }
      ],
      "name": "balanceOf",
      "outputs": [
        {
          "name": "",
          "type": "uint256"
        }
      ],
      "payable": false,
      "stateMutability": "view",
      "type": "function"
    },
    {
      "constant": false,
      "inputs": [],
      "name": "acceptOwnership",
      "outputs": [],
      "payable": false,
      "stateMutability": "nonpayable",
      "type": "function"
    },
    {
      "constant": true,
      "inputs": [
        {
          "name": "",
          "type": "uint256"
        }
      ],
      "name": "availableSynths",
      "outputs": [
        {
          "name": "",
          "type": "address"
        }
      ],
      "payable": false,
      "stateMutability": "view",
      "type": "function"
    },
    {
      "constant": true,
      "inputs": [],
      "name": "owner",
      "outputs": [
        {
          "name": "",
          "type": "address"
        }
      ],
      "payable": false,
      "stateMutability": "view",
      "type": "function"
    },
    {
      "constant": true,
      "inputs": [],
      "name": "symbol",
      "outputs": [
        {
          "name": "",
          "type": "string"
        }
      ],
      "payable": false,
      "stateMutability": "view",
      "type": "function"
    },
    {
      "constant": false,
      "inputs": [
        {
          "name": "_proxy",
          "type": "address"
        }
      ],
      "name": "setProxy",
      "outputs": [],
      "payable": false,
      "stateMutability": "nonpayable",
      "type": "function"
    },
    {
      "constant": false,
      "inputs": [],
      "name": "selfDestruct",
      "outputs": [],
      "payable": false,
      "stateMutability": "nonpayable",
      "type": "function"
    },
    {
      "constant": true,
      "inputs": [],
      "name": "integrationProxy",
      "outputs": [
        {
          "name": "",
          "type": "address"
        }
      ],
      "payable": false,
      "stateMutability": "view",
      "type": "function"
    },
    {
      "constant": false,
      "inputs": [
        {
          "name": "_tokenState",
          "type": "address"
        }
      ],
      "name": "setTokenState",
      "outputs": [],
      "payable": false,
      "stateMutability": "nonpayable",
      "type": "function"
    },
    {
      "constant": true,
      "inputs": [],
      "name": "rewardEscrow",
      "outputs": [
        {
          "name": "",
          "type": "address"
        }
      ],
      "payable": false,
      "stateMutability": "view",
      "type": "function"
    },
    {
      "constant": true,
      "inputs": [],
      "name": "SELFDESTRUCT_DELAY",
      "outputs": [
        {
          "name": "",
          "type": "uint256"
        }
      ],
      "payable": false,
      "stateMutability": "view",
      "type": "function"
    },
    {
      "constant": true,
      "inputs": [],
      "name": "feePool",
      "outputs": [
        {
          "name": "",
          "type": "address"
        }
      ],
      "payable": false,
      "stateMutability": "view",
      "type": "function"
    },
    {
      "constant": true,
      "inputs": [],
      "name": "selfDestructInitiated",
      "outputs": [
        {
          "name": "",
          "type": "bool"
        }
      ],
      "payable": false,
      "stateMutability": "view",
      "type": "function"
    },
    {
      "constant": false,
      "inputs": [
        {
          "name": "sender",
          "type": "address"
        }
      ],
      "name": "setMessageSender",
      "outputs": [],
      "payable": false,
      "stateMutability": "nonpayable",
      "type": "function"
    },
    {
      "constant": false,
      "inputs": [],
      "name": "initiateSelfDestruct",
      "outputs": [],
      "payable": false,
      "stateMutability": "nonpayable",
      "type": "function"
    },
    {
      "constant": true,
      "inputs": [],
      "name": "supplySchedule",
      "outputs": [
        {
          "name": "",
          "type": "address"
        }
      ],
      "payable": false,
      "stateMutability": "view",
      "type": "function"
    },
    {
      "constant": true,
      "inputs": [],
      "name": "selfDestructBeneficiary",
      "outputs": [
        {
          "name": "",
          "type": "address"
        }
      ],
      "payable": false,
      "stateMutability": "view",
      "type": "function"
    },
    {
      "constant": true,
      "inputs": [],
      "name": "synthetixState",
      "outputs": [
        {
          "name": "",
          "type": "address"
        }
      ],
      "payable": false,
      "stateMutability": "view",
      "type": "function"
    },
    {
      "constant": true,
      "inputs": [
        {
          "name": "owner",
          "type": "address"
        },
        {
          "name": "spender",
          "type": "address"
        }
      ],
      "name": "allowance",
      "outputs": [
        {
          "name": "",
          "type": "uint256"
        }
      ],
      "payable": false,
      "stateMutability": "view",
      "type": "function"
    },
    {
      "constant": true,
      "inputs": [],
      "name": "escrow",
      "outputs": [
        {
          "name": "",
          "type": "address"
        }
      ],
      "payable": false,
      "stateMutability": "view",
      "type": "function"
    },
    {
      "constant": true,
      "inputs": [],
      "name": "tokenState",
      "outputs": [
        {
          "name": "",
          "type": "address"
        }
      ],
      "payable": false,
      "stateMutability": "view",
      "type": "function"
    },
    {
      "constant": true,
      "inputs": [],
      "name": "proxy",
      "outputs": [
        {
          "name": "",
          "type": "address"
        }
      ],
      "payable": false,
      "stateMutability": "view",
      "type": "function"
    },
    {
      "constant": true,
      "inputs": [],
      "name": "exchangeEnabled",
      "outputs": [
        {
          "name": "",
          "type": "bool"
        }
      ],
      "payable": false,
      "stateMutability": "view",
      "type": "function"
    },
    {
      "inputs": [
        {
          "name": "_proxy",
          "type": "address"
        },
        {
          "name": "_tokenState",
          "type": "address"
        },
        {
          "name": "_synthetixState",
          "type": "address"
        },
        {
          "name": "_owner",
          "type": "address"
        },
        {
          "name": "_exchangeRates",
          "type": "address"
        },
        {
          "name": "_feePool",
          "type": "address"
        },
        {
          "name": "_supplySchedule",
          "type": "address"
        },
        {
          "name": "_rewardEscrow",
          "type": "address"
        },
        {
          "name": "_escrow",
          "type": "address"
        },
        {
          "name": "_rewardsDistribution",
          "type": "address"
        },
        {
          "name": "_totalSupply",
          "type": "uint256"
        }
      ],
      "payable": false,
      "stateMutability": "nonpayable",
      "type": "constructor"
    },
    {
      "anonymous": false,
      "inputs": [
        {
          "indexed": true,
          "name": "account",
          "type": "address"
        },
        {
          "indexed": false,
          "name": "fromCurrencyKey",
          "type": "bytes4"
        },
        {
          "indexed": false,
          "name": "fromAmount",
          "type": "uint256"
        },
        {
          "indexed": false,
          "name": "toCurrencyKey",
          "type": "bytes4"
        },
        {
          "indexed": false,
          "name": "toAmount",
          "type": "uint256"
        },
        {
          "indexed": false,
          "name": "toAddress",
          "type": "address"
        }
      ],
      "name": "SynthExchange",
      "type": "event"
    },
    {
      "anonymous": false,
      "inputs": [
        {
          "indexed": true,
          "name": "from",
          "type": "address"
        },
        {
          "indexed": true,
          "name": "to",
          "type": "address"
        },
        {
          "indexed": false,
          "name": "value",
          "type": "uint256"
        }
      ],
      "name": "Transfer",
      "type": "event"
    },
    {
      "anonymous": false,
      "inputs": [
        {
          "indexed": true,
          "name": "owner",
          "type": "address"
        },
        {
          "indexed": true,
          "name": "spender",
          "type": "address"
        },
        {
          "indexed": false,
          "name": "value",
          "type": "uint256"
        }
      ],
      "name": "Approval",
      "type": "event"
    },
    {
      "anonymous": false,
      "inputs": [
        {
          "indexed": false,
          "name": "newTokenState",
          "type": "address"
        }
      ],
      "name": "TokenStateUpdated",
      "type": "event"
    },
    {
      "anonymous": false,
      "inputs": [
        {
          "indexed": false,
          "name": "proxyAddress",
          "type": "address"
        }
      ],
      "name": "ProxyUpdated",
      "type": "event"
    },
    {
      "anonymous": false,
      "inputs": [],
      "name": "SelfDestructTerminated",
      "type": "event"
    },
    {
      "anonymous": false,
      "inputs": [
        {
          "indexed": false,
          "name": "beneficiary",
          "type": "address"
        }
      ],
      "name": "SelfDestructed",
      "type": "event"
    },
    {
      "anonymous": false,
      "inputs": [
        {
          "indexed": false,
          "name": "selfDestructDelay",
          "type": "uint256"
        }
      ],
      "name": "SelfDestructInitiated",
      "type": "event"
    },
    {
      "anonymous": false,
      "inputs": [
        {
          "indexed": false,
          "name": "newBeneficiary",
          "type": "address"
        }
      ],
      "name": "SelfDestructBeneficiaryUpdated",
      "type": "event"
    },
    {
      "anonymous": false,
      "inputs": [
        {
          "indexed": false,
          "name": "newOwner",
          "type": "address"
        }
      ],
      "name": "OwnerNominated",
      "type": "event"
    },
    {
      "anonymous": false,
      "inputs": [
        {
          "indexed": false,
          "name": "oldOwner",
          "type": "address"
        },
        {
          "indexed": false,
          "name": "newOwner",
          "type": "address"
        }
      ],
      "name": "OwnerChanged",
      "type": "event"
    },
    {
      "constant": false,
      "inputs": [
        {
          "name": "_feePool",
          "type": "address"
        }
      ],
      "name": "setFeePool",
      "outputs": [],
      "payable": false,
      "stateMutability": "nonpayable",
      "type": "function"
    },
    {
      "constant": false,
      "inputs": [
        {
          "name": "_exchangeRates",
          "type": "address"
        }
      ],
      "name": "setExchangeRates",
      "outputs": [],
      "payable": false,
      "stateMutability": "nonpayable",
      "type": "function"
    },
    {
      "constant": false,
      "inputs": [
        {
          "name": "_protectionCircuitIsActivated",
          "type": "bool"
        }
      ],
      "name": "setProtectionCircuit",
      "outputs": [],
      "payable": false,
      "stateMutability": "nonpayable",
      "type": "function"
    },
    {
      "constant": false,
      "inputs": [
        {
          "name": "_exchangeEnabled",
          "type": "bool"
        }
      ],
      "name": "setExchangeEnabled",
      "outputs": [],
      "payable": false,
      "stateMutability": "nonpayable",
      "type": "function"
    },
    {
      "constant": false,
      "inputs": [
        {
          "name": "synth",
          "type": "address"
        }
      ],
      "name": "addSynth",
      "outputs": [],
      "payable": false,
      "stateMutability": "nonpayable",
      "type": "function"
    },
    {
      "constant": false,
      "inputs": [
        {
          "name": "currencyKey",
          "type": "bytes4"
        }
      ],
      "name": "removeSynth",
      "outputs": [],
      "payable": false,
      "stateMutability": "nonpayable",
      "type": "function"
    },
    {
      "constant": true,
      "inputs": [
        {
          "name": "sourceCurrencyKey",
          "type": "bytes4"
        },
        {
          "name": "sourceAmount",
          "type": "uint256"
        },
        {
          "name": "destinationCurrencyKey",
          "type": "bytes4"
        }
      ],
      "name": "effectiveValue",
      "outputs": [
        {
          "name": "",
          "type": "uint256"
        }
      ],
      "payable": false,
      "stateMutability": "view",
      "type": "function"
    },
    {
      "constant": true,
      "inputs": [
        {
          "name": "currencyKey",
          "type": "bytes4"
        }
      ],
      "name": "totalIssuedSynths",
      "outputs": [
        {
          "name": "",
          "type": "uint256"
        }
      ],
      "payable": false,
      "stateMutability": "view",
      "type": "function"
    },
    {
      "constant": true,
      "inputs": [],
      "name": "availableCurrencyKeys",
      "outputs": [
        {
          "name": "",
          "type": "bytes4[]"
        }
      ],
      "payable": false,
      "stateMutability": "view",
      "type": "function"
    },
    {
      "constant": true,
      "inputs": [],
      "name": "availableSynthCount",
      "outputs": [
        {
          "name": "",
          "type": "uint256"
        }
      ],
      "payable": false,
      "stateMutability": "view",
      "type": "function"
    },
    {
      "constant": false,
      "inputs": [
        {
          "name": "to",
          "type": "address"
        },
        {
          "name": "value",
          "type": "uint256"
        },
        {
          "name": "data",
          "type": "bytes"
        }
      ],
      "name": "transfer",
      "outputs": [
        {
          "name": "",
          "type": "bool"
        }
      ],
      "payable": false,
      "stateMutability": "nonpayable",
      "type": "function"
    },
    {
      "constant": false,
      "inputs": [
        {
          "name": "to",
          "type": "address"
        },
        {
          "name": "value",
          "type": "uint256"
        }
      ],
      "name": "transfer",
      "outputs": [
        {
          "name": "",
          "type": "bool"
        }
      ],
      "payable": false,
      "stateMutability": "nonpayable",
      "type": "function"
    },
    {
      "constant": false,
      "inputs": [
        {
          "name": "from",
          "type": "address"
        },
        {
          "name": "to",
          "type": "address"
        },
        {
          "name": "value",
          "type": "uint256"
        }
      ],
      "name": "transferFrom",
      "outputs": [
        {
          "name": "",
          "type": "bool"
        }
      ],
      "payable": false,
      "stateMutability": "nonpayable",
      "type": "function"
    },
    {
      "constant": false,
      "inputs": [
        {
          "name": "from",
          "type": "address"
        },
        {
          "name": "to",
          "type": "address"
        },
        {
          "name": "value",
          "type": "uint256"
        },
        {
          "name": "data",
          "type": "bytes"
        }
      ],
      "name": "transferFrom",
      "outputs": [
        {
          "name": "",
          "type": "bool"
        }
      ],
      "payable": false,
      "stateMutability": "nonpayable",
      "type": "function"
    },
    {
      "constant": false,
      "inputs": [
        {
          "name": "sourceCurrencyKey",
          "type": "bytes4"
        },
        {
          "name": "sourceAmount",
          "type": "uint256"
        },
        {
          "name": "destinationCurrencyKey",
          "type": "bytes4"
        },
        {
          "name": "destinationAddress",
          "type": "address"
        }
      ],
      "name": "exchange",
      "outputs": [
        {
          "name": "",
          "type": "bool"
        }
      ],
      "payable": false,
      "stateMutability": "nonpayable",
      "type": "function"
    },
    {
      "constant": false,
      "inputs": [
        {
          "name": "from",
          "type": "address"
        },
        {
          "name": "sourceCurrencyKey",
          "type": "bytes4"
        },
        {
          "name": "sourceAmount",
          "type": "uint256"
        },
        {
          "name": "destinationCurrencyKey",
          "type": "bytes4"
        },
        {
          "name": "destinationAddress",
          "type": "address"
        }
      ],
      "name": "synthInitiatedExchange",
      "outputs": [
        {
          "name": "",
          "type": "bool"
        }
      ],
      "payable": false,
      "stateMutability": "nonpayable",
      "type": "function"
    },
    {
      "constant": false,
      "inputs": [
        {
          "name": "from",
          "type": "address"
        },
        {
          "name": "sourceCurrencyKey",
          "type": "bytes4"
        },
        {
          "name": "sourceAmount",
          "type": "uint256"
        }
      ],
      "name": "synthInitiatedFeePayment",
      "outputs": [
        {
          "name": "",
          "type": "bool"
        }
      ],
      "payable": false,
      "stateMutability": "nonpayable",
      "type": "function"
    },
    {
      "constant": false,
      "inputs": [
        {
          "name": "currencyKey",
          "type": "bytes4"
        },
        {
          "name": "amount",
          "type": "uint256"
        }
      ],
      "name": "issueSynths",
      "outputs": [],
      "payable": false,
      "stateMutability": "nonpayable",
      "type": "function"
    },
    {
      "constant": false,
      "inputs": [
        {
          "name": "currencyKey",
          "type": "bytes4"
        }
      ],
      "name": "issueMaxSynths",
      "outputs": [],
      "payable": false,
      "stateMutability": "nonpayable",
      "type": "function"
    },
    {
      "constant": false,
      "inputs": [
        {
          "name": "currencyKey",
          "type": "bytes4"
        },
        {
          "name": "amount",
          "type": "uint256"
        }
      ],
      "name": "burnSynths",
      "outputs": [],
      "payable": false,
      "stateMutability": "nonpayable",
      "type": "function"
    },
    {
      "constant": true,
      "inputs": [
        {
          "name": "issuer",
          "type": "address"
        },
        {
          "name": "currencyKey",
          "type": "bytes4"
        }
      ],
      "name": "maxIssuableSynths",
      "outputs": [
        {
          "name": "",
          "type": "uint256"
        }
      ],
      "payable": false,
      "stateMutability": "view",
      "type": "function"
    },
    {
      "constant": true,
      "inputs": [
        {
          "name": "issuer",
          "type": "address"
        }
      ],
      "name": "collateralisationRatio",
      "outputs": [
        {
          "name": "",
          "type": "uint256"
        }
      ],
      "payable": false,
      "stateMutability": "view",
      "type": "function"
    },
    {
      "constant": true,
      "inputs": [
        {
          "name": "issuer",
          "type": "address"
        },
        {
          "name": "currencyKey",
          "type": "bytes4"
        }
      ],
      "name": "debtBalanceOf",
      "outputs": [
        {
          "name": "",
          "type": "uint256"
        }
      ],
      "payable": false,
      "stateMutability": "view",
      "type": "function"
    },
    {
      "constant": true,
      "inputs": [
        {
          "name": "issuer",
          "type": "address"
        },
        {
          "name": "currencyKey",
          "type": "bytes4"
        }
      ],
      "name": "remainingIssuableSynths",
      "outputs": [
        {
          "name": "",
          "type": "uint256"
        }
      ],
      "payable": false,
      "stateMutability": "view",
      "type": "function"
    },
    {
      "constant": true,
      "inputs": [
        {
          "name": "account",
          "type": "address"
        }
      ],
      "name": "collateral",
      "outputs": [
        {
          "name": "",
          "type": "uint256"
        }
      ],
      "payable": false,
      "stateMutability": "view",
      "type": "function"
    },
    {
      "constant": true,
      "inputs": [
        {
          "name": "account",
          "type": "address"
        }
      ],
      "name": "transferableSynthetix",
      "outputs": [
        {
          "name": "",
          "type": "uint256"
        }
      ],
      "payable": false,
      "stateMutability": "view",
      "type": "function"
    },
    {
      "constant": false,
      "inputs": [],
      "name": "mint",
      "outputs": [
        {
          "name": "",
          "type": "bool"
        }
      ],
      "payable": false,
      "stateMutability": "nonpayable",
      "type": "function"
    }
  ],
  "bytecode": "0x60806040526000600660146101000a81548160ff02191690831515021790555060006014806101000a81548160ff0219169083151502179055506001601460156101000a81548160ff0219169083151502179055503480156200006157600080fd5b50604051610160806200b75583398101806040528101908080519060200190929190805190602001909291908051906020019092919080519060200190929190805190602001909291908051906020019092919080519060200190929190805190602001909291908051906020019092919080519060200190929190805190602001909291905050508a8a6040805190810160405280601781526020017f53796e746865746978204e6574776f726b20546f6b656e0000000000000000008152506040805190810160405280600381526020017f534e5800000000000000000000000000000000000000000000000000000000008152508460128d86818281600073ffffffffffffffffffffffffffffffffffffffff168173ffffffffffffffffffffffffffffffffffffffff161415151562000206576040517f08c379a00000000000000000000000000000000000000000000000000000000081526004018080602001828103825260198152602001807f4f776e657220616464726573732063616e6e6f7420626520300000000000000081525060200191505060405180910390fd5b806000806101000a81548173ffffffffffffffffffffffffffffffffffffffff021916908373ffffffffffffffffffffffffffffffffffffffff1602179055507fb532073b38c83145e3e5135377a08bf9aab55bc0fd7c1179cd4fb995d2a5159c600082604051808373ffffffffffffffffffffffffffffffffffffffff1673ffffffffffffffffffffffffffffffffffffffff1681526020018273ffffffffffffffffffffffffffffffffffffffff1673ffffffffffffffffffffffffffffffffffffffff1681526020019250505060405180910390a150600073ffffffffffffffffffffffffffffffffffffffff168173ffffffffffffffffffffffffffffffffffffffff161415151562000385576040517f08c379a00000000000000000000000000000000000000000000000000000000081526004018080602001828103825260168152602001807f4f776e6572206d757374206e6f74206265207a65726f0000000000000000000081525060200191505060405180910390fd5b80600360016101000a81548173ffffffffffffffffffffffffffffffffffffffff021916908373ffffffffffffffffffffffffffffffffffffffff1602179055507fd5da63a0b864b315bc04128dedbc93888c8529ee6cf47ce664dc204339228c5381604051808273ffffffffffffffffffffffffffffffffffffffff1673ffffffffffffffffffffffffffffffffffffffff16815260200191505060405180910390a15081600460006101000a81548173ffffffffffffffffffffffffffffffffffffffff021916908373ffffffffffffffffffffffffffffffffffffffff1602179055507ffc80377ca9c49cc11ae6982f390a42db976d5530af7c43889264b13fbbd7c57e82604051808273ffffffffffffffffffffffffffffffffffffffff1673ffffffffffffffffffffffffffffffffffffffff16815260200191505060405180910390a1505085600760006101000a81548173ffffffffffffffffffffffffffffffffffffffff021916908373ffffffffffffffffffffffffffffffffffffffff16021790555084600890805190602001906200052992919062000744565b5083600990805190602001906200054292919062000744565b5082600a8190555081600b60006101000a81548160ff021916908360ff1602179055505050505050505088601260006101000a81548173ffffffffffffffffffffffffffffffffffffffff021916908373ffffffffffffffffffffffffffffffffffffffff16021790555086601160006101000a81548173ffffffffffffffffffffffffffffffffffffffff021916908373ffffffffffffffffffffffffffffffffffffffff16021790555085600e60006101000a81548173ffffffffffffffffffffffffffffffffffffffff021916908373ffffffffffffffffffffffffffffffffffffffff16021790555084601360006101000a81548173ffffffffffffffffffffffffffffffffffffffff021916908373ffffffffffffffffffffffffffffffffffffffff16021790555083601060006101000a81548173ffffffffffffffffffffffffffffffffffffffff021916908373ffffffffffffffffffffffffffffffffffffffff16021790555082600f60006101000a81548173ffffffffffffffffffffffffffffffffffffffff021916908373ffffffffffffffffffffffffffffffffffffffff16021790555081601460006101000a81548173ffffffffffffffffffffffffffffffffffffffff021916908373ffffffffffffffffffffffffffffffffffffffff1602179055505050505050505050505050620007f3565b828054600181600116156101000203166002900490600052602060002090601f016020900481019282601f106200078757805160ff1916838001178555620007b8565b82800160010185558215620007b8579182015b82811115620007b75782518255916020019190600101906200079a565b5b509050620007c79190620007cb565b5090565b620007f091905b80821115620007ec576000816000905550600101620007d2565b5090565b90565b61af5280620008036000396000f3006080604052600436106102eb576000357c0100000000000000000000000000000000000000000000000000000000900463ffffffff16806306fdde03146102f0578063095ea7b3146103805780631249c58b146103e5578063131b0ae7146104145780631627540c1461045757806317c70de41461049a57806318160ddd146104c557806319db2228146104f057806320714f881461053357806323b872dd14610576578063274ed288146105fb578063313ce5671461067b5780633278c960146106ac57806339d66fc0146106c35780633fc6df6e14610756578063403dca55146107ad578063405d3adf1461080d57806349755b9e146108c45780634ffcd9df1461091a578063502b8bda1461097157806353a47bb7146109fd57806356e4495414610a545780636ac0bf9c14610a9757806370a0823114610aee57806372cb051f14610b4557806379ba509714610bb1578063807d94a714610bc8578063835e119c14610c48578063849cf58814610cb557806384dcde9714610cf85780638da5cb5b14610d445780639452409614610d9b57806395d89b4114610dca57806397107d6d14610e5a5780639cb8a26a14610e9d5780639cbdaeb614610eb45780639f76980714610f0b5780639f9f83dd14610f4e5780639ff8c63f14610fce578063a311c7c21461101a578063a430be6c14611071578063a461fc82146110c8578063a5fdc5de146110f3578063a9059cbb1461114a578063ab67aa58146111af578063ae2e933b1461127a578063af023335146112d1578063b8225dec14611327578063bc67f83214611356578063bd32aa4414611399578063be0ecd32146113b0578063be45fd6214611487578063be57636414611532578063c40dd66f146115c0578063c58aaae614611617578063c9df6df51461166e578063dbd4a4221461169d578063dbf63340146116f4578063dd62ed3e1461171f578063e2fdcc1714611796578063e90dd9e2146117ed578063ec55688914611844578063f53437521461189b575b600080fd5b3480156102fc57600080fd5b506103056118ca565b6040518080602001828103825283818151815260200191508051906020019080838360005b8381101561034557808201518184015260208101905061032a565b50505050905090810190601f1680156103725780820380516001836020036101000a031916815260200191505b509250505060405180910390f35b34801561038c57600080fd5b506103cb600480360381019080803573ffffffffffffffffffffffffffffffffffffffff16906020019092919080359060200190929190505050611968565b604051808215151515815260200191505060405180910390f35b3480156103f157600080fd5b506103fa611baa565b604051808215151515815260200191505060405180910390f35b34801561042057600080fd5b50610455600480360381019080803573ffffffffffffffffffffffffffffffffffffffff169060200190929190505050612462565b005b34801561046357600080fd5b50610498600480360381019080803573ffffffffffffffffffffffffffffffffffffffff169060200190929190505050612590565b005b3480156104a657600080fd5b506104af612721565b6040518082815260200191505060405180910390f35b3480156104d157600080fd5b506104da612727565b6040518082815260200191505060405180910390f35b3480156104fc57600080fd5b50610531600480360381019080803573ffffffffffffffffffffffffffffffffffffffff16906020019092919050505061272d565b005b34801561053f57600080fd5b50610574600480360381019080803573ffffffffffffffffffffffffffffffffffffffff16906020019092919050505061294a565b005b34801561058257600080fd5b506105e1600480360381019080803573ffffffffffffffffffffffffffffffffffffffff169060200190929190803573ffffffffffffffffffffffffffffffffffffffff16906020019092919080359060200190929190505050612b80565b604051808215151515815260200191505060405180910390f35b34801561060757600080fd5b50610665600480360381019080803573ffffffffffffffffffffffffffffffffffffffff16906020019092919080357bffffffffffffffffffffffffffffffffffffffffffffffffffffffff19169060200190929190505050612b9a565b6040518082815260200191505060405180910390f35b34801561068757600080fd5b50610690612eaf565b604051808260ff1660ff16815260200191505060405180910390f35b3480156106b857600080fd5b506106c1612ec2565b005b3480156106cf57600080fd5b5061074060048036038101908080357bffffffffffffffffffffffffffffffffffffffffffffffffffffffff191690602001909291908035906020019092919080357bffffffffffffffffffffffffffffffffffffffffffffffffffffffff19169060200190929190505050612ffd565b6040518082815260200191505060405180910390f35b34801561076257600080fd5b5061076b613160565b604051808273ffffffffffffffffffffffffffffffffffffffff1673ffffffffffffffffffffffffffffffffffffffff16815260200191505060405180910390f35b3480156107b957600080fd5b506107f760048036038101908080357bffffffffffffffffffffffffffffffffffffffffffffffffffffffff19169060200190929190505050613186565b6040518082815260200191505060405180910390f35b34801561081957600080fd5b506108aa60048036038101908080357bffffffffffffffffffffffffffffffffffffffffffffffffffffffff191690602001909291908035906020019092919080357bffffffffffffffffffffffffffffffffffffffffffffffffffffffff19169060200190929190803573ffffffffffffffffffffffffffffffffffffffff1690602001909291905050506138cf565b604051808215151515815260200191505060405180910390f35b3480156108d057600080fd5b5061091860048036038101908080357bffffffffffffffffffffffffffffffffffffffffffffffffffffffff1916906020019092919080359060200190929190505050613b98565b005b34801561092657600080fd5b5061092f613e92565b604051808273ffffffffffffffffffffffffffffffffffffffff1673ffffffffffffffffffffffffffffffffffffffff16815260200191505060405180910390f35b34801561097d57600080fd5b506109bb60048036038101908080357bffffffffffffffffffffffffffffffffffffffffffffffffffffffff19169060200190929190505050613eb8565b604051808273ffffffffffffffffffffffffffffffffffffffff1673ffffffffffffffffffffffffffffffffffffffff16815260200191505060405180910390f35b348015610a0957600080fd5b50610a12613eeb565b604051808273ffffffffffffffffffffffffffffffffffffffff1673ffffffffffffffffffffffffffffffffffffffff16815260200191505060405180910390f35b348015610a6057600080fd5b50610a95600480360381019080803573ffffffffffffffffffffffffffffffffffffffff169060200190929190505050613f11565b005b348015610aa357600080fd5b50610ad8600480360381019080803573ffffffffffffffffffffffffffffffffffffffff16906020019092919050505061412e565b6040518082815260200191505060405180910390f35b348015610afa57600080fd5b50610b2f600480360381019080803573ffffffffffffffffffffffffffffffffffffffff1690602001909291905050506144fb565b6040518082815260200191505060405180910390f35b348015610b5157600080fd5b50610b5a6145fc565b6040518080602001828103825283818151815260200191508051906020019060200280838360005b83811015610b9d578082015181840152602081019050610b82565b505050509050019250505060405180910390f35b348015610bbd57600080fd5b50610bc661479c565b005b348015610bd457600080fd5b50610c32600480360381019080803573ffffffffffffffffffffffffffffffffffffffff16906020019092919080357bffffffffffffffffffffffffffffffffffffffffffffffffffffffff19169060200190929190505050614a07565b6040518082815260200191505060405180910390f35b348015610c5457600080fd5b50610c7360048036038101908080359060200190929190505050614b1b565b604051808273ffffffffffffffffffffffffffffffffffffffff1673ffffffffffffffffffffffffffffffffffffffff16815260200191505060405180910390f35b348015610cc157600080fd5b50610cf6600480360381019080803573ffffffffffffffffffffffffffffffffffffffff169060200190929190505050614b59565b005b348015610d0457600080fd5b50610d4260048036038101908080357bffffffffffffffffffffffffffffffffffffffffffffffffffffffff19169060200190929190505050614fe4565b005b348015610d5057600080fd5b50610d59615789565b604051808273ffffffffffffffffffffffffffffffffffffffff1673ffffffffffffffffffffffffffffffffffffffff16815260200191505060405180910390f35b348015610da757600080fd5b50610dc86004803603810190808035151590602001909291905050506157ae565b005b348015610dd657600080fd5b50610ddf6159a4565b6040518080602001828103825283818151815260200191508051906020019080838360005b83811015610e1f578082015181840152602081019050610e04565b50505050905090810190601f168015610e4c5780820380516001836020036101000a031916815260200191505b509250505060405180910390f35b348015610e6657600080fd5b50610e9b600480360381019080803573ffffffffffffffffffffffffffffffffffffffff169060200190929190505050615a42565b005b348015610ea957600080fd5b50610eb2615bd3565b005b348015610ec057600080fd5b50610ec9615e62565b604051808273ffffffffffffffffffffffffffffffffffffffff1673ffffffffffffffffffffffffffffffffffffffff16815260200191505060405180910390f35b348015610f1757600080fd5b50610f4c600480360381019080803573ffffffffffffffffffffffffffffffffffffffff169060200190929190505050615e88565b005b348015610f5a57600080fd5b50610fb8600480360381019080803573ffffffffffffffffffffffffffffffffffffffff16906020019092919080357bffffffffffffffffffffffffffffffffffffffffffffffffffffffff191690602001909291905050506160ae565b6040518082815260200191505060405180910390f35b348015610fda57600080fd5b5061101860048036038101908080357bffffffffffffffffffffffffffffffffffffffffffffffffffffffff191690602001909291905050506160fb565b005b34801561102657600080fd5b5061105b600480360381019080803573ffffffffffffffffffffffffffffffffffffffff16906020019092919050505061622c565b6040518082815260200191505060405180910390f35b34801561107d57600080fd5b50611086616297565b604051808273ffffffffffffffffffffffffffffffffffffffff1673ffffffffffffffffffffffffffffffffffffffff16815260200191505060405180910390f35b3480156110d457600080fd5b506110dd6162bd565b6040518082815260200191505060405180910390f35b3480156110ff57600080fd5b50611134600480360381019080803573ffffffffffffffffffffffffffffffffffffffff1690602001909291905050506162c4565b6040518082815260200191505060405180910390f35b34801561115657600080fd5b50611195600480360381019080803573ffffffffffffffffffffffffffffffffffffffff16906020019092919080359060200190929190505050616694565b604051808215151515815260200191505060405180910390f35b3480156111bb57600080fd5b50611260600480360381019080803573ffffffffffffffffffffffffffffffffffffffff169060200190929190803573ffffffffffffffffffffffffffffffffffffffff16906020019092919080359060200190929190803590602001908201803590602001908080601f01602080910402602001604051908101604052809392919081815260200183838082843782019150505050505091929192905050506166ac565b604051808215151515815260200191505060405180910390f35b34801561128657600080fd5b5061128f61685d565b604051808273ffffffffffffffffffffffffffffffffffffffff1673ffffffffffffffffffffffffffffffffffffffff16815260200191505060405180910390f35b3480156112dd57600080fd5b5061132560048036038101908080357bffffffffffffffffffffffffffffffffffffffffffffffffffffffff1916906020019092919080359060200190929190505050616883565b005b34801561133357600080fd5b5061133c616c29565b604051808215151515815260200191505060405180910390f35b34801561136257600080fd5b50611397600480360381019080803573ffffffffffffffffffffffffffffffffffffffff169060200190929190505050616c3c565b005b3480156113a557600080fd5b506113ae616d9d565b005b3480156113bc57600080fd5b5061146d600480360381019080803573ffffffffffffffffffffffffffffffffffffffff16906020019092919080357bffffffffffffffffffffffffffffffffffffffffffffffffffffffff191690602001909291908035906020019092919080357bffffffffffffffffffffffffffffffffffffffffffffffffffffffff19169060200190929190803573ffffffffffffffffffffffffffffffffffffffff169060200190929190505050616ee5565b604051808215151515815260200191505060405180910390f35b34801561149357600080fd5b50611518600480360381019080803573ffffffffffffffffffffffffffffffffffffffff16906020019092919080359060200190929190803590602001908201803590602001908080601f0160208091040260200160405190810160405280939291908181526020018383808284378201915050505050509192919290505050617037565b604051808215151515815260200191505060405180910390f35b34801561153e57600080fd5b506115a6600480360381019080803573ffffffffffffffffffffffffffffffffffffffff16906020019092919080357bffffffffffffffffffffffffffffffffffffffffffffffffffffffff1916906020019092919080359060200190929190505050617208565b604051808215151515815260200191505060405180910390f35b3480156115cc57600080fd5b506115d5617489565b604051808273ffffffffffffffffffffffffffffffffffffffff1673ffffffffffffffffffffffffffffffffffffffff16815260200191505060405180910390f35b34801561162357600080fd5b5061162c6174af565b604051808273ffffffffffffffffffffffffffffffffffffffff1673ffffffffffffffffffffffffffffffffffffffff16815260200191505060405180910390f35b34801561167a57600080fd5b5061169b6004803603810190808035151590602001909291905050506174d5565b005b3480156116a957600080fd5b506116b2617654565b604051808273ffffffffffffffffffffffffffffffffffffffff1673ffffffffffffffffffffffffffffffffffffffff16815260200191505060405180910390f35b34801561170057600080fd5b5061170961767a565b6040518082815260200191505060405180910390f35b34801561172b57600080fd5b50611780600480360381019080803573ffffffffffffffffffffffffffffffffffffffff169060200190929190803573ffffffffffffffffffffffffffffffffffffffff169060200190929190505050617687565b6040518082815260200191505060405180910390f35b3480156117a257600080fd5b506117ab6177bd565b604051808273ffffffffffffffffffffffffffffffffffffffff1673ffffffffffffffffffffffffffffffffffffffff16815260200191505060405180910390f35b3480156117f957600080fd5b506118026177e3565b604051808273ffffffffffffffffffffffffffffffffffffffff1673ffffffffffffffffffffffffffffffffffffffff16815260200191505060405180910390f35b34801561185057600080fd5b50611859617809565b604051808273ffffffffffffffffffffffffffffffffffffffff1673ffffffffffffffffffffffffffffffffffffffff16815260200191505060405180910390f35b3480156118a757600080fd5b506118b061782f565b604051808215151515815260200191505060405180910390f35b60088054600181600116156101000203166002900480601f0160208091040260200160405190810160405280929190818152602001828054600181600116156101000203166002900480156119605780601f1061193557610100808354040283529160200191611960565b820191906000526020600020905b81548152906001019060200180831161194357829003601f168201915b505050505081565b600080600460009054906101000a900473ffffffffffffffffffffffffffffffffffffffff1673ffffffffffffffffffffffffffffffffffffffff163373ffffffffffffffffffffffffffffffffffffffff1614158015611a175750600560009054906101000a900473ffffffffffffffffffffffffffffffffffffffff1673ffffffffffffffffffffffffffffffffffffffff163373ffffffffffffffffffffffffffffffffffffffff1614155b15611a5e5733600660006101000a81548173ffffffffffffffffffffffffffffffffffffffff021916908373ffffffffffffffffffffffffffffffffffffffff1602179055505b600660009054906101000a900473ffffffffffffffffffffffffffffffffffffffff169050600760009054906101000a900473ffffffffffffffffffffffffffffffffffffffff1673ffffffffffffffffffffffffffffffffffffffff1663da46098c8286866040518463ffffffff167c0100000000000000000000000000000000000000000000000000000000028152600401808473ffffffffffffffffffffffffffffffffffffffff1673ffffffffffffffffffffffffffffffffffffffff1681526020018373ffffffffffffffffffffffffffffffffffffffff1673ffffffffffffffffffffffffffffffffffffffff1681526020018281526020019350505050600060405180830381600087803b158015611b7c57600080fd5b505af1158015611b90573d6000803e3d6000fd5b50505050611b9f818585617842565b600191505092915050565b600080600080600073ffffffffffffffffffffffffffffffffffffffff16601460009054906101000a900473ffffffffffffffffffffffffffffffffffffffff1673ffffffffffffffffffffffffffffffffffffffff1614151515611c77576040517f08c379a000000000000000000000000000000000000000000000000000000000815260040180806020018281038252601b8152602001807f52657761726473446973747269627574696f6e206e6f7420736574000000000081525060200191505060405180910390fd5b601360009054906101000a900473ffffffffffffffffffffffffffffffffffffffff1673ffffffffffffffffffffffffffffffffffffffff1663cc5c095c6040518163ffffffff167c0100000000000000000000000000000000000000000000000000000000028152600401602060405180830381600087803b158015611cfd57600080fd5b505af1158015611d11573d6000803e3d6000fd5b505050506040513d6020811015611d2757600080fd5b81019080805190602001909291905050509250600083111515611db2576040517f08c379a00000000000000000000000000000000000000000000000000000000081526004018080602001828103825260158152602001807f4e6f20737570706c79206973206d696e7461626c65000000000000000000000081525060200191505060405180910390fd5b601360009054906101000a900473ffffffffffffffffffffffffffffffffffffffff1673ffffffffffffffffffffffffffffffffffffffff166349e701596040518163ffffffff167c0100000000000000000000000000000000000000000000000000000000028152600401602060405180830381600087803b158015611e3857600080fd5b505af1158015611e4c573d6000803e3d6000fd5b505050506040513d6020811015611e6257600080fd5b810190808051906020019092919050505050601360009054906101000a900473ffffffffffffffffffffffffffffffffffffffff1673ffffffffffffffffffffffffffffffffffffffff16639bdd7ac76040518163ffffffff167c0100000000000000000000000000000000000000000000000000000000028152600401602060405180830381600087803b158015611efa57600080fd5b505af1158015611f0e573d6000803e3d6000fd5b505050506040513d6020811015611f2457600080fd5b81019080805190602001909291905050509150611f4a8284617a4a90919063ffffffff16565b9050600760009054906101000a900473ffffffffffffffffffffffffffffffffffffffff1673ffffffffffffffffffffffffffffffffffffffff1663b46310f6601460009054906101000a900473ffffffffffffffffffffffffffffffffffffffff166120d984600760009054906101000a900473ffffffffffffffffffffffffffffffffffffffff1673ffffffffffffffffffffffffffffffffffffffff166370a08231601460009054906101000a900473ffffffffffffffffffffffffffffffffffffffff166040518263ffffffff167c0100000000000000000000000000000000000000000000000000000000028152600401808273ffffffffffffffffffffffffffffffffffffffff1673ffffffffffffffffffffffffffffffffffffffff168152602001915050602060405180830381600087803b15801561209057600080fd5b505af11580156120a4573d6000803e3d6000fd5b505050506040513d60208110156120ba57600080fd5b8101908080519060200190929190505050617a6b90919063ffffffff16565b6040518363ffffffff167c0100000000000000000000000000000000000000000000000000000000028152600401808373ffffffffffffffffffffffffffffffffffffffff1673ffffffffffffffffffffffffffffffffffffffff16815260200182815260200192505050600060405180830381600087803b15801561215e57600080fd5b505af1158015612172573d6000803e3d6000fd5b505050506121a330601460009054906101000a900473ffffffffffffffffffffffffffffffffffffffff1683617a8c565b601460009054906101000a900473ffffffffffffffffffffffffffffffffffffffff1673ffffffffffffffffffffffffffffffffffffffff166359974e38826040518263ffffffff167c010000000000000000000000000000000000000000000000000000000002815260040180828152602001915050600060405180830381600087803b15801561223457600080fd5b505af1158015612248573d6000803e3d6000fd5b50505050600760009054906101000a900473ffffffffffffffffffffffffffffffffffffffff1673ffffffffffffffffffffffffffffffffffffffff1663b46310f63361239585600760009054906101000a900473ffffffffffffffffffffffffffffffffffffffff1673ffffffffffffffffffffffffffffffffffffffff166370a08231336040518263ffffffff167c0100000000000000000000000000000000000000000000000000000000028152600401808273ffffffffffffffffffffffffffffffffffffffff1673ffffffffffffffffffffffffffffffffffffffff168152602001915050602060405180830381600087803b15801561234c57600080fd5b505af1158015612360573d6000803e3d6000fd5b505050506040513d602081101561237657600080fd5b8101908080519060200190929190505050617a6b90919063ffffffff16565b6040518363ffffffff167c0100000000000000000000000000000000000000000000000000000000028152600401808373ffffffffffffffffffffffffffffffffffffffff1673ffffffffffffffffffffffffffffffffffffffff16815260200182815260200192505050600060405180830381600087803b15801561241a57600080fd5b505af115801561242e573d6000803e3d6000fd5b5050505061243d303384617a8c565b61245283600a54617a6b90919063ffffffff16565b600a819055506001935050505090565b6000809054906101000a900473ffffffffffffffffffffffffffffffffffffffff1673ffffffffffffffffffffffffffffffffffffffff163373ffffffffffffffffffffffffffffffffffffffff1614151561254c576040517f08c379a000000000000000000000000000000000000000000000000000000000815260040180806020018281038252602f8152602001807f4f6e6c792074686520636f6e7472616374206f776e6572206d6179207065726681526020017f6f726d207468697320616374696f6e000000000000000000000000000000000081525060400191505060405180910390fd5b80600560006101000a81548173ffffffffffffffffffffffffffffffffffffffff021916908373ffffffffffffffffffffffffffffffffffffffff16021790555050565b6000809054906101000a900473ffffffffffffffffffffffffffffffffffffffff1673ffffffffffffffffffffffffffffffffffffffff163373ffffffffffffffffffffffffffffffffffffffff1614151561267a576040517f08c379a000000000000000000000000000000000000000000000000000000000815260040180806020018281038252602f8152602001807f4f6e6c792074686520636f6e7472616374206f776e6572206d6179207065726681526020017f6f726d207468697320616374696f6e000000000000000000000000000000000081525060400191505060405180910390fd5b80600160006101000a81548173ffffffffffffffffffffffffffffffffffffffff021916908373ffffffffffffffffffffffffffffffffffffffff1602179055507f906a1c6bd7e3091ea86693dd029a831c19049ce77f1dce2ce0bab1cacbabce2281604051808273ffffffffffffffffffffffffffffffffffffffff1673ffffffffffffffffffffffffffffffffffffffff16815260200191505060405180910390a150565b60025481565b600a5481565b600460009054906101000a900473ffffffffffffffffffffffffffffffffffffffff1673ffffffffffffffffffffffffffffffffffffffff163373ffffffffffffffffffffffffffffffffffffffff16141580156127d95750600560009054906101000a900473ffffffffffffffffffffffffffffffffffffffff1673ffffffffffffffffffffffffffffffffffffffff163373ffffffffffffffffffffffffffffffffffffffff1614155b156128205733600660006101000a81548173ffffffffffffffffffffffffffffffffffffffff021916908373ffffffffffffffffffffffffffffffffffffffff1602179055505b6000809054906101000a900473ffffffffffffffffffffffffffffffffffffffff1673ffffffffffffffffffffffffffffffffffffffff16600660009054906101000a900473ffffffffffffffffffffffffffffffffffffffff1673ffffffffffffffffffffffffffffffffffffffff16141515612906576040517f08c379a00000000000000000000000000000000000000000000000000000000081526004018080602001828103825260138152602001807f4f776e6572206f6e6c792066756e6374696f6e0000000000000000000000000081525060200191505060405180910390fd5b80600e60006101000a81548173ffffffffffffffffffffffffffffffffffffffff021916908373ffffffffffffffffffffffffffffffffffffffff16021790555050565b6000809054906101000a900473ffffffffffffffffffffffffffffffffffffffff1673ffffffffffffffffffffffffffffffffffffffff163373ffffffffffffffffffffffffffffffffffffffff16141515612a34576040517f08c379a000000000000000000000000000000000000000000000000000000000815260040180806020018281038252602f8152602001807f4f6e6c792074686520636f6e7472616374206f776e6572206d6179207065726681526020017f6f726d207468697320616374696f6e000000000000000000000000000000000081525060400191505060405180910390fd5b600073ffffffffffffffffffffffffffffffffffffffff168173ffffffffffffffffffffffffffffffffffffffff1614151515612ad9576040517f08c379a000000000000000000000000000000000000000000000000000000000815260040180806020018281038252601c8152602001807f42656e6566696369617279206d757374206e6f74206265207a65726f0000000081525060200191505060405180910390fd5b80600360016101000a81548173ffffffffffffffffffffffffffffffffffffffff021916908373ffffffffffffffffffffffffffffffffffffffff1602179055507fd5da63a0b864b315bc04128dedbc93888c8529ee6cf47ce664dc204339228c5381604051808273ffffffffffffffffffffffffffffffffffffffff1673ffffffffffffffffffffffffffffffffffffffff16815260200191505060405180910390a150565b60006060612b90858585846166ac565b9150509392505050565b600080600080600080601260009054906101000a900473ffffffffffffffffffffffffffffffffffffffff1673ffffffffffffffffffffffffffffffffffffffff16638b3f8088896040518263ffffffff167c0100000000000000000000000000000000000000000000000000000000028152600401808273ffffffffffffffffffffffffffffffffffffffff1673ffffffffffffffffffffffffffffffffffffffff1681526020019150506040805180830381600087803b158015612c5f57600080fd5b505af1158015612c73573d6000803e3d6000fd5b505050506040513d6040811015612c8957600080fd5b81019080805190602001909291908051906020019092919050505080955081965050506000851415612cbe5760009550612ea4565b612e6e85612e60601260009054906101000a900473ffffffffffffffffffffffffffffffffffffffff1673ffffffffffffffffffffffffffffffffffffffff166308d95cd5886040518263ffffffff167c010000000000000000000000000000000000000000000000000000000002815260040180828152602001915050602060405180830381600087803b158015612d5657600080fd5b505af1158015612d6a573d6000803e3d6000fd5b505050506040513d6020811015612d8057600080fd5b8101908080519060200190929190505050601260009054906101000a900473ffffffffffffffffffffffffffffffffffffffff1673ffffffffffffffffffffffffffffffffffffffff1663463177126040518163ffffffff167c0100000000000000000000000000000000000000000000000000000000028152600401602060405180830381600087803b158015612e1757600080fd5b505af1158015612e2b573d6000803e3d6000fd5b505050506040513d6020811015612e4157600080fd5b8101908080519060200190929190505050617c9490919063ffffffff16565b617cb090919063ffffffff16565b9250612e7987613186565b9150612e9683612e8884617ccc565b617cb090919063ffffffff16565b9050612ea181617cf2565b95505b505050505092915050565b600b60009054906101000a900460ff1681565b6000809054906101000a900473ffffffffffffffffffffffffffffffffffffffff1673ffffffffffffffffffffffffffffffffffffffff163373ffffffffffffffffffffffffffffffffffffffff16141515612fac576040517f08c379a000000000000000000000000000000000000000000000000000000000815260040180806020018281038252602f8152602001807f4f6e6c792074686520636f6e7472616374206f776e6572206d6179207065726681526020017f6f726d207468697320616374696f6e000000000000000000000000000000000081525060400191505060405180910390fd5b60006002819055506000600360006101000a81548160ff0219169083151502179055507f6adcc7125002935e0aa31697538ebbd65cfddf20431eb6ecdcfc3e238bfd082c60405160405180910390a1565b6000601160009054906101000a900473ffffffffffffffffffffffffffffffffffffffff1673ffffffffffffffffffffffffffffffffffffffff166339d66fc08585856040518463ffffffff167c010000000000000000000000000000000000000000000000000000000002815260040180847bffffffffffffffffffffffffffffffffffffffffffffffffffffffff19167bffffffffffffffffffffffffffffffffffffffffffffffffffffffff19168152602001838152602001827bffffffffffffffffffffffffffffffffffffffffffffffffffffffff19167bffffffffffffffffffffffffffffffffffffffffffffffffffffffff191681526020019350505050602060405180830381600087803b15801561311c57600080fd5b505af1158015613130573d6000803e3d6000fd5b505050506040513d602081101561314657600080fd5b810190808051906020019092919050505090509392505050565b601460009054906101000a900473ffffffffffffffffffffffffffffffffffffffff1681565b600080600080600085601160009054906101000a900473ffffffffffffffffffffffffffffffffffffffff1673ffffffffffffffffffffffffffffffffffffffff1663ea3d4109826040518263ffffffff167c010000000000000000000000000000000000000000000000000000000002815260040180827bffffffffffffffffffffffffffffffffffffffffffffffffffffffff19167bffffffffffffffffffffffffffffffffffffffffffffffffffffffff19168152602001915050602060405180830381600087803b15801561325e57600080fd5b505af1158015613272573d6000803e3d6000fd5b505050506040513d602081101561328857600080fd5b810190808051906020019092919050505015151561330e576040517f08c379a00000000000000000000000000000000000000000000000000000000081526004018080602001828103825260198152602001807f52617465207374616c65206f72206e6f7420612073796e74680000000000000081525060200191505060405180910390fd5b60009450601160009054906101000a900473ffffffffffffffffffffffffffffffffffffffff1673ffffffffffffffffffffffffffffffffffffffff1663af1ff972886040518263ffffffff167c010000000000000000000000000000000000000000000000000000000002815260040180827bffffffffffffffffffffffffffffffffffffffffffffffffffffffff19167bffffffffffffffffffffffffffffffffffffffffffffffffffffffff19168152602001915050602060405180830381600087803b1580156133e157600080fd5b505af11580156133f5573d6000803e3d6000fd5b505050506040513d602081101561340b57600080fd5b81019080805190602001909291905050509350601160009054906101000a900473ffffffffffffffffffffffffffffffffffffffff1673ffffffffffffffffffffffffffffffffffffffff1663370d62ad6134646145fc565b6040518263ffffffff167c01000000000000000000000000000000000000000000000000000000000281526004018080602001828103825283818151815260200191508051906020019060200280838360005b838110156134d25780820151818401526020810190506134b7565b5050505090500192505050602060405180830381600087803b1580156134f757600080fd5b505af115801561350b573d6000803e3d6000fd5b505050506040513d602081101561352157600080fd5b81019080805190602001909291905050501515156135a7576040517f08c379a000000000000000000000000000000000000000000000000000000000815260040180806020018281038252600f8152602001807f526174657320617265207374616c65000000000000000000000000000000000081525060200191505060405180910390fd5b600092505b600c805490508360ff1610156138c25761389e84613890601160009054906101000a900473ffffffffffffffffffffffffffffffffffffffff1673ffffffffffffffffffffffffffffffffffffffff1663af1ff972600c8860ff1681548110151561361357fe5b9060005260206000200160009054906101000a900473ffffffffffffffffffffffffffffffffffffffff1673ffffffffffffffffffffffffffffffffffffffff1663dbd06c856040518163ffffffff167c0100000000000000000000000000000000000000000000000000000000028152600401602060405180830381600087803b1580156136a157600080fd5b505af11580156136b5573d6000803e3d6000fd5b505050506040513d60208110156136cb57600080fd5b81019080805190602001909291905050506040518263ffffffff167c010000000000000000000000000000000000000000000000000000000002815260040180827bffffffffffffffffffffffffffffffffffffffffffffffffffffffff19167bffffffffffffffffffffffffffffffffffffffffffffffffffffffff19168152602001915050602060405180830381600087803b15801561376c57600080fd5b505af1158015613780573d6000803e3d6000fd5b505050506040513d602081101561379657600080fd5b8101908080519060200190929190505050600c8760ff168154811015156137b957fe5b9060005260206000200160009054906101000a900473ffffffffffffffffffffffffffffffffffffffff1673ffffffffffffffffffffffffffffffffffffffff166318160ddd6040518163ffffffff167c0100000000000000000000000000000000000000000000000000000000028152600401602060405180830381600087803b15801561384757600080fd5b505af115801561385b573d6000803e3d6000fd5b505050506040513d602081101561387157600080fd5b8101908080519060200190929190505050617d4b90919063ffffffff16565b617d6790919063ffffffff16565b91506138b38286617a6b90919063ffffffff16565b945082806001019350506135ac565b8495505050505050919050565b6000600460009054906101000a900473ffffffffffffffffffffffffffffffffffffffff1673ffffffffffffffffffffffffffffffffffffffff163373ffffffffffffffffffffffffffffffffffffffff161415801561397d5750600560009054906101000a900473ffffffffffffffffffffffffffffffffffffffff1673ffffffffffffffffffffffffffffffffffffffff163373ffffffffffffffffffffffffffffffffffffffff1614155b156139c45733600660006101000a81548173ffffffffffffffffffffffffffffffffffffffff021916908373ffffffffffffffffffffffffffffffffffffffff1602179055505b827bffffffffffffffffffffffffffffffffffffffffffffffffffffffff1916857bffffffffffffffffffffffffffffffffffffffffffffffffffffffff191614151515613a7a576040517f08c379a00000000000000000000000000000000000000000000000000000000081526004018080602001828103825260198152602001807f4d7573742075736520646966666572656e742073796e7468730000000000000081525060200191505060405180910390fd5b600084111515613af2576040517f08c379a000000000000000000000000000000000000000000000000000000000815260040180806020018281038252600b8152602001807f5a65726f20616d6f756e7400000000000000000000000000000000000000000081525060200191505060405180910390fd5b6014809054906101000a900460ff1615613b3a57613b33600660009054906101000a900473ffffffffffffffffffffffffffffffffffffffff168686617d83565b9050613b90565b613b8d600660009054906101000a900473ffffffffffffffffffffffffffffffffffffffff16868686600660009054906101000a900473ffffffffffffffffffffffffffffffffffffffff166001617ebc565b90505b949350505050565b600460009054906101000a900473ffffffffffffffffffffffffffffffffffffffff1673ffffffffffffffffffffffffffffffffffffffff163373ffffffffffffffffffffffffffffffffffffffff1614158015613c445750600560009054906101000a900473ffffffffffffffffffffffffffffffffffffffff1673ffffffffffffffffffffffffffffffffffffffff163373ffffffffffffffffffffffffffffffffffffffff1614155b15613c8b5733600660006101000a81548173ffffffffffffffffffffffffffffffffffffffff021916908373ffffffffffffffffffffffffffffffffffffffff1602179055505b613cb7600660009054906101000a900473ffffffffffffffffffffffffffffffffffffffff16836160ae565b8111151515613d2e576040517f08c379a00000000000000000000000000000000000000000000000000000000081526004018080602001828103825260108152602001807f416d6f756e7420746f6f206c617267650000000000000000000000000000000081525060200191505060405180910390fd5b613d388282618bbe565b600d6000837bffffffffffffffffffffffffffffffffffffffffffffffffffffffff19167bffffffffffffffffffffffffffffffffffffffffffffffffffffffff1916815260200190815260200160002060009054906101000a900473ffffffffffffffffffffffffffffffffffffffff1673ffffffffffffffffffffffffffffffffffffffff1663867904b4600660009054906101000a900473ffffffffffffffffffffffffffffffffffffffff16836040518363ffffffff167c0100000000000000000000000000000000000000000000000000000000028152600401808373ffffffffffffffffffffffffffffffffffffffff1673ffffffffffffffffffffffffffffffffffffffff16815260200182815260200192505050600060405180830381600087803b158015613e6e57600080fd5b505af1158015613e82573d6000803e3d6000fd5b50505050613e8e6194bf565b5050565b601160009054906101000a900473ffffffffffffffffffffffffffffffffffffffff1681565b600d6020528060005260406000206000915054906101000a900473ffffffffffffffffffffffffffffffffffffffff1681565b600160009054906101000a900473ffffffffffffffffffffffffffffffffffffffff1681565b600460009054906101000a900473ffffffffffffffffffffffffffffffffffffffff1673ffffffffffffffffffffffffffffffffffffffff163373ffffffffffffffffffffffffffffffffffffffff1614158015613fbd5750600560009054906101000a900473ffffffffffffffffffffffffffffffffffffffff1673ffffffffffffffffffffffffffffffffffffffff163373ffffffffffffffffffffffffffffffffffffffff1614155b156140045733600660006101000a81548173ffffffffffffffffffffffffffffffffffffffff021916908373ffffffffffffffffffffffffffffffffffffffff1602179055505b6000809054906101000a900473ffffffffffffffffffffffffffffffffffffffff1673ffffffffffffffffffffffffffffffffffffffff16600660009054906101000a900473ffffffffffffffffffffffffffffffffffffffff1673ffffffffffffffffffffffffffffffffffffffff161415156140ea576040517f08c379a00000000000000000000000000000000000000000000000000000000081526004018080602001828103825260138152602001807f4f776e6572206f6e6c792066756e6374696f6e0000000000000000000000000081525060200191505060405180910390fd5b80601160006101000a81548173ffffffffffffffffffffffffffffffffffffffff021916908373ffffffffffffffffffffffffffffffffffffffff16021790555050565b60008060007f534e580000000000000000000000000000000000000000000000000000000000601160009054906101000a900473ffffffffffffffffffffffffffffffffffffffff1673ffffffffffffffffffffffffffffffffffffffff1663ea3d4109826040518263ffffffff167c010000000000000000000000000000000000000000000000000000000002815260040180827bffffffffffffffffffffffffffffffffffffffffffffffffffffffff19167bffffffffffffffffffffffffffffffffffffffffffffffffffffffff19168152602001915050602060405180830381600087803b15801561422357600080fd5b505af1158015614237573d6000803e3d6000fd5b505050506040513d602081101561424d57600080fd5b81019080805190602001909291905050501515156142d3576040517f08c379a00000000000000000000000000000000000000000000000000000000081526004018080602001828103825260198152602001807f52617465207374616c65206f72206e6f7420612073796e74680000000000000081525060200191505060405180910390fd5b600760009054906101000a900473ffffffffffffffffffffffffffffffffffffffff1673ffffffffffffffffffffffffffffffffffffffff166370a08231866040518263ffffffff167c0100000000000000000000000000000000000000000000000000000000028152600401808273ffffffffffffffffffffffffffffffffffffffff1673ffffffffffffffffffffffffffffffffffffffff168152602001915050602060405180830381600087803b15801561439057600080fd5b505af11580156143a4573d6000803e3d6000fd5b505050506040513d60208110156143ba57600080fd5b810190808051906020019092919050505092506144c9601260009054906101000a900473ffffffffffffffffffffffffffffffffffffffff1673ffffffffffffffffffffffffffffffffffffffff1663b410a0346040518163ffffffff167c0100000000000000000000000000000000000000000000000000000000028152600401602060405180830381600087803b15801561445657600080fd5b505af115801561446a573d6000803e3d6000fd5b505050506040513d602081101561448057600080fd5b81019080805190602001909291905050506144bb877f534e580000000000000000000000000000000000000000000000000000000000612b9a565b617d6790919063ffffffff16565b915082821015156144dd57600093506144f3565b6144f08284617a4a90919063ffffffff16565b93505b505050919050565b6000600760009054906101000a900473ffffffffffffffffffffffffffffffffffffffff1673ffffffffffffffffffffffffffffffffffffffff166370a08231836040518263ffffffff167c0100000000000000000000000000000000000000000000000000000000028152600401808273ffffffffffffffffffffffffffffffffffffffff1673ffffffffffffffffffffffffffffffffffffffff168152602001915050602060405180830381600087803b1580156145ba57600080fd5b505af11580156145ce573d6000803e3d6000fd5b505050506040513d60208110156145e457600080fd5b81019080805190602001909291905050509050919050565b6060806000600c805490506040519080825280602002602001820160405280156146355781602001602082028038833980820191505090505b509150600090505b600c805490508160ff16101561479457600c8160ff1681548110151561465f57fe5b9060005260206000200160009054906101000a900473ffffffffffffffffffffffffffffffffffffffff1673ffffffffffffffffffffffffffffffffffffffff1663dbd06c856040518163ffffffff167c0100000000000000000000000000000000000000000000000000000000028152600401602060405180830381600087803b1580156146ed57600080fd5b505af1158015614701573d6000803e3d6000fd5b505050506040513d602081101561471757600080fd5b8101908080519060200190929190505050828260ff1681518110151561473957fe5b906020019060200201907bffffffffffffffffffffffffffffffffffffffffffffffffffffffff191690817bffffffffffffffffffffffffffffffffffffffffffffffffffffffff191681525050808060010191505061463d565b819250505090565b600160009054906101000a900473ffffffffffffffffffffffffffffffffffffffff1673ffffffffffffffffffffffffffffffffffffffff163373ffffffffffffffffffffffffffffffffffffffff16141515614887576040517f08c379a00000000000000000000000000000000000000000000000000000000081526004018080602001828103825260358152602001807f596f75206d757374206265206e6f6d696e61746564206265666f726520796f7581526020017f2063616e20616363657074206f776e657273686970000000000000000000000081525060400191505060405180910390fd5b7fb532073b38c83145e3e5135377a08bf9aab55bc0fd7c1179cd4fb995d2a5159c6000809054906101000a900473ffffffffffffffffffffffffffffffffffffffff16600160009054906101000a900473ffffffffffffffffffffffffffffffffffffffff16604051808373ffffffffffffffffffffffffffffffffffffffff1673ffffffffffffffffffffffffffffffffffffffff1681526020018273ffffffffffffffffffffffffffffffffffffffff1673ffffffffffffffffffffffffffffffffffffffff1681526020019250505060405180910390a1600160009054906101000a900473ffffffffffffffffffffffffffffffffffffffff166000806101000a81548173ffffffffffffffffffffffffffffffffffffffff021916908373ffffffffffffffffffffffffffffffffffffffff1602179055506000600160006101000a81548173ffffffffffffffffffffffffffffffffffffffff021916908373ffffffffffffffffffffffffffffffffffffffff160217905550565b600080614a3d7f534e580000000000000000000000000000000000000000000000000000000000614a37866162c4565b85612ffd565b9050614b12601260009054906101000a900473ffffffffffffffffffffffffffffffffffffffff1673ffffffffffffffffffffffffffffffffffffffff1663b410a0346040518163ffffffff167c0100000000000000000000000000000000000000000000000000000000028152600401602060405180830381600087803b158015614ac857600080fd5b505af1158015614adc573d6000803e3d6000fd5b505050506040513d6020811015614af257600080fd5b8101908080519060200190929190505050826196f890919063ffffffff16565b91505092915050565b600c81815481101515614b2a57fe5b906000526020600020016000915054906101000a900473ffffffffffffffffffffffffffffffffffffffff1681565b6000600460009054906101000a900473ffffffffffffffffffffffffffffffffffffffff1673ffffffffffffffffffffffffffffffffffffffff163373ffffffffffffffffffffffffffffffffffffffff1614158015614c075750600560009054906101000a900473ffffffffffffffffffffffffffffffffffffffff1673ffffffffffffffffffffffffffffffffffffffff163373ffffffffffffffffffffffffffffffffffffffff1614155b15614c4e5733600660006101000a81548173ffffffffffffffffffffffffffffffffffffffff021916908373ffffffffffffffffffffffffffffffffffffffff1602179055505b6000809054906101000a900473ffffffffffffffffffffffffffffffffffffffff1673ffffffffffffffffffffffffffffffffffffffff16600660009054906101000a900473ffffffffffffffffffffffffffffffffffffffff1673ffffffffffffffffffffffffffffffffffffffff16141515614d34576040517f08c379a00000000000000000000000000000000000000000000000000000000081526004018080602001828103825260138152602001807f4f776e6572206f6e6c792066756e6374696f6e0000000000000000000000000081525060200191505060405180910390fd5b8173ffffffffffffffffffffffffffffffffffffffff1663dbd06c856040518163ffffffff167c0100000000000000000000000000000000000000000000000000000000028152600401602060405180830381600087803b158015614d9857600080fd5b505af1158015614dac573d6000803e3d6000fd5b505050506040513d6020811015614dc257600080fd5b81019080805190602001909291905050509050600073ffffffffffffffffffffffffffffffffffffffff16600d6000837bffffffffffffffffffffffffffffffffffffffffffffffffffffffff19167bffffffffffffffffffffffffffffffffffffffffffffffffffffffff1916815260200190815260200160002060009054906101000a900473ffffffffffffffffffffffffffffffffffffffff1673ffffffffffffffffffffffffffffffffffffffff16141515614eea576040517f08c379a00000000000000000000000000000000000000000000000000000000081526004018080602001828103825260148152602001807f53796e746820616c72656164792065786973747300000000000000000000000081525060200191505060405180910390fd5b600c8290806001815401808255809150509060018203906000526020600020016000909192909190916101000a81548173ffffffffffffffffffffffffffffffffffffffff021916908373ffffffffffffffffffffffffffffffffffffffff1602179055505081600d6000837bffffffffffffffffffffffffffffffffffffffffffffffffffffffff19167bffffffffffffffffffffffffffffffffffffffffffffffffffffffff1916815260200190815260200160002060006101000a81548173ffffffffffffffffffffffffffffffffffffffff021916908373ffffffffffffffffffffffffffffffffffffffff1602179055505050565b600080600460009054906101000a900473ffffffffffffffffffffffffffffffffffffffff1673ffffffffffffffffffffffffffffffffffffffff163373ffffffffffffffffffffffffffffffffffffffff16141580156150935750600560009054906101000a900473ffffffffffffffffffffffffffffffffffffffff1673ffffffffffffffffffffffffffffffffffffffff163373ffffffffffffffffffffffffffffffffffffffff1614155b156150da5733600660006101000a81548173ffffffffffffffffffffffffffffffffffffffff021916908373ffffffffffffffffffffffffffffffffffffffff1602179055505b6000809054906101000a900473ffffffffffffffffffffffffffffffffffffffff1673ffffffffffffffffffffffffffffffffffffffff16600660009054906101000a900473ffffffffffffffffffffffffffffffffffffffff1673ffffffffffffffffffffffffffffffffffffffff161415156151c0576040517f08c379a00000000000000000000000000000000000000000000000000000000081526004018080602001828103825260138152602001807f4f776e6572206f6e6c792066756e6374696f6e0000000000000000000000000081525060200191505060405180910390fd5b600073ffffffffffffffffffffffffffffffffffffffff16600d6000857bffffffffffffffffffffffffffffffffffffffffffffffffffffffff19167bffffffffffffffffffffffffffffffffffffffffffffffffffffffff1916815260200190815260200160002060009054906101000a900473ffffffffffffffffffffffffffffffffffffffff1673ffffffffffffffffffffffffffffffffffffffff16141515156152d6576040517f08c379a00000000000000000000000000000000000000000000000000000000081526004018080602001828103825260148152602001807f53796e746820646f6573206e6f7420657869737400000000000000000000000081525060200191505060405180910390fd5b6000600d6000857bffffffffffffffffffffffffffffffffffffffffffffffffffffffff19167bffffffffffffffffffffffffffffffffffffffffffffffffffffffff1916815260200190815260200160002060009054906101000a900473ffffffffffffffffffffffffffffffffffffffff1673ffffffffffffffffffffffffffffffffffffffff166318160ddd6040518163ffffffff167c0100000000000000000000000000000000000000000000000000000000028152600401602060405180830381600087803b1580156153ad57600080fd5b505af11580156153c1573d6000803e3d6000fd5b505050506040513d60208110156153d757600080fd5b810190808051906020019092919050505014151561545d576040517f08c379a00000000000000000000000000000000000000000000000000000000081526004018080602001828103825260138152602001807f53796e746820737570706c79206578697374730000000000000000000000000081525060200191505060405180910390fd5b7f5844520000000000000000000000000000000000000000000000000000000000837bffffffffffffffffffffffffffffffffffffffffffffffffffffffff191614151515615514576040517f08c379a00000000000000000000000000000000000000000000000000000000081526004018080602001828103825260178152602001807f43616e6e6f742072656d6f7665205844522073796e746800000000000000000081525060200191505060405180910390fd5b600d6000847bffffffffffffffffffffffffffffffffffffffffffffffffffffffff19167bffffffffffffffffffffffffffffffffffffffffffffffffffffffff1916815260200190815260200160002060009054906101000a900473ffffffffffffffffffffffffffffffffffffffff169150600090505b600c805490508160ff161015615710578173ffffffffffffffffffffffffffffffffffffffff16600c8260ff168154811015156155c657fe5b9060005260206000200160009054906101000a900473ffffffffffffffffffffffffffffffffffffffff1673ffffffffffffffffffffffffffffffffffffffff16141561570357600c8160ff1681548110151561561f57fe5b9060005260206000200160006101000a81549073ffffffffffffffffffffffffffffffffffffffff0219169055600c6001600c805490500381548110151561566357fe5b9060005260206000200160009054906101000a900473ffffffffffffffffffffffffffffffffffffffff16600c8260ff168154811015156156a057fe5b9060005260206000200160006101000a81548173ffffffffffffffffffffffffffffffffffffffff021916908373ffffffffffffffffffffffffffffffffffffffff160217905550600c8054809190600190036156fd919061aed5565b50615710565b808060010191505061558d565b600d6000847bffffffffffffffffffffffffffffffffffffffffffffffffffffffff19167bffffffffffffffffffffffffffffffffffffffffffffffffffffffff1916815260200190815260200160002060006101000a81549073ffffffffffffffffffffffffffffffffffffffff0219169055505050565b6000809054906101000a900473ffffffffffffffffffffffffffffffffffffffff1681565b600460009054906101000a900473ffffffffffffffffffffffffffffffffffffffff1673ffffffffffffffffffffffffffffffffffffffff163373ffffffffffffffffffffffffffffffffffffffff161415801561585a5750600560009054906101000a900473ffffffffffffffffffffffffffffffffffffffff1673ffffffffffffffffffffffffffffffffffffffff163373ffffffffffffffffffffffffffffffffffffffff1614155b156158a15733600660006101000a81548173ffffffffffffffffffffffffffffffffffffffff021916908373ffffffffffffffffffffffffffffffffffffffff1602179055505b6000809054906101000a900473ffffffffffffffffffffffffffffffffffffffff1673ffffffffffffffffffffffffffffffffffffffff16600660009054906101000a900473ffffffffffffffffffffffffffffffffffffffff1673ffffffffffffffffffffffffffffffffffffffff16141515615987576040517f08c379a00000000000000000000000000000000000000000000000000000000081526004018080602001828103825260138152602001807f4f776e6572206f6e6c792066756e6374696f6e0000000000000000000000000081525060200191505060405180910390fd5b80601460156101000a81548160ff02191690831515021790555050565b60098054600181600116156101000203166002900480601f016020809104026020016040519081016040528092919081815260200182805460018160011615610100020316600290048015615a3a5780601f10615a0f57610100808354040283529160200191615a3a565b820191906000526020600020905b815481529060010190602001808311615a1d57829003601f168201915b505050505081565b6000809054906101000a900473ffffffffffffffffffffffffffffffffffffffff1673ffffffffffffffffffffffffffffffffffffffff163373ffffffffffffffffffffffffffffffffffffffff16141515615b2c576040517f08c379a000000000000000000000000000000000000000000000000000000000815260040180806020018281038252602f8152602001807f4f6e6c792074686520636f6e7472616374206f776e6572206d6179207065726681526020017f6f726d207468697320616374696f6e000000000000000000000000000000000081525060400191505060405180910390fd5b80600460006101000a81548173ffffffffffffffffffffffffffffffffffffffff021916908373ffffffffffffffffffffffffffffffffffffffff1602179055507ffc80377ca9c49cc11ae6982f390a42db976d5530af7c43889264b13fbbd7c57e81604051808273ffffffffffffffffffffffffffffffffffffffff1673ffffffffffffffffffffffffffffffffffffffff16815260200191505060405180910390a150565b60008060009054906101000a900473ffffffffffffffffffffffffffffffffffffffff1673ffffffffffffffffffffffffffffffffffffffff163373ffffffffffffffffffffffffffffffffffffffff16141515615cbf576040517f08c379a000000000000000000000000000000000000000000000000000000000815260040180806020018281038252602f8152602001807f4f6e6c792074686520636f6e7472616374206f776e6572206d6179207065726681526020017f6f726d207468697320616374696f6e000000000000000000000000000000000081525060400191505060405180910390fd5b600360009054906101000a900460ff161515615d43576040517f08c379a000000000000000000000000000000000000000000000000000000000815260040180806020018281038252601f8152602001807f53656c66204465737472756374206e6f742079657420696e697469617465640081525060200191505060405180910390fd5b426224ea0060025401101515615dc1576040517f08c379a000000000000000000000000000000000000000000000000000000000815260040180806020018281038252601b8152602001807f53656c662064657374727563742064656c6179206e6f74206d6574000000000081525060200191505060405180910390fd5b600360019054906101000a900473ffffffffffffffffffffffffffffffffffffffff1690507f8a09e1677ced846cb537dc2b172043bd05a1a81ad7e0033a7ef8ba762df990b781604051808273ffffffffffffffffffffffffffffffffffffffff1673ffffffffffffffffffffffffffffffffffffffff16815260200191505060405180910390a18073ffffffffffffffffffffffffffffffffffffffff16ff5b600560009054906101000a900473ffffffffffffffffffffffffffffffffffffffff1681565b600460009054906101000a900473ffffffffffffffffffffffffffffffffffffffff1673ffffffffffffffffffffffffffffffffffffffff163373ffffffffffffffffffffffffffffffffffffffff1614158015615f345750600560009054906101000a900473ffffffffffffffffffffffffffffffffffffffff1673ffffffffffffffffffffffffffffffffffffffff163373ffffffffffffffffffffffffffffffffffffffff1614155b15615f7b5733600660006101000a81548173ffffffffffffffffffffffffffffffffffffffff021916908373ffffffffffffffffffffffffffffffffffffffff1602179055505b6000809054906101000a900473ffffffffffffffffffffffffffffffffffffffff1673ffffffffffffffffffffffffffffffffffffffff16600660009054906101000a900473ffffffffffffffffffffffffffffffffffffffff1673ffffffffffffffffffffffffffffffffffffffff16141515616061576040517f08c379a00000000000000000000000000000000000000000000000000000000081526004018080602001828103825260138152602001807f4f776e6572206f6e6c792066756e6374696f6e0000000000000000000000000081525060200191505060405180910390fd5b80600760006101000a81548173ffffffffffffffffffffffffffffffffffffffff021916908373ffffffffffffffffffffffffffffffffffffffff1602179055506160ab81619727565b50565b60008060006160bd8585612b9a565b91506160c98585614a07565b905080821015156160dd57600092506160f3565b6160f08282617a4a90919063ffffffff16565b92505b505092915050565b6000600460009054906101000a900473ffffffffffffffffffffffffffffffffffffffff1673ffffffffffffffffffffffffffffffffffffffff163373ffffffffffffffffffffffffffffffffffffffff16141580156161a95750600560009054906101000a900473ffffffffffffffffffffffffffffffffffffffff1673ffffffffffffffffffffffffffffffffffffffff163373ffffffffffffffffffffffffffffffffffffffff1614155b156161f05733600660006101000a81548173ffffffffffffffffffffffffffffffffffffffff021916908373ffffffffffffffffffffffffffffffffffffffff1602179055505b61621c600660009054906101000a900473ffffffffffffffffffffffffffffffffffffffff16836160ae565b90506162288282613b98565b5050565b600080600061623a846162c4565b9150600082141561624e5760009250616290565b616278847f534e580000000000000000000000000000000000000000000000000000000000612b9a565b905061628d8282617d6790919063ffffffff16565b92505b5050919050565b601060009054906101000a900473ffffffffffffffffffffffffffffffffffffffff1681565b6224ea0081565b600080600760009054906101000a900473ffffffffffffffffffffffffffffffffffffffff1673ffffffffffffffffffffffffffffffffffffffff166370a08231846040518263ffffffff167c0100000000000000000000000000000000000000000000000000000000028152600401808273ffffffffffffffffffffffffffffffffffffffff1673ffffffffffffffffffffffffffffffffffffffff168152602001915050602060405180830381600087803b15801561638457600080fd5b505af1158015616398573d6000803e3d6000fd5b505050506040513d60208110156163ae57600080fd5b81019080805190602001909291905050509050600073ffffffffffffffffffffffffffffffffffffffff16600f60009054906101000a900473ffffffffffffffffffffffffffffffffffffffff1673ffffffffffffffffffffffffffffffffffffffff1614151561652657616523600f60009054906101000a900473ffffffffffffffffffffffffffffffffffffffff1673ffffffffffffffffffffffffffffffffffffffff166370a08231856040518263ffffffff167c0100000000000000000000000000000000000000000000000000000000028152600401808273ffffffffffffffffffffffffffffffffffffffff1673ffffffffffffffffffffffffffffffffffffffff168152602001915050602060405180830381600087803b1580156164d957600080fd5b505af11580156164ed573d6000803e3d6000fd5b505050506040513d602081101561650357600080fd5b810190808051906020019092919050505082617a6b90919063ffffffff16565b90505b600073ffffffffffffffffffffffffffffffffffffffff16601060009054906101000a900473ffffffffffffffffffffffffffffffffffffffff1673ffffffffffffffffffffffffffffffffffffffff1614151561668b57616688601060009054906101000a900473ffffffffffffffffffffffffffffffffffffffff1673ffffffffffffffffffffffffffffffffffffffff166370a08231856040518263ffffffff167c0100000000000000000000000000000000000000000000000000000000028152600401808273ffffffffffffffffffffffffffffffffffffffff1673ffffffffffffffffffffffffffffffffffffffff168152602001915050602060405180830381600087803b15801561663e57600080fd5b505af1158015616652573d6000803e3d6000fd5b505050506040513d602081101561666857600080fd5b810190808051906020019092919050505082617a6b90919063ffffffff16565b90505b80915050919050565b600060606166a3848483617037565b91505092915050565b6000600460009054906101000a900473ffffffffffffffffffffffffffffffffffffffff1673ffffffffffffffffffffffffffffffffffffffff163373ffffffffffffffffffffffffffffffffffffffff161415801561675a5750600560009054906101000a900473ffffffffffffffffffffffffffffffffffffffff1673ffffffffffffffffffffffffffffffffffffffff163373ffffffffffffffffffffffffffffffffffffffff1614155b156167a15733600660006101000a81548173ffffffffffffffffffffffffffffffffffffffff021916908373ffffffffffffffffffffffffffffffffffffffff1602179055505b6167aa8561412e565b8311151515616821576040517f08c379a00000000000000000000000000000000000000000000000000000000081526004018080602001828103825260148152602001807f496e73756666696369656e742062616c616e636500000000000000000000000081525060200191505060405180910390fd5b616850600660009054906101000a900473ffffffffffffffffffffffffffffffffffffffff1686868686619900565b5060019050949350505050565b600e60009054906101000a900473ffffffffffffffffffffffffffffffffffffffff1681565b6000806000806000600460009054906101000a900473ffffffffffffffffffffffffffffffffffffffff1673ffffffffffffffffffffffffffffffffffffffff163373ffffffffffffffffffffffffffffffffffffffff16141580156169375750600560009054906101000a900473ffffffffffffffffffffffffffffffffffffffff1673ffffffffffffffffffffffffffffffffffffffff163373ffffffffffffffffffffffffffffffffffffffff1614155b1561697e5733600660006101000a81548173ffffffffffffffffffffffffffffffffffffffff021916908373ffffffffffffffffffffffffffffffffffffffff1602179055505b6169a987877f5844520000000000000000000000000000000000000000000000000000000000612ffd565b94506169f7600660009054906101000a900473ffffffffffffffffffffffffffffffffffffffff167f5844520000000000000000000000000000000000000000000000000000000000612b9a565b9350616a25600660009054906101000a900473ffffffffffffffffffffffffffffffffffffffff1688612b9a565b9250600084111515616a9f576040517f08c379a00000000000000000000000000000000000000000000000000000000081526004018080602001828103825260128152602001807f4e6f206465627420746f20666f7267697665000000000000000000000000000081525060200191505060405180910390fd5b848410616aac5784616aae565b835b9150616ab982619b67565b858310616ac65785616ac8565b825b9050600d6000887bffffffffffffffffffffffffffffffffffffffffffffffffffffffff19167bffffffffffffffffffffffffffffffffffffffffffffffffffffffff1916815260200190815260200160002060009054906101000a900473ffffffffffffffffffffffffffffffffffffffff1673ffffffffffffffffffffffffffffffffffffffff16639dc29fac600660009054906101000a900473ffffffffffffffffffffffffffffffffffffffff16836040518363ffffffff167c0100000000000000000000000000000000000000000000000000000000028152600401808373ffffffffffffffffffffffffffffffffffffffff1673ffffffffffffffffffffffffffffffffffffffff16815260200182815260200192505050600060405180830381600087803b158015616c0057600080fd5b505af1158015616c14573d6000803e3d6000fd5b50505050616c206194bf565b50505050505050565b600360009054906101000a900460ff1681565b600460009054906101000a900473ffffffffffffffffffffffffffffffffffffffff1673ffffffffffffffffffffffffffffffffffffffff163373ffffffffffffffffffffffffffffffffffffffff161480616ce55750600560009054906101000a900473ffffffffffffffffffffffffffffffffffffffff1673ffffffffffffffffffffffffffffffffffffffff163373ffffffffffffffffffffffffffffffffffffffff16145b1515616d59576040517f08c379a00000000000000000000000000000000000000000000000000000000081526004018080602001828103825260178152602001807f4f6e6c79207468652070726f78792063616e2063616c6c00000000000000000081525060200191505060405180910390fd5b80600660006101000a81548173ffffffffffffffffffffffffffffffffffffffff021916908373ffffffffffffffffffffffffffffffffffffffff16021790555050565b6000809054906101000a900473ffffffffffffffffffffffffffffffffffffffff1673ffffffffffffffffffffffffffffffffffffffff163373ffffffffffffffffffffffffffffffffffffffff16141515616e87576040517f08c379a000000000000000000000000000000000000000000000000000000000815260040180806020018281038252602f8152602001807f4f6e6c792074686520636f6e7472616374206f776e6572206d6179207065726681526020017f6f726d207468697320616374696f6e000000000000000000000000000000000081525060400191505060405180910390fd5b426002819055506001600360006101000a81548160ff0219169083151502179055507fcbd94ca75b8dc45c9d80c77e851670e78843c0d75180cb81db3e2158228fa9a66224ea006040518082815260200191505060405180910390a1565b6000616eef61a136565b827bffffffffffffffffffffffffffffffffffffffffffffffffffffffff1916857bffffffffffffffffffffffffffffffffffffffffffffffffffffffff191614151515616fa5576040517f08c379a00000000000000000000000000000000000000000000000000000000081526004018080602001828103825260138152602001807f43616e27742062652073616d652073796e74680000000000000000000000000081525060200191505060405180910390fd5b60008411151561701d576040517f08c379a000000000000000000000000000000000000000000000000000000000815260040180806020018281038252600b8152602001807f5a65726f20616d6f756e7400000000000000000000000000000000000000000081525060200191505060405180910390fd5b61702c86868686866000617ebc565b905095945050505050565b6000600460009054906101000a900473ffffffffffffffffffffffffffffffffffffffff1673ffffffffffffffffffffffffffffffffffffffff163373ffffffffffffffffffffffffffffffffffffffff16141580156170e55750600560009054906101000a900473ffffffffffffffffffffffffffffffffffffffff1673ffffffffffffffffffffffffffffffffffffffff163373ffffffffffffffffffffffffffffffffffffffff1614155b1561712c5733600660006101000a81548173ffffffffffffffffffffffffffffffffffffffff021916908373ffffffffffffffffffffffffffffffffffffffff1602179055505b617157600660009054906101000a900473ffffffffffffffffffffffffffffffffffffffff1661412e565b83111515156171ce576040517f08c379a00000000000000000000000000000000000000000000000000000000081526004018080602001828103825260148152602001807f496e73756666696369656e742062616c616e636500000000000000000000000081525060200191505060405180910390fd5b6171fc600660009054906101000a900473ffffffffffffffffffffffffffffffffffffffff1685858561a251565b50600190509392505050565b60008061721361a136565b60008314156172255760019150617481565b60008311151561729d576040517f08c379a00000000000000000000000000000000000000000000000000000000081526004018080602001828103825260118152602001807f536f757263652063616e2774206265203000000000000000000000000000000081525060200191505060405180910390fd5b61738c8585857f5844520000000000000000000000000000000000000000000000000000000000600e60009054906101000a900473ffffffffffffffffffffffffffffffffffffffff1673ffffffffffffffffffffffffffffffffffffffff1663eb1edd616040518163ffffffff167c0100000000000000000000000000000000000000000000000000000000028152600401602060405180830381600087803b15801561734a57600080fd5b505af115801561735e573d6000803e3d6000fd5b505050506040513d602081101561737457600080fd5b81019080805190602001909291905050506000617ebc565b9050600e60009054906101000a900473ffffffffffffffffffffffffffffffffffffffff1673ffffffffffffffffffffffffffffffffffffffff1663a3fd6d0e85856040518363ffffffff167c010000000000000000000000000000000000000000000000000000000002815260040180837bffffffffffffffffffffffffffffffffffffffffffffffffffffffff19167bffffffffffffffffffffffffffffffffffffffffffffffffffffffff1916815260200182815260200192505050600060405180830381600087803b15801561746557600080fd5b505af1158015617479573d6000803e3d6000fd5b505050508091505b509392505050565b601360009054906101000a900473ffffffffffffffffffffffffffffffffffffffff1681565b600360019054906101000a900473ffffffffffffffffffffffffffffffffffffffff1681565b601160009054906101000a900473ffffffffffffffffffffffffffffffffffffffff1673ffffffffffffffffffffffffffffffffffffffff16637dc0d1d06040518163ffffffff167c0100000000000000000000000000000000000000000000000000000000028152600401602060405180830381600087803b15801561755b57600080fd5b505af115801561756f573d6000803e3d6000fd5b505050506040513d602081101561758557600080fd5b810190808051906020019092919050505073ffffffffffffffffffffffffffffffffffffffff163373ffffffffffffffffffffffffffffffffffffffff16141515617638576040517f08c379a00000000000000000000000000000000000000000000000000000000081526004018080602001828103825260138152602001807f4f6e6c79206f7261636c6520616c6c6f7765640000000000000000000000000081525060200191505060405180910390fd5b806014806101000a81548160ff02191690831515021790555050565b601260009054906101000a900473ffffffffffffffffffffffffffffffffffffffff1681565b6000600c80549050905090565b6000600760009054906101000a900473ffffffffffffffffffffffffffffffffffffffff1673ffffffffffffffffffffffffffffffffffffffff1663dd62ed3e84846040518363ffffffff167c0100000000000000000000000000000000000000000000000000000000028152600401808373ffffffffffffffffffffffffffffffffffffffff1673ffffffffffffffffffffffffffffffffffffffff1681526020018273ffffffffffffffffffffffffffffffffffffffff1673ffffffffffffffffffffffffffffffffffffffff16815260200192505050602060405180830381600087803b15801561777a57600080fd5b505af115801561778e573d6000803e3d6000fd5b505050506040513d60208110156177a457600080fd5b8101908080519060200190929190505050905092915050565b600f60009054906101000a900473ffffffffffffffffffffffffffffffffffffffff1681565b600760009054906101000a900473ffffffffffffffffffffffffffffffffffffffff1681565b600460009054906101000a900473ffffffffffffffffffffffffffffffffffffffff1681565b601460159054906101000a900460ff1681565b600460009054906101000a900473ffffffffffffffffffffffffffffffffffffffff1673ffffffffffffffffffffffffffffffffffffffff1663907dff978260405160200180828152602001915050604051602081830303815290604052600360405180807f417070726f76616c28616464726573732c616464726573732c75696e7432353681526020017f2900000000000000000000000000000000000000000000000000000000000000815250602101905060405180910390208773ffffffffffffffffffffffffffffffffffffffff166001028773ffffffffffffffffffffffffffffffffffffffff1660010260006040518763ffffffff167c0100000000000000000000000000000000000000000000000000000000028152600401808060200187815260200186600019166000191681526020018560001916600019168152602001846000191660001916815260200183600102600019168152602001828103825288818151815260200191508051906020019080838360005b838110156179dc5780820151818401526020810190506179c1565b50505050905090810190601f168015617a095780820380516001836020036101000a031916815260200191505b50975050505050505050600060405180830381600087803b158015617a2d57600080fd5b505af1158015617a41573d6000803e3d6000fd5b50505050505050565b600080838311151515617a5c57600080fd5b82840390508091505092915050565b6000808284019050838110151515617a8257600080fd5b8091505092915050565b600460009054906101000a900473ffffffffffffffffffffffffffffffffffffffff1673ffffffffffffffffffffffffffffffffffffffff1663907dff978260405160200180828152602001915050604051602081830303815290604052600360405180807f5472616e7366657228616464726573732c616464726573732c75696e7432353681526020017f2900000000000000000000000000000000000000000000000000000000000000815250602101905060405180910390208773ffffffffffffffffffffffffffffffffffffffff166001028773ffffffffffffffffffffffffffffffffffffffff1660010260006040518763ffffffff167c0100000000000000000000000000000000000000000000000000000000028152600401808060200187815260200186600019166000191681526020018560001916600019168152602001846000191660001916815260200183600102600019168152602001828103825288818151815260200191508051906020019080838360005b83811015617c26578082015181840152602081019050617c0b565b50505050905090810190601f168015617c535780820380516001836020036101000a031916815260200191505b50975050505050505050600060405180830381600087803b158015617c7757600080fd5b505af1158015617c8b573d6000803e3d6000fd5b50505050505050565b6000617ca88383601b60ff16600a0a61a269565b905092915050565b6000617cc48383601b60ff16600a0a61a2ca565b905092915050565b6000617ceb6012601b0360ff16600a0a8361a32d90919063ffffffff16565b9050919050565b600080600a6012601b0360ff16600a0a811515617d0b57fe5b0483811515617d1657fe5b0490506005600a82811515617d2757fe5b06101515617d3657600a810190505b600a81811515617d4257fe5b04915050919050565b6000617d5f8383601260ff16600a0a61a2ca565b905092915050565b6000617d7b8383601260ff16600a0a61a269565b905092915050565b6000600d6000847bffffffffffffffffffffffffffffffffffffffffffffffffffffffff19167bffffffffffffffffffffffffffffffffffffffffffffffffffffffff1916815260200190815260200160002060009054906101000a900473ffffffffffffffffffffffffffffffffffffffff1673ffffffffffffffffffffffffffffffffffffffff16639dc29fac85846040518363ffffffff167c0100000000000000000000000000000000000000000000000000000000028152600401808373ffffffffffffffffffffffffffffffffffffffff1673ffffffffffffffffffffffffffffffffffffffff16815260200182815260200192505050600060405180830381600087803b158015617e9957600080fd5b505af1158015617ead573d6000803e3d6000fd5b50505050600190509392505050565b60008060008060008a600e60009054906101000a900473ffffffffffffffffffffffffffffffffffffffff1673ffffffffffffffffffffffffffffffffffffffff1663eb1edd616040518163ffffffff167c0100000000000000000000000000000000000000000000000000000000028152600401602060405180830381600087803b158015617f4b57600080fd5b505af1158015617f5f573d6000803e3d6000fd5b505050506040513d6020811015617f7557600080fd5b810190808051906020019092919050505073ffffffffffffffffffffffffffffffffffffffff168173ffffffffffffffffffffffffffffffffffffffff1614151515618029576040517f08c379a00000000000000000000000000000000000000000000000000000000081526004018080602001828103825260178152602001807f4665652061646472657373206e6f7420616c6c6f77656400000000000000000081525060200191505060405180910390fd5b601460159054906101000a900460ff1615156180ad576040517f08c379a00000000000000000000000000000000000000000000000000000000081526004018080602001828103825260168152602001807f45786368616e67696e672069732064697361626c65640000000000000000000081525060200191505060405180910390fd5b601160009054906101000a900473ffffffffffffffffffffffffffffffffffffffff1673ffffffffffffffffffffffffffffffffffffffff166344d010d46040518163ffffffff167c0100000000000000000000000000000000000000000000000000000000028152600401602060405180830381600087803b15801561813357600080fd5b505af1158015618147573d6000803e3d6000fd5b505050506040513d602081101561815d57600080fd5b81019080805190602001909291905050501515156181e3576040517f08c379a00000000000000000000000000000000000000000000000000000000081526004018080602001828103825260118152602001807f507269636520757064617465206c6f636b00000000000000000000000000000081525060200191505060405180910390fd5b600073ffffffffffffffffffffffffffffffffffffffff168873ffffffffffffffffffffffffffffffffffffffff1614151515618288576040517f08c379a00000000000000000000000000000000000000000000000000000000081526004018080602001828103825260108152602001807f5a65726f2064657374696e6174696f6e0000000000000000000000000000000081525060200191505060405180910390fd5b3073ffffffffffffffffffffffffffffffffffffffff168873ffffffffffffffffffffffffffffffffffffffff161415151561832c576040517f08c379a00000000000000000000000000000000000000000000000000000000081526004018080602001828103825260208152602001807f53796e74686574697820697320696e76616c69642064657374696e6174696f6e81525060200191505060405180910390fd5b600460009054906101000a900473ffffffffffffffffffffffffffffffffffffffff1673ffffffffffffffffffffffffffffffffffffffff168873ffffffffffffffffffffffffffffffffffffffff16141515156183f2576040517f08c379a000000000000000000000000000000000000000000000000000000000815260040180806020018281038252601c8152602001807f50726f787920697320696e76616c69642064657374696e6174696f6e0000000081525060200191505060405180910390fd5b600d60008c7bffffffffffffffffffffffffffffffffffffffffffffffffffffffff19167bffffffffffffffffffffffffffffffffffffffffffffffffffffffff1916815260200190815260200160002060009054906101000a900473ffffffffffffffffffffffffffffffffffffffff1673ffffffffffffffffffffffffffffffffffffffff16639dc29fac8d8c6040518363ffffffff167c0100000000000000000000000000000000000000000000000000000000028152600401808373ffffffffffffffffffffffffffffffffffffffff1673ffffffffffffffffffffffffffffffffffffffff16815260200182815260200192505050600060405180830381600087803b15801561850657600080fd5b505af115801561851a573d6000803e3d6000fd5b505050506185298b8b8b612ffd565b945084935060009250861561861c57600e60009054906101000a900473ffffffffffffffffffffffffffffffffffffffff1673ffffffffffffffffffffffffffffffffffffffff1663e05bac82866040518263ffffffff167c010000000000000000000000000000000000000000000000000000000002815260040180828152602001915050602060405180830381600087803b1580156185c957600080fd5b505af11580156185dd573d6000803e3d6000fd5b505050506040513d60208110156185f357600080fd5b810190808051906020019092919050505093506186198486617a4a90919063ffffffff16565b92505b600d60008a7bffffffffffffffffffffffffffffffffffffffffffffffffffffffff19167bffffffffffffffffffffffffffffffffffffffffffffffffffffffff1916815260200190815260200160002060009054906101000a900473ffffffffffffffffffffffffffffffffffffffff1673ffffffffffffffffffffffffffffffffffffffff1663867904b489866040518363ffffffff167c0100000000000000000000000000000000000000000000000000000000028152600401808373ffffffffffffffffffffffffffffffffffffffff1673ffffffffffffffffffffffffffffffffffffffff16815260200182815260200192505050600060405180830381600087803b15801561873057600080fd5b505af1158015618744573d6000803e3d6000fd5b505050506000831115618a3d5761877c89847f5844520000000000000000000000000000000000000000000000000000000000612ffd565b9150600d60007f58445200000000000000000000000000000000000000000000000000000000007bffffffffffffffffffffffffffffffffffffffffffffffffffffffff1916815260200190815260200160002060009054906101000a900473ffffffffffffffffffffffffffffffffffffffff1673ffffffffffffffffffffffffffffffffffffffff1663867904b4600e60009054906101000a900473ffffffffffffffffffffffffffffffffffffffff1673ffffffffffffffffffffffffffffffffffffffff1663eb1edd616040518163ffffffff167c0100000000000000000000000000000000000000000000000000000000028152600401602060405180830381600087803b15801561889257600080fd5b505af11580156188a6573d6000803e3d6000fd5b505050506040513d60208110156188bc57600080fd5b8101908080519060200190929190505050846040518363ffffffff167c0100000000000000000000000000000000000000000000000000000000028152600401808373ffffffffffffffffffffffffffffffffffffffff1673ffffffffffffffffffffffffffffffffffffffff16815260200182815260200192505050600060405180830381600087803b15801561895357600080fd5b505af1158015618967573d6000803e3d6000fd5b50505050600e60009054906101000a900473ffffffffffffffffffffffffffffffffffffffff1673ffffffffffffffffffffffffffffffffffffffff1663a3fd6d0e836040518263ffffffff167c010000000000000000000000000000000000000000000000000000000002815260040180807f5844520000000000000000000000000000000000000000000000000000000000815250602001828152602001915050600060405180830381600087803b158015618a2457600080fd5b505af1158015618a38573d6000803e3d6000fd5b505050505b600d60008a7bffffffffffffffffffffffffffffffffffffffffffffffffffffffff19167bffffffffffffffffffffffffffffffffffffffffffffffffffffffff1916815260200190815260200160002060009054906101000a900473ffffffffffffffffffffffffffffffffffffffff1673ffffffffffffffffffffffffffffffffffffffff1663eb6ecc038d8a876040518463ffffffff167c0100000000000000000000000000000000000000000000000000000000028152600401808473ffffffffffffffffffffffffffffffffffffffff1673ffffffffffffffffffffffffffffffffffffffff1681526020018373ffffffffffffffffffffffffffffffffffffffff1673ffffffffffffffffffffffffffffffffffffffff1681526020018281526020019350505050600060405180830381600087803b158015618b8557600080fd5b505af1158015618b99573d6000803e3d6000fd5b50505050618bab8c8c8c8c888d61a36b565b6001955050505050509695505050505050565b600080600080600080600460009054906101000a900473ffffffffffffffffffffffffffffffffffffffff1673ffffffffffffffffffffffffffffffffffffffff163373ffffffffffffffffffffffffffffffffffffffff1614158015618c735750600560009054906101000a900473ffffffffffffffffffffffffffffffffffffffff1673ffffffffffffffffffffffffffffffffffffffff163373ffffffffffffffffffffffffffffffffffffffff1614155b15618cba5733600660006101000a81548173ffffffffffffffffffffffffffffffffffffffff021916908373ffffffffffffffffffffffffffffffffffffffff1602179055505b618ce588887f5844520000000000000000000000000000000000000000000000000000000000612ffd565b9550618d107f5844520000000000000000000000000000000000000000000000000000000000613186565b9450618d258587617a6b90919063ffffffff16565b9350618d3a8487617c9490919063ffffffff16565b9250618de98373__SafeDecimalMath_______________________63d5e5e6e66040518163ffffffff167c010000000000000000000000000000000000000000000000000000000002815260040160206040518083038186803b158015618da057600080fd5b505af4158015618db4573d6000803e3d6000fd5b505050506040513d6020811015618dca57600080fd5b8101908080519060200190929190505050617a4a90919063ffffffff16565b9150618e37600660009054906101000a900473ffffffffffffffffffffffffffffffffffffffff167f5844520000000000000000000000000000000000000000000000000000000000612b9a565b90506000811115618e6a57618e6784618e598389617a6b90919063ffffffff16565b617c9490919063ffffffff16565b92505b601260009054906101000a900473ffffffffffffffffffffffffffffffffffffffff1673ffffffffffffffffffffffffffffffffffffffff1663b992812e600660009054906101000a900473ffffffffffffffffffffffffffffffffffffffff166040518263ffffffff167c0100000000000000000000000000000000000000000000000000000000028152600401808273ffffffffffffffffffffffffffffffffffffffff1673ffffffffffffffffffffffffffffffffffffffff168152602001915050602060405180830381600087803b158015618f4957600080fd5b505af1158015618f5d573d6000803e3d6000fd5b505050506040513d6020811015618f7357600080fd5b8101908080519060200190929190505050151561902957601260009054906101000a900473ffffffffffffffffffffffffffffffffffffffff1673ffffffffffffffffffffffffffffffffffffffff16631bfba5956040518163ffffffff167c0100000000000000000000000000000000000000000000000000000000028152600401600060405180830381600087803b15801561901057600080fd5b505af1158015619024573d6000803e3d6000fd5b505050505b601260009054906101000a900473ffffffffffffffffffffffffffffffffffffffff1673ffffffffffffffffffffffffffffffffffffffff1663a764eb45600660009054906101000a900473ffffffffffffffffffffffffffffffffffffffff16856040518363ffffffff167c0100000000000000000000000000000000000000000000000000000000028152600401808373ffffffffffffffffffffffffffffffffffffffff1673ffffffffffffffffffffffffffffffffffffffff16815260200182815260200192505050600060405180830381600087803b15801561911057600080fd5b505af1158015619124573d6000803e3d6000fd5b505050506000601260009054906101000a900473ffffffffffffffffffffffffffffffffffffffff1673ffffffffffffffffffffffffffffffffffffffff1663cd92eba96040518163ffffffff167c0100000000000000000000000000000000000000000000000000000000028152600401602060405180830381600087803b1580156191b057600080fd5b505af11580156191c4573d6000803e3d6000fd5b505050506040513d60208110156191da57600080fd5b8101908080519060200190929190505050111561937157601260009054906101000a900473ffffffffffffffffffffffffffffffffffffffff1673ffffffffffffffffffffffffffffffffffffffff16633d31e97b61930284601260009054906101000a900473ffffffffffffffffffffffffffffffffffffffff1673ffffffffffffffffffffffffffffffffffffffff1663463177126040518163ffffffff167c0100000000000000000000000000000000000000000000000000000000028152600401602060405180830381600087803b1580156192b957600080fd5b505af11580156192cd573d6000803e3d6000fd5b505050506040513d60208110156192e357600080fd5b8101908080519060200190929190505050617cb090919063ffffffff16565b6040518263ffffffff167c010000000000000000000000000000000000000000000000000000000002815260040180828152602001915050600060405180830381600087803b15801561935457600080fd5b505af1158015619368573d6000803e3d6000fd5b505050506194b5565b601260009054906101000a900473ffffffffffffffffffffffffffffffffffffffff1673ffffffffffffffffffffffffffffffffffffffff16633d31e97b73__SafeDecimalMath_______________________63d5e5e6e66040518163ffffffff167c010000000000000000000000000000000000000000000000000000000002815260040160206040518083038186803b15801561940f57600080fd5b505af4158015619423573d6000803e3d6000fd5b505050506040513d602081101561943957600080fd5b81019080805190602001909291905050506040518263ffffffff167c010000000000000000000000000000000000000000000000000000000002815260040180828152602001915050600060405180830381600087803b15801561949c57600080fd5b505af11580156194b0573d6000803e3d6000fd5b505050505b5050505050505050565b600080601260009054906101000a900473ffffffffffffffffffffffffffffffffffffffff1673ffffffffffffffffffffffffffffffffffffffff16638b3f8088600660009054906101000a900473ffffffffffffffffffffffffffffffffffffffff166040518263ffffffff167c0100000000000000000000000000000000000000000000000000000000028152600401808273ffffffffffffffffffffffffffffffffffffffff1673ffffffffffffffffffffffffffffffffffffffff1681526020019150506040805180830381600087803b1580156195a057600080fd5b505af11580156195b4573d6000803e3d6000fd5b505050506040513d60408110156195ca57600080fd5b8101908080519060200190929190805190602001909291905050508092508193505050600e60009054906101000a900473ffffffffffffffffffffffffffffffffffffffff1673ffffffffffffffffffffffffffffffffffffffff166386645274600660009054906101000a900473ffffffffffffffffffffffffffffffffffffffff1684846040518463ffffffff167c0100000000000000000000000000000000000000000000000000000000028152600401808473ffffffffffffffffffffffffffffffffffffffff1673ffffffffffffffffffffffffffffffffffffffff1681526020018381526020018281526020019350505050600060405180830381600087803b1580156196dc57600080fd5b505af11580156196f0573d6000803e3d6000fd5b505050505050565b6000601260ff16600a0a619715838561a32d90919063ffffffff16565b81151561971e57fe5b04905092915050565b600460009054906101000a900473ffffffffffffffffffffffffffffffffffffffff1673ffffffffffffffffffffffffffffffffffffffff1663907dff9782604051602001808273ffffffffffffffffffffffffffffffffffffffff1673ffffffffffffffffffffffffffffffffffffffff168152602001915050604051602081830303815290604052600160405180807f546f6b656e537461746555706461746564286164647265737329000000000000815250601a019050604051809103902060008060006040518763ffffffff167c010000000000000000000000000000000000000000000000000000000002815260040180806020018781526020018660001916600019168152602001856001026000191681526020018460010260001916815260200183600102600019168152602001828103825288818151815260200191508051906020019080838360005b83811015619894578082015181840152602081019050619879565b50505050905090810190601f1680156198c15780820380516001836020036101000a031916815260200191505b50975050505050505050600060405180830381600087803b1580156198e557600080fd5b505af11580156198f9573d6000803e3d6000fd5b5050505050565b6000600760009054906101000a900473ffffffffffffffffffffffffffffffffffffffff1673ffffffffffffffffffffffffffffffffffffffff1663da46098c8688619a8087600760009054906101000a900473ffffffffffffffffffffffffffffffffffffffff1673ffffffffffffffffffffffffffffffffffffffff1663dd62ed3e8c8e6040518363ffffffff167c0100000000000000000000000000000000000000000000000000000000028152600401808373ffffffffffffffffffffffffffffffffffffffff1673ffffffffffffffffffffffffffffffffffffffff1681526020018273ffffffffffffffffffffffffffffffffffffffff1673ffffffffffffffffffffffffffffffffffffffff16815260200192505050602060405180830381600087803b158015619a3757600080fd5b505af1158015619a4b573d6000803e3d6000fd5b505050506040513d6020811015619a6157600080fd5b8101908080519060200190929190505050617a4a90919063ffffffff16565b6040518463ffffffff167c0100000000000000000000000000000000000000000000000000000000028152600401808473ffffffffffffffffffffffffffffffffffffffff1673ffffffffffffffffffffffffffffffffffffffff1681526020018373ffffffffffffffffffffffffffffffffffffffff1673ffffffffffffffffffffffffffffffffffffffff1681526020018281526020019350505050600060405180830381600087803b158015619b3857600080fd5b505af1158015619b4c573d6000803e3d6000fd5b50505050619b5c8585858561a624565b905095945050505050565b600080600080600080600080889750619bc2600660009054906101000a900473ffffffffffffffffffffffffffffffffffffffff167f5844520000000000000000000000000000000000000000000000000000000000612b9a565b9650619bed7f5844520000000000000000000000000000000000000000000000000000000000613186565b9550619c028887617a4a90919063ffffffff16565b94506000851115619cd657619c208589617c9490919063ffffffff16565b9250619ccf8373__SafeDecimalMath_______________________63d5e5e6e66040518163ffffffff167c010000000000000000000000000000000000000000000000000000000002815260040160206040518083038186803b158015619c8657600080fd5b505af4158015619c9a573d6000803e3d6000fd5b505050506040513d6020811015619cb057600080fd5b8101908080519060200190929190505050617a6b90919063ffffffff16565b9350619cdb565b600093505b86881415619e8657601260009054906101000a900473ffffffffffffffffffffffffffffffffffffffff1673ffffffffffffffffffffffffffffffffffffffff1663a764eb45600660009054906101000a900473ffffffffffffffffffffffffffffffffffffffff1660006040518363ffffffff167c0100000000000000000000000000000000000000000000000000000000028152600401808373ffffffffffffffffffffffffffffffffffffffff1673ffffffffffffffffffffffffffffffffffffffff16815260200182815260200192505050600060405180830381600087803b158015619dcb57600080fd5b505af1158015619ddf573d6000803e3d6000fd5b50505050601260009054906101000a900473ffffffffffffffffffffffffffffffffffffffff1673ffffffffffffffffffffffffffffffffffffffff1663ba08f2996040518163ffffffff167c0100000000000000000000000000000000000000000000000000000000028152600401600060405180830381600087803b158015619e6957600080fd5b505af1158015619e7d573d6000803e3d6000fd5b50505050619fb0565b619e998888617a4a90919063ffffffff16565b9150619eae8583617c9490919063ffffffff16565b9050601260009054906101000a900473ffffffffffffffffffffffffffffffffffffffff1673ffffffffffffffffffffffffffffffffffffffff1663a764eb45600660009054906101000a900473ffffffffffffffffffffffffffffffffffffffff16836040518363ffffffff167c0100000000000000000000000000000000000000000000000000000000028152600401808373ffffffffffffffffffffffffffffffffffffffff1673ffffffffffffffffffffffffffffffffffffffff16815260200182815260200192505050600060405180830381600087803b158015619f9757600080fd5b505af1158015619fab573d6000803e3d6000fd5b505050505b601260009054906101000a900473ffffffffffffffffffffffffffffffffffffffff1673ffffffffffffffffffffffffffffffffffffffff16633d31e97b61a0c186601260009054906101000a900473ffffffffffffffffffffffffffffffffffffffff1673ffffffffffffffffffffffffffffffffffffffff1663463177126040518163ffffffff167c0100000000000000000000000000000000000000000000000000000000028152600401602060405180830381600087803b15801561a07857600080fd5b505af115801561a08c573d6000803e3d6000fd5b505050506040513d602081101561a0a257600080fd5b8101908080519060200190929190505050617cb090919063ffffffff16565b6040518263ffffffff167c010000000000000000000000000000000000000000000000000000000002815260040180828152602001915050600060405180830381600087803b15801561a11357600080fd5b505af115801561a127573d6000803e3d6000fd5b50505050505050505050505050565b60008060009150600090505b600c805490508160ff16101561a1d8573373ffffffffffffffffffffffffffffffffffffffff16600c8260ff1681548110151561a17b57fe5b9060005260206000200160009054906101000a900473ffffffffffffffffffffffffffffffffffffffff1673ffffffffffffffffffffffffffffffffffffffff16141561a1cb576001915061a1d8565b808060010191505061a142565b81151561a24d576040517f08c379a00000000000000000000000000000000000000000000000000000000081526004018080602001828103825260128152602001807f4f6e6c792073796e746820616c6c6f776564000000000000000000000000000081525060200191505060405180910390fd5b5050565b600061a25f8585858561a624565b9050949350505050565b60008061a2948461a286600a86028861a32d90919063ffffffff16565b61ac2390919063ffffffff16565b90506005600a8281151561a2a457fe5b0610151561a2b357600a810190505b600a8181151561a2bf57fe5b049150509392505050565b600080600a8381151561a2d957fe5b0461a2ed858761a32d90919063ffffffff16565b81151561a2f657fe5b0490506005600a8281151561a30757fe5b0610151561a31657600a810190505b600a8181151561a32257fe5b049150509392505050565b600080600084141561a342576000915061a364565b828402905082848281151561a35357fe5b0414151561a36057600080fd5b8091505b5092915050565b600460009054906101000a900473ffffffffffffffffffffffffffffffffffffffff1673ffffffffffffffffffffffffffffffffffffffff1663907dff97868686868660405160200180867bffffffffffffffffffffffffffffffffffffffffffffffffffffffff19167bffffffffffffffffffffffffffffffffffffffffffffffffffffffff19168152602001858152602001847bffffffffffffffffffffffffffffffffffffffffffffffffffffffff19167bffffffffffffffffffffffffffffffffffffffffffffffffffffffff191681526020018381526020018273ffffffffffffffffffffffffffffffffffffffff1673ffffffffffffffffffffffffffffffffffffffff16815260200195505050505050604051602081830303815290604052600260405180807f53796e746845786368616e676528616464726573732c6279746573342c75696e81526020017f743235362c6279746573342c75696e743235362c616464726573732900000000815250603c01905060405180910390208a73ffffffffffffffffffffffffffffffffffffffff166001026000806040518763ffffffff167c01000000000000000000000000000000000000000000000000000000000281526004018080602001878152602001866000191660001916815260200185600019166000191681526020018460010260001916815260200183600102600019168152602001828103825288818151815260200191508051906020019080838360005b8381101561a5b357808201518184015260208101905061a598565b50505050905090810190601f16801561a5e05780820380516001836020036101000a031916815260200191505b50975050505050505050600060405180830381600087803b15801561a60457600080fd5b505af115801561a618573d6000803e3d6000fd5b50505050505050505050565b60008073ffffffffffffffffffffffffffffffffffffffff168473ffffffffffffffffffffffffffffffffffffffff161415151561a6ca576040517f08c379a00000000000000000000000000000000000000000000000000000000081526004018080602001828103825260208152602001807f43616e6e6f74207472616e7366657220746f207468652030206164647265737381525060200191505060405180910390fd5b3073ffffffffffffffffffffffffffffffffffffffff168473ffffffffffffffffffffffffffffffffffffffff161415151561a76e576040517f08c379a000000000000000000000000000000000000000000000000000000000815260040180806020018281038252601f8152602001807f43616e6e6f74207472616e7366657220746f2074686520636f6e74726163740081525060200191505060405180910390fd5b600460009054906101000a900473ffffffffffffffffffffffffffffffffffffffff1673ffffffffffffffffffffffffffffffffffffffff168473ffffffffffffffffffffffffffffffffffffffff161415151561a834576040517f08c379a000000000000000000000000000000000000000000000000000000000815260040180806020018281038252601c8152602001807f43616e6e6f74207472616e7366657220746f207468652070726f78790000000081525060200191505060405180910390fd5b600760009054906101000a900473ffffffffffffffffffffffffffffffffffffffff1673ffffffffffffffffffffffffffffffffffffffff1663b46310f68661a97d86600760009054906101000a900473ffffffffffffffffffffffffffffffffffffffff1673ffffffffffffffffffffffffffffffffffffffff166370a082318b6040518263ffffffff167c0100000000000000000000000000000000000000000000000000000000028152600401808273ffffffffffffffffffffffffffffffffffffffff1673ffffffffffffffffffffffffffffffffffffffff168152602001915050602060405180830381600087803b15801561a93457600080fd5b505af115801561a948573d6000803e3d6000fd5b505050506040513d602081101561a95e57600080fd5b8101908080519060200190929190505050617a4a90919063ffffffff16565b6040518363ffffffff167c0100000000000000000000000000000000000000000000000000000000028152600401808373ffffffffffffffffffffffffffffffffffffffff1673ffffffffffffffffffffffffffffffffffffffff16815260200182815260200192505050600060405180830381600087803b15801561aa0257600080fd5b505af115801561aa16573d6000803e3d6000fd5b50505050600760009054906101000a900473ffffffffffffffffffffffffffffffffffffffff1673ffffffffffffffffffffffffffffffffffffffff1663b46310f68561ab6386600760009054906101000a900473ffffffffffffffffffffffffffffffffffffffff1673ffffffffffffffffffffffffffffffffffffffff166370a082318a6040518263ffffffff167c0100000000000000000000000000000000000000000000000000000000028152600401808273ffffffffffffffffffffffffffffffffffffffff1673ffffffffffffffffffffffffffffffffffffffff168152602001915050602060405180830381600087803b15801561ab1a57600080fd5b505af115801561ab2e573d6000803e3d6000fd5b505050506040513d602081101561ab4457600080fd5b8101908080519060200190929190505050617a6b90919063ffffffff16565b6040518363ffffffff167c0100000000000000000000000000000000000000000000000000000000028152600401808373ffffffffffffffffffffffffffffffffffffffff1673ffffffffffffffffffffffffffffffffffffffff16815260200182815260200192505050600060405180830381600087803b15801561abe857600080fd5b505af115801561abfc573d6000803e3d6000fd5b5050505061ac0c8585858561ac4d565b61ac17858585617a8c565b60019050949350505050565b60008060008311151561ac3557600080fd5b828481151561ac4057fe5b0490508091505092915050565b6000600660149054906101000a900460ff1615151561acd4576040517f08c379a000000000000000000000000000000000000000000000000000000000815260040180806020018281038252601e8152602001807f526576657274656420746f2070726576656e74207265656e7472616e6379000081525060200191505060405180910390fd5b6001600660146101000a81548160ff021916908315150217905550833b9050600081111561aeb3578373ffffffffffffffffffffffffffffffffffffffff16858484604051602401808473ffffffffffffffffffffffffffffffffffffffff1673ffffffffffffffffffffffffffffffffffffffff16815260200183815260200180602001828103825283818151815260200191508051906020019080838360005b8381101561ad9157808201518184015260208101905061ad76565b50505050905090810190601f16801561adbe5780820380516001836020036101000a031916815260200191505b509450505050506040516020818303038152906040527fc0ee0b8a000000000000000000000000000000000000000000000000000000007bffffffffffffffffffffffffffffffffffffffffffffffffffffffff19166020820180517bffffffffffffffffffffffffffffffffffffffffffffffffffffffff838183161783525050505060405180828051906020019080838360005b8381101561ae6f57808201518184015260208101905061ae54565b50505050905090810190601f16801561ae9c5780820380516001836020036101000a031916815260200191505b509150506000604051808303816000865af1915050505b6000600660146101000a81548160ff0219169083151502179055505050505050565b81548183558181111561aefc5781836000526020600020918201910161aefb919061af01565b5b505050565b61af2391905b8082111561af1f57600081600090555060010161af07565b5090565b905600a165627a7a7230582008c977fd43dfe5dfda8be27bcbf7e10daf58046e7eb57bf9a7ce9f1b0949c6110029",
  "source": "/*\n-----------------------------------------------------------------\nFILE INFORMATION\n-----------------------------------------------------------------\n\nfile:       Synthetix.sol\nversion:    2.0\nauthor:     Kevin Brown\n            Gavin Conway\ndate:       2018-09-14\n\n-----------------------------------------------------------------\nMODULE DESCRIPTION\n-----------------------------------------------------------------\n\nSynthetix token contract. SNX is a transferable ERC20 token,\nand also give its holders the following privileges.\nAn owner of SNX has the right to issue synths in all synth flavours.\n\nAfter a fee period terminates, the duration and fees collected for that\nperiod are computed, and the next period begins. Thus an account may only\nwithdraw the fees owed to them for the previous period, and may only do\nso once per period. Any unclaimed fees roll over into the common pot for\nthe next period.\n\n== Average Balance Calculations ==\n\nThe fee entitlement of a synthetix holder is proportional to their average\nissued synth balance over the last fee period. This is computed by\nmeasuring the area under the graph of a user's issued synth balance over\ntime, and then when a new fee period begins, dividing through by the\nduration of the fee period.\n\nWe need only update values when the balances of an account is modified.\nThis occurs when issuing or burning for issued synth balances,\nand when transferring for synthetix balances. This is for efficiency,\nand adds an implicit friction to interacting with SNX.\nA synthetix holder pays for his own recomputation whenever he wants to change\nhis position, which saves the foundation having to maintain a pot dedicated\nto resourcing this.\n\nA hypothetical user's balance history over one fee period, pictorially:\n\n      s ____\n       |    |\n       |    |___ p\n       |____|___|___ __ _  _\n       f    t   n\n\nHere, the balance was s between times f and t, at which time a transfer\noccurred, updating the balance to p, until n, when the present transfer occurs.\nWhen a new transfer occurs at time n, the balance being p,\nwe must:\n\n  - Add the area p * (n - t) to the total area recorded so far\n  - Update the last transfer time to n\n\nSo if this graph represents the entire current fee period,\nthe average SNX held so far is ((t-f)*s + (n-t)*p) / (n-f).\nThe complementary computations must be performed for both sender and\nrecipient.\n\nNote that a transfer keeps global supply of SNX invariant.\nThe sum of all balances is constant, and unmodified by any transfer.\nSo the sum of all balances multiplied by the duration of a fee period is also\nconstant, and this is equivalent to the sum of the area of every user's\ntime/balance graph. Dividing through by that duration yields back the total\nsynthetix supply. So, at the end of a fee period, we really do yield a user's\naverage share in the synthetix supply over that period.\n\nA slight wrinkle is introduced if we consider the time r when the fee period\nrolls over. Then the previous fee period k-1 is before r, and the current fee\nperiod k is afterwards. If the last transfer took place before r,\nbut the latest transfer occurred afterwards:\n\nk-1       |        k\n      s __|_\n       |  | |\n       |  | |____ p\n       |__|_|____|___ __ _  _\n          |\n       f  | t    n\n          r\n\nIn this situation the area (r-f)*s contributes to fee period k-1, while\nthe area (t-r)*s contributes to fee period k. We will implicitly consider a\nzero-value transfer to have occurred at time r. Their fee entitlement for the\nprevious period will be finalised at the time of their first transfer during the\ncurrent fee period, or when they query or withdraw their fee entitlement.\n\nIn the implementation, the duration of different fee periods may be slightly irregular,\nas the check that they have rolled over occurs only when state-changing synthetix\noperations are performed.\n\n== Issuance and Burning ==\n\nIn this version of the synthetix contract, synths can only be issued by\nthose that have been nominated by the synthetix foundation. Synths are assumed\nto be valued at $1, as they are a stable unit of account.\n\nAll synths issued require a proportional value of SNX to be locked,\nwhere the proportion is governed by the current issuance ratio. This\nmeans for every $1 of SNX locked up, $(issuanceRatio) synths can be issued.\ni.e. to issue 100 synths, 100/issuanceRatio dollars of SNX need to be locked up.\n\nTo determine the value of some amount of SNX(S), an oracle is used to push\nthe price of SNX (P_S) in dollars to the contract. The value of S\nwould then be: S * P_S.\n\nAny SNX that are locked up by this issuance process cannot be transferred.\nThe amount that is locked floats based on the price of SNX. If the price\nof SNX moves up, less SNX are locked, so they can be issued against,\nor transferred freely. If the price of SNX moves down, more SNX are locked,\neven going above the initial wallet balance.\n\n-----------------------------------------------------------------\n*/\n\npragma solidity 0.4.25;\n\n\nimport \"./ExternStateToken.sol\";\nimport \"./TokenState.sol\";\nimport \"./SupplySchedule.sol\";\nimport \"./ExchangeRates.sol\";\nimport \"./SynthetixState.sol\";\nimport \"./Synth.sol\";\nimport \"./interfaces/ISynthetixEscrow.sol\";\nimport \"./interfaces/IFeePool.sol\";\nimport \"./interfaces/IRewardsDistribution.sol\";\n\n/**\n * @title Synthetix ERC20 contract.\n * @notice The Synthetix contracts not only facilitates transfers, exchanges, and tracks balances,\n * but it also computes the quantity of fees each synthetix holder is entitled to.\n */\ncontract Synthetix is ExternStateToken {\n\n    // ========== STATE VARIABLES ==========\n\n    // Available Synths which can be used with the system\n    Synth[] public availableSynths;\n    mapping(bytes4 => Synth) public synths;\n\n    IFeePool public feePool;\n    ISynthetixEscrow public escrow;\n    ISynthetixEscrow public rewardEscrow;\n    ExchangeRates public exchangeRates;\n    SynthetixState public synthetixState;\n    SupplySchedule public supplySchedule;\n    IRewardsDistribution public rewardsDistribution;\n\n    bool private protectionCircuit = false;\n\n    string constant TOKEN_NAME = \"Synthetix Network Token\";\n    string constant TOKEN_SYMBOL = \"SNX\";\n    uint8 constant DECIMALS = 18;\n    bool public exchangeEnabled = true;\n\n    // ========== CONSTRUCTOR ==========\n\n    /**\n     * @dev Constructor\n     * @param _tokenState A pre-populated contract containing token balances.\n     * If the provided address is 0x0, then a fresh one will be constructed with the contract owning all tokens.\n     * @param _owner The owner of this contract.\n     */\n    constructor(address _proxy, TokenState _tokenState, SynthetixState _synthetixState,\n        address _owner, ExchangeRates _exchangeRates, IFeePool _feePool, SupplySchedule _supplySchedule,\n        ISynthetixEscrow _rewardEscrow, ISynthetixEscrow _escrow, IRewardsDistribution _rewardsDistribution, uint _totalSupply\n    )\n        ExternStateToken(_proxy, _tokenState, TOKEN_NAME, TOKEN_SYMBOL, _totalSupply, DECIMALS, _owner)\n        public\n    {\n        synthetixState = _synthetixState;\n        exchangeRates = _exchangeRates;\n        feePool = _feePool;\n        supplySchedule = _supplySchedule;\n        rewardEscrow = _rewardEscrow;\n        escrow = _escrow;\n        rewardsDistribution = _rewardsDistribution;\n    }\n    // ========== SETTERS ========== */\n\n    function setFeePool(IFeePool _feePool)\n        external\n        optionalProxy_onlyOwner\n    {\n        feePool = _feePool;\n    }\n\n    function setExchangeRates(ExchangeRates _exchangeRates)\n        external\n        optionalProxy_onlyOwner\n    {\n        exchangeRates = _exchangeRates;\n    }\n\n    function setProtectionCircuit(bool _protectionCircuitIsActivated)\n        external\n        onlyOracle\n    {\n        protectionCircuit = _protectionCircuitIsActivated;\n    }\n\n    function setExchangeEnabled(bool _exchangeEnabled)\n        external\n        optionalProxy_onlyOwner\n    {\n        exchangeEnabled = _exchangeEnabled;\n    }\n\n    /**\n     * @notice Add an associated Synth contract to the Synthetix system\n     * @dev Only the contract owner may call this.\n     */\n    function addSynth(Synth synth)\n        external\n        optionalProxy_onlyOwner\n    {\n        bytes4 currencyKey = synth.currencyKey();\n\n        require(synths[currencyKey] == Synth(0), \"Synth already exists\");\n\n        availableSynths.push(synth);\n        synths[currencyKey] = synth;\n    }\n\n    /**\n     * @notice Remove an associated Synth contract from the Synthetix system\n     * @dev Only the contract owner may call this.\n     */\n    function removeSynth(bytes4 currencyKey)\n        external\n        optionalProxy_onlyOwner\n    {\n        require(synths[currencyKey] != address(0), \"Synth does not exist\");\n        require(synths[currencyKey].totalSupply() == 0, \"Synth supply exists\");\n        require(currencyKey != \"XDR\", \"Cannot remove XDR synth\");\n\n        // Save the address we're removing for emitting the event at the end.\n        address synthToRemove = synths[currencyKey];\n\n        // Remove the synth from the availableSynths array.\n        for (uint8 i = 0; i < availableSynths.length; i++) {\n            if (availableSynths[i] == synthToRemove) {\n                delete availableSynths[i];\n\n                // Copy the last synth into the place of the one we just deleted\n                // If there's only one synth, this is synths[0] = synths[0].\n                // If we're deleting the last one, it's also a NOOP in the same way.\n                availableSynths[i] = availableSynths[availableSynths.length - 1];\n\n                // Decrease the size of the array by one.\n                availableSynths.length--;\n\n                break;\n            }\n        }\n\n        // And remove it from the synths mapping\n        delete synths[currencyKey];\n\n        // Note: No event here as our contract exceeds max contract size\n        // with these events, and it's unlikely people will need to\n        // track these events specifically.\n    }\n\n    // ========== VIEWS ==========\n\n    /**\n     * @notice A function that lets you easily convert an amount in a source currency to an amount in the destination currency\n     * @param sourceCurrencyKey The currency the amount is specified in\n     * @param sourceAmount The source amount, specified in UNIT base\n     * @param destinationCurrencyKey The destination currency\n     */\n    function effectiveValue(bytes4 sourceCurrencyKey, uint sourceAmount, bytes4 destinationCurrencyKey)\n        public\n        view\n        returns (uint)\n    {\n        return exchangeRates.effectiveValue(sourceCurrencyKey, sourceAmount, destinationCurrencyKey);\n    }\n\n    /**\n     * @notice Total amount of synths issued by the system, priced in currencyKey\n     * @param currencyKey The currency to value the synths in\n     */\n    function totalIssuedSynths(bytes4 currencyKey)\n        public\n        view\n        rateNotStale(currencyKey)\n        returns (uint)\n    {\n        uint total = 0;\n        uint currencyRate = exchangeRates.rateForCurrency(currencyKey);\n\n        require(!exchangeRates.anyRateIsStale(availableCurrencyKeys()), \"Rates are stale\");\n\n        for (uint8 i = 0; i < availableSynths.length; i++) {\n            // What's the total issued value of that synth in the destination currency?\n            // Note: We're not using our effectiveValue function because we don't want to go get the\n            //       rate for the destination currency and check if it's stale repeatedly on every\n            //       iteration of the loop\n            uint synthValue = availableSynths[i].totalSupply()\n                .multiplyDecimalRound(exchangeRates.rateForCurrency(availableSynths[i].currencyKey()))\n                .divideDecimalRound(currencyRate);\n            total = total.add(synthValue);\n        }\n\n        return total;\n    }\n\n    /**\n     * @notice Returns the currencyKeys of availableSynths for rate checking\n     */\n    function availableCurrencyKeys()\n        public\n        view\n        returns (bytes4[])\n    {\n        bytes4[] memory availableCurrencyKeys = new bytes4[](availableSynths.length);\n\n        for (uint8 i = 0; i < availableSynths.length; i++) {\n            availableCurrencyKeys[i] = availableSynths[i].currencyKey();\n        }\n\n        return availableCurrencyKeys;\n    }\n\n    /**\n     * @notice Returns the count of available synths in the system, which you can use to iterate availableSynths\n     */\n    function availableSynthCount()\n        public\n        view\n        returns (uint)\n    {\n        return availableSynths.length;\n    }\n\n    // ========== MUTATIVE FUNCTIONS ==========\n\n    /**\n     * @notice ERC20 transfer function.\n     */\n    function transfer(address to, uint value)\n        public\n        returns (bool)\n    {\n        bytes memory empty;\n        return transfer(to, value, empty);\n    }\n\n    /**\n     * @notice ERC223 transfer function. Does not conform with the ERC223 spec, as:\n     *         - Transaction doesn't revert if the recipient doesn't implement tokenFallback()\n     *         - Emits a standard ERC20 event without the bytes data parameter so as not to confuse\n     *           tooling such as Etherscan.\n     */\n    function transfer(address to, uint value, bytes data)\n        public\n        optionalProxy\n        returns (bool)\n    {\n        // Ensure they're not trying to exceed their locked amount\n        require(value <= transferableSynthetix(messageSender), \"Insufficient balance\");\n\n        // Perform the transfer: if there is a problem an exception will be thrown in this call.\n        _transfer_byProxy(messageSender, to, value, data);\n\n        return true;\n    }\n\n    /**\n     * @notice ERC20 transferFrom function.\n     */\n    function transferFrom(address from, address to, uint value)\n        public\n        returns (bool)\n    {\n        bytes memory empty;\n        return transferFrom(from, to, value, empty);\n    }\n\n    /**\n     * @notice ERC223 transferFrom function. Does not conform with the ERC223 spec, as:\n     *         - Transaction doesn't revert if the recipient doesn't implement tokenFallback()\n     *         - Emits a standard ERC20 event without the bytes data parameter so as not to confuse\n     *           tooling such as Etherscan.\n     */\n    function transferFrom(address from, address to, uint value, bytes data)\n        public\n        optionalProxy\n        returns (bool)\n    {\n        // Ensure they're not trying to exceed their locked amount\n        require(value <= transferableSynthetix(from), \"Insufficient balance\");\n\n        // Perform the transfer: if there is a problem,\n        // an exception will be thrown in this call.\n        _transferFrom_byProxy(messageSender, from, to, value, data);\n\n        return true;\n    }\n\n    /**\n     * @notice Function that allows you to exchange synths you hold in one flavour for another.\n     * @param sourceCurrencyKey The source currency you wish to exchange from\n     * @param sourceAmount The amount, specified in UNIT of source currency you wish to exchange\n     * @param destinationCurrencyKey The destination currency you wish to obtain.\n     * @param destinationAddress Deprecated. Will always send to messageSender\n     * @return Boolean that indicates whether the transfer succeeded or failed.\n     */\n    function exchange(bytes4 sourceCurrencyKey, uint sourceAmount, bytes4 destinationCurrencyKey, address destinationAddress)\n        external\n        optionalProxy\n        // Note: We don't need to insist on non-stale rates because effectiveValue will do it for us.\n        returns (bool)\n    {\n        require(sourceCurrencyKey != destinationCurrencyKey, \"Must use different synths\");\n        require(sourceAmount > 0, \"Zero amount\");\n\n        //  If protectionCircuit is true then we burn the synths through _internalLiquidation()\n        if (protectionCircuit) {\n            return _internalLiquidation(\n                messageSender,\n                sourceCurrencyKey,\n                sourceAmount\n            );\n        } else {\n            // Pass it along, defaulting to the sender as the recipient.\n            return _internalExchange(\n                messageSender,\n                sourceCurrencyKey,\n                sourceAmount,\n                destinationCurrencyKey,\n                messageSender,\n                true // Charge fee on the exchange\n            );\n        }\n    }\n\n    /**\n     * @notice Function that allows synth contract to delegate exchanging of a synth that is not the same sourceCurrency\n     * @dev Only the synth contract can call this function\n     * @param from The address to exchange / burn synth from\n     * @param sourceCurrencyKey The source currency you wish to exchange from\n     * @param sourceAmount The amount, specified in UNIT of source currency you wish to exchange\n     * @param destinationCurrencyKey The destination currency you wish to obtain.\n     * @param destinationAddress Where the result should go.\n     * @return Boolean that indicates whether the transfer succeeded or failed.\n     */\n    function synthInitiatedExchange(\n        address from,\n        bytes4 sourceCurrencyKey,\n        uint sourceAmount,\n        bytes4 destinationCurrencyKey,\n        address destinationAddress\n    )\n        external\n        returns (bool)\n    {\n        _onlySynth();\n        require(sourceCurrencyKey != destinationCurrencyKey, \"Can't be same synth\");\n        require(sourceAmount > 0, \"Zero amount\");\n\n        // Pass it along\n        return _internalExchange(\n            from,\n            sourceCurrencyKey,\n            sourceAmount,\n            destinationCurrencyKey,\n            destinationAddress,\n            false // Don't charge fee on the exchange, as they've already been charged a transfer fee in the synth contract\n        );\n    }\n\n    /**\n     * @notice Function that allows synth contract to delegate sending fee to the fee Pool.\n     * @dev Only the synth contract can call this function.\n     * @param from The address fee is coming from.\n     * @param sourceCurrencyKey source currency fee from.\n     * @param sourceAmount The amount, specified in UNIT of source currency.\n     * @return Boolean that indicates whether the transfer succeeded or failed.\n     */\n    function synthInitiatedFeePayment(\n        address from,\n        bytes4 sourceCurrencyKey,\n        uint sourceAmount\n    )\n        external\n        returns (bool)\n    {\n        _onlySynth();\n\n        // Allow fee to be 0 and skip minting XDRs to feePool\n        if (sourceAmount == 0) {\n            return true;\n        }\n\n        require(sourceAmount > 0, \"Source can't be 0\");\n\n        // Pass it along, defaulting to the sender as the recipient.\n        bool result = _internalExchange(\n            from,\n            sourceCurrencyKey,\n            sourceAmount,\n            \"XDR\",\n            feePool.FEE_ADDRESS(),\n            false // Don't charge a fee on the exchange because this is already a fee\n        );\n\n        // Tell the fee pool about this.\n        feePool.feePaid(sourceCurrencyKey, sourceAmount);\n\n        return result;\n    }\n\n    /**\n     * @notice Function that allows synth contract to delegate sending fee to the fee Pool.\n     * @dev fee pool contract address is not allowed to call function\n     * @param from The address to move synth from\n     * @param sourceCurrencyKey source currency from.\n     * @param sourceAmount The amount, specified in UNIT of source currency.\n     * @param destinationCurrencyKey The destination currency to obtain.\n     * @param destinationAddress Where the result should go.\n     * @param chargeFee Boolean to charge a fee for transaction.\n     * @return Boolean that indicates whether the transfer succeeded or failed.\n     */\n    function _internalExchange(\n        address from,\n        bytes4 sourceCurrencyKey,\n        uint sourceAmount,\n        bytes4 destinationCurrencyKey,\n        address destinationAddress,\n        bool chargeFee\n    )\n        internal\n        notFeeAddress(from)\n        returns (bool)\n    {\n        require(exchangeEnabled, \"Exchanging is disabled\");\n        require(!exchangeRates.priceUpdateLock(), \"Price update lock\");\n        require(destinationAddress != address(0), \"Zero destination\");\n        require(destinationAddress != address(this), \"Synthetix is invalid destination\");\n        require(destinationAddress != address(proxy), \"Proxy is invalid destination\");\n\n        // Note: We don't need to check their balance as the burn() below will do a safe subtraction which requires\n        // the subtraction to not overflow, which would happen if their balance is not sufficient.\n\n        // Burn the source amount\n        synths[sourceCurrencyKey].burn(from, sourceAmount);\n\n        // How much should they get in the destination currency?\n        uint destinationAmount = effectiveValue(sourceCurrencyKey, sourceAmount, destinationCurrencyKey);\n\n        // What's the fee on that currency that we should deduct?\n        uint amountReceived = destinationAmount;\n        uint fee = 0;\n\n        if (chargeFee) {\n            amountReceived = feePool.amountReceivedFromExchange(destinationAmount);\n            fee = destinationAmount.sub(amountReceived);\n        }\n\n        // Issue their new synths\n        synths[destinationCurrencyKey].issue(destinationAddress, amountReceived);\n\n        // Remit the fee in XDRs\n        if (fee > 0) {\n            uint xdrFeeAmount = effectiveValue(destinationCurrencyKey, fee, \"XDR\");\n            synths[\"XDR\"].issue(feePool.FEE_ADDRESS(), xdrFeeAmount);\n            // Tell the fee pool about this.\n            feePool.feePaid(\"XDR\", xdrFeeAmount);\n        }\n\n        // Nothing changes as far as issuance data goes because the total value in the system hasn't changed.\n\n        // Call the ERC223 transfer callback if needed\n        synths[destinationCurrencyKey].triggerTokenFallbackIfNeeded(from, destinationAddress, amountReceived);\n\n        //Let the DApps know there was a Synth exchange\n        emitSynthExchange(from, sourceCurrencyKey, sourceAmount, destinationCurrencyKey, amountReceived, destinationAddress);\n\n        return true;\n    }\n\n    /**\n    * @notice Function that burns the amount sent during an exchange in case the protection circuit is activated\n    * @param from The address to move synth from\n    * @param sourceCurrencyKey source currency from.\n    * @param sourceAmount The amount, specified in UNIT of source currency.\n    * @return Boolean that indicates whether the transfer succeeded or failed.\n    */\n    function _internalLiquidation(\n        address from,\n        bytes4 sourceCurrencyKey,\n        uint sourceAmount\n    )\n        internal\n        returns (bool)\n    {\n        // Burn the source amount\n        synths[sourceCurrencyKey].burn(from, sourceAmount);\n        return true;\n    }\n\n    /**\n     * @notice Function that registers new synth as they are isseud. Calculate delta to append to synthetixState.\n     * @dev Only internal calls from synthetix address.\n     * @param currencyKey The currency to register synths in, for example sUSD or sAUD\n     * @param amount The amount of synths to register with a base of UNIT\n     */\n    function _addToDebtRegister(bytes4 currencyKey, uint amount)\n        internal\n        optionalProxy\n    {\n        // What is the value of the requested debt in XDRs?\n        uint xdrValue = effectiveValue(currencyKey, amount, \"XDR\");\n\n        // What is the value of all issued synths of the system (priced in XDRs)?\n        uint totalDebtIssued = totalIssuedSynths(\"XDR\");\n\n        // What will the new total be including the new value?\n        uint newTotalDebtIssued = xdrValue.add(totalDebtIssued);\n\n        // What is their percentage (as a high precision int) of the total debt?\n        uint debtPercentage = xdrValue.divideDecimalRoundPrecise(newTotalDebtIssued);\n\n        // And what effect does this percentage change have on the global debt holding of other issuers?\n        // The delta specifically needs to not take into account any existing debt as it's already\n        // accounted for in the delta from when they issued previously.\n        // The delta is a high precision integer.\n        uint delta = SafeDecimalMath.preciseUnit().sub(debtPercentage);\n\n        // How much existing debt do they have?\n        uint existingDebt = debtBalanceOf(messageSender, \"XDR\");\n\n        // And what does their debt ownership look like including this previous stake?\n        if (existingDebt > 0) {\n            debtPercentage = xdrValue.add(existingDebt).divideDecimalRoundPrecise(newTotalDebtIssued);\n        }\n\n        // Are they a new issuer? If so, record them.\n        if (!synthetixState.hasIssued(messageSender)) {\n            synthetixState.incrementTotalIssuerCount();\n        }\n\n        // Save the debt entry parameters\n        synthetixState.setCurrentIssuanceData(messageSender, debtPercentage);\n\n        // And if we're the first, push 1 as there was no effect to any other holders, otherwise push\n        // the change for the rest of the debt holders. The debt ledger holds high precision integers.\n        if (synthetixState.debtLedgerLength() > 0) {\n            synthetixState.appendDebtLedgerValue(\n                synthetixState.lastDebtLedgerEntry().multiplyDecimalRoundPrecise(delta)\n            );\n        } else {\n            synthetixState.appendDebtLedgerValue(SafeDecimalMath.preciseUnit());\n        }\n    }\n\n    /**\n     * @notice Issue synths against the sender's SNX.\n     * @dev Issuance is only allowed if the synthetix price isn't stale. Amount should be larger than 0.\n     * @param currencyKey The currency you wish to issue synths in, for example sUSD or sAUD\n     * @param amount The amount of synths you wish to issue with a base of UNIT\n     */\n    function issueSynths(bytes4 currencyKey, uint amount)\n        public\n        optionalProxy\n        // No need to check if price is stale, as it is checked in issuableSynths.\n    {\n        require(amount <= remainingIssuableSynths(messageSender, currencyKey), \"Amount too large\");\n\n        // Keep track of the debt they're about to create\n        _addToDebtRegister(currencyKey, amount);\n\n        // Create their synths\n        synths[currencyKey].issue(messageSender, amount);\n\n        // Store their locked SNX amount to determine their fee % for the period\n        _appendAccountIssuanceRecord();\n    }\n\n    /**\n     * @notice Issue the maximum amount of Synths possible against the sender's SNX.\n     * @dev Issuance is only allowed if the synthetix price isn't stale.\n     * @param currencyKey The currency you wish to issue synths in, for example sUSD or sAUD\n     */\n    function issueMaxSynths(bytes4 currencyKey)\n        external\n        optionalProxy\n    {\n        // Figure out the maximum we can issue in that currency\n        uint maxIssuable = remainingIssuableSynths(messageSender, currencyKey);\n\n        // And issue them\n        issueSynths(currencyKey, maxIssuable);\n    }\n\n    /**\n     * @notice Burn synths to clear issued synths/free SNX.\n     * @param currencyKey The currency you're specifying to burn\n     * @param amount The amount (in UNIT base) you wish to burn\n     * @dev The amount to burn is debased to XDR's\n     */\n    function burnSynths(bytes4 currencyKey, uint amount)\n        external\n        optionalProxy\n        // No need to check for stale rates as effectiveValue checks rates\n    {\n        // How much debt do they have?\n        uint debtToRemove = effectiveValue(currencyKey, amount, \"XDR\");\n        uint debt = debtBalanceOf(messageSender, \"XDR\");\n        uint debtInCurrencyKey = debtBalanceOf(messageSender, currencyKey);\n\n        require(debt > 0, \"No debt to forgive\");\n\n        // If they're trying to burn more debt than they actually owe, rather than fail the transaction, let's just\n        // clear their debt and leave them be.\n        uint amountToRemove = debt < debtToRemove ? debt : debtToRemove;\n\n        // Remove their debt from the ledger\n        _removeFromDebtRegister(amountToRemove);\n\n        uint amountToBurn = debtInCurrencyKey < amount ? debtInCurrencyKey : amount;\n\n        // synth.burn does a safe subtraction on balance (so it will revert if there are not enough synths).\n        synths[currencyKey].burn(messageSender, amountToBurn);\n\n        // Store their debtRatio against a feeperiod to determine their fee/rewards % for the period\n        _appendAccountIssuanceRecord();\n    }\n\n    /**\n     * @notice Store in the FeePool the users current debt value in the system in XDRs.\n     * @dev debtBalanceOf(messageSender, \"XDR\") to be used with totalIssuedSynths(\"XDR\") to get\n     *  users % of the system within a feePeriod.\n     */\n    function _appendAccountIssuanceRecord()\n        internal\n    {\n        uint initialDebtOwnership;\n        uint debtEntryIndex;\n        (initialDebtOwnership, debtEntryIndex) = synthetixState.issuanceData(messageSender);\n\n        feePool.appendAccountIssuanceRecord(\n            messageSender,\n            initialDebtOwnership,\n            debtEntryIndex\n        );\n    }\n\n    /**\n     * @notice Remove a debt position from the register\n     * @param amount The amount (in UNIT base) being presented in XDRs\n     */\n    function _removeFromDebtRegister(uint amount)\n        internal\n    {\n        uint debtToRemove = amount;\n\n        // How much debt do they have?\n        uint existingDebt = debtBalanceOf(messageSender, \"XDR\");\n\n        // What is the value of all issued synths of the system (priced in XDRs)?\n        uint totalDebtIssued = totalIssuedSynths(\"XDR\");\n\n        // What will the new total after taking out the withdrawn amount\n        uint newTotalDebtIssued = totalDebtIssued.sub(debtToRemove);\n\n        uint delta;\n\n        // What will the debt delta be if there is any debt left?\n        // Set delta to 0 if no more debt left in system after user\n        if (newTotalDebtIssued > 0) {\n\n            // What is the percentage of the withdrawn debt (as a high precision int) of the total debt after?\n            uint debtPercentage = debtToRemove.divideDecimalRoundPrecise(newTotalDebtIssued);\n\n            // And what effect does this percentage change have on the global debt holding of other issuers?\n            // The delta specifically needs to not take into account any existing debt as it's already\n            // accounted for in the delta from when they issued previously.\n            delta = SafeDecimalMath.preciseUnit().add(debtPercentage);\n        } else {\n            delta = 0;\n        }\n\n        // Are they exiting the system, or are they just decreasing their debt position?\n        if (debtToRemove == existingDebt) {\n            synthetixState.setCurrentIssuanceData(messageSender, 0);\n            synthetixState.decrementTotalIssuerCount();\n        } else {\n            // What percentage of the debt will they be left with?\n            uint newDebt = existingDebt.sub(debtToRemove);\n            uint newDebtPercentage = newDebt.divideDecimalRoundPrecise(newTotalDebtIssued);\n\n            // Store the debt percentage and debt ledger as high precision integers\n            synthetixState.setCurrentIssuanceData(messageSender, newDebtPercentage);\n        }\n\n        // Update our cumulative ledger. This is also a high precision integer.\n        synthetixState.appendDebtLedgerValue(\n            synthetixState.lastDebtLedgerEntry().multiplyDecimalRoundPrecise(delta)\n        );\n    }\n\n    // ========== Issuance/Burning ==========\n\n    /**\n     * @notice The maximum synths an issuer can issue against their total synthetix quantity, priced in XDRs.\n     * This ignores any already issued synths, and is purely giving you the maximimum amount the user can issue.\n     */\n    function maxIssuableSynths(address issuer, bytes4 currencyKey)\n        public\n        view\n        // We don't need to check stale rates here as effectiveValue will do it for us.\n        returns (uint)\n    {\n        // What is the value of their SNX balance in the destination currency?\n        uint destinationValue = effectiveValue(\"SNX\", collateral(issuer), currencyKey);\n\n        // They're allowed to issue up to issuanceRatio of that value\n        return destinationValue.multiplyDecimal(synthetixState.issuanceRatio());\n    }\n\n    /**\n     * @notice The current collateralisation ratio for a user. Collateralisation ratio varies over time\n     * as the value of the underlying Synthetix asset changes, e.g. if a user issues their maximum available\n     * synths when they hold $10 worth of Synthetix, they will have issued $2 worth of synths. If the value\n     * of Synthetix changes, the ratio returned by this function will adjust accordlingly. Users are\n     * incentivised to maintain a collateralisation ratio as close to the issuance ratio as possible by\n     * altering the amount of fees they're able to claim from the system.\n     */\n    function collateralisationRatio(address issuer)\n        public\n        view\n        returns (uint)\n    {\n        uint totalOwnedSynthetix = collateral(issuer);\n        if (totalOwnedSynthetix == 0) return 0;\n\n        uint debtBalance = debtBalanceOf(issuer, \"SNX\");\n        return debtBalance.divideDecimalRound(totalOwnedSynthetix);\n    }\n\n    /**\n     * @notice If a user issues synths backed by SNX in their wallet, the SNX become locked. This function\n     * will tell you how many synths a user has to give back to the system in order to unlock their original\n     * debt position. This is priced in whichever synth is passed in as a currency key, e.g. you can price\n     * the debt in sUSD, XDR, or any other synth you wish.\n     */\n    function debtBalanceOf(address issuer, bytes4 currencyKey)\n        public\n        view\n        // Don't need to check for stale rates here because totalIssuedSynths will do it for us\n        returns (uint)\n    {\n        // What was their initial debt ownership?\n        uint initialDebtOwnership;\n        uint debtEntryIndex;\n        (initialDebtOwnership, debtEntryIndex) = synthetixState.issuanceData(issuer);\n\n        // If it's zero, they haven't issued, and they have no debt.\n        if (initialDebtOwnership == 0) return 0;\n\n        // Figure out the global debt percentage delta from when they entered the system.\n        // This is a high precision integer.\n        uint currentDebtOwnership = synthetixState.lastDebtLedgerEntry()\n            .divideDecimalRoundPrecise(synthetixState.debtLedger(debtEntryIndex))\n            .multiplyDecimalRoundPrecise(initialDebtOwnership);\n\n        // What's the total value of the system in their requested currency?\n        uint totalSystemValue = totalIssuedSynths(currencyKey);\n\n        // Their debt balance is their portion of the total system value.\n        uint highPrecisionBalance = totalSystemValue.decimalToPreciseDecimal()\n            .multiplyDecimalRoundPrecise(currentDebtOwnership);\n\n        return highPrecisionBalance.preciseDecimalToDecimal();\n    }\n\n    /**\n     * @notice The remaining synths an issuer can issue against their total synthetix balance.\n     * @param issuer The account that intends to issue\n     * @param currencyKey The currency to price issuable value in\n     */\n    function remainingIssuableSynths(address issuer, bytes4 currencyKey)\n        public\n        view\n        // Don't need to check for synth existing or stale rates because maxIssuableSynths will do it for us.\n        returns (uint)\n    {\n        uint alreadyIssued = debtBalanceOf(issuer, currencyKey);\n        uint max = maxIssuableSynths(issuer, currencyKey);\n\n        if (alreadyIssued >= max) {\n            return 0;\n        } else {\n            return max.sub(alreadyIssued);\n        }\n    }\n\n    /**\n     * @notice The total SNX owned by this account, both escrowed and unescrowed,\n     * against which synths can be issued.\n     * This includes those already being used as collateral (locked), and those\n     * available for further issuance (unlocked).\n     */\n    function collateral(address account)\n        public\n        view\n        returns (uint)\n    {\n        uint balance = tokenState.balanceOf(account);\n\n        if (escrow != address(0)) {\n            balance = balance.add(escrow.balanceOf(account));\n        }\n\n        if (rewardEscrow != address(0)) {\n            balance = balance.add(rewardEscrow.balanceOf(account));\n        }\n\n        return balance;\n    }\n\n    /**\n     * @notice The number of SNX that are free to be transferred by an account.\n     * @dev When issuing, escrowed SNX are locked first, then non-escrowed\n     * SNX are locked last, but escrowed SNX are not transferable, so they are not included\n     * in this calculation.\n     */\n    function transferableSynthetix(address account)\n        public\n        view\n        rateNotStale(\"SNX\")\n        returns (uint)\n    {\n        // How many SNX do they have, excluding escrow?\n        // Note: We're excluding escrow here because we're interested in their transferable amount\n        // and escrowed SNX are not transferable.\n        uint balance = tokenState.balanceOf(account);\n\n        // How many of those will be locked by the amount they've issued?\n        // Assuming issuance ratio is 20%, then issuing 20 SNX of value would require\n        // 100 SNX to be locked in their wallet to maintain their collateralisation ratio\n        // The locked synthetix value can exceed their balance.\n        uint lockedSynthetixValue = debtBalanceOf(account, \"SNX\").divideDecimalRound(synthetixState.issuanceRatio());\n\n        // If we exceed the balance, no SNX are transferable, otherwise the difference is.\n        if (lockedSynthetixValue >= balance) {\n            return 0;\n        } else {\n            return balance.sub(lockedSynthetixValue);\n        }\n    }\n\n    /**\n     * @notice Mints the inflationary SNX supply. The inflation shedule is\n     * defined in the SupplySchedule contract.\n     * The mint() function is publicly callable by anyone. The caller will\n     receive a minter reward as specified in supplySchedule.minterReward().\n     */\n    function mint()\n        external\n        returns (bool)\n    {\n        require(rewardsDistribution != address(0), \"RewardsDistribution not set\");\n\n        uint supplyToMint = supplySchedule.mintableSupply();\n        require(supplyToMint > 0, \"No supply is mintable\");\n\n        supplySchedule.updateMintValues();\n\n        // Set minted SNX balance to RewardEscrow's balance\n        // Minus the minterReward and set balance of minter to add reward\n        uint minterReward = supplySchedule.minterReward();\n        // Get the remainder\n        uint amountToDistribute = supplyToMint.sub(minterReward);\n\n        // Set the token balance to the RewardsDistribution contract\n        tokenState.setBalanceOf(rewardsDistribution, tokenState.balanceOf(rewardsDistribution).add(amountToDistribute));\n        emitTransfer(this, rewardsDistribution, amountToDistribute);\n\n        // Kick off the distribution of rewards\n        rewardsDistribution.distributeRewards(amountToDistribute);\n\n        // Assign the minters reward.\n        tokenState.setBalanceOf(msg.sender, tokenState.balanceOf(msg.sender).add(minterReward));\n        emitTransfer(this, msg.sender, minterReward);\n\n        totalSupply = totalSupply.add(supplyToMint);\n\n        return true;\n    }\n\n    // ========== MODIFIERS ==========\n\n    modifier rateNotStale(bytes4 currencyKey) {\n        require(!exchangeRates.rateIsStale(currencyKey), \"Rate stale or not a synth\");\n        _;\n    }\n\n    modifier notFeeAddress(address account) {\n        require(account != feePool.FEE_ADDRESS(), \"Fee address not allowed\");\n        _;\n    }\n\n    /**\n     * @notice Only a synth can call this function\n     * @dev This used to be a modifier but instead of duplicating the bytecode into\n     * The functions implementing it they now call this internal function to save bytecode space\n     */\n    function _onlySynth() internal view {\n        bool isSynth = false;\n\n        // No need to repeatedly call this function either\n        for (uint8 i = 0; i < availableSynths.length; i++) {\n            if (availableSynths[i] == msg.sender) {\n                isSynth = true;\n                break;\n            }\n        }\n\n        require(isSynth, \"Only synth allowed\");\n    }\n\n    modifier onlyOracle\n    {\n        require(msg.sender == exchangeRates.oracle(), \"Only oracle allowed\");\n        _;\n    }\n\n    // ========== EVENTS ==========\n    /* solium-disable */\n    event SynthExchange(address indexed account, bytes4 fromCurrencyKey, uint256 fromAmount, bytes4 toCurrencyKey,  uint256 toAmount, address toAddress);\n    bytes32 constant SYNTHEXCHANGE_SIG = keccak256(\"SynthExchange(address,bytes4,uint256,bytes4,uint256,address)\");\n    function emitSynthExchange(address account, bytes4 fromCurrencyKey, uint256 fromAmount, bytes4 toCurrencyKey, uint256 toAmount, address toAddress) internal {\n        proxy._emit(abi.encode(fromCurrencyKey, fromAmount, toCurrencyKey, toAmount, toAddress), 2, SYNTHEXCHANGE_SIG, bytes32(account), 0, 0);\n    }\n    /* solium-enable */\n}\n",
  "sourcePath": "/Users/hz/workspace/synthetix/contracts/Synthetix.sol",
  "compiler": {
    "name": "solc",
    "version": "0.4.25+commit.59dbf8f1.Emscripten.clang"
  },
  "schemaVersion": "2.0.2",
  "updatedAt": "2019-09-19T02:10:36.518Z"
}