{
  "contractName": "Synth",
  "abi": [
    {
      "constant": true,
      "inputs": [],
      "name": "name",
      "outputs": [
        {
          "name": "",
          "type": "string"
        }
      ],
      "payable": false,
      "stateMutability": "view",
      "type": "function"
    },
    {
      "constant": false,
      "inputs": [
        {
          "name": "spender",
          "type": "address"
        },
        {
          "name": "value",
          "type": "uint256"
        }
      ],
      "name": "approve",
      "outputs": [
        {
          "name": "",
          "type": "bool"
        }
      ],
      "payable": false,
      "stateMutability": "nonpayable",
      "type": "function"
    },
    {
      "constant": false,
      "inputs": [
        {
          "name": "_integrationProxy",
          "type": "address"
        }
      ],
      "name": "setIntegrationProxy",
      "outputs": [],
      "payable": false,
      "stateMutability": "nonpayable",
      "type": "function"
    },
    {
      "constant": false,
      "inputs": [
        {
          "name": "_owner",
          "type": "address"
        }
      ],
      "name": "nominateNewOwner",
      "outputs": [],
      "payable": false,
      "stateMutability": "nonpayable",
      "type": "function"
    },
    {
      "constant": true,
      "inputs": [],
      "name": "initiationTime",
      "outputs": [
        {
          "name": "",
          "type": "uint256"
        }
      ],
      "payable": false,
      "stateMutability": "view",
      "type": "function"
    },
    {
      "constant": true,
      "inputs": [],
      "name": "totalSupply",
      "outputs": [
        {
          "name": "",
          "type": "uint256"
        }
      ],
      "payable": false,
      "stateMutability": "view",
      "type": "function"
    },
    {
      "constant": false,
      "inputs": [
        {
          "name": "_beneficiary",
          "type": "address"
        }
      ],
      "name": "setSelfDestructBeneficiary",
      "outputs": [],
      "payable": false,
      "stateMutability": "nonpayable",
      "type": "function"
    },
    {
      "constant": true,
      "inputs": [],
      "name": "decimals",
      "outputs": [
        {
          "name": "",
          "type": "uint8"
        }
      ],
      "payable": false,
      "stateMutability": "view",
      "type": "function"
    },
    {
      "constant": false,
      "inputs": [],
      "name": "terminateSelfDestruct",
      "outputs": [],
      "payable": false,
      "stateMutability": "nonpayable",
      "type": "function"
    },
    {
      "constant": true,
      "inputs": [],
      "name": "nominatedOwner",
      "outputs": [
        {
          "name": "",
          "type": "address"
        }
      ],
      "payable": false,
      "stateMutability": "view",
      "type": "function"
    },
    {
      "constant": true,
      "inputs": [
        {
          "name": "account",
          "type": "address"
        }
      ],
      "name": "balanceOf",
      "outputs": [
        {
          "name": "",
          "type": "uint256"
        }
      ],
      "payable": false,
      "stateMutability": "view",
      "type": "function"
    },
    {
      "constant": true,
      "inputs": [],
      "name": "synthetix",
      "outputs": [
        {
          "name": "",
          "type": "address"
        }
      ],
      "payable": false,
      "stateMutability": "view",
      "type": "function"
    },
    {
      "constant": false,
      "inputs": [],
      "name": "acceptOwnership",
      "outputs": [],
      "payable": false,
      "stateMutability": "nonpayable",
      "type": "function"
    },
    {
      "constant": true,
      "inputs": [],
      "name": "owner",
      "outputs": [
        {
          "name": "",
          "type": "address"
        }
      ],
      "payable": false,
      "stateMutability": "view",
      "type": "function"
    },
    {
      "constant": true,
      "inputs": [],
      "name": "symbol",
      "outputs": [
        {
          "name": "",
          "type": "string"
        }
      ],
      "payable": false,
      "stateMutability": "view",
      "type": "function"
    },
    {
      "constant": false,
      "inputs": [
        {
          "name": "_proxy",
          "type": "address"
        }
      ],
      "name": "setProxy",
      "outputs": [],
      "payable": false,
      "stateMutability": "nonpayable",
      "type": "function"
    },
    {
      "constant": false,
      "inputs": [],
      "name": "selfDestruct",
      "outputs": [],
      "payable": false,
      "stateMutability": "nonpayable",
      "type": "function"
    },
    {
      "constant": true,
      "inputs": [],
      "name": "integrationProxy",
      "outputs": [
        {
          "name": "",
          "type": "address"
        }
      ],
      "payable": false,
      "stateMutability": "view",
      "type": "function"
    },
    {
      "constant": false,
      "inputs": [
        {
          "name": "_tokenState",
          "type": "address"
        }
      ],
      "name": "setTokenState",
      "outputs": [],
      "payable": false,
      "stateMutability": "nonpayable",
      "type": "function"
    },
    {
      "constant": true,
      "inputs": [],
      "name": "SELFDESTRUCT_DELAY",
      "outputs": [
        {
          "name": "",
          "type": "uint256"
        }
      ],
      "payable": false,
      "stateMutability": "view",
      "type": "function"
    },
    {
      "constant": true,
      "inputs": [],
      "name": "feePool",
      "outputs": [
        {
          "name": "",
          "type": "address"
        }
      ],
      "payable": false,
      "stateMutability": "view",
      "type": "function"
    },
    {
      "constant": true,
      "inputs": [],
      "name": "selfDestructInitiated",
      "outputs": [
        {
          "name": "",
          "type": "bool"
        }
      ],
      "payable": false,
      "stateMutability": "view",
      "type": "function"
    },
    {
      "constant": false,
      "inputs": [
        {
          "name": "sender",
          "type": "address"
        }
      ],
      "name": "setMessageSender",
      "outputs": [],
      "payable": false,
      "stateMutability": "nonpayable",
      "type": "function"
    },
    {
      "constant": false,
      "inputs": [],
      "name": "initiateSelfDestruct",
      "outputs": [],
      "payable": false,
      "stateMutability": "nonpayable",
      "type": "function"
    },
    {
      "constant": true,
      "inputs": [],
      "name": "selfDestructBeneficiary",
      "outputs": [
        {
          "name": "",
          "type": "address"
        }
      ],
      "payable": false,
      "stateMutability": "view",
      "type": "function"
    },
    {
      "constant": true,
      "inputs": [],
      "name": "currencyKey",
      "outputs": [
        {
          "name": "",
          "type": "bytes4"
        }
      ],
      "payable": false,
      "stateMutability": "view",
      "type": "function"
    },
    {
      "constant": true,
      "inputs": [
        {
          "name": "owner",
          "type": "address"
        },
        {
          "name": "spender",
          "type": "address"
        }
      ],
      "name": "allowance",
      "outputs": [
        {
          "name": "",
          "type": "uint256"
        }
      ],
      "payable": false,
      "stateMutability": "view",
      "type": "function"
    },
    {
      "constant": true,
      "inputs": [],
      "name": "tokenState",
      "outputs": [
        {
          "name": "",
          "type": "address"
        }
      ],
      "payable": false,
      "stateMutability": "view",
      "type": "function"
    },
    {
      "constant": true,
      "inputs": [],
      "name": "proxy",
      "outputs": [
        {
          "name": "",
          "type": "address"
        }
      ],
      "payable": false,
      "stateMutability": "view",
      "type": "function"
    },
    {
      "inputs": [
        {
          "name": "_proxy",
          "type": "address"
        },
        {
          "name": "_tokenState",
          "type": "address"
        },
        {
          "name": "_synthetix",
          "type": "address"
        },
        {
          "name": "_feePool",
          "type": "address"
        },
        {
          "name": "_tokenName",
          "type": "string"
        },
        {
          "name": "_tokenSymbol",
          "type": "string"
        },
        {
          "name": "_owner",
          "type": "address"
        },
        {
          "name": "_currencyKey",
          "type": "bytes4"
        }
      ],
      "payable": false,
      "stateMutability": "nonpayable",
      "type": "constructor"
    },
    {
      "anonymous": false,
      "inputs": [
        {
          "indexed": false,
          "name": "newSynthetix",
          "type": "address"
        }
      ],
      "name": "SynthetixUpdated",
      "type": "event"
    },
    {
      "anonymous": false,
      "inputs": [
        {
          "indexed": false,
          "name": "newFeePool",
          "type": "address"
        }
      ],
      "name": "FeePoolUpdated",
      "type": "event"
    },
    {
      "anonymous": false,
      "inputs": [
        {
          "indexed": true,
          "name": "account",
          "type": "address"
        },
        {
          "indexed": false,
          "name": "value",
          "type": "uint256"
        }
      ],
      "name": "Issued",
      "type": "event"
    },
    {
      "anonymous": false,
      "inputs": [
        {
          "indexed": true,
          "name": "account",
          "type": "address"
        },
        {
          "indexed": false,
          "name": "value",
          "type": "uint256"
        }
      ],
      "name": "Burned",
      "type": "event"
    },
    {
      "anonymous": false,
      "inputs": [
        {
          "indexed": true,
          "name": "from",
          "type": "address"
        },
        {
          "indexed": true,
          "name": "to",
          "type": "address"
        },
        {
          "indexed": false,
          "name": "value",
          "type": "uint256"
        }
      ],
      "name": "Transfer",
      "type": "event"
    },
    {
      "anonymous": false,
      "inputs": [
        {
          "indexed": true,
          "name": "owner",
          "type": "address"
        },
        {
          "indexed": true,
          "name": "spender",
          "type": "address"
        },
        {
          "indexed": false,
          "name": "value",
          "type": "uint256"
        }
      ],
      "name": "Approval",
      "type": "event"
    },
    {
      "anonymous": false,
      "inputs": [
        {
          "indexed": false,
          "name": "newTokenState",
          "type": "address"
        }
      ],
      "name": "TokenStateUpdated",
      "type": "event"
    },
    {
      "anonymous": false,
      "inputs": [
        {
          "indexed": false,
          "name": "proxyAddress",
          "type": "address"
        }
      ],
      "name": "ProxyUpdated",
      "type": "event"
    },
    {
      "anonymous": false,
      "inputs": [],
      "name": "SelfDestructTerminated",
      "type": "event"
    },
    {
      "anonymous": false,
      "inputs": [
        {
          "indexed": false,
          "name": "beneficiary",
          "type": "address"
        }
      ],
      "name": "SelfDestructed",
      "type": "event"
    },
    {
      "anonymous": false,
      "inputs": [
        {
          "indexed": false,
          "name": "selfDestructDelay",
          "type": "uint256"
        }
      ],
      "name": "SelfDestructInitiated",
      "type": "event"
    },
    {
      "anonymous": false,
      "inputs": [
        {
          "indexed": false,
          "name": "newBeneficiary",
          "type": "address"
        }
      ],
      "name": "SelfDestructBeneficiaryUpdated",
      "type": "event"
    },
    {
      "anonymous": false,
      "inputs": [
        {
          "indexed": false,
          "name": "newOwner",
          "type": "address"
        }
      ],
      "name": "OwnerNominated",
      "type": "event"
    },
    {
      "anonymous": false,
      "inputs": [
        {
          "indexed": false,
          "name": "oldOwner",
          "type": "address"
        },
        {
          "indexed": false,
          "name": "newOwner",
          "type": "address"
        }
      ],
      "name": "OwnerChanged",
      "type": "event"
    },
    {
      "constant": false,
      "inputs": [
        {
          "name": "_synthetix",
          "type": "address"
        }
      ],
      "name": "setSynthetix",
      "outputs": [],
      "payable": false,
      "stateMutability": "nonpayable",
      "type": "function"
    },
    {
      "constant": false,
      "inputs": [
        {
          "name": "_feePool",
          "type": "address"
        }
      ],
      "name": "setFeePool",
      "outputs": [],
      "payable": false,
      "stateMutability": "nonpayable",
      "type": "function"
    },
    {
      "constant": false,
      "inputs": [
        {
          "name": "to",
          "type": "address"
        },
        {
          "name": "value",
          "type": "uint256"
        },
        {
          "name": "data",
          "type": "bytes"
        }
      ],
      "name": "transfer",
      "outputs": [
        {
          "name": "",
          "type": "bool"
        }
      ],
      "payable": false,
      "stateMutability": "nonpayable",
      "type": "function"
    },
    {
      "constant": false,
      "inputs": [
        {
          "name": "to",
          "type": "address"
        },
        {
          "name": "value",
          "type": "uint256"
        }
      ],
      "name": "transfer",
      "outputs": [
        {
          "name": "",
          "type": "bool"
        }
      ],
      "payable": false,
      "stateMutability": "nonpayable",
      "type": "function"
    },
    {
      "constant": false,
      "inputs": [
        {
          "name": "from",
          "type": "address"
        },
        {
          "name": "to",
          "type": "address"
        },
        {
          "name": "value",
          "type": "uint256"
        },
        {
          "name": "data",
          "type": "bytes"
        }
      ],
      "name": "transferFrom",
      "outputs": [
        {
          "name": "",
          "type": "bool"
        }
      ],
      "payable": false,
      "stateMutability": "nonpayable",
      "type": "function"
    },
    {
      "constant": false,
      "inputs": [
        {
          "name": "from",
          "type": "address"
        },
        {
          "name": "to",
          "type": "address"
        },
        {
          "name": "value",
          "type": "uint256"
        }
      ],
      "name": "transferFrom",
      "outputs": [
        {
          "name": "",
          "type": "bool"
        }
      ],
      "payable": false,
      "stateMutability": "nonpayable",
      "type": "function"
    },
    {
      "constant": false,
      "inputs": [
        {
          "name": "to",
          "type": "address"
        },
        {
          "name": "value",
          "type": "uint256"
        }
      ],
      "name": "transferSenderPaysFee",
      "outputs": [
        {
          "name": "",
          "type": "bool"
        }
      ],
      "payable": false,
      "stateMutability": "nonpayable",
      "type": "function"
    },
    {
      "constant": false,
      "inputs": [
        {
          "name": "to",
          "type": "address"
        },
        {
          "name": "value",
          "type": "uint256"
        },
        {
          "name": "data",
          "type": "bytes"
        }
      ],
      "name": "transferSenderPaysFee",
      "outputs": [
        {
          "name": "",
          "type": "bool"
        }
      ],
      "payable": false,
      "stateMutability": "nonpayable",
      "type": "function"
    },
    {
      "constant": false,
      "inputs": [
        {
          "name": "from",
          "type": "address"
        },
        {
          "name": "to",
          "type": "address"
        },
        {
          "name": "value",
          "type": "uint256"
        }
      ],
      "name": "transferFromSenderPaysFee",
      "outputs": [
        {
          "name": "",
          "type": "bool"
        }
      ],
      "payable": false,
      "stateMutability": "nonpayable",
      "type": "function"
    },
    {
      "constant": false,
      "inputs": [
        {
          "name": "from",
          "type": "address"
        },
        {
          "name": "to",
          "type": "address"
        },
        {
          "name": "value",
          "type": "uint256"
        },
        {
          "name": "data",
          "type": "bytes"
        }
      ],
      "name": "transferFromSenderPaysFee",
      "outputs": [
        {
          "name": "",
          "type": "bool"
        }
      ],
      "payable": false,
      "stateMutability": "nonpayable",
      "type": "function"
    },
    {
      "constant": false,
      "inputs": [
        {
          "name": "account",
          "type": "address"
        },
        {
          "name": "amount",
          "type": "uint256"
        }
      ],
      "name": "issue",
      "outputs": [],
      "payable": false,
      "stateMutability": "nonpayable",
      "type": "function"
    },
    {
      "constant": false,
      "inputs": [
        {
          "name": "account",
          "type": "address"
        },
        {
          "name": "amount",
          "type": "uint256"
        }
      ],
      "name": "burn",
      "outputs": [],
      "payable": false,
      "stateMutability": "nonpayable",
      "type": "function"
    },
    {
      "constant": false,
      "inputs": [
        {
          "name": "amount",
          "type": "uint256"
        }
      ],
      "name": "setTotalSupply",
      "outputs": [],
      "payable": false,
      "stateMutability": "nonpayable",
      "type": "function"
    },
    {
      "constant": false,
      "inputs": [
        {
          "name": "sender",
          "type": "address"
        },
        {
          "name": "recipient",
          "type": "address"
        },
        {
          "name": "amount",
          "type": "uint256"
        }
      ],
      "name": "triggerTokenFallbackIfNeeded",
      "outputs": [],
      "payable": false,
      "stateMutability": "nonpayable",
      "type": "function"
    }
  ],
  "bytecode": "0x60806040526000600660146101000a81548160ff0219169083151502179055503480156200002c57600080fd5b5060405162008fc638038062008fc6833981018060405281019080805190602001909291908051906020019092919080519060200190929190805190602001909291908051820192919060200180518201929190602001805190602001909291908051906020019092919050505087878585600060128786818281600073ffffffffffffffffffffffffffffffffffffffff168173ffffffffffffffffffffffffffffffffffffffff16141515156200014d576040517f08c379a00000000000000000000000000000000000000000000000000000000081526004018080602001828103825260198152602001807f4f776e657220616464726573732063616e6e6f7420626520300000000000000081525060200191505060405180910390fd5b806000806101000a81548173ffffffffffffffffffffffffffffffffffffffff021916908373ffffffffffffffffffffffffffffffffffffffff1602179055507fb532073b38c83145e3e5135377a08bf9aab55bc0fd7c1179cd4fb995d2a5159c600082604051808373ffffffffffffffffffffffffffffffffffffffff1673ffffffffffffffffffffffffffffffffffffffff1681526020018273ffffffffffffffffffffffffffffffffffffffff1673ffffffffffffffffffffffffffffffffffffffff1681526020019250505060405180910390a150600073ffffffffffffffffffffffffffffffffffffffff168173ffffffffffffffffffffffffffffffffffffffff1614151515620002cc576040517f08c379a00000000000000000000000000000000000000000000000000000000081526004018080602001828103825260168152602001807f4f776e6572206d757374206e6f74206265207a65726f0000000000000000000081525060200191505060405180910390fd5b80600360016101000a81548173ffffffffffffffffffffffffffffffffffffffff021916908373ffffffffffffffffffffffffffffffffffffffff1602179055507fd5da63a0b864b315bc04128dedbc93888c8529ee6cf47ce664dc204339228c5381604051808273ffffffffffffffffffffffffffffffffffffffff1673ffffffffffffffffffffffffffffffffffffffff16815260200191505060405180910390a15081600460006101000a81548173ffffffffffffffffffffffffffffffffffffffff021916908373ffffffffffffffffffffffffffffffffffffffff1602179055507ffc80377ca9c49cc11ae6982f390a42db976d5530af7c43889264b13fbbd7c57e82604051808273ffffffffffffffffffffffffffffffffffffffff1673ffffffffffffffffffffffffffffffffffffffff16815260200191505060405180910390a1505085600760006101000a81548173ffffffffffffffffffffffffffffffffffffffff021916908373ffffffffffffffffffffffffffffffffffffffff1602179055508460089080519060200190620004709291906200094d565b508360099080519060200190620004899291906200094d565b5082600a8190555081600b60006101000a81548160ff021916908360ff1602179055505050505050505060008873ffffffffffffffffffffffffffffffffffffffff161415151562000543576040517f08c379a00000000000000000000000000000000000000000000000000000000081526004018080602001828103825260128152602001807f5f70726f78792063616e6e6f742062652030000000000000000000000000000081525060200191505060405180910390fd5b60008673ffffffffffffffffffffffffffffffffffffffff1614151515620005d3576040517f08c379a00000000000000000000000000000000000000000000000000000000081526004018080602001828103825260168152602001807f5f73796e7468657469782063616e6e6f7420626520300000000000000000000081525060200191505060405180910390fd5b60008573ffffffffffffffffffffffffffffffffffffffff161415151562000663576040517f08c379a00000000000000000000000000000000000000000000000000000000081526004018080602001828103825260148152602001807f5f666565506f6f6c2063616e6e6f74206265203000000000000000000000000081525060200191505060405180910390fd5b60008273ffffffffffffffffffffffffffffffffffffffff1614151515620006f3576040517f08c379a00000000000000000000000000000000000000000000000000000000081526004018080602001828103825260128152602001807f5f6f776e65722063616e6e6f742062652030000000000000000000000000000081525060200191505060405180910390fd5b600073ffffffffffffffffffffffffffffffffffffffff168673ffffffffffffffffffffffffffffffffffffffff1663502b8bda836040518263ffffffff167c010000000000000000000000000000000000000000000000000000000002815260040180827bffffffffffffffffffffffffffffffffffffffffffffffffffffffff19167bffffffffffffffffffffffffffffffffffffffffffffffffffffffff19168152602001915050602060405180830381600087803b158015620007b957600080fd5b505af1158015620007ce573d6000803e3d6000fd5b505050506040513d6020811015620007e557600080fd5b810190808051906020019092919050505073ffffffffffffffffffffffffffffffffffffffff1614151562000882576040517f08c379a000000000000000000000000000000000000000000000000000000000815260040180806020018281038252601e8152602001807f43757272656e6379206b657920697320616c726561647920696e20757365000081525060200191505060405180910390fd5b84600b60016101000a81548173ffffffffffffffffffffffffffffffffffffffff021916908373ffffffffffffffffffffffffffffffffffffffff16021790555085600c60006101000a81548173ffffffffffffffffffffffffffffffffffffffff021916908373ffffffffffffffffffffffffffffffffffffffff16021790555080600c60146101000a81548163ffffffff02191690837c0100000000000000000000000000000000000000000000000000000000900402179055505050505050505050620009fc565b828054600181600116156101000203166002900490600052602060002090601f016020900481019282601f106200099057805160ff1916838001178555620009c1565b82800160010185558215620009c1579182015b82811115620009c0578251825591602001919060010190620009a3565b5b509050620009d09190620009d4565b5090565b620009f991905b80821115620009f5576000816000905550600101620009db565b5090565b90565b6185ba8062000a0c6000396000f30060806040526004361061020f576000357c0100000000000000000000000000000000000000000000000000000000900463ffffffff16806306fdde0314610214578063095ea7b3146102a4578063131b0ae7146103095780631627540c1461034c57806317c70de41461038f57806318160ddd146103ba57806319db2228146103e557806320714f881461042857806323b872dd1461046b578063313ce567146104f05780633278c960146105215780633c960be91461053857806353a47bb71461060357806370a082311461065a578063759b5225146106b157806379ba509714610708578063867904b41461071f5780638da5cb5b1461076c57806395d89b41146107c357806397107d6d146108535780639cb8a26a146108965780639cbdaeb6146108ad5780639dc29fac146109045780639f76980714610951578063a461fc8214610994578063a9059cbb146109bf578063ab67aa5814610a24578063ae2e933b14610aef578063b4bede8514610b46578063b8225dec14610bf1578063bc67f83214610c20578063bd32aa4414610c63578063be45fd6214610c7a578063c58aaae614610d25578063d66c9cc214610d7c578063dbd06c8514610de1578063dd62ed3e14610e4a578063e6fbf44114610ec1578063e90dd9e214610f46578063eb6ecc0314610f9d578063ec5568891461100a578063f7ea7a3d14611061578063fec9f9da1461108e575b600080fd5b34801561022057600080fd5b506102296110d1565b6040518080602001828103825283818151815260200191508051906020019080838360005b8381101561026957808201518184015260208101905061024e565b50505050905090810190601f1680156102965780820380516001836020036101000a031916815260200191505b509250505060405180910390f35b3480156102b057600080fd5b506102ef600480360381019080803573ffffffffffffffffffffffffffffffffffffffff1690602001909291908035906020019092919050505061116f565b604051808215151515815260200191505060405180910390f35b34801561031557600080fd5b5061034a600480360381019080803573ffffffffffffffffffffffffffffffffffffffff1690602001909291905050506113b1565b005b34801561035857600080fd5b5061038d600480360381019080803573ffffffffffffffffffffffffffffffffffffffff1690602001909291905050506114df565b005b34801561039b57600080fd5b506103a4611670565b6040518082815260200191505060405180910390f35b3480156103c657600080fd5b506103cf611676565b6040518082815260200191505060405180910390f35b3480156103f157600080fd5b50610426600480360381019080803573ffffffffffffffffffffffffffffffffffffffff16906020019092919050505061167c565b005b34801561043457600080fd5b50610469600480360381019080803573ffffffffffffffffffffffffffffffffffffffff1690602001909291905050506118a2565b005b34801561047757600080fd5b506104d6600480360381019080803573ffffffffffffffffffffffffffffffffffffffff169060200190929190803573ffffffffffffffffffffffffffffffffffffffff16906020019092919080359060200190929190505050611ad8565b604051808215151515815260200191505060405180910390f35b3480156104fc57600080fd5b5061050561225d565b604051808260ff1660ff16815260200191505060405180910390f35b34801561052d57600080fd5b50610536612270565b005b34801561054457600080fd5b506105e9600480360381019080803573ffffffffffffffffffffffffffffffffffffffff169060200190929190803573ffffffffffffffffffffffffffffffffffffffff16906020019092919080359060200190929190803590602001908201803590602001908080601f01602080910402602001604051908101604052809392919081815260200183838082843782019150505050505091929192905050506123ab565b604051808215151515815260200191505060405180910390f35b34801561060f57600080fd5b50610618612b28565b604051808273ffffffffffffffffffffffffffffffffffffffff1673ffffffffffffffffffffffffffffffffffffffff16815260200191505060405180910390f35b34801561066657600080fd5b5061069b600480360381019080803573ffffffffffffffffffffffffffffffffffffffff169060200190929190505050612b4e565b6040518082815260200191505060405180910390f35b3480156106bd57600080fd5b506106c6612c4f565b604051808273ffffffffffffffffffffffffffffffffffffffff1673ffffffffffffffffffffffffffffffffffffffff16815260200191505060405180910390f35b34801561071457600080fd5b5061071d612c75565b005b34801561072b57600080fd5b5061076a600480360381019080803573ffffffffffffffffffffffffffffffffffffffff16906020019092919080359060200190929190505050612ee0565b005b34801561077857600080fd5b50610781613249565b604051808273ffffffffffffffffffffffffffffffffffffffff1673ffffffffffffffffffffffffffffffffffffffff16815260200191505060405180910390f35b3480156107cf57600080fd5b506107d861326e565b6040518080602001828103825283818151815260200191508051906020019080838360005b838110156108185780820151818401526020810190506107fd565b50505050905090810190601f1680156108455780820380516001836020036101000a031916815260200191505b509250505060405180910390f35b34801561085f57600080fd5b50610894600480360381019080803573ffffffffffffffffffffffffffffffffffffffff16906020019092919050505061330c565b005b3480156108a257600080fd5b506108ab61349d565b005b3480156108b957600080fd5b506108c261372c565b604051808273ffffffffffffffffffffffffffffffffffffffff1673ffffffffffffffffffffffffffffffffffffffff16815260200191505060405180910390f35b34801561091057600080fd5b5061094f600480360381019080803573ffffffffffffffffffffffffffffffffffffffff16906020019092919080359060200190929190505050613752565b005b34801561095d57600080fd5b50610992600480360381019080803573ffffffffffffffffffffffffffffffffffffffff169060200190929190505050613abb565b005b3480156109a057600080fd5b506109a9613ce1565b6040518082815260200191505060405180910390f35b3480156109cb57600080fd5b50610a0a600480360381019080803573ffffffffffffffffffffffffffffffffffffffff16906020019092919080359060200190929190505050613ce8565b604051808215151515815260200191505060405180910390f35b348015610a3057600080fd5b50610ad5600480360381019080803573ffffffffffffffffffffffffffffffffffffffff169060200190929190803573ffffffffffffffffffffffffffffffffffffffff16906020019092919080359060200190929190803590602001908201803590602001908080601f0160208091040260200160405190810160405280939291908181526020018383808284378201915050505050509192919290505050614240565b604051808215151515815260200191505060405180910390f35b348015610afb57600080fd5b50610b046149c3565b604051808273ffffffffffffffffffffffffffffffffffffffff1673ffffffffffffffffffffffffffffffffffffffff16815260200191505060405180910390f35b348015610b5257600080fd5b50610bd7600480360381019080803573ffffffffffffffffffffffffffffffffffffffff16906020019092919080359060200190929190803590602001908201803590602001908080601f01602080910402602001604051908101604052809392919081815260200183838082843782019150505050505091929192905050506149e9565b604051808215151515815260200191505060405180910390f35b348015610bfd57600080fd5b50610c06614f27565b604051808215151515815260200191505060405180910390f35b348015610c2c57600080fd5b50610c61600480360381019080803573ffffffffffffffffffffffffffffffffffffffff169060200190929190505050614f3a565b005b348015610c6f57600080fd5b50610c7861509b565b005b348015610c8657600080fd5b50610d0b600480360381019080803573ffffffffffffffffffffffffffffffffffffffff16906020019092919080359060200190929190803590602001908201803590602001908080601f01602080910402602001604051908101604052809392919081815260200183838082843782019150505050505091929192905050506151e3565b604051808215151515815260200191505060405180910390f35b348015610d3157600080fd5b50610d3a615739565b604051808273ffffffffffffffffffffffffffffffffffffffff1673ffffffffffffffffffffffffffffffffffffffff16815260200191505060405180910390f35b348015610d8857600080fd5b50610dc7600480360381019080803573ffffffffffffffffffffffffffffffffffffffff1690602001909291908035906020019092919050505061575f565b604051808215151515815260200191505060405180910390f35b348015610ded57600080fd5b50610df6615c9f565b60405180827bffffffffffffffffffffffffffffffffffffffffffffffffffffffff19167bffffffffffffffffffffffffffffffffffffffffffffffffffffffff1916815260200191505060405180910390f35b348015610e5657600080fd5b50610eab600480360381019080803573ffffffffffffffffffffffffffffffffffffffff169060200190929190803573ffffffffffffffffffffffffffffffffffffffff169060200190929190505050615cce565b6040518082815260200191505060405180910390f35b348015610ecd57600080fd5b50610f2c600480360381019080803573ffffffffffffffffffffffffffffffffffffffff169060200190929190803573ffffffffffffffffffffffffffffffffffffffff16906020019092919080359060200190929190505050615e04565b604051808215151515815260200191505060405180910390f35b348015610f5257600080fd5b50610f5b616583565b604051808273ffffffffffffffffffffffffffffffffffffffff1673ffffffffffffffffffffffffffffffffffffffff16815260200191505060405180910390f35b348015610fa957600080fd5b50611008600480360381019080803573ffffffffffffffffffffffffffffffffffffffff169060200190929190803573ffffffffffffffffffffffffffffffffffffffff169060200190929190803590602001909291905050506165a9565b005b34801561101657600080fd5b5061101f61670b565b604051808273ffffffffffffffffffffffffffffffffffffffff1673ffffffffffffffffffffffffffffffffffffffff16815260200191505060405180910390f35b34801561106d57600080fd5b5061108c60048036038101908080359060200190929190505050616731565b005b34801561109a57600080fd5b506110cf600480360381019080803573ffffffffffffffffffffffffffffffffffffffff169060200190929190505050616914565b005b60088054600181600116156101000203166002900480601f0160208091040260200160405190810160405280929190818152602001828054600181600116156101000203166002900480156111675780601f1061113c57610100808354040283529160200191611167565b820191906000526020600020905b81548152906001019060200180831161114a57829003601f168201915b505050505081565b600080600460009054906101000a900473ffffffffffffffffffffffffffffffffffffffff1673ffffffffffffffffffffffffffffffffffffffff163373ffffffffffffffffffffffffffffffffffffffff161415801561121e5750600560009054906101000a900473ffffffffffffffffffffffffffffffffffffffff1673ffffffffffffffffffffffffffffffffffffffff163373ffffffffffffffffffffffffffffffffffffffff1614155b156112655733600660006101000a81548173ffffffffffffffffffffffffffffffffffffffff021916908373ffffffffffffffffffffffffffffffffffffffff1602179055505b600660009054906101000a900473ffffffffffffffffffffffffffffffffffffffff169050600760009054906101000a900473ffffffffffffffffffffffffffffffffffffffff1673ffffffffffffffffffffffffffffffffffffffff1663da46098c8286866040518463ffffffff167c0100000000000000000000000000000000000000000000000000000000028152600401808473ffffffffffffffffffffffffffffffffffffffff1673ffffffffffffffffffffffffffffffffffffffff1681526020018373ffffffffffffffffffffffffffffffffffffffff1673ffffffffffffffffffffffffffffffffffffffff1681526020018281526020019350505050600060405180830381600087803b15801561138357600080fd5b505af1158015611397573d6000803e3d6000fd5b505050506113a6818585616b3a565b600191505092915050565b6000809054906101000a900473ffffffffffffffffffffffffffffffffffffffff1673ffffffffffffffffffffffffffffffffffffffff163373ffffffffffffffffffffffffffffffffffffffff1614151561149b576040517f08c379a000000000000000000000000000000000000000000000000000000000815260040180806020018281038252602f8152602001807f4f6e6c792074686520636f6e7472616374206f776e6572206d6179207065726681526020017f6f726d207468697320616374696f6e000000000000000000000000000000000081525060400191505060405180910390fd5b80600560006101000a81548173ffffffffffffffffffffffffffffffffffffffff021916908373ffffffffffffffffffffffffffffffffffffffff16021790555050565b6000809054906101000a900473ffffffffffffffffffffffffffffffffffffffff1673ffffffffffffffffffffffffffffffffffffffff163373ffffffffffffffffffffffffffffffffffffffff161415156115c9576040517f08c379a000000000000000000000000000000000000000000000000000000000815260040180806020018281038252602f8152602001807f4f6e6c792074686520636f6e7472616374206f776e6572206d6179207065726681526020017f6f726d207468697320616374696f6e000000000000000000000000000000000081525060400191505060405180910390fd5b80600160006101000a81548173ffffffffffffffffffffffffffffffffffffffff021916908373ffffffffffffffffffffffffffffffffffffffff1602179055507f906a1c6bd7e3091ea86693dd029a831c19049ce77f1dce2ce0bab1cacbabce2281604051808273ffffffffffffffffffffffffffffffffffffffff1673ffffffffffffffffffffffffffffffffffffffff16815260200191505060405180910390a150565b60025481565b600a5481565b600460009054906101000a900473ffffffffffffffffffffffffffffffffffffffff1673ffffffffffffffffffffffffffffffffffffffff163373ffffffffffffffffffffffffffffffffffffffff16141580156117285750600560009054906101000a900473ffffffffffffffffffffffffffffffffffffffff1673ffffffffffffffffffffffffffffffffffffffff163373ffffffffffffffffffffffffffffffffffffffff1614155b1561176f5733600660006101000a81548173ffffffffffffffffffffffffffffffffffffffff021916908373ffffffffffffffffffffffffffffffffffffffff1602179055505b6000809054906101000a900473ffffffffffffffffffffffffffffffffffffffff1673ffffffffffffffffffffffffffffffffffffffff16600660009054906101000a900473ffffffffffffffffffffffffffffffffffffffff1673ffffffffffffffffffffffffffffffffffffffff16141515611855576040517f08c379a00000000000000000000000000000000000000000000000000000000081526004018080602001828103825260138152602001807f4f776e6572206f6e6c792066756e6374696f6e0000000000000000000000000081525060200191505060405180910390fd5b80600b60016101000a81548173ffffffffffffffffffffffffffffffffffffffff021916908373ffffffffffffffffffffffffffffffffffffffff16021790555061189f81616d42565b50565b6000809054906101000a900473ffffffffffffffffffffffffffffffffffffffff1673ffffffffffffffffffffffffffffffffffffffff163373ffffffffffffffffffffffffffffffffffffffff1614151561198c576040517f08c379a000000000000000000000000000000000000000000000000000000000815260040180806020018281038252602f8152602001807f4f6e6c792074686520636f6e7472616374206f776e6572206d6179207065726681526020017f6f726d207468697320616374696f6e000000000000000000000000000000000081525060400191505060405180910390fd5b600073ffffffffffffffffffffffffffffffffffffffff168173ffffffffffffffffffffffffffffffffffffffff1614151515611a31576040517f08c379a000000000000000000000000000000000000000000000000000000000815260040180806020018281038252601c8152602001807f42656e6566696369617279206d757374206e6f74206265207a65726f0000000081525060200191505060405180910390fd5b80600360016101000a81548173ffffffffffffffffffffffffffffffffffffffff021916908373ffffffffffffffffffffffffffffffffffffffff1602179055507fd5da63a0b864b315bc04128dedbc93888c8529ee6cf47ce664dc204339228c5381604051808273ffffffffffffffffffffffffffffffffffffffff1673ffffffffffffffffffffffffffffffffffffffff16815260200191505060405180910390a150565b60008060006060600460009054906101000a900473ffffffffffffffffffffffffffffffffffffffff1673ffffffffffffffffffffffffffffffffffffffff163373ffffffffffffffffffffffffffffffffffffffff1614158015611b8b5750600560009054906101000a900473ffffffffffffffffffffffffffffffffffffffff1673ffffffffffffffffffffffffffffffffffffffff163373ffffffffffffffffffffffffffffffffffffffff1614155b15611bd25733600660006101000a81548173ffffffffffffffffffffffffffffffffffffffff021916908373ffffffffffffffffffffffffffffffffffffffff1602179055505b86600b60019054906101000a900473ffffffffffffffffffffffffffffffffffffffff1673ffffffffffffffffffffffffffffffffffffffff1663eb1edd616040518163ffffffff167c0100000000000000000000000000000000000000000000000000000000028152600401602060405180830381600087803b158015611c5957600080fd5b505af1158015611c6d573d6000803e3d6000fd5b505050506040513d6020811015611c8357600080fd5b810190808051906020019092919050505073ffffffffffffffffffffffffffffffffffffffff168173ffffffffffffffffffffffffffffffffffffffff1614151515611d5d576040517f08c379a000000000000000000000000000000000000000000000000000000000815260040180806020018281038252602f8152602001807f43616e6e6f7420706572666f726d207468697320616374696f6e20776974682081526020017f746865206665652061646472657373000000000000000000000000000000000081525060400191505060405180910390fd5b600b60019054906101000a900473ffffffffffffffffffffffffffffffffffffffff1673ffffffffffffffffffffffffffffffffffffffff1663b7fcfa69876040518263ffffffff167c010000000000000000000000000000000000000000000000000000000002815260040180828152602001915050602060405180830381600087803b158015611dee57600080fd5b505af1158015611e02573d6000803e3d6000fd5b505050506040513d6020811015611e1857600080fd5b81019080805190602001909291905050509350611e3e8487616f1b90919063ffffffff16565b9250600760009054906101000a900473ffffffffffffffffffffffffffffffffffffffff1673ffffffffffffffffffffffffffffffffffffffff1663da46098c89600660009054906101000a900473ffffffffffffffffffffffffffffffffffffffff166120028a600760009054906101000a900473ffffffffffffffffffffffffffffffffffffffff1673ffffffffffffffffffffffffffffffffffffffff1663dd62ed3e8f600660009054906101000a900473ffffffffffffffffffffffffffffffffffffffff166040518363ffffffff167c0100000000000000000000000000000000000000000000000000000000028152600401808373ffffffffffffffffffffffffffffffffffffffff1673ffffffffffffffffffffffffffffffffffffffff1681526020018273ffffffffffffffffffffffffffffffffffffffff1673ffffffffffffffffffffffffffffffffffffffff16815260200192505050602060405180830381600087803b158015611fb957600080fd5b505af1158015611fcd573d6000803e3d6000fd5b505050506040513d6020811015611fe357600080fd5b8101908080519060200190929190505050616f1b90919063ffffffff16565b6040518463ffffffff167c0100000000000000000000000000000000000000000000000000000000028152600401808473ffffffffffffffffffffffffffffffffffffffff1673ffffffffffffffffffffffffffffffffffffffff1681526020018373ffffffffffffffffffffffffffffffffffffffff1673ffffffffffffffffffffffffffffffffffffffff1681526020018281526020019350505050600060405180830381600087803b1580156120ba57600080fd5b505af11580156120ce573d6000803e3d6000fd5b50505050600c60009054906101000a900473ffffffffffffffffffffffffffffffffffffffff1673ffffffffffffffffffffffffffffffffffffffff1663be57636489600c60149054906101000a90047c010000000000000000000000000000000000000000000000000000000002866040518463ffffffff167c0100000000000000000000000000000000000000000000000000000000028152600401808473ffffffffffffffffffffffffffffffffffffffff1673ffffffffffffffffffffffffffffffffffffffff168152602001837bffffffffffffffffffffffffffffffffffffffffffffffffffffffff19167bffffffffffffffffffffffffffffffffffffffffffffffffffffffff191681526020018281526020019350505050602060405180830381600087803b15801561220857600080fd5b505af115801561221c573d6000803e3d6000fd5b505050506040513d602081101561223257600080fd5b81019080805190602001909291905050505061225088888685616f3c565b9450505050509392505050565b600b60009054906101000a900460ff1681565b6000809054906101000a900473ffffffffffffffffffffffffffffffffffffffff1673ffffffffffffffffffffffffffffffffffffffff163373ffffffffffffffffffffffffffffffffffffffff1614151561235a576040517f08c379a000000000000000000000000000000000000000000000000000000000815260040180806020018281038252602f8152602001807f4f6e6c792074686520636f6e7472616374206f776e6572206d6179207065726681526020017f6f726d207468697320616374696f6e000000000000000000000000000000000081525060400191505060405180910390fd5b60006002819055506000600360006101000a81548160ff0219169083151502179055507f6adcc7125002935e0aa31697538ebbd65cfddf20431eb6ecdcfc3e238bfd082c60405160405180910390a1565b600080600460009054906101000a900473ffffffffffffffffffffffffffffffffffffffff1673ffffffffffffffffffffffffffffffffffffffff163373ffffffffffffffffffffffffffffffffffffffff161415801561245a5750600560009054906101000a900473ffffffffffffffffffffffffffffffffffffffff1673ffffffffffffffffffffffffffffffffffffffff163373ffffffffffffffffffffffffffffffffffffffff1614155b156124a15733600660006101000a81548173ffffffffffffffffffffffffffffffffffffffff021916908373ffffffffffffffffffffffffffffffffffffffff1602179055505b85600b60019054906101000a900473ffffffffffffffffffffffffffffffffffffffff1673ffffffffffffffffffffffffffffffffffffffff1663eb1edd616040518163ffffffff167c0100000000000000000000000000000000000000000000000000000000028152600401602060405180830381600087803b15801561252857600080fd5b505af115801561253c573d6000803e3d6000fd5b505050506040513d602081101561255257600080fd5b810190808051906020019092919050505073ffffffffffffffffffffffffffffffffffffffff168173ffffffffffffffffffffffffffffffffffffffff161415151561262c576040517f08c379a000000000000000000000000000000000000000000000000000000000815260040180806020018281038252602f8152602001807f43616e6e6f7420706572666f726d207468697320616374696f6e20776974682081526020017f746865206665652061646472657373000000000000000000000000000000000081525060400191505060405180910390fd5b600b60019054906101000a900473ffffffffffffffffffffffffffffffffffffffff1673ffffffffffffffffffffffffffffffffffffffff1663da46e6c4866040518263ffffffff167c010000000000000000000000000000000000000000000000000000000002815260040180828152602001915050602060405180830381600087803b1580156126bd57600080fd5b505af11580156126d1573d6000803e3d6000fd5b505050506040513d60208110156126e757600080fd5b81019080805190602001909291905050509150600760009054906101000a900473ffffffffffffffffffffffffffffffffffffffff1673ffffffffffffffffffffffffffffffffffffffff1663da46098c88600660009054906101000a900473ffffffffffffffffffffffffffffffffffffffff166128ce612772878b61739e90919063ffffffff16565b600760009054906101000a900473ffffffffffffffffffffffffffffffffffffffff1673ffffffffffffffffffffffffffffffffffffffff1663dd62ed3e8e600660009054906101000a900473ffffffffffffffffffffffffffffffffffffffff166040518363ffffffff167c0100000000000000000000000000000000000000000000000000000000028152600401808373ffffffffffffffffffffffffffffffffffffffff1673ffffffffffffffffffffffffffffffffffffffff1681526020018273ffffffffffffffffffffffffffffffffffffffff1673ffffffffffffffffffffffffffffffffffffffff16815260200192505050602060405180830381600087803b15801561288557600080fd5b505af1158015612899573d6000803e3d6000fd5b505050506040513d60208110156128af57600080fd5b8101908080519060200190929190505050616f1b90919063ffffffff16565b6040518463ffffffff167c0100000000000000000000000000000000000000000000000000000000028152600401808473ffffffffffffffffffffffffffffffffffffffff1673ffffffffffffffffffffffffffffffffffffffff1681526020018373ffffffffffffffffffffffffffffffffffffffff1673ffffffffffffffffffffffffffffffffffffffff1681526020018281526020019350505050600060405180830381600087803b15801561298657600080fd5b505af115801561299a573d6000803e3d6000fd5b50505050600c60009054906101000a900473ffffffffffffffffffffffffffffffffffffffff1673ffffffffffffffffffffffffffffffffffffffff1663be57636488600c60149054906101000a90047c010000000000000000000000000000000000000000000000000000000002856040518463ffffffff167c0100000000000000000000000000000000000000000000000000000000028152600401808473ffffffffffffffffffffffffffffffffffffffff1673ffffffffffffffffffffffffffffffffffffffff168152602001837bffffffffffffffffffffffffffffffffffffffffffffffffffffffff19167bffffffffffffffffffffffffffffffffffffffffffffffffffffffff191681526020018281526020019350505050602060405180830381600087803b158015612ad457600080fd5b505af1158015612ae8573d6000803e3d6000fd5b505050506040513d6020811015612afe57600080fd5b810190808051906020019092919050505050612b1c87878787616f3c565b92505050949350505050565b600160009054906101000a900473ffffffffffffffffffffffffffffffffffffffff1681565b6000600760009054906101000a900473ffffffffffffffffffffffffffffffffffffffff1673ffffffffffffffffffffffffffffffffffffffff166370a08231836040518263ffffffff167c0100000000000000000000000000000000000000000000000000000000028152600401808273ffffffffffffffffffffffffffffffffffffffff1673ffffffffffffffffffffffffffffffffffffffff168152602001915050602060405180830381600087803b158015612c0d57600080fd5b505af1158015612c21573d6000803e3d6000fd5b505050506040513d6020811015612c3757600080fd5b81019080805190602001909291905050509050919050565b600c60009054906101000a900473ffffffffffffffffffffffffffffffffffffffff1681565b600160009054906101000a900473ffffffffffffffffffffffffffffffffffffffff1673ffffffffffffffffffffffffffffffffffffffff163373ffffffffffffffffffffffffffffffffffffffff16141515612d60576040517f08c379a00000000000000000000000000000000000000000000000000000000081526004018080602001828103825260358152602001807f596f75206d757374206265206e6f6d696e61746564206265666f726520796f7581526020017f2063616e20616363657074206f776e657273686970000000000000000000000081525060400191505060405180910390fd5b7fb532073b38c83145e3e5135377a08bf9aab55bc0fd7c1179cd4fb995d2a5159c6000809054906101000a900473ffffffffffffffffffffffffffffffffffffffff16600160009054906101000a900473ffffffffffffffffffffffffffffffffffffffff16604051808373ffffffffffffffffffffffffffffffffffffffff1673ffffffffffffffffffffffffffffffffffffffff1681526020018273ffffffffffffffffffffffffffffffffffffffff1673ffffffffffffffffffffffffffffffffffffffff1681526020019250505060405180910390a1600160009054906101000a900473ffffffffffffffffffffffffffffffffffffffff166000806101000a81548173ffffffffffffffffffffffffffffffffffffffff021916908373ffffffffffffffffffffffffffffffffffffffff1602179055506000600160006101000a81548173ffffffffffffffffffffffffffffffffffffffff021916908373ffffffffffffffffffffffffffffffffffffffff160217905550565b600080600c60009054906101000a900473ffffffffffffffffffffffffffffffffffffffff1673ffffffffffffffffffffffffffffffffffffffff163373ffffffffffffffffffffffffffffffffffffffff16149150600b60019054906101000a900473ffffffffffffffffffffffffffffffffffffffff1673ffffffffffffffffffffffffffffffffffffffff163373ffffffffffffffffffffffffffffffffffffffff161490508180612f925750805b151561302c576040517f08c379a000000000000000000000000000000000000000000000000000000000815260040180806020018281038252603f8152602001807f4f6e6c79207468652053796e746865746978206f7220466565506f6f6c20636f81526020017f6e7472616374732063616e20706572666f726d207468697320616374696f6e0081525060400191505060405180910390fd5b600760009054906101000a900473ffffffffffffffffffffffffffffffffffffffff1673ffffffffffffffffffffffffffffffffffffffff1663b46310f68561317586600760009054906101000a900473ffffffffffffffffffffffffffffffffffffffff1673ffffffffffffffffffffffffffffffffffffffff166370a082318a6040518263ffffffff167c0100000000000000000000000000000000000000000000000000000000028152600401808273ffffffffffffffffffffffffffffffffffffffff1673ffffffffffffffffffffffffffffffffffffffff168152602001915050602060405180830381600087803b15801561312c57600080fd5b505af1158015613140573d6000803e3d6000fd5b505050506040513d602081101561315657600080fd5b810190808051906020019092919050505061739e90919063ffffffff16565b6040518363ffffffff167c0100000000000000000000000000000000000000000000000000000000028152600401808373ffffffffffffffffffffffffffffffffffffffff1673ffffffffffffffffffffffffffffffffffffffff16815260200182815260200192505050600060405180830381600087803b1580156131fa57600080fd5b505af115801561320e573d6000803e3d6000fd5b5050505061322783600a5461739e90919063ffffffff16565b600a81905550613239600085856173bf565b61324384846175c7565b50505050565b6000809054906101000a900473ffffffffffffffffffffffffffffffffffffffff1681565b60098054600181600116156101000203166002900480601f0160208091040260200160405190810160405280929190818152602001828054600181600116156101000203166002900480156133045780601f106132d957610100808354040283529160200191613304565b820191906000526020600020905b8154815290600101906020018083116132e757829003601f168201915b505050505081565b6000809054906101000a900473ffffffffffffffffffffffffffffffffffffffff1673ffffffffffffffffffffffffffffffffffffffff163373ffffffffffffffffffffffffffffffffffffffff161415156133f6576040517f08c379a000000000000000000000000000000000000000000000000000000000815260040180806020018281038252602f8152602001807f4f6e6c792074686520636f6e7472616374206f776e6572206d6179207065726681526020017f6f726d207468697320616374696f6e000000000000000000000000000000000081525060400191505060405180910390fd5b80600460006101000a81548173ffffffffffffffffffffffffffffffffffffffff021916908373ffffffffffffffffffffffffffffffffffffffff1602179055507ffc80377ca9c49cc11ae6982f390a42db976d5530af7c43889264b13fbbd7c57e81604051808273ffffffffffffffffffffffffffffffffffffffff1673ffffffffffffffffffffffffffffffffffffffff16815260200191505060405180910390a150565b60008060009054906101000a900473ffffffffffffffffffffffffffffffffffffffff1673ffffffffffffffffffffffffffffffffffffffff163373ffffffffffffffffffffffffffffffffffffffff16141515613589576040517f08c379a000000000000000000000000000000000000000000000000000000000815260040180806020018281038252602f8152602001807f4f6e6c792074686520636f6e7472616374206f776e6572206d6179207065726681526020017f6f726d207468697320616374696f6e000000000000000000000000000000000081525060400191505060405180910390fd5b600360009054906101000a900460ff16151561360d576040517f08c379a000000000000000000000000000000000000000000000000000000000815260040180806020018281038252601f8152602001807f53656c66204465737472756374206e6f742079657420696e697469617465640081525060200191505060405180910390fd5b426224ea006002540110151561368b576040517f08c379a000000000000000000000000000000000000000000000000000000000815260040180806020018281038252601b8152602001807f53656c662064657374727563742064656c6179206e6f74206d6574000000000081525060200191505060405180910390fd5b600360019054906101000a900473ffffffffffffffffffffffffffffffffffffffff1690507f8a09e1677ced846cb537dc2b172043bd05a1a81ad7e0033a7ef8ba762df990b781604051808273ffffffffffffffffffffffffffffffffffffffff1673ffffffffffffffffffffffffffffffffffffffff16815260200191505060405180910390a18073ffffffffffffffffffffffffffffffffffffffff16ff5b600560009054906101000a900473ffffffffffffffffffffffffffffffffffffffff1681565b600080600c60009054906101000a900473ffffffffffffffffffffffffffffffffffffffff1673ffffffffffffffffffffffffffffffffffffffff163373ffffffffffffffffffffffffffffffffffffffff16149150600b60019054906101000a900473ffffffffffffffffffffffffffffffffffffffff1673ffffffffffffffffffffffffffffffffffffffff163373ffffffffffffffffffffffffffffffffffffffff1614905081806138045750805b151561389e576040517f08c379a000000000000000000000000000000000000000000000000000000000815260040180806020018281038252603f8152602001807f4f6e6c79207468652053796e746865746978206f7220466565506f6f6c20636f81526020017f6e7472616374732063616e20706572666f726d207468697320616374696f6e0081525060400191505060405180910390fd5b600760009054906101000a900473ffffffffffffffffffffffffffffffffffffffff1673ffffffffffffffffffffffffffffffffffffffff1663b46310f6856139e786600760009054906101000a900473ffffffffffffffffffffffffffffffffffffffff1673ffffffffffffffffffffffffffffffffffffffff166370a082318a6040518263ffffffff167c0100000000000000000000000000000000000000000000000000000000028152600401808273ffffffffffffffffffffffffffffffffffffffff1673ffffffffffffffffffffffffffffffffffffffff168152602001915050602060405180830381600087803b15801561399e57600080fd5b505af11580156139b2573d6000803e3d6000fd5b505050506040513d60208110156139c857600080fd5b8101908080519060200190929190505050616f1b90919063ffffffff16565b6040518363ffffffff167c0100000000000000000000000000000000000000000000000000000000028152600401808373ffffffffffffffffffffffffffffffffffffffff1673ffffffffffffffffffffffffffffffffffffffff16815260200182815260200192505050600060405180830381600087803b158015613a6c57600080fd5b505af1158015613a80573d6000803e3d6000fd5b50505050613a9983600a54616f1b90919063ffffffff16565b600a81905550613aab846000856173bf565b613ab5848461778e565b50505050565b600460009054906101000a900473ffffffffffffffffffffffffffffffffffffffff1673ffffffffffffffffffffffffffffffffffffffff163373ffffffffffffffffffffffffffffffffffffffff1614158015613b675750600560009054906101000a900473ffffffffffffffffffffffffffffffffffffffff1673ffffffffffffffffffffffffffffffffffffffff163373ffffffffffffffffffffffffffffffffffffffff1614155b15613bae5733600660006101000a81548173ffffffffffffffffffffffffffffffffffffffff021916908373ffffffffffffffffffffffffffffffffffffffff1602179055505b6000809054906101000a900473ffffffffffffffffffffffffffffffffffffffff1673ffffffffffffffffffffffffffffffffffffffff16600660009054906101000a900473ffffffffffffffffffffffffffffffffffffffff1673ffffffffffffffffffffffffffffffffffffffff16141515613c94576040517f08c379a00000000000000000000000000000000000000000000000000000000081526004018080602001828103825260138152602001807f4f776e6572206f6e6c792066756e6374696f6e0000000000000000000000000081525060200191505060405180910390fd5b80600760006101000a81548173ffffffffffffffffffffffffffffffffffffffff021916908373ffffffffffffffffffffffffffffffffffffffff160217905550613cde81617955565b50565b6224ea0081565b60008060006060600460009054906101000a900473ffffffffffffffffffffffffffffffffffffffff1673ffffffffffffffffffffffffffffffffffffffff163373ffffffffffffffffffffffffffffffffffffffff1614158015613d9b5750600560009054906101000a900473ffffffffffffffffffffffffffffffffffffffff1673ffffffffffffffffffffffffffffffffffffffff163373ffffffffffffffffffffffffffffffffffffffff1614155b15613de25733600660006101000a81548173ffffffffffffffffffffffffffffffffffffffff021916908373ffffffffffffffffffffffffffffffffffffffff1602179055505b600660009054906101000a900473ffffffffffffffffffffffffffffffffffffffff16600b60019054906101000a900473ffffffffffffffffffffffffffffffffffffffff1673ffffffffffffffffffffffffffffffffffffffff1663eb1edd616040518163ffffffff167c0100000000000000000000000000000000000000000000000000000000028152600401602060405180830381600087803b158015613e8b57600080fd5b505af1158015613e9f573d6000803e3d6000fd5b505050506040513d6020811015613eb557600080fd5b810190808051906020019092919050505073ffffffffffffffffffffffffffffffffffffffff168173ffffffffffffffffffffffffffffffffffffffff1614151515613f8f576040517f08c379a000000000000000000000000000000000000000000000000000000000815260040180806020018281038252602f8152602001807f43616e6e6f7420706572666f726d207468697320616374696f6e20776974682081526020017f746865206665652061646472657373000000000000000000000000000000000081525060400191505060405180910390fd5b600b60019054906101000a900473ffffffffffffffffffffffffffffffffffffffff1673ffffffffffffffffffffffffffffffffffffffff1663b7fcfa69876040518263ffffffff167c010000000000000000000000000000000000000000000000000000000002815260040180828152602001915050602060405180830381600087803b15801561402057600080fd5b505af1158015614034573d6000803e3d6000fd5b505050506040513d602081101561404a57600080fd5b810190808051906020019092919050505093506140708487616f1b90919063ffffffff16565b9250600c60009054906101000a900473ffffffffffffffffffffffffffffffffffffffff1673ffffffffffffffffffffffffffffffffffffffff1663be576364600660009054906101000a900473ffffffffffffffffffffffffffffffffffffffff16600c60149054906101000a90047c010000000000000000000000000000000000000000000000000000000002866040518463ffffffff167c0100000000000000000000000000000000000000000000000000000000028152600401808473ffffffffffffffffffffffffffffffffffffffff1673ffffffffffffffffffffffffffffffffffffffff168152602001837bffffffffffffffffffffffffffffffffffffffffffffffffffffffff19167bffffffffffffffffffffffffffffffffffffffffffffffffffffffff191681526020018281526020019350505050602060405180830381600087803b1580156141ca57600080fd5b505af11580156141de573d6000803e3d6000fd5b505050506040513d60208110156141f457600080fd5b810190808051906020019092919050505050614234600660009054906101000a900473ffffffffffffffffffffffffffffffffffffffff16888685616f3c565b94505050505092915050565b6000806000600460009054906101000a900473ffffffffffffffffffffffffffffffffffffffff1673ffffffffffffffffffffffffffffffffffffffff163373ffffffffffffffffffffffffffffffffffffffff16141580156142f15750600560009054906101000a900473ffffffffffffffffffffffffffffffffffffffff1673ffffffffffffffffffffffffffffffffffffffff163373ffffffffffffffffffffffffffffffffffffffff1614155b156143385733600660006101000a81548173ffffffffffffffffffffffffffffffffffffffff021916908373ffffffffffffffffffffffffffffffffffffffff1602179055505b86600b60019054906101000a900473ffffffffffffffffffffffffffffffffffffffff1673ffffffffffffffffffffffffffffffffffffffff1663eb1edd616040518163ffffffff167c0100000000000000000000000000000000000000000000000000000000028152600401602060405180830381600087803b1580156143bf57600080fd5b505af11580156143d3573d6000803e3d6000fd5b505050506040513d60208110156143e957600080fd5b810190808051906020019092919050505073ffffffffffffffffffffffffffffffffffffffff168173ffffffffffffffffffffffffffffffffffffffff16141515156144c3576040517f08c379a000000000000000000000000000000000000000000000000000000000815260040180806020018281038252602f8152602001807f43616e6e6f7420706572666f726d207468697320616374696f6e20776974682081526020017f746865206665652061646472657373000000000000000000000000000000000081525060400191505060405180910390fd5b600b60019054906101000a900473ffffffffffffffffffffffffffffffffffffffff1673ffffffffffffffffffffffffffffffffffffffff1663b7fcfa69876040518263ffffffff167c010000000000000000000000000000000000000000000000000000000002815260040180828152602001915050602060405180830381600087803b15801561455457600080fd5b505af1158015614568573d6000803e3d6000fd5b505050506040513d602081101561457e57600080fd5b810190808051906020019092919050505092506145a48387616f1b90919063ffffffff16565b9150600760009054906101000a900473ffffffffffffffffffffffffffffffffffffffff1673ffffffffffffffffffffffffffffffffffffffff1663da46098c89600660009054906101000a900473ffffffffffffffffffffffffffffffffffffffff166147688a600760009054906101000a900473ffffffffffffffffffffffffffffffffffffffff1673ffffffffffffffffffffffffffffffffffffffff1663dd62ed3e8f600660009054906101000a900473ffffffffffffffffffffffffffffffffffffffff166040518363ffffffff167c0100000000000000000000000000000000000000000000000000000000028152600401808373ffffffffffffffffffffffffffffffffffffffff1673ffffffffffffffffffffffffffffffffffffffff1681526020018273ffffffffffffffffffffffffffffffffffffffff1673ffffffffffffffffffffffffffffffffffffffff16815260200192505050602060405180830381600087803b15801561471f57600080fd5b505af1158015614733573d6000803e3d6000fd5b505050506040513d602081101561474957600080fd5b8101908080519060200190929190505050616f1b90919063ffffffff16565b6040518463ffffffff167c0100000000000000000000000000000000000000000000000000000000028152600401808473ffffffffffffffffffffffffffffffffffffffff1673ffffffffffffffffffffffffffffffffffffffff1681526020018373ffffffffffffffffffffffffffffffffffffffff1673ffffffffffffffffffffffffffffffffffffffff1681526020018281526020019350505050600060405180830381600087803b15801561482057600080fd5b505af1158015614834573d6000803e3d6000fd5b50505050600c60009054906101000a900473ffffffffffffffffffffffffffffffffffffffff1673ffffffffffffffffffffffffffffffffffffffff1663be57636489600c60149054906101000a90047c010000000000000000000000000000000000000000000000000000000002856040518463ffffffff167c0100000000000000000000000000000000000000000000000000000000028152600401808473ffffffffffffffffffffffffffffffffffffffff1673ffffffffffffffffffffffffffffffffffffffff168152602001837bffffffffffffffffffffffffffffffffffffffffffffffffffffffff19167bffffffffffffffffffffffffffffffffffffffffffffffffffffffff191681526020018281526020019350505050602060405180830381600087803b15801561496e57600080fd5b505af1158015614982573d6000803e3d6000fd5b505050506040513d602081101561499857600080fd5b8101908080519060200190929190505050506149b688888588616f3c565b9350505050949350505050565b600b60019054906101000a900473ffffffffffffffffffffffffffffffffffffffff1681565b600080600460009054906101000a900473ffffffffffffffffffffffffffffffffffffffff1673ffffffffffffffffffffffffffffffffffffffff163373ffffffffffffffffffffffffffffffffffffffff1614158015614a985750600560009054906101000a900473ffffffffffffffffffffffffffffffffffffffff1673ffffffffffffffffffffffffffffffffffffffff163373ffffffffffffffffffffffffffffffffffffffff1614155b15614adf5733600660006101000a81548173ffffffffffffffffffffffffffffffffffffffff021916908373ffffffffffffffffffffffffffffffffffffffff1602179055505b600660009054906101000a900473ffffffffffffffffffffffffffffffffffffffff16600b60019054906101000a900473ffffffffffffffffffffffffffffffffffffffff1673ffffffffffffffffffffffffffffffffffffffff1663eb1edd616040518163ffffffff167c0100000000000000000000000000000000000000000000000000000000028152600401602060405180830381600087803b158015614b8857600080fd5b505af1158015614b9c573d6000803e3d6000fd5b505050506040513d6020811015614bb257600080fd5b810190808051906020019092919050505073ffffffffffffffffffffffffffffffffffffffff168173ffffffffffffffffffffffffffffffffffffffff1614151515614c8c576040517f08c379a000000000000000000000000000000000000000000000000000000000815260040180806020018281038252602f8152602001807f43616e6e6f7420706572666f726d207468697320616374696f6e20776974682081526020017f746865206665652061646472657373000000000000000000000000000000000081525060400191505060405180910390fd5b600b60019054906101000a900473ffffffffffffffffffffffffffffffffffffffff1673ffffffffffffffffffffffffffffffffffffffff1663da46e6c4866040518263ffffffff167c010000000000000000000000000000000000000000000000000000000002815260040180828152602001915050602060405180830381600087803b158015614d1d57600080fd5b505af1158015614d31573d6000803e3d6000fd5b505050506040513d6020811015614d4757600080fd5b81019080805190602001909291905050509150600c60009054906101000a900473ffffffffffffffffffffffffffffffffffffffff1673ffffffffffffffffffffffffffffffffffffffff1663be576364600660009054906101000a900473ffffffffffffffffffffffffffffffffffffffff16600c60149054906101000a90047c010000000000000000000000000000000000000000000000000000000002856040518463ffffffff167c0100000000000000000000000000000000000000000000000000000000028152600401808473ffffffffffffffffffffffffffffffffffffffff1673ffffffffffffffffffffffffffffffffffffffff168152602001837bffffffffffffffffffffffffffffffffffffffffffffffffffffffff19167bffffffffffffffffffffffffffffffffffffffffffffffffffffffff191681526020018281526020019350505050602060405180830381600087803b158015614eb257600080fd5b505af1158015614ec6573d6000803e3d6000fd5b505050506040513d6020811015614edc57600080fd5b810190808051906020019092919050505050614f1c600660009054906101000a900473ffffffffffffffffffffffffffffffffffffffff16878787616f3c565b925050509392505050565b600360009054906101000a900460ff1681565b600460009054906101000a900473ffffffffffffffffffffffffffffffffffffffff1673ffffffffffffffffffffffffffffffffffffffff163373ffffffffffffffffffffffffffffffffffffffff161480614fe35750600560009054906101000a900473ffffffffffffffffffffffffffffffffffffffff1673ffffffffffffffffffffffffffffffffffffffff163373ffffffffffffffffffffffffffffffffffffffff16145b1515615057576040517f08c379a00000000000000000000000000000000000000000000000000000000081526004018080602001828103825260178152602001807f4f6e6c79207468652070726f78792063616e2063616c6c00000000000000000081525060200191505060405180910390fd5b80600660006101000a81548173ffffffffffffffffffffffffffffffffffffffff021916908373ffffffffffffffffffffffffffffffffffffffff16021790555050565b6000809054906101000a900473ffffffffffffffffffffffffffffffffffffffff1673ffffffffffffffffffffffffffffffffffffffff163373ffffffffffffffffffffffffffffffffffffffff16141515615185576040517f08c379a000000000000000000000000000000000000000000000000000000000815260040180806020018281038252602f8152602001807f4f6e6c792074686520636f6e7472616374206f776e6572206d6179207065726681526020017f6f726d207468697320616374696f6e000000000000000000000000000000000081525060400191505060405180910390fd5b426002819055506001600360006101000a81548160ff0219169083151502179055507fcbd94ca75b8dc45c9d80c77e851670e78843c0d75180cb81db3e2158228fa9a66224ea006040518082815260200191505060405180910390a1565b6000806000600460009054906101000a900473ffffffffffffffffffffffffffffffffffffffff1673ffffffffffffffffffffffffffffffffffffffff163373ffffffffffffffffffffffffffffffffffffffff16141580156152945750600560009054906101000a900473ffffffffffffffffffffffffffffffffffffffff1673ffffffffffffffffffffffffffffffffffffffff163373ffffffffffffffffffffffffffffffffffffffff1614155b156152db5733600660006101000a81548173ffffffffffffffffffffffffffffffffffffffff021916908373ffffffffffffffffffffffffffffffffffffffff1602179055505b600660009054906101000a900473ffffffffffffffffffffffffffffffffffffffff16600b60019054906101000a900473ffffffffffffffffffffffffffffffffffffffff1673ffffffffffffffffffffffffffffffffffffffff1663eb1edd616040518163ffffffff167c0100000000000000000000000000000000000000000000000000000000028152600401602060405180830381600087803b15801561538457600080fd5b505af1158015615398573d6000803e3d6000fd5b505050506040513d60208110156153ae57600080fd5b810190808051906020019092919050505073ffffffffffffffffffffffffffffffffffffffff168173ffffffffffffffffffffffffffffffffffffffff1614151515615488576040517f08c379a000000000000000000000000000000000000000000000000000000000815260040180806020018281038252602f8152602001807f43616e6e6f7420706572666f726d207468697320616374696f6e20776974682081526020017f746865206665652061646472657373000000000000000000000000000000000081525060400191505060405180910390fd5b600b60019054906101000a900473ffffffffffffffffffffffffffffffffffffffff1673ffffffffffffffffffffffffffffffffffffffff1663b7fcfa69876040518263ffffffff167c010000000000000000000000000000000000000000000000000000000002815260040180828152602001915050602060405180830381600087803b15801561551957600080fd5b505af115801561552d573d6000803e3d6000fd5b505050506040513d602081101561554357600080fd5b810190808051906020019092919050505092506155698387616f1b90919063ffffffff16565b9150600c60009054906101000a900473ffffffffffffffffffffffffffffffffffffffff1673ffffffffffffffffffffffffffffffffffffffff1663be576364600660009054906101000a900473ffffffffffffffffffffffffffffffffffffffff16600c60149054906101000a90047c010000000000000000000000000000000000000000000000000000000002856040518463ffffffff167c0100000000000000000000000000000000000000000000000000000000028152600401808473ffffffffffffffffffffffffffffffffffffffff1673ffffffffffffffffffffffffffffffffffffffff168152602001837bffffffffffffffffffffffffffffffffffffffffffffffffffffffff19167bffffffffffffffffffffffffffffffffffffffffffffffffffffffff191681526020018281526020019350505050602060405180830381600087803b1580156156c357600080fd5b505af11580156156d7573d6000803e3d6000fd5b505050506040513d60208110156156ed57600080fd5b81019080805190602001909291905050505061572d600660009054906101000a900473ffffffffffffffffffffffffffffffffffffffff16888588616f3c565b93505050509392505050565b600360019054906101000a900473ffffffffffffffffffffffffffffffffffffffff1681565b6000806060600460009054906101000a900473ffffffffffffffffffffffffffffffffffffffff1673ffffffffffffffffffffffffffffffffffffffff163373ffffffffffffffffffffffffffffffffffffffff16141580156158105750600560009054906101000a900473ffffffffffffffffffffffffffffffffffffffff1673ffffffffffffffffffffffffffffffffffffffff163373ffffffffffffffffffffffffffffffffffffffff1614155b156158575733600660006101000a81548173ffffffffffffffffffffffffffffffffffffffff021916908373ffffffffffffffffffffffffffffffffffffffff1602179055505b600660009054906101000a900473ffffffffffffffffffffffffffffffffffffffff16600b60019054906101000a900473ffffffffffffffffffffffffffffffffffffffff1673ffffffffffffffffffffffffffffffffffffffff1663eb1edd616040518163ffffffff167c0100000000000000000000000000000000000000000000000000000000028152600401602060405180830381600087803b15801561590057600080fd5b505af1158015615914573d6000803e3d6000fd5b505050506040513d602081101561592a57600080fd5b810190808051906020019092919050505073ffffffffffffffffffffffffffffffffffffffff168173ffffffffffffffffffffffffffffffffffffffff1614151515615a04576040517f08c379a000000000000000000000000000000000000000000000000000000000815260040180806020018281038252602f8152602001807f43616e6e6f7420706572666f726d207468697320616374696f6e20776974682081526020017f746865206665652061646472657373000000000000000000000000000000000081525060400191505060405180910390fd5b600b60019054906101000a900473ffffffffffffffffffffffffffffffffffffffff1673ffffffffffffffffffffffffffffffffffffffff1663da46e6c4866040518263ffffffff167c010000000000000000000000000000000000000000000000000000000002815260040180828152602001915050602060405180830381600087803b158015615a9557600080fd5b505af1158015615aa9573d6000803e3d6000fd5b505050506040513d6020811015615abf57600080fd5b81019080805190602001909291905050509250600c60009054906101000a900473ffffffffffffffffffffffffffffffffffffffff1673ffffffffffffffffffffffffffffffffffffffff1663be576364600660009054906101000a900473ffffffffffffffffffffffffffffffffffffffff16600c60149054906101000a90047c010000000000000000000000000000000000000000000000000000000002866040518463ffffffff167c0100000000000000000000000000000000000000000000000000000000028152600401808473ffffffffffffffffffffffffffffffffffffffff1673ffffffffffffffffffffffffffffffffffffffff168152602001837bffffffffffffffffffffffffffffffffffffffffffffffffffffffff19167bffffffffffffffffffffffffffffffffffffffffffffffffffffffff191681526020018281526020019350505050602060405180830381600087803b158015615c2a57600080fd5b505af1158015615c3e573d6000803e3d6000fd5b505050506040513d6020811015615c5457600080fd5b810190808051906020019092919050505050615c94600660009054906101000a900473ffffffffffffffffffffffffffffffffffffffff16878785616f3c565b935050505092915050565b600c60149054906101000a90047c01000000000000000000000000000000000000000000000000000000000281565b6000600760009054906101000a900473ffffffffffffffffffffffffffffffffffffffff1673ffffffffffffffffffffffffffffffffffffffff1663dd62ed3e84846040518363ffffffff167c0100000000000000000000000000000000000000000000000000000000028152600401808373ffffffffffffffffffffffffffffffffffffffff1673ffffffffffffffffffffffffffffffffffffffff1681526020018273ffffffffffffffffffffffffffffffffffffffff1673ffffffffffffffffffffffffffffffffffffffff16815260200192505050602060405180830381600087803b158015615dc157600080fd5b505af1158015615dd5573d6000803e3d6000fd5b505050506040513d6020811015615deb57600080fd5b8101908080519060200190929190505050905092915050565b6000806060600460009054906101000a900473ffffffffffffffffffffffffffffffffffffffff1673ffffffffffffffffffffffffffffffffffffffff163373ffffffffffffffffffffffffffffffffffffffff1614158015615eb55750600560009054906101000a900473ffffffffffffffffffffffffffffffffffffffff1673ffffffffffffffffffffffffffffffffffffffff163373ffffffffffffffffffffffffffffffffffffffff1614155b15615efc5733600660006101000a81548173ffffffffffffffffffffffffffffffffffffffff021916908373ffffffffffffffffffffffffffffffffffffffff1602179055505b85600b60019054906101000a900473ffffffffffffffffffffffffffffffffffffffff1673ffffffffffffffffffffffffffffffffffffffff1663eb1edd616040518163ffffffff167c0100000000000000000000000000000000000000000000000000000000028152600401602060405180830381600087803b158015615f8357600080fd5b505af1158015615f97573d6000803e3d6000fd5b505050506040513d6020811015615fad57600080fd5b810190808051906020019092919050505073ffffffffffffffffffffffffffffffffffffffff168173ffffffffffffffffffffffffffffffffffffffff1614151515616087576040517f08c379a000000000000000000000000000000000000000000000000000000000815260040180806020018281038252602f8152602001807f43616e6e6f7420706572666f726d207468697320616374696f6e20776974682081526020017f746865206665652061646472657373000000000000000000000000000000000081525060400191505060405180910390fd5b600b60019054906101000a900473ffffffffffffffffffffffffffffffffffffffff1673ffffffffffffffffffffffffffffffffffffffff1663da46e6c4866040518263ffffffff167c010000000000000000000000000000000000000000000000000000000002815260040180828152602001915050602060405180830381600087803b15801561611857600080fd5b505af115801561612c573d6000803e3d6000fd5b505050506040513d602081101561614257600080fd5b81019080805190602001909291905050509250600760009054906101000a900473ffffffffffffffffffffffffffffffffffffffff1673ffffffffffffffffffffffffffffffffffffffff1663da46098c88600660009054906101000a900473ffffffffffffffffffffffffffffffffffffffff166163296161cd888b61739e90919063ffffffff16565b600760009054906101000a900473ffffffffffffffffffffffffffffffffffffffff1673ffffffffffffffffffffffffffffffffffffffff1663dd62ed3e8e600660009054906101000a900473ffffffffffffffffffffffffffffffffffffffff166040518363ffffffff167c0100000000000000000000000000000000000000000000000000000000028152600401808373ffffffffffffffffffffffffffffffffffffffff1673ffffffffffffffffffffffffffffffffffffffff1681526020018273ffffffffffffffffffffffffffffffffffffffff1673ffffffffffffffffffffffffffffffffffffffff16815260200192505050602060405180830381600087803b1580156162e057600080fd5b505af11580156162f4573d6000803e3d6000fd5b505050506040513d602081101561630a57600080fd5b8101908080519060200190929190505050616f1b90919063ffffffff16565b6040518463ffffffff167c0100000000000000000000000000000000000000000000000000000000028152600401808473ffffffffffffffffffffffffffffffffffffffff1673ffffffffffffffffffffffffffffffffffffffff1681526020018373ffffffffffffffffffffffffffffffffffffffff1673ffffffffffffffffffffffffffffffffffffffff1681526020018281526020019350505050600060405180830381600087803b1580156163e157600080fd5b505af11580156163f5573d6000803e3d6000fd5b50505050600c60009054906101000a900473ffffffffffffffffffffffffffffffffffffffff1673ffffffffffffffffffffffffffffffffffffffff1663be57636488600c60149054906101000a90047c010000000000000000000000000000000000000000000000000000000002866040518463ffffffff167c0100000000000000000000000000000000000000000000000000000000028152600401808473ffffffffffffffffffffffffffffffffffffffff1673ffffffffffffffffffffffffffffffffffffffff168152602001837bffffffffffffffffffffffffffffffffffffffffffffffffffffffff19167bffffffffffffffffffffffffffffffffffffffffffffffffffffffff191681526020018281526020019350505050602060405180830381600087803b15801561652f57600080fd5b505af1158015616543573d6000803e3d6000fd5b505050506040513d602081101561655957600080fd5b81019080805190602001909291905050505061657787878785616f3c565b93505050509392505050565b600760009054906101000a900473ffffffffffffffffffffffffffffffffffffffff1681565b6060600080600c60009054906101000a900473ffffffffffffffffffffffffffffffffffffffff1673ffffffffffffffffffffffffffffffffffffffff163373ffffffffffffffffffffffffffffffffffffffff16149150600b60019054906101000a900473ffffffffffffffffffffffffffffffffffffffff1673ffffffffffffffffffffffffffffffffffffffff163373ffffffffffffffffffffffffffffffffffffffff16149050818061665d5750805b15156166f7576040517f08c379a000000000000000000000000000000000000000000000000000000000815260040180806020018281038252603f8152602001807f4f6e6c79207468652053796e746865746978206f7220466565506f6f6c20636f81526020017f6e7472616374732063616e20706572666f726d207468697320616374696f6e0081525060400191505060405180910390fd5b61670386868686617b2e565b505050505050565b600460009054906101000a900473ffffffffffffffffffffffffffffffffffffffff1681565b600460009054906101000a900473ffffffffffffffffffffffffffffffffffffffff1673ffffffffffffffffffffffffffffffffffffffff163373ffffffffffffffffffffffffffffffffffffffff16141580156167dd5750600560009054906101000a900473ffffffffffffffffffffffffffffffffffffffff1673ffffffffffffffffffffffffffffffffffffffff163373ffffffffffffffffffffffffffffffffffffffff1614155b156168245733600660006101000a81548173ffffffffffffffffffffffffffffffffffffffff021916908373ffffffffffffffffffffffffffffffffffffffff1602179055505b6000809054906101000a900473ffffffffffffffffffffffffffffffffffffffff1673ffffffffffffffffffffffffffffffffffffffff16600660009054906101000a900473ffffffffffffffffffffffffffffffffffffffff1673ffffffffffffffffffffffffffffffffffffffff1614151561690a576040517f08c379a00000000000000000000000000000000000000000000000000000000081526004018080602001828103825260138152602001807f4f776e6572206f6e6c792066756e6374696f6e0000000000000000000000000081525060200191505060405180910390fd5b80600a8190555050565b600460009054906101000a900473ffffffffffffffffffffffffffffffffffffffff1673ffffffffffffffffffffffffffffffffffffffff163373ffffffffffffffffffffffffffffffffffffffff16141580156169c05750600560009054906101000a900473ffffffffffffffffffffffffffffffffffffffff1673ffffffffffffffffffffffffffffffffffffffff163373ffffffffffffffffffffffffffffffffffffffff1614155b15616a075733600660006101000a81548173ffffffffffffffffffffffffffffffffffffffff021916908373ffffffffffffffffffffffffffffffffffffffff1602179055505b6000809054906101000a900473ffffffffffffffffffffffffffffffffffffffff1673ffffffffffffffffffffffffffffffffffffffff16600660009054906101000a900473ffffffffffffffffffffffffffffffffffffffff1673ffffffffffffffffffffffffffffffffffffffff16141515616aed576040517f08c379a00000000000000000000000000000000000000000000000000000000081526004018080602001828103825260138152602001807f4f776e6572206f6e6c792066756e6374696f6e0000000000000000000000000081525060200191505060405180910390fd5b80600c60006101000a81548173ffffffffffffffffffffffffffffffffffffffff021916908373ffffffffffffffffffffffffffffffffffffffff160217905550616b3781617db6565b50565b600460009054906101000a900473ffffffffffffffffffffffffffffffffffffffff1673ffffffffffffffffffffffffffffffffffffffff1663907dff978260405160200180828152602001915050604051602081830303815290604052600360405180807f417070726f76616c28616464726573732c616464726573732c75696e7432353681526020017f2900000000000000000000000000000000000000000000000000000000000000815250602101905060405180910390208773ffffffffffffffffffffffffffffffffffffffff166001028773ffffffffffffffffffffffffffffffffffffffff1660010260006040518763ffffffff167c0100000000000000000000000000000000000000000000000000000000028152600401808060200187815260200186600019166000191681526020018560001916600019168152602001846000191660001916815260200183600102600019168152602001828103825288818151815260200191508051906020019080838360005b83811015616cd4578082015181840152602081019050616cb9565b50505050905090810190601f168015616d015780820380516001836020036101000a031916815260200191505b50975050505050505050600060405180830381600087803b158015616d2557600080fd5b505af1158015616d39573d6000803e3d6000fd5b50505050505050565b600460009054906101000a900473ffffffffffffffffffffffffffffffffffffffff1673ffffffffffffffffffffffffffffffffffffffff1663907dff9782604051602001808273ffffffffffffffffffffffffffffffffffffffff1673ffffffffffffffffffffffffffffffffffffffff168152602001915050604051602081830303815290604052600160405180807f466565506f6f6c557064617465642861646472657373290000000000000000008152506017019050604051809103902060008060006040518763ffffffff167c010000000000000000000000000000000000000000000000000000000002815260040180806020018781526020018660001916600019168152602001856001026000191681526020018460010260001916815260200183600102600019168152602001828103825288818151815260200191508051906020019080838360005b83811015616eaf578082015181840152602081019050616e94565b50505050905090810190601f168015616edc5780820380516001836020036101000a031916815260200191505b50975050505050505050600060405180830381600087803b158015616f0057600080fd5b505af1158015616f14573d6000803e3d6000fd5b5050505050565b600080838311151515616f2d57600080fd5b82840390508091505092915050565b600080600c60009054906101000a900473ffffffffffffffffffffffffffffffffffffffff1673ffffffffffffffffffffffffffffffffffffffff1663dbd4a4226040518163ffffffff167c0100000000000000000000000000000000000000000000000000000000028152600401602060405180830381600087803b158015616fc557600080fd5b505af1158015616fd9573d6000803e3d6000fd5b505050506040513d6020811015616fef57600080fd5b810190808051906020019092919050505073ffffffffffffffffffffffffffffffffffffffff1663caca2516866040518263ffffffff167c0100000000000000000000000000000000000000000000000000000000028152600401808273ffffffffffffffffffffffffffffffffffffffff1673ffffffffffffffffffffffffffffffffffffffff168152602001915050602060405180830381600087803b15801561709a57600080fd5b505af11580156170ae573d6000803e3d6000fd5b505050506040513d60208110156170c457600080fd5b8101908080519060200190929190505050905060007c010000000000000000000000000000000000000000000000000000000002817bffffffffffffffffffffffffffffffffffffffffffffffffffffffff19161415801561718f5750600c60149054906101000a90047c0100000000000000000000000000000000000000000000000000000000027bffffffffffffffffffffffffffffffffffffffffffffffffffffffff1916817bffffffffffffffffffffffffffffffffffffffffffffffffffffffff191614155b1561738657600c60009054906101000a900473ffffffffffffffffffffffffffffffffffffffff1673ffffffffffffffffffffffffffffffffffffffff1663be0ecd3287600c60149054906101000a90047c01000000000000000000000000000000000000000000000000000000000287858a6040518663ffffffff167c0100000000000000000000000000000000000000000000000000000000028152600401808673ffffffffffffffffffffffffffffffffffffffff1673ffffffffffffffffffffffffffffffffffffffff168152602001857bffffffffffffffffffffffffffffffffffffffffffffffffffffffff19167bffffffffffffffffffffffffffffffffffffffffffffffffffffffff19168152602001848152602001837bffffffffffffffffffffffffffffffffffffffffffffffffffffffff19167bffffffffffffffffffffffffffffffffffffffffffffffffffffffff191681526020018273ffffffffffffffffffffffffffffffffffffffff1673ffffffffffffffffffffffffffffffffffffffff16815260200195505050505050602060405180830381600087803b15801561734457600080fd5b505af1158015617358573d6000803e3d6000fd5b505050506040513d602081101561736e57600080fd5b81019080805190602001909291905050509150617395565b61739286868686617f8f565b91505b50949350505050565b60008082840190508381101515156173b557600080fd5b8091505092915050565b600460009054906101000a900473ffffffffffffffffffffffffffffffffffffffff1673ffffffffffffffffffffffffffffffffffffffff1663907dff978260405160200180828152602001915050604051602081830303815290604052600360405180807f5472616e7366657228616464726573732c616464726573732c75696e7432353681526020017f2900000000000000000000000000000000000000000000000000000000000000815250602101905060405180910390208773ffffffffffffffffffffffffffffffffffffffff166001028773ffffffffffffffffffffffffffffffffffffffff1660010260006040518763ffffffff167c0100000000000000000000000000000000000000000000000000000000028152600401808060200187815260200186600019166000191681526020018560001916600019168152602001846000191660001916815260200183600102600019168152602001828103825288818151815260200191508051906020019080838360005b8381101561755957808201518184015260208101905061753e565b50505050905090810190601f1680156175865780820380516001836020036101000a031916815260200191505b50975050505050505050600060405180830381600087803b1580156175aa57600080fd5b505af11580156175be573d6000803e3d6000fd5b50505050505050565b600460009054906101000a900473ffffffffffffffffffffffffffffffffffffffff1673ffffffffffffffffffffffffffffffffffffffff1663907dff978260405160200180828152602001915050604051602081830303815290604052600260405180807f49737375656428616464726573732c75696e7432353629000000000000000000815250601701905060405180910390208673ffffffffffffffffffffffffffffffffffffffff166001026000806040518763ffffffff167c01000000000000000000000000000000000000000000000000000000000281526004018080602001878152602001866000191660001916815260200185600019166000191681526020018460010260001916815260200183600102600019168152602001828103825288818151815260200191508051906020019080838360005b83811015617721578082015181840152602081019050617706565b50505050905090810190601f16801561774e5780820380516001836020036101000a031916815260200191505b50975050505050505050600060405180830381600087803b15801561777257600080fd5b505af1158015617786573d6000803e3d6000fd5b505050505050565b600460009054906101000a900473ffffffffffffffffffffffffffffffffffffffff1673ffffffffffffffffffffffffffffffffffffffff1663907dff978260405160200180828152602001915050604051602081830303815290604052600260405180807f4275726e656428616464726573732c75696e7432353629000000000000000000815250601701905060405180910390208673ffffffffffffffffffffffffffffffffffffffff166001026000806040518763ffffffff167c01000000000000000000000000000000000000000000000000000000000281526004018080602001878152602001866000191660001916815260200185600019166000191681526020018460010260001916815260200183600102600019168152602001828103825288818151815260200191508051906020019080838360005b838110156178e85780820151818401526020810190506178cd565b50505050905090810190601f1680156179155780820380516001836020036101000a031916815260200191505b50975050505050505050600060405180830381600087803b15801561793957600080fd5b505af115801561794d573d6000803e3d6000fd5b505050505050565b600460009054906101000a900473ffffffffffffffffffffffffffffffffffffffff1673ffffffffffffffffffffffffffffffffffffffff1663907dff9782604051602001808273ffffffffffffffffffffffffffffffffffffffff1673ffffffffffffffffffffffffffffffffffffffff168152602001915050604051602081830303815290604052600160405180807f546f6b656e537461746555706461746564286164647265737329000000000000815250601a019050604051809103902060008060006040518763ffffffff167c010000000000000000000000000000000000000000000000000000000002815260040180806020018781526020018660001916600019168152602001856001026000191681526020018460010260001916815260200183600102600019168152602001828103825288818151815260200191508051906020019080838360005b83811015617ac2578082015181840152602081019050617aa7565b50505050905090810190601f168015617aef5780820380516001836020036101000a031916815260200191505b50975050505050505050600060405180830381600087803b158015617b1357600080fd5b505af1158015617b27573d6000803e3d6000fd5b5050505050565b6000600660149054906101000a900460ff16151515617bb5576040517f08c379a000000000000000000000000000000000000000000000000000000000815260040180806020018281038252601e8152602001807f526576657274656420746f2070726576656e74207265656e7472616e6379000081525060200191505060405180910390fd5b6001600660146101000a81548160ff021916908315150217905550833b90506000811115617d94578373ffffffffffffffffffffffffffffffffffffffff16858484604051602401808473ffffffffffffffffffffffffffffffffffffffff1673ffffffffffffffffffffffffffffffffffffffff16815260200183815260200180602001828103825283818151815260200191508051906020019080838360005b83811015617c72578082015181840152602081019050617c57565b50505050905090810190601f168015617c9f5780820380516001836020036101000a031916815260200191505b509450505050506040516020818303038152906040527fc0ee0b8a000000000000000000000000000000000000000000000000000000007bffffffffffffffffffffffffffffffffffffffffffffffffffffffff19166020820180517bffffffffffffffffffffffffffffffffffffffffffffffffffffffff838183161783525050505060405180828051906020019080838360005b83811015617d50578082015181840152602081019050617d35565b50505050905090810190601f168015617d7d5780820380516001836020036101000a031916815260200191505b509150506000604051808303816000865af1915050505b6000600660146101000a81548160ff0219169083151502179055505050505050565b600460009054906101000a900473ffffffffffffffffffffffffffffffffffffffff1673ffffffffffffffffffffffffffffffffffffffff1663907dff9782604051602001808273ffffffffffffffffffffffffffffffffffffffff1673ffffffffffffffffffffffffffffffffffffffff168152602001915050604051602081830303815290604052600160405180807f53796e74686574697855706461746564286164647265737329000000000000008152506019019050604051809103902060008060006040518763ffffffff167c010000000000000000000000000000000000000000000000000000000002815260040180806020018781526020018660001916600019168152602001856001026000191681526020018460010260001916815260200183600102600019168152602001828103825288818151815260200191508051906020019080838360005b83811015617f23578082015181840152602081019050617f08565b50505050905090810190601f168015617f505780820380516001836020036101000a031916815260200191505b50975050505050505050600060405180830381600087803b158015617f7457600080fd5b505af1158015617f88573d6000803e3d6000fd5b5050505050565b60008073ffffffffffffffffffffffffffffffffffffffff168473ffffffffffffffffffffffffffffffffffffffff1614151515618035576040517f08c379a00000000000000000000000000000000000000000000000000000000081526004018080602001828103825260208152602001807f43616e6e6f74207472616e7366657220746f207468652030206164647265737381525060200191505060405180910390fd5b3073ffffffffffffffffffffffffffffffffffffffff168473ffffffffffffffffffffffffffffffffffffffff16141515156180d9576040517f08c379a000000000000000000000000000000000000000000000000000000000815260040180806020018281038252601f8152602001807f43616e6e6f74207472616e7366657220746f2074686520636f6e74726163740081525060200191505060405180910390fd5b600460009054906101000a900473ffffffffffffffffffffffffffffffffffffffff1673ffffffffffffffffffffffffffffffffffffffff168473ffffffffffffffffffffffffffffffffffffffff161415151561819f576040517f08c379a000000000000000000000000000000000000000000000000000000000815260040180806020018281038252601c8152602001807f43616e6e6f74207472616e7366657220746f207468652070726f78790000000081525060200191505060405180910390fd5b600760009054906101000a900473ffffffffffffffffffffffffffffffffffffffff1673ffffffffffffffffffffffffffffffffffffffff1663b46310f6866182e886600760009054906101000a900473ffffffffffffffffffffffffffffffffffffffff1673ffffffffffffffffffffffffffffffffffffffff166370a082318b6040518263ffffffff167c0100000000000000000000000000000000000000000000000000000000028152600401808273ffffffffffffffffffffffffffffffffffffffff1673ffffffffffffffffffffffffffffffffffffffff168152602001915050602060405180830381600087803b15801561829f57600080fd5b505af11580156182b3573d6000803e3d6000fd5b505050506040513d60208110156182c957600080fd5b8101908080519060200190929190505050616f1b90919063ffffffff16565b6040518363ffffffff167c0100000000000000000000000000000000000000000000000000000000028152600401808373ffffffffffffffffffffffffffffffffffffffff1673ffffffffffffffffffffffffffffffffffffffff16815260200182815260200192505050600060405180830381600087803b15801561836d57600080fd5b505af1158015618381573d6000803e3d6000fd5b50505050600760009054906101000a900473ffffffffffffffffffffffffffffffffffffffff1673ffffffffffffffffffffffffffffffffffffffff1663b46310f6856184ce86600760009054906101000a900473ffffffffffffffffffffffffffffffffffffffff1673ffffffffffffffffffffffffffffffffffffffff166370a082318a6040518263ffffffff167c0100000000000000000000000000000000000000000000000000000000028152600401808273ffffffffffffffffffffffffffffffffffffffff1673ffffffffffffffffffffffffffffffffffffffff168152602001915050602060405180830381600087803b15801561848557600080fd5b505af1158015618499573d6000803e3d6000fd5b505050506040513d60208110156184af57600080fd5b810190808051906020019092919050505061739e90919063ffffffff16565b6040518363ffffffff167c0100000000000000000000000000000000000000000000000000000000028152600401808373ffffffffffffffffffffffffffffffffffffffff1673ffffffffffffffffffffffffffffffffffffffff16815260200182815260200192505050600060405180830381600087803b15801561855357600080fd5b505af1158015618567573d6000803e3d6000fd5b5050505061857785858585617b2e565b6185828585856173bf565b600190509493505050505600a165627a7a72305820791e3777e52a62c5e6a955fd63b2658e7eea9d3a0e93275175816050e63110f90029",
  "source": "/*\n-----------------------------------------------------------------\nFILE INFORMATION\n-----------------------------------------------------------------\n\nfile:       Synth.sol\nversion:    2.0\nauthor:     Kevin Brown\ndate:       2018-09-13\n\n-----------------------------------------------------------------\nMODULE DESCRIPTION\n-----------------------------------------------------------------\n\nSynthetix-backed stablecoin contract.\n\nThis contract issues synths, which are tokens that mirror various\nflavours of fiat currency.\n\nSynths are issuable by Synthetix Network Token (SNX) holders who\nhave to lock up some value of their SNX to issue S * Cmax synths.\nWhere Cmax issome value less than 1.\n\nA configurable fee is charged on synth transfers and deposited\ninto a common pot, which Synthetix holders may withdraw from once\nper fee period.\n\n-----------------------------------------------------------------\n*/\n\npragma solidity 0.4.25;\n\nimport \"./ExternStateToken.sol\";\nimport \"./interfaces/IFeePool.sol\";\nimport \"./Synthetix.sol\";\n\ncontract Synth is ExternStateToken {\n\n    /* ========== STATE VARIABLES ========== */\n\n    IFeePool public feePool;\n    Synthetix public synthetix;\n\n    // Currency key which identifies this Synth to the Synthetix system\n    bytes4 public currencyKey;\n\n    uint8 constant DECIMALS = 18;\n\n    /* ========== CONSTRUCTOR ========== */\n\n    constructor(address _proxy, TokenState _tokenState, Synthetix _synthetix, IFeePool _feePool,\n        string _tokenName, string _tokenSymbol, address _owner, bytes4 _currencyKey\n    )\n        ExternStateToken(_proxy, _tokenState, _tokenName, _tokenSymbol, 0, DECIMALS, _owner)\n        public\n    {\n        require(_proxy != 0, \"_proxy cannot be 0\");\n        require(address(_synthetix) != 0, \"_synthetix cannot be 0\");\n        require(address(_feePool) != 0, \"_feePool cannot be 0\");\n        require(_owner != 0, \"_owner cannot be 0\");\n        require(_synthetix.synths(_currencyKey) == Synth(0), \"Currency key is already in use\");\n\n        feePool = _feePool;\n        synthetix = _synthetix;\n        currencyKey = _currencyKey;\n    }\n\n    /* ========== SETTERS ========== */\n\n    function setSynthetix(Synthetix _synthetix)\n        external\n        optionalProxy_onlyOwner\n    {\n        synthetix = _synthetix;\n        emitSynthetixUpdated(_synthetix);\n    }\n\n    function setFeePool(IFeePool _feePool)\n        external\n        optionalProxy_onlyOwner\n    {\n        feePool = _feePool;\n        emitFeePoolUpdated(_feePool);\n    }\n\n    /* ========== MUTATIVE FUNCTIONS ========== */\n\n    /**\n     * @notice Override ERC20 transfer function in order to\n     * subtract the transaction fee and send it to the fee pool\n     * for SNX holders to claim. */\n    function transfer(address to, uint value)\n        public\n        optionalProxy\n        notFeeAddress(messageSender)\n        returns (bool)\n    {\n        uint amountReceived = feePool.amountReceivedFromTransfer(value);\n        uint fee = value.sub(amountReceived);\n\n        // Send the fee off to the fee pool.\n        synthetix.synthInitiatedFeePayment(messageSender, currencyKey, fee);\n\n        // And send their result off to the destination address\n        bytes memory empty;\n        return _internalTransfer(messageSender, to, amountReceived, empty);\n    }\n\n    /**\n     * @notice Override ERC223 transfer function in order to\n     * subtract the transaction fee and send it to the fee pool\n     * for SNX holders to claim. */\n    function transfer(address to, uint value, bytes data)\n        public\n        optionalProxy\n        notFeeAddress(messageSender)\n        returns (bool)\n    {\n        uint amountReceived = feePool.amountReceivedFromTransfer(value);\n        uint fee = value.sub(amountReceived);\n\n        // Send the fee off to the fee pool, which we don't want to charge an additional fee on\n        synthetix.synthInitiatedFeePayment(messageSender, currencyKey, fee);\n\n        // And send their result off to the destination address\n        return _internalTransfer(messageSender, to, amountReceived, data);\n    }\n\n    /**\n     * @notice Override ERC20 transferFrom function in order to\n     * subtract the transaction fee and send it to the fee pool\n     * for SNX holders to claim. */\n    function transferFrom(address from, address to, uint value)\n        public\n        optionalProxy\n        notFeeAddress(from)\n        returns (bool)\n    {\n        // The fee is deducted from the amount sent.\n        uint amountReceived = feePool.amountReceivedFromTransfer(value);\n        uint fee = value.sub(amountReceived);\n\n        // Reduce the allowance by the amount we're transferring.\n        // The safeSub call will handle an insufficient allowance.\n        tokenState.setAllowance(from, messageSender, tokenState.allowance(from, messageSender).sub(value));\n\n        // Send the fee off to the fee pool.\n        synthetix.synthInitiatedFeePayment(from, currencyKey, fee);\n\n        bytes memory empty;\n        return _internalTransfer(from, to, amountReceived, empty);\n    }\n\n    /**\n     * @notice Override ERC223 transferFrom function in order to\n     * subtract the transaction fee and send it to the fee pool\n     * for SNX holders to claim. */\n    function transferFrom(address from, address to, uint value, bytes data)\n        public\n        optionalProxy\n        notFeeAddress(from)\n        returns (bool)\n    {\n        // The fee is deducted from the amount sent.\n        uint amountReceived = feePool.amountReceivedFromTransfer(value);\n        uint fee = value.sub(amountReceived);\n\n        // Reduce the allowance by the amount we're transferring.\n        // The safeSub call will handle an insufficient allowance.\n        tokenState.setAllowance(from, messageSender, tokenState.allowance(from, messageSender).sub(value));\n\n        // Send the fee off to the fee pool, which we don't want to charge an additional fee on\n        synthetix.synthInitiatedFeePayment(from, currencyKey, fee);\n\n        return _internalTransfer(from, to, amountReceived, data);\n    }\n\n    /* Subtract the transfer fee from the senders account so the\n     * receiver gets the exact amount specified to send. */\n    function transferSenderPaysFee(address to, uint value)\n        public\n        optionalProxy\n        notFeeAddress(messageSender)\n        returns (bool)\n    {\n        uint fee = feePool.transferFeeIncurred(value);\n\n        // Send the fee off to the fee pool, which we don't want to charge an additional fee on\n        synthetix.synthInitiatedFeePayment(messageSender, currencyKey, fee);\n\n        // And send their transfer amount off to the destination address\n        bytes memory empty;\n        return _internalTransfer(messageSender, to, value, empty);\n    }\n\n    /* Subtract the transfer fee from the senders account so the\n     * receiver gets the exact amount specified to send. */\n    function transferSenderPaysFee(address to, uint value, bytes data)\n        public\n        optionalProxy\n        notFeeAddress(messageSender)\n        returns (bool)\n    {\n        uint fee = feePool.transferFeeIncurred(value);\n\n        // Send the fee off to the fee pool, which we don't want to charge an additional fee on\n        synthetix.synthInitiatedFeePayment(messageSender, currencyKey, fee);\n\n        // And send their transfer amount off to the destination address\n        return _internalTransfer(messageSender, to, value, data);\n    }\n\n    /* Subtract the transfer fee from the senders account so the\n     * to address receives the exact amount specified to send. */\n    function transferFromSenderPaysFee(address from, address to, uint value)\n        public\n        optionalProxy\n        notFeeAddress(from)\n        returns (bool)\n    {\n        uint fee = feePool.transferFeeIncurred(value);\n\n        // Reduce the allowance by the amount we're transferring.\n        // The safeSub call will handle an insufficient allowance.\n        tokenState.setAllowance(from, messageSender, tokenState.allowance(from, messageSender).sub(value.add(fee)));\n\n        // Send the fee off to the fee pool, which we don't want to charge an additional fee on\n        synthetix.synthInitiatedFeePayment(from, currencyKey, fee);\n\n        bytes memory empty;\n        return _internalTransfer(from, to, value, empty);\n    }\n\n    /* Subtract the transfer fee from the senders account so the\n     * to address receives the exact amount specified to send. */\n    function transferFromSenderPaysFee(address from, address to, uint value, bytes data)\n        public\n        optionalProxy\n        notFeeAddress(from)\n        returns (bool)\n    {\n        uint fee = feePool.transferFeeIncurred(value);\n\n        // Reduce the allowance by the amount we're transferring.\n        // The safeSub call will handle an insufficient allowance.\n        tokenState.setAllowance(from, messageSender, tokenState.allowance(from, messageSender).sub(value.add(fee)));\n\n        // Send the fee off to the fee pool, which we don't want to charge an additional fee on\n        synthetix.synthInitiatedFeePayment(from, currencyKey, fee);\n\n        return _internalTransfer(from, to, value, data);\n    }\n\n    // Override our internal transfer to inject preferred currency support\n    function _internalTransfer(address from, address to, uint value, bytes data)\n        internal\n        returns (bool)\n    {\n        bytes4 preferredCurrencyKey = synthetix.synthetixState().preferredCurrency(to);\n\n        // Do they have a preferred currency that's not us? If so we need to exchange\n        if (preferredCurrencyKey != 0 && preferredCurrencyKey != currencyKey) {\n            return synthetix.synthInitiatedExchange(from, currencyKey, value, preferredCurrencyKey, to);\n        } else {\n            // Otherwise we just transfer\n            return super._internalTransfer(from, to, value, data);\n        }\n    }\n\n    // Allow synthetix to issue a certain number of synths from an account.\n    function issue(address account, uint amount)\n        external\n        onlySynthetixOrFeePool\n    {\n        tokenState.setBalanceOf(account, tokenState.balanceOf(account).add(amount));\n        totalSupply = totalSupply.add(amount);\n        emitTransfer(address(0), account, amount);\n        emitIssued(account, amount);\n    }\n\n    // Allow synthetix or another synth contract to burn a certain number of synths from an account.\n    function burn(address account, uint amount)\n        external\n        onlySynthetixOrFeePool\n    {\n        tokenState.setBalanceOf(account, tokenState.balanceOf(account).sub(amount));\n        totalSupply = totalSupply.sub(amount);\n        emitTransfer(account, address(0), amount);\n        emitBurned(account, amount);\n    }\n\n    // Allow owner to set the total supply on import.\n    function setTotalSupply(uint amount)\n        external\n        optionalProxy_onlyOwner\n    {\n        totalSupply = amount;\n    }\n\n    // Allow synthetix to trigger a token fallback call from our synths so users get notified on\n    // exchange as well as transfer\n    function triggerTokenFallbackIfNeeded(address sender, address recipient, uint amount)\n        external\n        onlySynthetixOrFeePool\n    {\n        bytes memory empty;\n        callTokenFallbackIfNeeded(sender, recipient, amount, empty);\n    }\n\n    /* ========== MODIFIERS ========== */\n\n    modifier onlySynthetixOrFeePool() {\n        bool isSynthetix = msg.sender == address(synthetix);\n        bool isFeePool = msg.sender == address(feePool);\n\n        require(isSynthetix || isFeePool, \"Only the Synthetix or FeePool contracts can perform this action\");\n        _;\n    }\n\n    modifier notFeeAddress(address account) {\n        require(account != feePool.FEE_ADDRESS(), \"Cannot perform this action with the fee address\");\n        _;\n    }\n\n    /* ========== EVENTS ========== */\n\n    event SynthetixUpdated(address newSynthetix);\n    bytes32 constant SYNTHETIXUPDATED_SIG = keccak256(\"SynthetixUpdated(address)\");\n    function emitSynthetixUpdated(address newSynthetix) internal {\n        proxy._emit(abi.encode(newSynthetix), 1, SYNTHETIXUPDATED_SIG, 0, 0, 0);\n    }\n\n    event FeePoolUpdated(address newFeePool);\n    bytes32 constant FEEPOOLUPDATED_SIG = keccak256(\"FeePoolUpdated(address)\");\n    function emitFeePoolUpdated(address newFeePool) internal {\n        proxy._emit(abi.encode(newFeePool), 1, FEEPOOLUPDATED_SIG, 0, 0, 0);\n    }\n\n    event Issued(address indexed account, uint value);\n    bytes32 constant ISSUED_SIG = keccak256(\"Issued(address,uint256)\");\n    function emitIssued(address account, uint value) internal {\n        proxy._emit(abi.encode(value), 2, ISSUED_SIG, bytes32(account), 0, 0);\n    }\n\n    event Burned(address indexed account, uint value);\n    bytes32 constant BURNED_SIG = keccak256(\"Burned(address,uint256)\");\n    function emitBurned(address account, uint value) internal {\n        proxy._emit(abi.encode(value), 2, BURNED_SIG, bytes32(account), 0, 0);\n    }\n}",
  "sourcePath": "/Users/hz/workspace/synthetix/contracts/Synth.sol",
  "compiler": {
    "name": "solc",
    "version": "0.4.25+commit.59dbf8f1.Emscripten.clang"
  },
  "schemaVersion": "2.0.2",
  "updatedAt": "2019-09-19T02:10:36.502Z"
}